:100000000C948D010C94AE010C94AE010C94AE01D5
:100010000C94AE010C94AE010C94AE010C94AE01A4
:100020000C94AE010C94AE010C94AE010C94AE0194
:100030000C94AE010C94AE010C94A60F0C94AE017E
:100040000C94AE010C94AE010C94AE010C94AE0174
:100050000C941A100C94AE010C94AE010C94AE01E9
:100060000C94AE010C94AE010C94AE010C94AE0154
:100070000C94AE010C94AE010C94AE010C94AE0144
:100080000C94AE010C94AE010C94AE010C94AE0134
:100090000C94AE010C94AE010C94AE010C94AE0124
:1000A0000C94AE010C94AE010C94AE010C94AE0114
:1000B0000C94AE010C94AE010C94E80B0C94060564
:1000C0000C94AE010C944D050C94AE010C94AE0151
:1000D0000C94AE010C94AE010C94AE010C94AE01E4
:1000E0000C94AE010C94AE010C94E90C0C94AE018E
:1000F0000C949E0C0C94AE010C94AE010C94AE01C9
:100100000C94AE010C94AE010C94AE010C94AE01B3
:100110000C94AE010C94AE010C94AE010C9423022D
:100120000C94AE010C94AE010C94AE010C94AE0193
:100130000C94AE010C9450040C94AE010C949704F2
:100140000C94AE010C94AE010C94AE010C94AE0173
:100150000C94AE010C94AE010C94AE010C94AE0163
:100160000C94AE010C94AE010C94AE010C94AE0153
:100170000C94AE010C94AE010C94AE010C94AE0143
:100180000C94AE010C94AE010C94AE010C94AE0133
:100190000C94AE010C94AE010C94AE010C94AE0123
:1001A0000C94AE010C94AE010C94AE010C94AE0113
:1001B0000C94AE010C94AE010C94AE010C94AE0103
:1001C0000C94AE010C94AE010C94AE010C94AE01F3
:1001D0000C94AE010C94AE010C94AE010C94AE01E3
:1001E0000C94AE010C94AE010C94AE010C94AE01D3
:1001F0000C94AE010C94AE010C94AE010C94111E43
:100200000C944E0C0C945F150C946B230C94460CC0
:100210000C94EF1E0C94921D6E616E00696E660068
:1002200000407A10F35A00A0724E18090010A5D4AD
:10023000E80000E87648170000E40B54020000CA0A
:100240009A3B000000E1F505000080969800000050
:1002500040420F000000A0860100000010270000AF
:100260000000E803000000006400000000000A0035
:10027000000000000100000000002C76D888DC6738
:100280004F0823DFC1DFAE59E1B1B796E5E3E45390
:10029000C63AE651997696E8E6C28426EB898C9BAD
:1002A00062ED407C6FFCEFBC9C9F40F2BAA56FA54D
:1002B000F490055A2AF75C936B6CF9676DC11BFCCF
:1002C000E0E40D47FEF520E6B500D0ED902E0300EA
:1002D000943577050080841E080000204E0A000037
:1002E00000C80C333333330F986E12831141EF8DF6
:1002F0002114893BE65516CFFEE6DB18D1844B3836
:100300001BF77C1D901DA4BBE424203284725E2266
:100310008100C9F124ECA1E53D2711241FBECFEFD8
:10032000CDBFDFE9DEBF00E00CBF13E2A0E0B0E22A
:10033000EEE4F7E500E00BBF02C007900D92A03B92
:10034000B107D9F728E6A0EBB3E201C01D92A83BA4
:10035000B207E1F70E94421D0C94A52B0C940000FB
:10036000E0E0F2E081E0808396E0918392E0928386
:1003700093E0948382A343E060E00E942D11809378
:100380009C6890939D6843E060E081E00E942D119D
:1003900080939A6890939B6820E040E050E060E092
:1003A00070E080919C6890919D680C947111CF933E
:1003B000DF93C82FD62F6FEF7FEF80919C689091CD
:1003C0009D680E94AB13C03128F080E197E2DF9175
:1003D000CF910895CC0FCC0FCC0FC0932102D43015
:1003E00080F1D450D43088F783E08093200280914C
:1003F000010280618093010280912102D82BD09369
:100400002102809120028068809320026FEF7FEFAD
:1004100080919A6890919B680E94AB13C0912402CE
:10042000D091250220E040E050E060E070E0809153
:100430009C6890919D680E947111CE01DF91CF91CF
:10044000089582E0D2CF1F920F920FB60F9211241F
:100450000BB60F922F933F934F935F936F937F93BE
:100460008F939F93AF93BF93EF93FF93CF93DF93BC
:100470001F92CDB7DEB71982BE016F5F7F4F8091AB
:100480009A6890919B680E949B12898181110E94B9
:100490004D0F0F90DF91CF91FF91EF91BF91AF91F1
:1004A0009F918F917F916F915F914F913F912F918C
:1004B0000F900BBE0F900FBE0F901F9018950F93CB
:1004C000CF93DF931F921F92CDB7DEB780E8898369
:1004D00081E08A8342E0BE016F5F7F4F89E30E9423
:1004E000840B82E9898301E09E012F5F3F4F41E049
:1004F000B90189E30E94140B89818B3A61F01F9244
:100500008F9380E990E29F938F930E94042B0F902A
:100510000F900F900F9081E889838BED8A8342E0E2
:10052000BE016F5F7F4F89E30E94840B8FE8898350
:1005300083E08A8342E0BE016F5F7F4F89E30E94C0
:10054000840B0F900F90DF91CF910F9108958F92B0
:100550009F92AF92BF92CF92DF92EF92FF920F9352
:100560001F93CF93DF93CDB7DEB72997CDBFDEBF03
:100570004C015B016A01790180E8898383E08A8309
:1005800042E0BE016F5F7F4F89E30E94840B13E955
:10059000198301E09E012F5F3F4F41E0B90189E3DC
:1005A0000E94140B898180FFF3CF84E9898308E0DE
:1005B0009E012F5F3F4F41E0B90189E30E94140B78
:1005C0008114910429F089819A81F40180839183B7
:1005D000A114B10429F08B819C81F5018083918362
:1005E000C114D10429F08D819E81F601808391830D
:1005F000E114F10429F08F819885F70180839183BC
:100600002996CDBFDEBFDF91CF911F910F91FF9053
:10061000EF90DF90CF90BF90AF909F908F90089514
:10062000E0E2F6E088EF828388E5838B848B858B1C
:10063000868B878B0895809128068695869586956A
:100640000895E0E2F6E087E0818380E4808B818B8F
:10065000828BE0E0F6E090E89183878B0895E0E2FA
:10066000F6E09481282F2770922B9483E0E0F6E047
:10067000948188708295807F892B84830895E0E23D
:10068000F6E02481982F9770909592239483E0E070
:10069000F6E0948188708295807F80958923848399
:1006A0000895E0E2F6E09481282F27709227948342
:1006B000E0E0F6E0948188708295807F89278483CA
:1006C0000895E0EAF6E08FE1818320E4248B90E155
:1006D0009583E0E0FBE081E0808333EF318340E00D
:1006E00050E146A357A3E0E4F6E030EC3283268BDA
:1006F00036E63093800147E040938801E0E0F9E07E
:1007000036E03083918358EA538386838783E0E819
:10071000F6E050E35283248B24E720938101409339
:100720008901E0E0FAE03083918399EA938386833C
:10073000878340E068E00E942D1180939E6890932B
:100740009F6822E040E050E064EB73E20C9471118A
:1007500020E1009751F56115710509F451C020930E
:10076000A606813020EF92070CF451C09195819537
:1007700091098093280B9093290B10922A0B1092C9
:100780002B0B161617062CF1613020EF72070CF4B4
:1007900041C071956195710960932C0B70932D0B7D
:1007A00010922E0B10922F0B08952093A606181668
:1007B0001906BCF61092280B1092290B811520E126
:1007C0009207DCF480932A0B90932B0B16161706D6
:1007D000DCF610922C0B10922D0B611580E178073E
:1007E0002CF460932E0B70932F0B08956FEF7FE026
:1007F00060932E0B70932F0B08958FEF9FE0E2CF45
:100800002093A506813020EF92070CF0AFCF81E056
:1008100090EFACCF61E070EFBCCF0F931F93CF93FD
:10082000DF93CDB7DEB72897CDBFDEBF4FEF5FEFC9
:10083000BE016F5F7F4F80919E6890919F680E947C
:10084000571429813A814B815C812115310541057D
:10085000510501F160E778E389E390E00E94A8295F
:1008600089012D813E814F81588521153105410532
:10087000510599F060E778E389E390E00E94A829A8
:10088000B801C9012896CDBFDEBFDF91CF911F917E
:100890000F91089500E010E0E4CF20E030E0F0CFC9
:1008A0001F920F920FB60F9211240BB60F922F9337
:1008B0003F934F935F936F937F938F939F93AF93E8
:1008C000BF93EF93FF93CF93DF931F92CDB7DEB724
:1008D00019821092B4231092B5231092B62310926D
:1008E000B72322E0AE014F5F5F4F64EB73E280916C
:1008F0009E6890919F680E944012898181110E9498
:100900004D0F0F90DF91CF91FF91EF91BF91AF917C
:100910009F918F917F916F915F914F913F912F9117
:100920000F900BBE0F900FBE0F901F9018951F9247
:100930000F920FB60F9211240BB60F922F933F9385
:100940004F935F936F937F938F939F93AF93BF93D7
:10095000EF93FF93CF93DF931F92CDB7DEB719824A
:100960008091560686FF2EC01092560620912809C7
:10097000309129098091B2239091B323820F931F64
:100980008093B2239093B3232091560626FF04C090
:10099000893B2BE09207D0F40F90DF91CF91FF912C
:1009A000EF91BF91AF919F918F917F916F915F91E7
:1009B0004F913F912F910F900BBE0F900FBE0F9054
:1009C0001F90189580E480935606D0CFA0E0B0E049
:1009D0008093B4239093B523A093B623B093B72309
:1009E00022E0AE014F5F5F4F64EB73E280919E683F
:1009F00090919F680E9440121092B2231092B323EC
:100A00008981882349F20E944D0FC6CF1F920F9211
:100A10000FB60F9211240BB60F922F933F934F9363
:100A20005F936F937F938F939F93AF93BF93EF9356
:100A3000FF93CF93DF931F92CDB7DEB71982109249
:100A4000B8231092B9231092BA231092BB2322E04C
:100A5000AE014F5F5F4F64EB73E280919E689091AF
:100A60009F680E944012898181110E944D0F0F9052
:100A7000DF91CF91FF91EF91BF91AF919F918F91B6
:100A80007F916F915F914F913F912F910F900BBE8E
:100A90000F900FBE0F901F9018951F920F920FB6D8
:100AA0000F9211240BB60F922F933F934F935F93A6
:100AB0006F937F938F939F93AF93BF93EF93FF9326
:100AC000CF93DF931F92CDB7DEB7198288E00E94E3
:100AD00051038091940686FF32C0109294062091B3
:100AE000280A3091290A8091B0239091B123820F76
:100AF000931F8093B0239093B1232091940626FFF7
:100B000004C0893B2BE09207F0F4898181110E9497
:100B10004D0F0F90DF91CF91FF91EF91BF91AF916A
:100B20009F918F917F916F915F914F913F912F9105
:100B30000F900BBE0F900FBE0F901F90189580E482
:100B400080939406CCCFA0E0B0E08093B82390933C
:100B5000B923A093BA23B093BB2322E0AE014F5F29
:100B60005F4F64EB73E280919E6890919F680E9452
:100B700040121092B0231092B123C7CF1F93CF938E
:100B8000DF931F921F92CDB7DEB710E8198382E280
:100B90008A8342E0BE016F5F7F4F8CE30E94840B2B
:100BA00019831A8242E0BE016F5F7F4F8CE30E947F
:100BB000840B198387E08A8342E0BE016F5F7F4F19
:100BC0008CE30E94840B0F900F90DF91CF911F91C7
:100BD00008951F93CF93DF931F921F92CDB7DEB777
:100BE00010E8198381E28A8342E0BE016F5F7F4F84
:100BF0008CE30E94840B19831A8242E0BE016F5F6E
:100C00007F4F8CE30E94840B19838FE78A8342E035
:100C1000BE016F5F7F4F8CE30E94840B0F900F909B
:100C2000DF91CF911F910895BF92CF92DF92EF9203
:100C3000FF920F931F93CF93DF93CDB7DEB76197EA
:100C4000CDBFDEBF0E94E9050E94BE058DEBC82E18
:100C500083E2D82E9DEBE92E97E2F92E8E010E5EEF
:100C60001F4F20E4B22EB982FE013296D6018D913B
:100C70008193E017F107D9F741E1BE016F5F7F4F24
:100C80008CE30E94840B80E1C80ED11CEC14FD049F
:100C900051F76196CDBFDEBFDF91CF911F910F91CC
:100CA000FF90EF90DF90CF90BF90089580E094E0A8
:100CB000EDEBF3E2DF019C011D9221503040E1F7A2
:100CC00008959091BC2391111CC087FD19C0603418
:100CD000B8F4962F969596959695E82FF0E020E833
:100CE000929FE00DF11D1124E354FC4D677081E0EB
:100CF00090E001C0880F6A95EAF79081892B808384
:100D000008959130E9F09230D9F787FDF9CF60343A
:100D1000B8F7EFE3F0E0E61BF109F595E795F595F7
:100D2000E795F595E795F695FE2FEE27F795E7956C
:100D30002FE730E0A901481B5109E40FF51FD4CF7C
:100D40008034F0F667FDDCCF982F969596959695B2
:100D5000AFE7B0E0A61BB10940E8949FA00DB11D1C
:100D60001124A354BC4DE82FE77081E090E001C04E
:100D7000880FEA95EAF79C91892B8C9308959091BE
:100D8000BC2391111DC087FD1AC06034C0F4962F9A
:100D9000969596959695E82FF0E020E8929FE00DC5
:100DA000F11D1124E354FC4D677081E090E001C017
:100DB000880F6A95EAF7809590818923808308954A
:100DC0009130E9F09230D9F787FDF9CF6034B8F768
:100DD000EFE3F0E0E61BF109F595E795F595E7956A
:100DE000F595E795F695FE2FEE27F795E7952FE712
:100DF00030E0A901481B5109E40FF51FD3CF80341F
:100E0000F0F667FDDCCF982F969596959695AFE70F
:100E1000B0E0A61BB10940E8949FA00DB11D1124BC
:100E2000A354BC4DE82FE77081E090E001C0880F2B
:100E3000EA95EAF780959C9189238C9308954F92C7
:100E40005F926F927F928F929F92AF92BF92CF925A
:100E5000DF92EF92FF920F931F93CF93DF939091C6
:100E6000BC23911128C02223E1F126E0829FC0011A
:100E7000112420E8629F800D911D112450E0405202
:100E80005109FA01EE0FFF1FEE0FFF1FE40FF51FD0
:100E9000EB54FF4DDC01A354BC4DAC014B5F5F4FE5
:100EA000019621912D9384179507D1F7FC01E35406
:100EB000FC4D108205C09130F9F0923009F46FC0FA
:100EC000DF91CF911F910F91FF90EF90DF90CF9026
:100ED000BF90AF909F908F907F906F905F904F905A
:100EE000089536E0839FC00111248B3791050CF2E1
:100EF0006F5F80E090E0BDCF882E880C880D882E33
:100F0000880C662E660C660C660CC62CD12C37E05D
:100F1000C30ED11CE82CF12C84E0E80EF11C762CD9
:100F200050E040525109AA24A394B12CEA01CC0FFD
:100F3000DD1FCC0FDD1F4C0F5D1FEA01CB54DF4DD1
:100F4000872D8619850102C0000F111F8A95E2F7CF
:100F5000982C09C0892D0E9461069394892D90E0F8
:100F6000E816F906ACF0892D8819FE01E80FF11D8D
:100F7000808190E080239123672D892B59F7892D5B
:100F80000E94BF069394892D90E0E816F9065CF75D
:100F90007394872D90E0C816D90694F691CF582EF9
:100FA000550C850D582E550C662E660C660C660C7D
:100FB000862C912C27E0820E911CE52CF12C34E03C
:100FC000E30EF11C462C50E04052510987E0A82E58
:100FD000B12CCC24C394D12CEA01CC0FDD1FCC0F53
:100FE000DD1F4C0F5D1FEA01CB54DF4D842D8619A8
:100FF0009501281B3109860102C0000F111F2A9597
:10100000E2F7752C09C0872D0E9461067394872D25
:1010100090E0E816F906ACF0872D8519FE01E80F7F
:10102000F11D808190E080239123642D892B59F755
:10103000872D0E94BF067394872D90E0E816F9066D
:101040005CF74394842D90E0881699067CF638CF9F
:10105000813820F4613410F40C941F070895EF9246
:10106000FF920F931F93CF93DF93F82EE42E80917E
:10107000BC23982F9D7F49F0813081F1DF91CF9182
:101080001F910F91FF90EF90089527E02F15B0F377
:10109000FB014081442391F38B010F5F1F4FC0E0A0
:1010A0000EC026E0C29FC00111248B37910574F059
:1010B000F394C1E0F80141918F014423F9F2C13862
:1010C00018F4F0E4FF1520F4EE2059F3CF5FF2CFCF
:1010D0002E2D6F2D8C2F0E941F07F6CFFFE0FF15DE
:1010E00068F2FB014081442349F2EB01219610E0B4
:1010F0000CC026E0129FC0011124CB976CF0F39432
:1011000011E04991442309F4B9CF113818F4F0E4FF
:10111000FF1520F4EE2069F31F5FF3CF2E2D6F2D06
:10112000812F0E941F07F6CF0F931F93CF93DF935A
:1011300000D01F92CDB7DEB78093BC2310E819838F
:101140008EEA8A8342E0BE016F5F7F4F8CE30E948C
:10115000840B198385ED8A831B831C8344E0BE01C5
:101160006F5F7F4F8CE30E94840B198388EA8A8328
:101170001B838FE38C8344E0BE016F5F7F4F8CE362
:101180000E94840B198383ED8A831B831C8244E0B5
:10119000BE016F5F7F4F8CE30E94840B19838DE843
:1011A0008A831B8384E18C8344E0BE016F5F7F4FA1
:1011B0008CE30E94840B198300E40A8342E0BE01A1
:1011C0006F5F7F4F8CE30E94840B198386EA8A83CA
:1011D00042E0BE016F5F7F4F8CE30E94840B198356
:1011E00084EA8A8342E0BE016F5F7F4F8CE30E94F6
:1011F000840B198381EA8A8342E0BE016F5F7F4FCF
:101200008CE30E94840B198388EC8A8342E0BE0140
:101210006F5F7F4F8CE30E94840B198380E28A8387
:1012200042E0BE016F5F7F4F8CE30E94840B198305
:101230001A8242E0BE016F5F7F4F8CE30E94840BF5
:1012400019838AED8A831B8382E18C8344E0BE018B
:101250006F5F7F4F8CE30E94840B198381E88A8340
:101260001B838FE88C8344E0BE016F5F7F4F8CE36C
:101270000E94840B198389ED8A831B8381EF8C8301
:1012800044E0BE016F5F7F4F8CE30E94840B1983A3
:101290008BED8A831B830C8344E0BE016F5F7F4F1D
:1012A0008CE30E94840B19838FEA8A8342E0BE019B
:1012B0006F5F7F4F8CE30E94840B80E094E0EDEB46
:1012C000F3E2DF019C011D9221503040E1F70E94C2
:1012D00014062496CDBFDEBFDF91CF911F910F91F1
:1012E000089590910C2820910B28911123C0422F32
:1012F00050E0FA01E354F84D3FEF30832E3408F507
:10130000811123C0FA01E354F84D40E850E0092E62
:1013100002C0559547950A94E2F74095808148238D
:1013200040839F5F983091F410920C282F5F209398
:101330000B2808952E34A8F78111F3CF422F50E0E7
:10134000E1CF81E080930C28089591E090930C28E0
:10135000089520910B2880910C2895E83FEF08C054
:10136000E22FF0E0E354F84D308381E0915049F0F2
:101370008823B1F38F5F8830C9F72F5F80E09150E9
:10138000B9F720930B2880930C28089580E00E94E1
:10139000710980910C28E0910B28811119C0AE2FA2
:1013A000B0E0A354B84D8FEF8C9382E091E0980F9A
:1013B000882399F19830D1F4EF5FE0930B2881E016
:1013C000F0E0E354F84D9FEF908380930C2808954C
:1013D00091E0980F9830B1F4EF5FE0930B28AE2FB7
:1013E000B0E0A354B84D8FEF8C9392E081E0890F69
:1013F000992331F38830C9F410920C28EF5FE09301
:101400000B280895992359F38E5F883079F6EF5FA2
:10141000E0930B2882E091E001C082E0AE2FB0E0C3
:10142000A354B84D2FEF2C93E3CF80930C2808954D
:1014300080E00E94710980E00E94710980E00E94B2
:10144000710980E00E94710980910C2881110BC004
:10145000E0910B28F0E0E354F84D8FEF808381E0BA
:1014600080930C2808958F5F883041F480910B2879
:1014700010920C288F5F80930B28089580930C287E
:101480000895CF93DF93D82FC8E005C00E94C60906
:10149000DD0FC15039F0D7FFF9CF0E94180ADD0FD8
:1014A000C150C9F7DF91CF910895E0E0F6E080E404
:1014B00081838683E0E6F6E098E09183838BE0EA1F
:1014C000F9E0948380EC858385E0868308958F928C
:1014D0009F92AF92BF92CF92DF92EF92FF920F93C3
:1014E0001F93CF93DF936C017B015A0110920C285C
:1014F00010920B28CDEBD7E20BE018E2FE018FEF44
:10150000819398E2EB30F907D9F70E94A90980E4AA
:10151000809305064601670175015401E4E0AE0EB3
:10152000B11CF40181914F010E94410AF6018191A1
:101530006F010E94410AF70181917F010E94410AD7
:101540008A149B0471F799918091A10985FFFCCFC2
:101550009093A0090C171D07B1F78FE891E0019750
:10156000F1F700C0000080E480930606DF91CF9180
:101570001F910F91FF90EF90DF90CF90BF90AF90B1
:101580009F908F90089580E2809341060895811185
:1015900004C080E280934606089580E28093450669
:1015A00008958BEC8093520088E0809350008091E6
:1015B000510083FFFCCF82EC8093550088E180933B
:1015C00050008091510084FFFCCF88ED84BF84E0FF
:1015D0008093400080E0089510921128E0E8F6E042
:1015E00088E1808B818BE0EAF4E088E7818383E205
:1015F000858381E0848343E060E00E942D11809325
:101600000F289093102820E040E050E060E070E068
:101610000E94711143E060E081E00E942D118093EF
:101620000D2890930E280895CF92DF92EF92FF92AB
:101630000F93CF93DF93C82F6B01D42F79016FEFF6
:101640007FEF80910F28909110280E94AB13C092D9
:101650001828D0921928E0921628F0921728809125
:10166000112881113DC081E080931128CC0FC093D7
:101670001A28D0931528009314281092132810923A
:10168000122880911528811125C080911428882363
:1016900029F080911A2881608093A60468EE73E097
:1016A00080910D2890910E280E94AB1320E040E01D
:1016B00050E060E070E080910F28909110280E9427
:1016C000711181E0DF91CF910F91FF90EF90DF904A
:1016D000CF90089580911A288E7F8093A604DECF44
:1016E00020E040E050E060E070E080910F289091B1
:1016F00010280E94711180E0DF91CF910F91FF902F
:10170000EF90DF90CF9008950F9300E020E030E05D
:101710000E94140B0F910895909115282091142880
:101720008091A40484FD08C080911328891750F08B
:10173000809112288217B8F083E08093A30410925E
:101740001128089580911328E0911828F091192804
:10175000E80FF11D80818093A704809113288F5F8B
:1017600080931328089580911A2881608093A6049D
:101770000895809112288032E0F48091A70490911E
:101780001228E0911628F0911728E90FF11D8083A7
:10179000809112288F5F8093122890911428809155
:1017A0001228891788F087E08093A30410921128EB
:1017B000089583E08093A304109211289091142837
:1017C00080911228891778F782E08093A304089506
:1017D0001F920F920FB60F9211240BB60F922F93F8
:1017E0003F934F935F936F937F938F939F93AF93A9
:1017F000BF93EF93FF93CF93DF931F92CDB7DEB7E5
:1018000019828091A404982F9C70C9F486FD38C079
:1018100087FD39C0109211288091112881111AC0BA
:10182000BE016F5F7F4F80910D2890910E280E941E
:101830009B128981882371F00E944D0F0BC080910B
:10184000A40488608093A404109211288091112828
:10185000882331F30F90DF91CF91FF91EF91BF91EA
:10186000AF919F918F917F916F915F914F913F9138
:101870002F910F900BBE0F900FBE0F901F901895D9
:101880000E948C0BE3CF0E94B90BE0CF8091A10A9C
:1018900087FFFCCF8091A00A90E00895CF93DF935B
:1018A0001F921F92CDB7DEB78A8320E04FEF5FEF24
:1018B000BE016E5F7F4F8091A0689091A1680E94E9
:1018C00071118091A10A85FF0EC040E050E0BE0179
:1018D0006F5F7F4F8091A0689091A1680E94EE1287
:1018E00089818093A00A80E090E00F900F90DF91B3
:1018F000CF91089540E061E08AE00E942D1180932D
:10190000A0689093A168E0E8F6E088E0818384E035
:101910008283E0EAFAE084E1838388E1848383E0E0
:10192000858385EE86838CEB8783E2EBF8E680E0A7
:1019300090E2828393838083918308951F920F9214
:101940000FB60F9211240BB60F922F933F934F9324
:101950005F936F937F938F939F93AF93BF93EF9317
:10196000FF93CF93DF931F921F92CDB7DEB71982FB
:10197000AE014F5F5F4FBE016E5F7F4F8091A068E9
:101980009091A1680E9414158130D1F08981813035
:10199000E9F00F900F90DF91CF91FF91EF91BF9100
:1019A000AF919F918F917F916F915F914F913F91F7
:1019B0002F910F900BBE0F900FBE0F901F90189598
:1019C0008A818093A00A8981813019F70E944D0F86
:1019D000E0CF1F920F920FB60F9211248F93809138
:1019E000A00A8F910F900FBE0F901F9018950F9324
:1019F0001F93CF93DF93EC010E946F1880911B28F7
:101A0000811121C085E298E28093202890932128BB
:101A100010922228109223288FEF9FE380931E2894
:101A200090931F2810921C2810921D28809327281D
:101A3000909328288CE198E280932528909326287B
:101A400081E080931B28209709F464C0AE014C5FAD
:101A50005F4F2396CE3FDF4308F05CC0E091202823
:101A6000F0912128A0E2B8E206C080819181009720
:101A700039F0DF01FC012281338124173507A8F3F7
:101A8000C8E2EC31FC0709F445C0CD91DC91119717
:101A90008E010C5F1F4F808191818D939C93C901B2
:101AA000841B950B8930910500F1BF01640F751FF0
:101AB000DB0112968D939C93139742835383129666
:101AC0002D913C911397A0E2B8E201C0DF01ED91A6
:101AD000FC9111978281938182179307B8F3EB01F0
:101AE000E883F9836D937C939A0180910E20909105
:101AF0000F20821B930B80930E2090930F200E9447
:101B00006B190115110541F0C801DF91CF911F91AB
:101B10000F9108950E946B190E94F11C00E010E0E3
:101B2000C801DF91CF911F910F910895CF93DF935B
:101B3000009721F1EC0124970E946F184A815B8184
:101B4000A0E2B8E201C0DF01ED91FC911197228182
:101B5000338124173507B8F3E883F983CD93DC93F9
:101B600080910E2090910F20480F591F40930E2016
:101B700050930F20DF91CF910C946B19DF91CF918F
:101B8000089580910E2090910F200895FC010396F6
:101B9000818392832FEF3FEF238334838583968362
:101BA0008783908710820895FC011086118608951E
:101BB000CF93DF939C01FB01DC011196CD91DC9169
:101BC0001297C283D3838C819D81848395838C817A
:101BD0009D81DC0112966D937C9313976C837D83BA
:101BE00020873187F90180818F5F8083DF91CF91DA
:101BF0000895CF93DF93EB01488159814F3F2FEF39
:101C0000520701F1DC01139601C0DF011296ED913C
:101C1000FC9113972081318142175307B0F7EA8373
:101C2000FB83C483D583AC83BD831296CD93DC93B1
:101C3000139788879987FC0120812F5F2083DF918C
:101C4000CF910895FC01A781B0851296ED91FC918A
:101C50001397E5CFCF93DF93FC01A085B185228157
:101C6000338184819581E9018C839D838481958171
:101C7000EC012A833B8311962D913C911297E21738
:101C8000F30749F0108611868C9181508C938C91CA
:101C9000DF91CF91089511968D939C931297F2CF77
:101CA00031E1FC013083319722E220833197A3E3B5
:101CB000A083319760833197708331971082319779
:101CC0001082319760E8608331971082319762E02B
:101CD0006083319763E06083319764E0608331977C
:101CE00065E06083319766E06083319767E06083E9
:101CF000319768E06083319769E06083319760E1F4
:101D0000608331973083319732E13083319733E10B
:101D10003083319734E13083319735E13083319727
:101D200036E13083319737E13083319738E13083C2
:101D3000319739E13083319730E23083319731E2A6
:101D4000308331972083319723E22083319740837A
:101D500031975083319726E22083319727E2208301
:101D6000319728E22083319729E22083319720E3BD
:101D70002083319721E3208387970895E0E0F8E0FE
:101D800081E08083868380E09DE786A397A3A0916E
:101D90008C68B0918D68CD91CDBFDD91DEBFFF9194
:101DA000EF91DF91CF91BF91AF919F918F917F91F3
:101DB0006F915F914F913F912F911F910F91FF90E4
:101DC000EF90DF90CF90BF90AF909F908F907F90DB
:101DD0006F905F904F903F902F901F900F900FBE8D
:101DE0000F90089581E008950F920FB6F8940F9226
:101DF0001F9211242F923F924F925F926F927F9287
:101E00008F929F92AF92BF92CF92DF92EF92FF920A
:101E10000F931F932F933F934F935F936F937F93F2
:101E20008F939F93AF93BF93CF93DF93EF93FF93E2
:101E3000A0918C68B0918D680DB60D920EB60D9282
:101E40000E94751AA0918C68B0918D68CD91CDBF1C
:101E5000DD91DEBFFF91EF91DF91CF91BF91AF9107
:101E60009F918F917F916F915F914F913F912F91B2
:101E70001F910F91FF90EF90DF90CF90BF90AF90A8
:101E80009F908F907F906F905F904F903F902F909A
:101E90001F900F900FBE0F9008950F920FB6F894F9
:101EA0000F921F9211242F923F924F925F926F9246
:101EB0007F928F929F92AF92BF92CF92DF92EF92DA
:101EC000FF920F931F932F933F934F935F936F93C3
:101ED0007F938F939F93AF93BF93CF93DF93EF93B2
:101EE000FF93A0918C68B0918D680DB60D920EB6DF
:101EF0000D920E94751AA0918C68B0918D68CD9159
:101F0000CDBFDD91DEBFFF91EF91DF91CF91BF910A
:101F1000AF919F918F917F916F915F914F913F9181
:101F20002F911F910F91FF90EF90DF90CF90BF9076
:101F3000AF909F908F907F906F905F904F903F9069
:101F40002F901F900F900FBE0F9018950F920FB605
:101F5000F8940F921F9211242F923F924F925F920A
:101F60006F927F928F929F92AF92BF92CF92DF92A9
:101F7000EF92FF920F931F932F933F934F935F9393
:101F80006F937F938F939F93AF93BF93CF93DF9381
:101F9000EF93FF93A0918C68B0918D680DB60D9270
:101FA0000EB60D9220912608309127088091A268E4
:101FB0009091A368A091A468B091A568820F931F27
:101FC000A11DB11D8093A2689093A368A093A468FB
:101FD000B093A5680E9491180E94751AA0918C6810
:101FE000B0918D68CD91CDBFDD91DEBFFF91EF91B6
:101FF000DF91CF91BF91AF919F918F917F916F9121
:102000005F914F913F912F911F910F91FF90EF9012
:10201000DF90CF90BF90AF909F908F907F906F9008
:102020005F904F903F902F901F900F900FBE0F909A
:10203000189508951F920F920FB60F9211240F90CA
:102040000FBE0F901F9018950F931F93CF93DF93A0
:10205000EC01042F1A8D4C8D442399F050E00111AE
:1020600018C08A819B810E94AD2A2C8D8A819B8118
:10207000820F911D8A839B832C813D818217930758
:1020800040F51F5F1A8F80E0DF91CF911F910F9174
:1020900008958E819F810E94AD2A8C8D90E091954C
:1020A000819591092E813F81280F391F2E833F830F
:1020B000488159812417350730F42C813D81820FE6
:1020C000931F8E839F830230E1F61111DBCF11E065
:1020D000D9CF888199818A839B831F5F1A8F80E083
:1020E000DF91CF911F910F910895FC01CB01448D99
:1020F000442391F050E066817781640F751F6683F9
:102100007783248135816217730720F060817181A4
:10211000668377830C94AD2A0895EF92FF920F9314
:102120001F93CF938C010FB6F8940F92FC01C68DCC
:102130001C16C4F4FC0181898823A1F07801F1E127
:10214000EF0EF11C06C0C15069F0F80181898823A7
:1021500049F0C7010E949F1A8823A9F30E94581BC7
:10216000C15099F78FEFF801868F0F900FBE0FB611
:10217000F8940F92C58D1C16C4F4F801808588234D
:10218000A1F07801F8E0EF0EF11C06C0C15069F033
:10219000F8018085882349F0C7010E949F1A88238F
:1021A000A9F30E94581BC15099F78FEFF801858F52
:1021B0000F900FBECF911F910F91FF90EF90089558
:1021C0001F93CF93DF93EC01162F892B09F43EC0A8
:1021D0000FB6F8940F92488159818B8D6C8D9A01BE
:1021E000869F200D311D11242C833D831A8E4A8336
:1021F0005B8390E00197689F9001699F300D1124E7
:10220000CA01820F931F8E839F838FEF8D8F8E8FD6
:10221000111113C08885811107C00F900FBE81E096
:10222000DF91CF911F910895CE0108960E949F1AC9
:10223000882399F30E94F40EF0CFCE0108960E94F5
:10224000C60DCE0141960E94C60DE7CF63E071E056
:102250008BE892E20E94271DBBCFFF920F931F9342
:10226000CF93DF93182F062FF42E882399F10023A4
:10227000D1F0109FC001112481960E94F70CEC014F
:10228000009751F08196888399831B8F0C8F61E0B2
:10229000CE010E94E010F8A2CE01DF91CF911F91F4
:1022A0000F91FF90089581E290E00E94F70CEC01FD
:1022B000892B91F3C883D9831B8F0C8F61E0CE01EA
:1022C0000E94E010F8A2CE01DF91CF911F910F91F3
:1022D000FF90089566E771E08BE892E20E94271D67
:1022E000C6CFBF92CF92DF92EF92FF920F931F93D0
:1022F000CF93DF93CDB7DEB72597CDBFDEBF8C017F
:102300006B014C835D83B22E892B09F4B2C0C114DA
:10231000D10409F4A2C0F2E0BF1609F47DC0F801AF
:10232000838D20E07801F8E0EF0EF11C10C06C8185
:102330007D81C7010E947F1AC8010E948D100E94F2
:102340006B19882309F44AC0F801838D21E00FB688
:10235000F8940F92F801928D981708F442C0F2E0B9
:10236000BF1609F43EC08C819D81892B09F460C0A1
:10237000222359F10F900FBE0E946F180FB6F894E8
:102380000F92F801858D8F3F39F1F801868D8F3FCF
:1023900009F10F900FBEBE016C5F7F4FCE01019619
:1023A0000E94011B811148C00FB6F8940F92F801EA
:1023B000928D0F900FBE838D981709F4B8CFC80186
:1023C0000E948D100E946B19BFCFCE0101960E9412
:1023D000F61AD0CF168EDDCF158ED7CF0E94F40E11
:1023E000B3CF4B2DB601C8010E942410F80191898A
:1023F00091112CC0811127C00F900FBE81E025964E
:10240000CDBFDEBFDF91CF911F910F91FF90EF9075
:10241000DF90CF90BF900895F801838D813009F44B
:1024200080CF63EF72E08BE892E20E94271D77CFA6
:102430000F900FBE80E0E3CFC8010E948D100E9474
:102440006B1980E0DCCF0E94F40ED6CFC801419614
:102450000E949F1A882381F2F6CFF801848D882389
:1024600009F459CF62EF72E08BE892E20E94271DD7
:1024700052CF61EF72E08BE892E20E94271D47CFB6
:10248000CF92DF92EF92FF920F931F93CF93DF9340
:10249000EC018B016A01F22E892B09F445C001156C
:1024A0001105C1F182E0F81671F09A8D8B8D9817A5
:1024B000A0F080E0DF91CF911F910F91FF90EF90FE
:1024C000DF90CF9008958B8D813031F065EC73E013
:1024D0008BE892E20E94271D8A8DEE8C4F2DB80169
:1024E000CE010E942410EFEFEE1621F0E394EE8E61
:1024F00081E0E0CF89898823D9F3CE0141960E94FB
:102500009F1A8823A9F3C114D10491F381E0F60145
:102510008083D0CF8C8D882329F264EC73E08BE824
:1025200092E20E94271DBECF63EC73E08BE892E23B
:102530000E94271DB4CF0F931F93CF93DF93EC011D
:102540008B01892B09F443C08C8D81111BC08881BC
:102550009981892B09F18A8D9B8D891768F49E8D4D
:102560008F5F8A8F9F3F19F19F5F9E8F81E0DF9180
:10257000CF911F910F91089580E0DF91CF911F912E
:102580000F91089564E674E08BE892E20E94271DA3
:1025900088819981892BF9F68C819D81892BD9F2CB
:1025A00069E674E08BE892E20E94271DD4CF898906
:1025B0008823E1F2CE0141960E949F1A8823B1F24E
:1025C0000115110599F281E0F8018083D0CF60E612
:1025D00074E08BE892E20E94271DB6CFAF92BF92C3
:1025E000CF92DF92FF920F931F93CF93DF93CDB7DC
:1025F000DEB72597CDBFDEBF8C015B014C835D83C9
:10260000892B09F4A1C0A114B10409F491C020E000
:102610006801F1E1CF0ED11C0FB6F8940F92F801CA
:10262000F28CF1106AC08C819D81892B09F473C0F2
:10263000222309F459C00F900FBE0E946F180FB6E5
:10264000F8940F92F801858D8F3F09F454C0F8017A
:10265000868D8F3F09F44DC00F900FBEBE016C5F99
:102660007F4FCE0101960E94011B811122C00FB63F
:10267000F8940F92F801828D0F900FBE811112C055
:102680006C817D81C6010E947F1AC8010E948D1055
:102690000E946B19882311F021E0BECF0E94F40E36
:1026A00021E0BACFC8010E948D100E946B1921E071
:1026B000B3CFC8010E948D100E946B190FB6F89419
:1026C0000F92F801828D0F900FBE8111E5CF2596F4
:1026D000CDBFDEBFDF91CF911F910F91FF90DF90B3
:1026E000CF90BF90AF900895CE0101960E94F61A48
:1026F000A2CF168EB1CF158EAACFB501C8010E9408
:102700007510FA94F801F28E8085811108C00F903F
:102710000FBE81E0DCCF0F900FBE80E0D8CFC801A4
:1027200008960E949F1A882391F30E94F40EEFCF1F
:10273000F801848D882309F46ACF64E075E08BE8A2
:1027400092E20E94271D63CF60E075E08BE892E281
:102750000E94271D58CFEF92FF920F931F93CF93A4
:10276000DF93CDB7DEB72597CDBFDEBF8C016C837D
:102770007D83892B09F494C0F801848D811180C078
:1027800020E07801F1E1EF0EF11C0FB6F8940F9202
:10279000F801828D811167C08C819D81892B09F49C
:1027A0006BC0222309F456C00F900FBE0E946F1811
:1027B0000FB6F8940F92F801858D8F3F09F451C040
:1027C000F801868D8F3F09F44AC00F900FBEBE01FD
:1027D0006C5F7F4FCE0101960E94011B811122C0C8
:1027E0000FB6F8940F92F801828D0F900FBE8111F1
:1027F00012C06C817D81C7010E947F1AC8010E94AE
:102800008D100E946B19882311F021E0BECF0E9429
:10281000F40E21E0BACFC8010E948D100E946B19FE
:1028200021E0B3CFC8010E948D100E946B190FB632
:10283000F8940F92F801828D0F900FBE8111E5CFB1
:102840002596CDBFDEBFDF91CF911F910F91FF90F5
:10285000EF900895CE0101960E94F61AA5CF168E2C
:10286000B4CF158EADCF8150828F808581110FC07E
:102870000F900FBE81E0E4CF0F900FBE80E0E0CF5D
:1028800065E975E08BE892E20E94271D79CFC801C7
:1028900008960E949F1A882359F30E94F40EE8CFED
:1028A00061E975E08BE892E20E94271D65CFCF9227
:1028B000DF92EF92FF920F931F93CF93DF93CDB7E9
:1028C000DEB72597CDBFDEBF8C016B014C835D83E6
:1028D000892B09F4A2C0C114D10409F492C020E0EC
:1028E0007801F1E1EF0EF11C0FB6F8940F92F801A8
:1028F000828D811169C08C819D81892B09F474C0FE
:10290000222309F458C00F900FBE0E946F180FB613
:10291000F8940F92F801858D8F3F09F453C0F801A8
:10292000868D8F3F09F44CC00F900FBEBE016C5FC7
:102930007F4FCE0101960E94011B811122C00FB66C
:10294000F8940F92F801828D0F900FBE811112C082
:102950006C817D81C7010E947F1AC8010E948D1081
:102960000E946B19882311F021E0BECF0E94F40E63
:1029700021E0BACFC8010E948D100E946B1921E09E
:10298000B3CFC8010E948D100E946B190FB6F89446
:102990000F92F801828D0F900FBE8111E5CF259621
:1029A000CDBFDEBFDF91CF911F910F91FF90EF90D0
:1029B000DF90CF900895CE0101960E94F61AA3CF22
:1029C000168EB2CF158EABCFE680F780B601C80168
:1029D0000E947510F801E682F7828189811108C092
:1029E0000F900FBE81E0DBCF0F900FBE80E0D7CFFE
:1029F000C80141960E949F1A882391F30E94F40E09
:102A0000EFCFF801848D882309F469CF6CE676E076
:102A10008BE892E20E94271D62CF68E676E08BE8A1
:102A200092E20E94271D57CFCF92DF92EF92FF9242
:102A30000F931F93CF93DF93EC017B016A01892BE6
:102A4000B9F1E114F104D1F01A8D11110AC080E03E
:102A5000DF91CF911F910F91FF90EF90DF90CF907A
:102A600008950D8DB701CE010E94751011501A8F77
:102A70000F3F71F00F5F0D8F81E0EACF8C8D8823BF
:102A800019F36CEF76E08BE892E20E94271DDCCF11
:102A90008885882389F3CE0108960E949F1A88238F
:102AA00059F3C114D10441F381E0F6018083D0CF02
:102AB0006BEF76E08BE892E20E94271DC2CF20C028
:102AC0000FB6F8940F92E0914568F0914668C68180
:102AD000D781CE0102960E942A0E809135688150DE
:102AE0008093356880913F68815080933F680F9054
:102AF0000FBE8F89988D0E94960DCE010E94960D73
:102B000080913F688111DCCF80916868823010F03D
:102B10000E94F40E0E94F01CF3CFE0915468F091F3
:102B200055680580F681E02D0680F781E02D8281D1
:102B3000938180932B6890932C680895FF920F9354
:102B40001F93CF93DF93EC01F62E00913368109121
:102B5000346880918C6890918D6802960E942A0E4C
:102B6000CF3F8FEFD807A9F1C00FD11FE0918C683C
:102B7000F0918D68C283D38360918C6870918D6869
:102B8000C017D107C8F080915468909155686E5F66
:102B90007F4F0E94F90D80912B6890912C68C81787
:102BA000D90720F4C0932B68D0932C68DF91CF9184
:102BB0001F910F91FF9008958091526890915368F2
:102BC0006E5F7F4FDF91CF911F910F91FF900C941B
:102BD000F90DFF2049F260918C6870918D686E5FED
:102BE0007F4F86E398E6DF91CF911F910F91FF9081
:102BF0000C94D80D0F931F93CF9310922F682091B0
:102C00002008309121088091A2689091A368A0913A
:102C1000A468B091A568820F931FA11DB11D0091FA
:102C2000246810912568209126683091276808173C
:102C300019072A073B07A0F4E0918C68F0918D6892
:102C400043A154A165A176A1401B510B620B730BEC
:102C5000480F591F6A1F7B1F43A354A365A376A384
:102C60008093246890932568A0932668B093276882
:102C7000E0918C68F0918D680788F08DE02D80815F
:102C80009181A281B381853A954AA54AB54A09F452
:102C90004CC060918C6870918D6880918C68909127
:102CA0008D68675E7F4F0E940C1DC09132688C2F2B
:102CB00090E09C01220F331F220F331F220F331F7E
:102CC000F901E80FF91FE859F749408141110CC09B
:102CD000CC2311F0C150EBCF6CE87BE08FE992E29E
:102CE0000E94271DC150E3CF820F931FDC01A8591A
:102CF000B7491196ED91FC9112970280F381E02D76
:102D00001196ED93FC93129785599749E817F907A7
:102D100059F18681978180938C6890938D68C093D8
:102D20003268CF911F910F91089584819581A6817A
:102D3000B781853A954AA54AB54A09F0AACF808558
:102D40009185A285B385853A954AA54AB54A09F089
:102D5000A0CF84859585A685B785853A954AA54AED
:102D6000B54A09F096CFA1CF0280F381E02D1196EC
:102D7000ED93FC931297CDCF5F926F927F928F92DB
:102D80009F92AF92BF92CF92DF92EF92FF920F93FA
:102D90001F93CF93DF934C01EB015A013901502E61
:102DA000CA010E94F70C8C01892B09F4D6C08CE271
:102DB00090E00E94F70C6C01009709F4CBC0DC0195
:102DC00057960D931C935897209709F4C8C0C801D3
:102DD000A50165EA70E00E94B62AF1E0AF1AB108D9
:102DE000D60157968D919C915897A80EB91EF60161
:102DF00079969E01285F3F4FDE01899181938C91E6
:102E0000882319F0C217D307B9F7F60110A2052DD0
:102E1000043008F099C0D60156960C93E60122962C
:102E2000CE010E94D40DC6010C960E94D40DF6016D
:102E3000C086D18684E090E0801B910984879587C5
:102E4000C28AD38A13A214A215A216A217A210A690
:102E500011A612A613A6A301B401C5010E94500E2B
:102E6000D6018D939C93E114F10419F0F701C0820F
:102E7000D1820FB6F8940F92809135688F5F80935E
:102E8000356880918C6890918D68892B99F080913C
:102E90003168811118C0E0918C68F0918D68D6017D
:102EA00056968C919689891788F0C0928C68D0923A
:102EB0008D680CC0C0928C68D0928D688091356806
:102EC000813009F456C0D60156968C9190912D68A8
:102ED0009F5F90932D68F60191A3909132689817A7
:102EE00080F190E09C01220F331F220F331F220F2D
:102EF000331F820F931FBE01885997490E94D80D36
:102F00000F900FBE80913168882351F0E0918C685A
:102F1000F0918D689689D60156968C919817B0F0ED
:102F200081E0DF91CF911F910F91FF90EF90DF90A3
:102F3000CF90BF90AF909F908F907F906F905F9059
:102F4000089580933268CDCF03E065CF0E94F40EE0
:102F500081E0E7CFC8010E94960D8FEFE2CF60E6D7
:102F600073E08FE992E20E94271DF6018789908D18
:102F70002FCF88E698E60E94C60D81E798E60E946A
:102F8000C60D8AE798E60E94C60D83E898E60E947F
:102F9000C60D8FE598E60E94C60D86E598E60E946C
:102FA000C60D89E498E60E94C60D80E498E60E946A
:102FB000C60D86E398E60E94C60D8FE598E68093DD
:102FC00054689093556886E598E68093526890938C
:102FD0005368F60186897ACFCF93DF93EC01892B72
:102FE00009F43AC080918C6890918D68C817D90710
:102FF00079F10FB6F8940F928A859B8520915468D9
:103000003091556840915268509153680F900FBEAF
:1030100082179307A9F08417950791F028E6863365
:10302000920751F028E68034920771F0892B61F005
:1030300081E0DF91CF9108958C899D89892B99F04A
:1030400082E0DF91CF91089584E0DF91CF910895E0
:1030500080E0DF91CF9108956CE475E08FE992E212
:103060000E94271DBFCF8BA5813051F383E0E1CFB4
:10307000EF92FF920F9389E2E82E88E6F82E00E0A7
:1030800020E030E040E051E063EB72E28FE595E153
:103090000E94BC16813079F08F3F21F00F91FF9094
:1030A000EF90089567E078E08FE992E20F91FF904A
:1030B000EF900C94271DF8942FEF3FEF20932B688F
:1030C00030932C6880933168109233681092346882
:1030D0000E9419100F91FF90EF900C94BE0E8091FA
:1030E00028688F5F8093286808950FB6F8940F9230
:1030F00080913368909134680F900FBE089580914D
:10310000296890912A68009709F008956AEE79E09D
:103110008FE992E20E94271D8091296890912A6888
:103120000895DF92EF92FF920F931F93CF93DF9357
:10313000809128688111B9C0E0903368F0903468BC
:103140008FEFE81AF80AE0923368F0923468E114DD
:10315000F10449F5E0915468F0915568808181113E
:10316000ABC080915468909155682091526830911D
:1031700053682093546830935568809352689093B5
:10318000536880912E688F5F80932E68E091546819
:10319000F09155688081811196C08FEF9FEF8093E9
:1031A0002B6890932C6880912B6890912C68D12C7F
:1031B000E816F90608F453C0E0915468F091556898
:1031C0008081882309F445C0E0915468F0915568E6
:1031D0000580F681E02DC681D7818A819B81E81622
:1031E000F90608F473C08E010E5F1F4FC8010E94DC
:1031F0002A0E8C899D89892B21F0CE010C960E9484
:103200002A0E8E8990913268981710F48093326854
:1032100090E09C01220F331F220F331F220F331F18
:10322000820F931FB801885997490E94D80DE091E9
:103230008C68F0918D689E898689981708F4BCCFB8
:10324000DD24D394E0915468F09155688081811118
:10325000BBCF8FEF9FEF80932B6890932C68E0910A
:103260008C68F0918D68868990E0FC01EE0FFF1F5D
:10327000EE0FFF1FEE0FFF1F8E0F9F1FFC01E8597F
:10328000F7498081823010F0DD24D39480912F683B
:10329000882311F0DD24D3948D2DDF91CF911F91E0
:1032A0000F91FF90EF90DF900895809130688F5FCD
:1032B00080933068D12CEACF66E67AE08FE992E21B
:1032C0000E94271D4ECF0E948D156DCF80932B68D5
:1032D00090932C68C4CFFF920F931F93CF93DF93EB
:1032E00080912868882309F477C00FB6F8940F926C
:1032F0008091286881508093286880912868811186
:1033000062C080913568882309F45DC0C0E0D0E0D8
:10331000FF24F394809149688823A1F1E0914E68DD
:10332000F0914F68C681D781CE010C960E942A0E7B
:103330008E010E5F1F4FC8010E942A0E8E89909148
:103340003268981710F48093326890E09C01220F45
:10335000331F220F331F220F331F820F931FB80119
:10336000885997490E94D80DE0918C68F0918D683A
:103370009E898689981770F2F0922F68809149682B
:103380008111CCCFCD2B69F0E0915468F091556854
:10339000808181112CC08FEF9FEF80932B689093D9
:1033A0002C68C0913068CC2351F0D1E00E94911874
:1033B0008111D0932F68C150C9F710923068809165
:1033C0002F68811110C080E00F900FBEDF91CF9168
:1033D0001F910F91FF9008956CE678E08FE992E2DB
:1033E0000E94271D82CF0E94F40E81E0EDCF0E9443
:1033F0008D15D7CF0F931F93CF93DF938C01EB01E4
:10340000892B09F446C02097E9F180912868811141
:1034100032C0809128688F5F80932868409133681C
:1034200050913468F80120813181CE01820F931FC1
:103430004217530788F48217930788F0F8018083B6
:1034400091830E946B19811102C00E94F40EDF91DA
:10345000CF911F910F9108958217930718F0481785
:10346000590760F7F8018083918360E0841B950B16
:103470000E949E15E6CF6CEC74E08FE992E20E9408
:10348000271DC7CF6BEC74E08FE992E20E94271DE5
:10349000BCCF6AEC74E08FE992E20E94271DB3CFA3
:1034A000CF93DF93EC01892B29F40E94F40EDF9176
:1034B000CF91089580912868811110C0809128686B
:1034C0008F5F8093286860E0CE010E949E150E9465
:1034D0006B19882351F3DF91CF91089560E275E075
:1034E0008FE992E20E94271DE9CF8091286881111F
:1034F00002C00C94FA1581E080932F6808950F9311
:103500001F93CF93DF93EC018B01892B89F060919E
:103510008C6870918D68645F7F4FCE010E94F90DB9
:1035200061E0C801DF91CF911F910F910C949E151E
:1035300063EA7BE08FE992E20E94271DE8CF0F93B8
:103540001F93CF93DF93DC011596ED91FC911697B5
:10355000C681D781209709F442C08E01045F1F4FB6
:10356000C8010E942A0E80912868811129C00A5042
:103570001109C8010E942A0E8E899091326898170D
:1035800028F190E09C01220F331F220F331F220FDE
:10359000331F820F931FB801885997490E94D80D95
:1035A000E0918C68F0918D689E898689891788F4EE
:1035B00081E080932F68DF91CF911F910F91089543
:1035C000B80189E498E60E94D80DEACF809332686A
:1035D000D8CF80E0DF91CF911F910F9108956EEFCA
:1035E0007BE08FE992E20E94271DB7CF20912E68E1
:1035F000FC01208320913368309134682183328329
:1036000008950F931F93CF93DF93EC018B01892BC8
:1036100009F440C00115110509F443C00FB6F89430
:103620000F928091336890913468F8012081318144
:103630002F3FFFEF3F0761F149815A8160912E686A
:103640007881761719F08417950780F4841B950B01
:103650008217930768F0F8011082118281E00F90C1
:103660000FBEDF91CF911F910F91089581E0F7CFA9
:10367000281B390BF8012083318380912E688883C1
:10368000809133689091346889839A8380E0E7CF92
:1036900080E0E5CF69E67CE08FE992E20E94271D99
:1036A000B9CF6AE67CE08FE992E20E94271DB6CF8F
:1036B00081E080932F680895FF920F931F93CF931B
:1036C000DF938C01EB01F42E892B09F461C0088390
:1036D0001983C80149968A839B83D80156968C9199
:1036E00056978E8357968D919C9158978C879D877E
:1036F00091968C9191978C831F8293968D919D9139
:103700000D90BC91A02D88879987AA87BB8725300B
:1037100009F443C080918C6890918D68081719074F
:1037200009F440C02D83233021F1FF20D1F0D801CE
:103730005796ED91FC9158978081853AA9F531967D
:1037400080E090E0DC010196A11DB11D2191253A98
:10375000D1F38E879F87DF91CF911F910F91FF90BB
:1037600008951E861F86DF91CF911F910F91FF90C4
:103770000895809128688F5F80932868F801848974
:103780009589892B11F082E08D830E946B19CDCF32
:1037900000918C6810918D689ACFC8010E94EC1737
:1037A0008D83C3CF1D82C1CF80E090E0D2CF8F92B6
:1037B0009F92AF92BF92CF92DF92EF92FF920F93C0
:1037C0001F93CF93DF935C018B01D42FDB01119604
:1037D000ED91FC9112970280F381E02D1196ED930B
:1037E000FC9312977B01B3E0EB0EF11CEE15FF0585
:1037F000E1F1C680D780C0E016C086809780B50111
:10380000B0E1CB9F600D711D11242D2F41E0C4014B
:103810000E945C1BCF5FC814D904C9F0D80111966F
:10382000ED91FC9112970280F381E02DD801119661
:10383000ED93FC931297EE16FF06F9F61596ED91AF
:10384000FC9116971196ED93FC931297D6CF8C2F7F
:10385000DF91CF911F910F91FF90EF90DF90CF906C
:10386000BF90AF909F908F9008950280F381E02DDC
:10387000C0CFEF92FF920F931F93CF93DF938C01F2
:103880007A01809128688F5F8093286880913568DD
:10389000681708F463C0C4E0D0E0C1506C2F70E03A
:1038A000CB01880F991F880F991F880F991F680FE8
:1038B000791FFB01E859F7498081811144C080E0FC
:1038C000D80FC111EACFE0915468F091556880811A
:1038D000811146C080E0D80FE0915268F0915368A2
:1038E0008081811150C080E0D80F809140688111A3
:1038F0005AC080E0D80F80913668811165C080E0A1
:10390000D80FE114F104A9F020912008309121088A
:103910008091A2689091A368A091A468B091A568D5
:10392000820F931FA11DB11DF70180839183A28394
:10393000B3830E946B198D2FDF91CF911F910F914F
:10394000FF90EF90089541E0BF01C80120E1D29FB0
:10395000800D911D11240E94D71BB2CFD0E0E9CF7A
:1039600042E0BF01C801E0E1DE9F800D911D1124FE
:103970000E94D71BD80FE0915268F0915368808164
:10398000882309F4B0CF42E0BF01C801F0E1DF9F16
:10399000800D911D11240E94D71BD80F8091406883
:1039A000882309F4A6CF44E060E478E6C80120E16A
:1039B000D29F800D911D11240E94D71BD80F80919A
:1039C0003668882309F49BCF43E066E378E6C801B4
:1039D000E0E1DE9F800D911D11240E94D71B90CF46
:1039E000089580E880930106F894809305062FEFF0
:1039F00033EC99E0215030409040E1F700C00000E6
:103A0000809306062FEF33EC99E021503040904030
:103A1000E1F700C00000E9CF80E880930106F89448
:103A2000809305062FEF33ED90E321503040904016
:103A3000E1F700C00000809306062FEF33ED90E31E
:103A4000215030409040E1F700C00000E9CF80E80D
:103A500080930106F894809305062FEF33EC99E0EC
:103A6000215030409040E1F700C0000080930606EE
:103A70002FEF33ED90E3215030409040E1F700C04C
:103A80000000E9CFCF93DF93CDB7DEB72C97CDBF42
:103A9000DEBF0E94D10A0E947A0C0E94EC0A0E94AA
:103AA00010030E9421030E94C30A0E94550A0E942B
:103AB000B00181E00E94C70A87E08093A200789459
:103AC0002FEF89EF90E0215080409040E1F700C057
:103AD00000008FEF89871A861B868C871D828E8354
:103AE0001F82888719821A828B838C83AE014F5F75
:103AF0005F4FBE016B5F7F4FCE0109960E94670A40
:103B00000E942A200E94CB1D0E94F01F0E94AB1E23
:103B10000E94381880E090E02C96CDBFDEBFDF9188
:103B2000CF910895CF93DF93CDB7DEB72A97CDBF5E
:103B3000DEBF87E00E942F030E94751889879A874D
:103B400064E080E00E94D70189839A8364E081E089
:103B50000E94D7018B839C8364E082E00E94D7019E
:103B60008D839E8364E083E00E94D7018F839887D2
:103B700022E040E050E0BE016F5F7F4F8091A66879
:103B80009091A7680E9471116AE070E0CE010996D9
:103B90000E94FA19D5CFEF92FF920F9340E068E0B0
:103BA00081E00E942D118093A6689093A768E12C74
:103BB000F12C02E020E030E040E052E062EE72E200
:103BC00082E99DE10E94BC160F91FF90EF9008954D
:103BD000CF93DF93CDB7DEB76097CDBFDEBF4FEF9A
:103BE0005FEFBE01675F7F4F8091A6689091A768E5
:103BF0000E94571488E0FE013996DE01119601906B
:103C00000D928A95E1F729813A814B815C816D8122
:103C10007E818F8198856096CDBFDEBFDF91CF9189
:103C20000895CF93DF93CDB7DEB72A97CDBFDEBF20
:103C30006FEF7FEF80919068909191680E94AB1335
:103C40008091A8689091A968A091AA68B091AB688A
:103C50008093926890939368A0939468B0939568CA
:103C60000E94751889879A8718C0C501B4010E94FF
:103C7000B324C7010E941A2060E070E080918E6832
:103C800090918F680E94AB13813009F45DC06AE0A7
:103C900070E0CE0109960E94FA198AE290E00E9433
:103CA000182B0E94E81D29833A836D837E836981E6
:103CB0007A818D819E81681B790B809196689091A5
:103CC0009768680F791F072E000C880B990B0E94CC
:103CD000EB242AE037ED43EA5DE30E949B254B018C
:103CE0005C01C0909268D0909368E0909468F090E6
:103CF0009568A70196010E94D0232B013C01A501E4
:103D00009401C701B6010E94CF234B015C0120E062
:103D100030E0A901C301B2010E943C2487FF0EC01C
:103D2000E12CF12C20E030E0A901C501B4010E9492
:103D30003C2487FF9ACF60E070E09BCFC301B201C3
:103D40000E94B3247B01EECF60E070E080E090E061
:103D50000E941A206DCFEF92FF920F9343E060E034
:103D600081E00E942D11809390689093916843E0C8
:103D700060E081E00E942D1180938E6890938F689F
:103D8000E12CF12C02E020E030E040E052E066EE71
:103D900072E281E19EE10E94BC160F91FF90EF90CC
:103DA00008956093A8687093A9688093AA68909317
:103DB000AB6820E040E050E060E070E08091906807
:103DC000909191680C94711120E040E050E060E027
:103DD00070E080918E6890918F680C947111CF93F0
:103DE000DF93CDB7DEB72C97CDBFDEBF0E9475182D
:103DF0008D839E83C12CD12C7601212C312C210165
:103E0000C0C01B862B813C8137FDDCC01C863C0179
:103E1000681879084F8158854F3F5F4F49F0A301DB
:103E2000072C000C660B770B240E351E461E571E02
:103E30003F932F939F938F938EEE92E29F938F9356
:103E40000E94042BD201C1010F900F900F900F9090
:103E50000F900F90211440E634064FEF44065406AD
:103E600024F480E090E6AFEFBFEF1C012D0181301C
:103E7000904AA105B1052CF0212C40EA342E412CAA
:103E8000512CB301660F771F072E000C880B990B7E
:103E90000E94EB246F83788789879A87C201B101DA
:103EA0000E94EB242AE939E949E95EE30E949B2557
:103EB0009B01AC016F81788589859A850E94D0230A
:103EC0000E94B3243B0177FD88C06B85662319F0FF
:103ED0007194619471086B817C816A197B090F3F31
:103EE0001F4F49F0CB01072E000CAA0BBB0BC80ECD
:103EF000D91EEA1EFB1EC11490E6D9069FEFE90603
:103F0000F90634F4C12C20E6D22EEE24EA94FE2CDD
:103F100021E0C21620EAD206E104F1042CF0C12C03
:103F200090EAD92EE12CF12C660F771F072E000C9A
:103F3000880B990B0E94EB244B015C01C701B60171
:103F40000E94EB242AE939E949E95EE30E949B25B6
:103F50009B01AC01C501B4010E94D0230E94B3248F
:103F600077FD38C04C85442319F07195619571092E
:103F7000C3010E94A8036AE070E0CE0105960E948A
:103F8000FA190E940D044B015C016F83788785014B
:103F90004FEF5FEFBE016F5F7F4F8091B0689091F0
:103FA000B1680E94571489819A8197FF2ACF919511
:103FB0008195910989839A8321E02B872B813C810C
:103FC00037FF24CF3195219531092B833C8341E084
:103FD0004C871DCF60E070E0C5CF612C712C75CF90
:103FE000EF92FF920F930E946103E12CF12C03E00A
:103FF00020E030E040E051E067EF72E28FEE9EE1BA
:104000000E94BC1640E064E081E00E942D11809384
:10401000B0689093B168ECEAF8E6108211821282DF
:10402000138222E040E050E0BF010F91FF90EF903B
:104030000C947111ECEAF8E68083918362837383B8
:1040400022E040E050E0BF018091B0689091B168FB
:104050000C947111EF92FF920F93E12CF12C02E07E
:1040600020E030E040E052E06EEF72E28BE693E257
:104070000E94BC160F91FF90EF9008951F93CF936D
:10408000DF93D091996815E01D0F0E9456061D1709
:1040900078F0CD2F80E1C89FB0011124605F7F4D83
:1040A00040E08C2F8D1B0E942F08CF5F1C1790F7CC
:1040B0006091986880919968681B20E04AE280E0EE
:1040C0000E942808DF91CF911F910C9414062F9223
:1040D0003F924F925F926F927F928F929F92AF9298
:1040E000BF92CF92DF92EF92FF920F931F93CF93E5
:1040F000DF93CDB7DEB7C459D109CDBFDEBF8CE2A7
:1041000091E00E94501A412C512C3201812C912CAB
:10411000540180E1282E83E2382E8E010F591F4F63
:1041200093C00E94560640E066E073E280E00E9481
:104130002F080E94C10D20E42F931F929F938F930D
:104140003F922F921F930F930E941E2B40E0B801C5
:1041500081E00E942F08AE014F565F4F66E0CE010E
:1041600001960E94391C1F928F9388E193E29F93DE
:104170008F931F930F930E941E2B40E0B80182E0A3
:104180000E942F080E947F1825E040E0BE016F5773
:104190007F4F0E945C1BC757DF4FC880D980EA80E1
:1041A000FB80C958D040C701B6016419750986095A
:1041B00097090E94E9242B013C01CF56DF4F8881EB
:1041C0009981AA81BB81C159D040BC01CD01681938
:1041D00079098A099B090E94E9249B01AC01C3016A
:1041E000B2010E9441249B01AC0160E070E080E8D4
:1041F0009FE30E94CF2320E030E048EC52E40E948D
:104200009B259F938F937F936F938BE293E29F9372
:104210008F931F930F930E941E2B40E0B80183E001
:104220000E942F080E941406CF56DF4F8880998085
:10423000AA80BB80C159D0408CE291E00E94501A04
:10424000CDBFDEBF260137010E941B0384FF69CF6B
:10425000CC56DF4FCDBFDEBFDF91CF911F910F91C5
:10426000FF90EF90DF90CF90BF90AF909F908F9096
:104270007F906F905F904F903F902F9008952F9276
:104280003F924F925F926F927F928F929F92AF92E6
:10429000BF92CF92DF92EF92FF920F931F93CF9333
:1042A000DF93CDB7DEB7A197CDBFDEBF8CE291E043
:1042B0000E94501A88E5C82E82E0D82E98E5E92E93
:1042C00092E0F92E8E010F5F1F4F2AE3822E23E228
:1042D000922E32E4A32E33E2B32E42E5242E43E2A3
:1042E000342E0AC0B601C7010E941A200E9414068B
:1042F0008CE291E00E94501A0E940D04462E79A390
:10430000682E592E0E941B03782E0E945606FF929B
:10431000EF929F928F921F930F930E941E2B40E06B
:10432000B80180E00E942F08DF92CF92BF92AF9237
:104330001F930F930E941E2B40E0B80181E00E9462
:104340002F0829A12F934F928AE493E29F938F9392
:104350001F930F930E941E2B40E0B80182E00E9441
:104360002F085F926F923F922F921F930F930E949C
:104370001E2B40E0B80183E00E942F08CDBFDEBFB6
:1043800070FE03C094E6E90EF11C72FE03C024E641
:10439000E21AF10873FE03C084E6C80ED11C71FE58
:1043A00003C094E6C91AD10874FE9CCF60E070E0A7
:1043B00080E090E00E941A208CE291E00E94501A66
:1043C000A196CDBFDEBFDF91CF911F910F91FF90DE
:1043D000EF90DF90CF90BF90AF909F908F907F90A5
:1043E0006F905F904F903F902F9008957F928F92A3
:1043F0009F92AF92BF92CF92DF92EF92FF920F9374
:104400001F93CF93DF93CDB7DEB7A897CDBFDEBFA5
:1044100082E00E942F038CE291E00E94501A8E01EC
:104420000F5F1F4F8AE5882E83E2982E9FE5A92E05
:1044300093E2B92E24E6C22E23E2D22E39E6E32EF1
:1044400033E2F32E06C00E9414068CE291E00E9433
:10445000501A0E941B03782E0E9456069E012F5D63
:104460003F4FAE014D5D5F4FBE016B5D7F4FCE0193
:1044700087960E94A70288A58F938FA18F939F9202
:104480008F921F930F930E941E2B40E0B80180E093
:104490000E942F088EA18F938DA18F93BF92AF9210
:1044A0001F930F930E941E2B40E0B80181E00E94F1
:1044B0002F088CA18F938BA18F93DF92CF921F93A4
:1044C0000F930E941E2B40E0B80182E00E942F084B
:1044D0008AA18F9389A18F93FF92EF921F930F93DD
:1044E0000E941E2B40E0B80183E00E942F08CDBF40
:1044F000DEBF74FEA8CF8CE291E00E94501A82E0E9
:104500000E943F03A896CDBFDEBFDF91CF911F91E0
:104510000F91FF90EF90DF90CF90BF90AF909F9062
:104520008F907F9008952F923F924F925F926F925B
:104530007F928F929F92AF92BF92CF92DF92EF9233
:10454000FF920F931F93CF93DF93CDB7DEB7A99759
:10455000CDBFDEBF8CE291E00E94501A8E010F5F4A
:104560001F4F8EE6882E83E2982E98E7A92E93E2BD
:10457000B92E22E8622E23E2722E3CE8432E33E26B
:10458000532E43E9242E43E2342E06C00E94140623
:104590008CE291E00E94501A0E941B0389A70E949E
:1045A00056060E94E81D29A33AA34BA35CA36DA362
:1045B0007EA38FA398A7E9A0FAA0CDA0DEA0FF92CA
:1045C000EF929F928F921F930F930E941E2B40E0B9
:1045D000B80180E00E942F088CA18F938BA18F934C
:1045E000BF92AF921F930F930E941E2B40E0B80121
:1045F00081E00E942F08DF92CF927F926F921F93EB
:104600000F930E941E2B40E0B80182E00E942F0809
:1046100088A58F938FA18F935F924F921F930F93D3
:104620000E941E2B40E0B80183E00E942F08EC1886
:10463000FD08FF92EF923F922F921F930F930E94DB
:104640001E2B40E0B80185E00E942F08CDBFDEBFE1
:1046500099A594FF9BCF8CE291E00E94501AA996F5
:10466000CDBFDEBFDF91CF911F910F91FF90EF90F3
:10467000DF90CF90BF90AF909F908F907F906F9082
:104680005F904F903F902F900895CF9360E070E03F
:1046900086E993E40E94D11E8CE291E00E94501AB8
:1046A00006C00E9414068CE291E00E94501A0E94FB
:1046B0001B03C82F0E94560640E06BE973E280E0BE
:1046C0000E942F08C4FFEDCF0E94E41E8CE291E00F
:1046D000CF910C94501A82E00E9494080E945F02CD
:1046E0001DC060919868673018F46F5F6093986898
:1046F00020919968822F90E070E0AC014B5F5F4F92
:10470000461757072CF42F5F20939968822F90E06B
:104710000E943E2084E690E00E94501A0E941B03F3
:1047200082FDDFCF80FF0EC060919868662319F08C
:10473000615060939868809199686817E0F070E024
:1047400090E0E6CF84FF10C0809198688823C1F084
:104750008130C9F08230D1F08330D9F08430E1F07B
:104760008CE291E00E94501A6091986870E080910C
:10477000996890E0CDCF6093996870E0CB01C8CF85
:104780000E946720EDCF0E943F21EACF0E94F621D0
:10479000E7CF0E949322E4CF0E944523E1CF5058F7
:1047A000BB27AA270E94E7230C9461250E9453256A
:1047B00038F00E945A2520F039F49F3F19F426F46E
:1047C0000C9450250EF4E095E7FB0C944A25E92F54
:1047D0000E94722558F3BA1762077307840795077A
:1047E00020F079F4A6F50C9494250EF4E0950B2EA8
:1047F000BA2FA02D0B01B90190010C01CA01A00133
:104800001124FF27591B99F0593F50F4503E68F18D
:104810001A16F040A22F232F342F4427585FF3CFCE
:10482000469537952795A795F0405395C9F77EF49F
:104830001F16BA0B620B730B840BBAF09150A1F0E8
:10484000FF0FBB1F661F771F881FC2F70EC0BA0F6E
:10485000621F731F841F48F4879577956795B795F6
:10486000F7959E3F08F0B0CF9395880F08F09927F1
:10487000EE0F9795879508950E94262508F481E00C
:1048800008950E9455240C9461250E945A2558F0E1
:104890000E94532540F029F45F3F29F00C944A25EB
:1048A00051110C9495250C9450250E94722568F3A3
:1048B0009923B1F3552391F3951B550BBB27AA27D9
:1048C00062177307840738F09F5F5F4F220F331F13
:1048D000441FAA1FA9F335D00E2E3AF0E0E832D0DB
:1048E00091505040E695001CCAF72BD0FE2F29D0DE
:1048F000660F771F881FBB1F261737074807AB07B0
:10490000B0E809F0BB0B802DBF01FF2793585F4F24
:104910003AF09E3F510578F00C944A250C94952569
:104920005F3FE4F3983ED4F3869577956795B79506
:10493000F7959F5FC9F7880F911D9695879597F911
:104940000895E1E0660F771F881FBB1F621773078A
:104950008407BA0720F0621B730B840BBA0BEE1F9F
:1049600088F7E09508950E94BA246894B1110C94D8
:10497000952508950E947A2588F09F5798F0B92FC1
:104980009927B751B0F0E1F0660F771F881F991F84
:104990001AF0BA95C9F714C0B13091F00E9494256D
:1049A000B1E008950C949425672F782F8827B85F7D
:1049B00039F0B93FCCF3869577956795B395D9F7DC
:1049C0003EF490958095709561957F4F8F4F9F4FE6
:1049D0000895E89409C097FB3EF4909580957095F2
:1049E00061957F4F8F4F9F4F9923A9F0F92F96E93B
:1049F000BB279395F695879577956795B795F111B0
:104A0000F8CFFAF4BB0F11F460FF1BC06F5F7F4F4C
:104A10008F4F9F4F16C0882311F096E911C077235E
:104A200021F09EE8872F762F05C0662371F096E867
:104A3000862F70E060E02AF09A95660F771F881F36
:104A4000DAF7880F9695879597F90895990F0008DA
:104A5000550FAA0BE0E8FEEF16161706E807F90750
:104A6000C0F012161306E407F50798F0621B730BEB
:104A7000840B950B39F40A2661F0232B242B252B6C
:104A800021F408950A2609F4A140A6958FEF811D0F
:104A9000811D089597F99F6780E870E060E00895B0
:104AA0009FEF80EC089500240A9416161706180646
:104AB0000906089500240A94121613061406050622
:104AC0000895092E0394000C11F4882352F0BB0FB3
:104AD00040F4BF2B11F460FF04C06F5F7F4F8F4F16
:104AE0009F4F089557FD9058440F551F59F05F3F51
:104AF00071F04795880F97FB991F61F09F3F79F000
:104B000087950895121613061406551FF2CF469581
:104B1000F1DF08C0161617061806991FF1CF869503
:104B20007105610508940895E894BB2766277727E7
:104B3000CB0197F908950E94AE250C9461250E943F
:104B4000532538F00E945A2520F0952311F00C943B
:104B50004A250C94502511240C9495250E94722509
:104B600070F3959FC1F3950F50E0551F629FF001C0
:104B7000729FBB27F00DB11D639FAA27F00DB11DD9
:104B8000AA1F649F6627B00DA11D661F829F222762
:104B9000B00DA11D621F739FB00DA11D621F839FE9
:104BA000A00D611D221F749F3327A00D611D231FBF
:104BB000849F600D211D822F762F6A2F11249F570D
:104BC00050409AF0F1F088234AF0EE0FFF1FBB1F10
:104BD000661F771F881F91505040A9F79E3F5105CF
:104BE00080F00C944A250C9495255F3FE4F3983EA1
:104BF000D4F3869577956795B795F795E7959F5F79
:104C0000C1F7FE2B880F911D9695879597F908950A
:104C10002F923F924F925F926F927F928F929F92CC
:104C2000AF92BF92CF92DF92EF92FF920F931F93BA
:104C3000CF93DF93CDB7DEB76097CDBFDEBF7C01EA
:104C40001B016A01FC0116821782838181FF44C324
:104C50009E012F5F3F4F3901F7019381F10193FDD1
:104C6000859193FF81911F01882309F431C3853217
:104C700039F493FD859193FF81911F01853239F4B9
:104C8000B70190E00E94C82A56016501E5CF10E007
:104C9000512C912CFFE1F915D8F08B3279F038F4D2
:104CA000803279F08332A1F4F92DF0612EC08D327B
:104CB00061F0803369F4292D21602DC0392D3260D7
:104CC000932E892D8460982E2AC0E92DE86015C0A6
:104CD00097FC2DC020ED280F2A3088F496FE06C0E0
:104CE0003AE0139F200D1124122F19C08AE0589E1C
:104CF000200D1124522EE92DE0629E2E10C08E321E
:104D000031F496FCE5C2F92DF0649F2E08C08C3674
:104D100021F4292D2068922E02C0883641F4F10139
:104D200093FD859193FF81911F018111B3CF9BEB7F
:104D3000980F933020F4992D9061805E07C09BE915
:104D4000980F933008F066C1992D9F7E96FF16E06C
:104D50009F73992E853619F49064992E08C0863673
:104D600021F4392F3068932E02C01111115097FE93
:104D700007C01C3350F444244394410E27E00BC079
:104D8000183038F027E017E005C027E09CE3492EF3
:104D900002C0212F412C560184E0A80EB11CF6015F
:104DA0006081718182819381042DA3010E94CA29AF
:104DB0006C01F981FC87F0FF02C0F3FF06C091FC93
:104DC00006C092FE06C000E205C00DE203C00BE281
:104DD00001C000E08C858C7019F001115AC29BC291
:104DE00097FE10C04C0CFC85F4FF04C08A8181330F
:104DF00009F44A94141474F528E0241578F588E031
:104E0000482E2CC096FC2AC0812F90E08C159D0561
:104E10009CF03CEFC3163FEFD30674F0892D8068F9
:104E2000982E0AC0E2E0F0E0EC0FFD1FE10FF11D4B
:104E30008081803319F411501111F4CF97FE0EC008
:104E400044244394410E812F90E0C816D9062CF4D7
:104E50001C1904C04424439401C010E097FE06C00E
:104E60001C141D0434F4C601019605C085E090E0D1
:104E700002C081E090E001110196112331F0212F51
:104E800030E02F5F3F4F820F931F252D30E08217B8
:104E9000930714F4581A01C0512C892D897049F4D4
:104EA000552039F0B70180E290E00E94C82A5A9458
:104EB000F7CF002329F0B701802F90E00E94C82A85
:104EC00093FC09C0552039F0B70180E390E00E94BF
:104ED000C82A5A94F7CF97FE4CC04601D7FE02C0AD
:104EE000812C912CC60188199909F301E80FF91F4B
:104EF000ED87FE879601241931092F87388B012F02
:104F000010E01195019511093FEF8316930629F4DE
:104F1000B7018EE290E00E94C82AC814D9044CF070
:104F20008F8598898815990524F4ED85FE85818102
:104F300001C080E3F1E08F1A91082D853E852F5F37
:104F40003F4F2D873E87801691062CF0B70190E0E9
:104F50000E94C82AD9CFC814D90441F49A81963343
:104F600020F4953319F43C8534FF81E3B70190E0D8
:104F70004EC08A81813319F09C859F7E9C87B70142
:104F800090E00E94C82A111105C094FC18C085E663
:104F900090E017C0B7018EE290E00E94C82A1E5F21
:104FA00082E001E0080FF301E80FF11D8081B701F5
:104FB00090E00E94C82A802F0113F3CFE6CF85E44A
:104FC00090E0B7010E94C82AD7FC06C0C114D104E2
:104FD00041F4EC85E4FF05C0D194C194D1088DE281
:104FE00001C08BE2B70190E00E94C82A80E32AE06A
:104FF000C216D1042CF08F5FFAE0CF1AD108F7CF98
:10500000B70190E00E94C82AB701C601C0960E946D
:10501000C82A54C1833631F0833779F0833509F0DB
:1050200056C020C0560132E0A30EB11CF6018081AB
:10503000898301E010E0630112C05601F2E0AF0E77
:10504000B11CF601C080D18096FE03C0612F70E0D4
:1050500002C06FEF7FEFC6010E94BD2A8C01F92DBF
:10506000FF7714C0560122E0A20EB11CF601C080E9
:10507000D18096FE03C0612F70E002C06FEF7FEF1A
:10508000C6010E94A22A8C01F92DF0689F2EF3FD23
:105090001AC0852D90E008171907A8F4B70180E21F
:1050A00090E00E94C82A5A94F4CFF60197FC8591AB
:1050B00097FE81916F01B70190E00E94C82A5110BC
:1050C0005A94015011090115110579F7F7C084367A
:1050D00011F0893661F5560197FE09C024E0A20E51
:1050E000B11CF60160817181828193810AC0F2E076
:1050F000AF0EB11CF60160817181072E000C880B88
:10510000990BF92DFF769F2E97FF09C090958095FA
:10511000709561957F4F8F4F9F4FF0689F2E2AE0CB
:1051200030E0A3010E94472BC82EC6183FC0092DAE
:10513000853721F40F7E2AE030E01DC0097F8F36CD
:1051400091F018F4883559F0C3C0803719F08837CA
:1051500011F0BEC0006104FF09C0046007C094FEE6
:1051600008C0066006C028E030E005C020E130E05D
:1051700002C020E132E0560107FF09C084E0A80E1A
:10518000B11CF601608171818281938108C0F2E0D7
:10519000AF0EB11CF6016081718180E090E0A30147
:1051A0000E94472BC82EC6180F77902E96FE0BC074
:1051B000092D0E7FC11650F494FE0AC092FC08C05F
:1051C000092D0E7E05C0DC2C092D03C0DC2C01C08E
:1051D000D12E04FF0DC0FE01EC0DF11D8081803346
:1051E00011F4097E09C002FF06C0D394D39404C011
:1051F000802F867809F0D39403FD11C000FF06C00C
:105200001C2DD51480F4150D1D190DC0D51458F49E
:10521000B70180E290E00E94C82AD394F7CFD5145A
:1052200010F45D1801C0512C04FF10C0B70180E3D9
:1052300090E00E94C82A02FF17C001FD03C088E762
:1052400090E002C088E590E0B7010CC0802F86781E
:1052500059F001FF02C08BE201C080E207FD8DE240
:10526000B70190E00E94C82AC11638F4B70180E364
:1052700090E00E94C82A1150F7CFCA94F301EC0DB8
:10528000F11D8081B70190E00E94C82AC110F5CFBE
:1052900015C0F4E0F51560F584E0581A93FE1FC0C0
:1052A000011127C02C8523FF2AC008E112E0392D07
:1052B0003071932EF8018491811124C0552009F496
:1052C000E4CCB70180E290E00E94C82A5A94F6CF5D
:1052D000F7018681978126C08FEF9FEF23C0B7012A
:1052E00080E290E00E94C82A5A945110F8CFD8CF9B
:1052F000512CB701802F90E00E94C82AD3CF0CE137
:1053000012E0D5CF91108052B70190E00E94C82AD8
:105310000F5F1F4FCFCF23E0251510F483E0BDCFE3
:10532000512CC0CF6096CDBFDEBFDF91CF911F91D2
:105330000F91FF90EF90DF90CF90BF90AF909F9034
:105340008F907F906F905F904F903F902F90089537
:10535000A1E21A2EAA1BBB1BFD010DC0AA1FBB1F79
:10536000EE1FFF1FA217B307E407F50720F0A21BEB
:10537000B30BE40BF50B661F771F881F991F1A9458
:1053800069F760957095809590959B01AC01BD0182
:10539000CF010895283008F027E03327DA01990F6C
:1053A000311D87FD916000966105710539F4326009
:1053B0002E5F3D9330E32A95E1F708959F3F30F04B
:1053C00080387105610509F03C5F3C5F3D93913089
:1053D00008F08068911DDF93CF931F930F93FF9286
:1053E000EF92192F987F9695E92F96959695E90F4C
:1053F000FF27E658FD4F99273327EE24FF24A70106
:10540000E70105900894079428F4360FE71EF81E6C
:10541000491F511D660F771F881F991F0694A1F71A
:105420000590079428F4E70EF81E491F561FC11D6A
:10543000770F881F991F661F0694A1F705900794A0
:1054400028F4F80E491F561FC71FD11D880F991F3A
:10545000661F771F0694A1F70590079420F4490F63
:10546000561FC71FD81F990F661F771F881F0694E6
:10547000A9F784911095177041F0D695C795579567
:105480004795F794E7941A95C1F7E0E2F2E0689443
:105490001590159135916591959105907FE27395E1
:1054A000E118F10A430B560BC90BD009C0F7E10C08
:1054B000F11E431F561FC91FD01D7EF4703311F417
:1054C0008A95E6CFE894015030F0080F0AF40027DF
:1054D000021708F4202F2395022F7A3328F079E35E
:1054E0007D932A95E9F710C07D932A9589F6069455
:1054F00097956795379517951794E118F10A430B1F
:10550000560BC90BD00998F023957E9173957A3389
:1055100008F070E37C932013B8F77E9170617D935F
:1055200030F0839571E37D9370E32A95E1F71124C0
:10553000EF90FF900F911F91CF91DF91992787FDF9
:1055400090950895FC010590615070400110D8F7C6
:10555000809590958E0F9F1F0895FB01DC0102C07E
:1055600001900D9241505040D8F70895DC0101C0E0
:105570006D9341505040E0F70895FC016150704038
:1055800001900110D8F7809590958E0F9F1F089578
:105590000F931F93CF93DF93FB01238121FD03C062
:1055A0008FEF9FEF2CC022FF16C0468157812481C8
:1055B00035814217530744F4A081B1819D012F5FCB
:1055C0003F4F208331838C93268137812F5F3F4F5C
:1055D0002683378314C08B01EC01FB010084F18525
:1055E000E02D1995892BE1F6D80116968D919C91A5
:1055F0001797019616968D939C931797CE01DF917E
:10560000CF911F910F910895CF93DF93CDB7DEB760
:10561000AE014A5F5F4FFA0161917191AF018091D4
:10562000B4689091B5680E940826DF91CF910895E3
:105630006091B4687091B5680C94C82A0F931F9359
:10564000CF93DF93CDB7DEB72E97CDBFDEBF0E89E8
:105650001F8986E08C8309831A838FEF9FE78D83F0
:105660009E83AE01465E5F4F688D798DCE010196B7
:105670000E940826EF81F885E00FF11F10822E9618
:10568000CDBFDEBFDF91CF911F910F910895FA0139
:10569000AA27283051F1203181F1E8946F936E7F71
:1056A0006E5F7F4F8F4F9F4FAF4FB1E03ED0B4E062
:1056B0003CD0670F781F891F9A1FA11D680F791FA3
:1056C0008A1F911DA11D6A0F711D811D911DA11DB4
:1056D00020D009F468943F912AE0269F11243019C4
:1056E000305D3193DEF6CF010895462F4770405D5F
:1056F0004193B3E00FD0C9F7F6CF462F4F70405D0E
:105700004A3318F0495D31FD4052419302D0A9F768
:10571000EACFB4E0A6959795879577956795BA9562
:10572000C9F700976105710508959B01AC010A2E28
:1057300006945795479537952795BA95C9F7620FFF
:0E574000731F841F951FA01D0895F894FFCFBE
:10574E0000000003000000004E0C460C0000FF3F5E
:10575E00202043505520737461747573000000004F
:10576E0020204D6F746F72207370656564000000A9
:10577E0020204144505339393630000000000000DB
:10578E002020414443000000000000000000000003
:10579E002020466F6C6C6F77204C696E65000000A0
:1057AE0020204D656E75206974656D2036000000F1
:1057BE0020204D656E75206974656D2037000000E0
:1057CE0020204D656E75206974656D2038000000CF
:1057DE004144505339393630204944207265616452
:1057EE006261636B206661696C3A20256420726584
:1057FE0061640D0A00000000000000002F00000090
:10580E0007000700147F147F14242A7F2A12C4C8AD
:10581E0010264636495522500005030000001C2272
:10582E0041000041221C0014083E081408083E08DE
:10583E0008000050300010101010100060600000C2
:10584E0020100804023E5149453E00427F4000426E
:10585E00615149462141454B311814127F1027459D
:10586E004545393C4A4949300171090503364949D4
:10587E004936064949291E003636000000563600C4
:10588E0000081422410014141414140041221408A8
:10589E000201510906324959513E7E1111117E7F86
:1058AE00494949363E414141227F4141221C7F49AF
:1058BE004949417F090909013E4149497A7F080852
:1058CE00087F00417F41002040413F017F081422A4
:1058DE00417F404040407F020C027F7F0408107FD2
:1058EE003E4141413E7F090909063E4151215E7FFD
:1058FE0009192946464949493101017F01013F40B5
:10590E0040403F1F2040201F3F4038403F63140857
:10591E00146307087008076151494543007F4141F0
:10592E0000552A552A550041417F00040201020408
:10593E004040404040000102040020545454787FFF
:10594E00484444383844444420384444487F38540A
:10595E00545418087E0901020C5252523E7F08041C
:10596E00047800447D40002040443D007F102844D0
:10597E000000417F40007C041804787C0804047801
:10598E0038444444387C14141408081414187C7CCD
:10599E00080404084854545420043F4440203C401A
:1059AE0040207C1C2040201C3C4030403C442810B1
:1059BE0028440C5050503C4464544C44086C6A19B2
:1059CE00080C1224120C7E7E7E7E7E2E2E2F4672A8
:1059DE00656552544F532F71756575652E63002E94
:1059EE002E2F4672656552544F532F7461736B732D
:1059FE002E630049444C4500092563092575092588
:105A0E00750925750D0A0009256C750909256C7532
:105A1E0025250D0A0009256C7509093C3125250D32
:105A2E000A00414443004C466F6C6C6F77003E2574
:105A3E00642025640D0A006D6F74737064006F6CC2
:105A4E0065646D656E004D656D20667265653A0024
:105A5E002536752F253675004E756D626572206F71
:105A6E0066207461736B733A256400435055204C65
:105A7E006F61643A25322E326600202053313A256A
:105A8E006400202053323A25640020204D313A25FF
:105A9E00640020204D323A256400433A25750052A9
:105AAE003A257500473A257500423A25750050484B
:105ABE004F544F313A25640050484F544F323A25D7
:105ACE00640050484F544F333A256400504F543AB7
