:100000000C9483010C94A4010C94C8030C94300448
:100010000C94A4010C94A4010C94A4010C94A401CC
:100020000C94A4010C94A4010C94A4010C94A401BC
:100030000C94A4010C94A4010C94A4010C94A401AC
:100040000C94A4010C94A4010C94A4010C94A4019C
:100050000C94A4010C94A4010C94A4010C94A4018C
:100060000C94A4010C94A4010C94A4010C94A4017C
:100070000C94A4010C94A4010C94A4010C94A4016C
:100080000C94A4010C94A4010C94A4010C94A4015C
:100090000C94A4010C94A4010C94A4010C94A4014C
:1000A0000C94A4010C94A4010C94A4010C94980445
:1000B0000C9400050C94A4010C9413070C94A40157
:1000C0000C94A4010C94A4010C94A4010C94A4011C
:1000D0000C94A4010C94A4010C94A4010C94A4010C
:1000E0000C94A4010C94A4010C94A4010C94A401FC
:1000F0000C94A4010C94A4010C94A4010C94A401EC
:100100000C94A4010C94A4010C94A4010C94A401DB
:100110000C94A4010C94A4010C94A4010C94A401CB
:100120000C94A4010C94A4010C94A4010C94A401BB
:100130000C94A4010C94A4010C94A4010C94A401AB
:100140000C94A4010C94A4010C94A4010C94A4019B
:100150000C94A4010C94A4010C94A4010C94A4018B
:100160000C94A4010C94A4010C94A4010C94A4017B
:100170000C94A4010C94A4010C94A4010C94A4016B
:100180000C94A4010C94A4010C94A4010C94A4015B
:100190000C94A4010C94A4010C94A4010C94A4014B
:1001A0000C94BA020C94A4010C94A4010C94A40124
:1001B0000C94A4010C94A4010C94A4010C94A4012B
:1001C0000C94A4010C94A4010C94A4010C94A4011B
:1001D0000C94A4010C94A4010C94A4010C94A4010B
:1001E0000C94A4010C94A4010C94A4010C94A401FB
:1001F0000C94A4010C94A4010C94A4010C94CC07BD
:100200000C94A7076E616E00696E660000407A105C
:10021000F35A00A0724E18090010A5D4E80000E8B7
:100220007648170000E40B54020000CA9A3B000015
:1002300000E1F505000080969800000040420F00A4
:100240000000A08601000000102700000000E80365
:10025000000000006400000000000A000000000030
:100260000100000000002C76D888DC674F0823DFEF
:10027000C1DFAE59E1B1B796E5E3E453C63AE651C2
:10028000997696E8E6C28426EB898C9B62ED407CE9
:100290006FFCEFBC9C9F40F2BAA56FA5F490055A85
:1002A0002AF75C936B6CF9676DC11BFCE0E40D47AA
:1002B000FEF520E6B500D0ED902E030094357705CD
:1002C0000080841E080000204E0A000000C80C3385
:1002D0003333330F986E12831141EF8D2114893B14
:1002E000E65516CFFEE6DB18D1844B381BF77C1D94
:1002F000901DA4BBE424203284725E228100C9F1E7
:1003000024ECA1E53D2711241FBECFEFCDBFDFE9CF
:10031000DEBF00E00CBF10E2A0E0B0E2E0E7FFE1EA
:1003200000E00BBF02C007900D92A637B107D9F7C6
:1003300020E2A6E7B0E201C01D92AB38B207E1F7B8
:100340000E94E6070C94B60F0C940000CF93DF9345
:10035000CDB7DEB70000DF91CF9108950F93CF9313
:10036000DF9300D0CDB7DEB780E88A8381E08B834E
:10037000CE01029642E0BC0189E30E94A605898372
:1003800082E98A839E012E5F3F4FCE01029601E0F3
:1003900041E0BC0189E30E94C5058A818B3A99F04E
:1003A0008A81882F90E0292F2F938F938FE090E2FE
:1003B000892F8F938FE090E28F930E94440F0F90CC
:1003C0000F900F900F9081E88A838BED8B83CE0185
:1003D000029642E0BC0189E30E94A60589838FE86A
:1003E0008A8383E08B83CE01029642E0BC0189E3DD
:1003F0000E94A605898300002396CDBFDEBFDF9152
:10040000CF910F9108950F93CF93DF93CDB7DEB7C0
:100410006C97CDBFDEBF8D8B9E8B6F8B788F498F96
:100420005A8F2B8F3C8FCE010C9689839A83CE01F5
:100430000C9602968B839C83CE010C9604968D833A
:100440009E83CE010C9606968F839887CE010C96DC
:1004500089879A8780E88C8783E08D87CE010C9608
:1004600042E0BC0189E30E94A6058B8783E98C8763
:100470009E01245F3F4FCE010C9601E041E0BC019C
:1004800089E30E94C5058B878C85882F90E0817059
:100490009927892B59F384E98C879E01245F3F4F6C
:1004A000CE010C9608E041E0BC0189E30E94C5053D
:1004B0008B878D899E89892B51F089819A81FC01D6
:1004C000208131818D899E89FC01208331838F8930
:1004D000988D892B51F08B819C81FC012081318189
:1004E0008F89988DFC0120833183898D9A8D892B8A
:1004F00051F08D819E81FC0120813181898D9A8D01
:10050000FC01208331838B8D9C8D892B51F08F8151
:100510009885FC01208131818B8D9C8DFC0120838D
:10052000318300006C96CDBFDEBFDF91CF910F917C
:100530000895CF93DF93CDB7DEB780EA96E022E04F
:10054000FC01218780EA96E020E8FC01228780EA0E
:1005500096E021E0FC01278B80EA90E027E8FC018F
:1005600022838FE390E020E8FC0120830000DF91EC
:10057000CF9108951F920F9200903F000F92112487
:10058000CF93DF93CDB7DEB70000DF91CF910F900F
:1005900000923F000F901F901895CF93DF93CDB737
:1005A000DEB780E296E027E0FC01218380E296E05E
:1005B00028E5FC01208B80E296E028E5FC01218BF8
:1005C00080E296E028E5FC01228B80E096E020E8BE
:1005D000FC01218380E096E028E5FC01278B0000E8
:1005E000DF91CF910895CF93DF931F92CDB7DEB700
:1005F000898380E296E029812770FC01248380E0D2
:1006000096E0298128702295207FFC012483000038
:100610000F90DF91CF910895CF93DF93CDB7DEB7E1
:1006200080EA96E02FE3FC01218380EA96E028E54A
:10063000FC01258B80EA96E028E5FC01248B80EA0A
:1006400096E020E1FC01238B80EA96E020E1FC01AA
:10065000228B80EA96E020E1FC01218B80EA96E083
:1006600020E1FC01208B80E09BE027E0FC0120835F
:1006700080E09BE023EFFC01218380E09BE02FEFF3
:100680003FE0FC0126A337A380E496E025E0FC01CF
:10069000218780E496E020E8FC01228780E496E050
:1006A00020E4FC01238780E496E0FC01178A80E4C3
:1006B00096E0FC01168A80E896E025E0FC0121879F
:1006C00080E896E020E8FC01228780E896E020E4BC
:1006D000FC01238780E896E0FC01178A80E896E019
:1006E000FC01168A0000DF91CF910895CF93DF932C
:1006F00000D01F92CDB7DEB789839A836B837C834A
:1007000089819A81992384F480E09BE029813A8150
:10071000319521953109FC0120A731A780E09BE0AC
:10072000FC0112A613A60CC080E09BE0FC0110A601
:1007300011A680E09BE029813A81FC0122A733A722
:100740008B819C81181619066CF480E09BE02B814C
:100750003C81FC0124A735A780E09BE0FC0116A6A4
:1007600017A60FC080E09BE0FC0114A615A680E050
:100770009BE02B813C81319521953109FC0126A715
:1007800037A700002496CDBFDEBFDF91CF9108953B
:100790001F920F9200903F000F92112400903B0097
:1007A0000F928F939F93EF93FF93CF93DF931F92BB
:1007B000CDB7DEB780E496E0FC0180858295869512
:1007C0008695837089838981882F90E0817099272D
:1007D000892BD9F08981882F90E082709927892B05
:1007E00051F0809181209091822001978093812007
:1007F0009093822024C08091812090918220019644
:1008000080938120909382201AC08981882F90E064
:1008100082709927892B51F08091812090918220BC
:100820000196809381209093822009C0809181203D
:1008300090918220019780938120909382200000E4
:100840000F90DF91CF91FF91EF919F918F910F903A
:1008500000923B000F9000923F000F901F90189560
:100860001F920F9200903F000F92112400903B00C6
:100870000F928F939F93EF93FF93CF93DF931F92EA
:10088000CDB7DEB780E496E0FC0180858295869541
:100890008695837089838981882F90E0827099275B
:1008A000892BD9F08981882F90E081709927892B35
:1008B00051F0809181209091822001968093812037
:1008C0009093822024C08091812090918220019772
:1008D00080938120909382201AC08981882F90E094
:1008E00082709927892B51F08091812090918220EC
:1008F0000197809381209093822009C0809181206C
:100900009091822001968093812090938220000014
:100910000F90DF91CF91FF91EF919F918F910F9069
:1009200000923B000F9000923F000F901F9018958F
:100930001F920F9200903F000F92112400903B00F5
:100940000F928F939F93EF93FF93CF93DF931F9219
:10095000CDB7DEB780E896E0FC018085829586956C
:100960008695837089838981882F90E0817099278B
:10097000892BD9F08981882F90E082709927892B63
:1009800051F080918320909184200197809383205F
:100990009093842024C0809183209091842001969C
:1009A00080938320909384201AC08981882F90E0BF
:1009B00082709927892B51F0809183209091842017
:1009C0000196809383209093842009C08091832096
:1009D000909184200197809383209093842000003D
:1009E0000F90DF91CF91FF91EF919F918F910F9099
:1009F00000923B000F9000923F000F901F901895BF
:100A00001F920F9200903F000F92112400903B0024
:100A10000F928F939F93EF93FF93CF93DF931F9248
:100A2000CDB7DEB780E896E0FC018085829586959B
:100A30008695837089838981882F90E082709927B9
:100A4000892BD9F08981882F90E081709927892B93
:100A500051F080918320909184200196809383208F
:100A60009093842024C080918320909184200197CA
:100A700080938320909384201AC08981882F90E0EE
:100A800082709927892B51F0809183209091842046
:100A90000197809383209093842009C080918320C4
:100AA000909184200196809383209093842000006D
:100AB0000F90DF91CF91FF91EF919F918F910F90C8
:100AC00000923B000F9000923F000F901F901895EE
:100AD0008BEC8093520088E080935000809151000D
:100AE00083FFFCCF82EC8093550088E18093500017
:100AF0008091510084FFFCCF88ED84BF84E0809317
:100B0000400080E00895CF93DF93CDB7DEB7109219
:100B10007F2080E896E028E1FC01208B80E896E0C9
:100B200028E1FC01218B80EA94E028E7FC01218385
:100B300080EA94E023E2FC01258380EA94E021E04E
:100B4000FC0124830000DF91CF9108950F93CF9390
:100B5000DF93CDB7DEB72597CDBFDEBF8A836B832A
:100B60007C834D838B819C8100E020E030E04D81CF
:100B7000BC018A810E94C505898389812596CDBFE4
:100B8000DEBFDF91CF910F9108950F93CF93DF9345
:100B9000CDB7DEB72997CDBFDEBF8B836C837D8356
:100BA0004E832F83388709878C819D81809377209E
:100BB000909378208F8198858093792090937A20E4
:100BC00080917F20882309F04FC081E080937F20AF
:100BD000109280208B81880F809376208E81809365
:100BE0007B20898580937C2010927D2010927E202E
:100BF00080917B20882351F0809176208E7F89839D
:100C000080EA94E02981FC0126830DC080917C203C
:100C1000882349F08091762081608A8380EA94E07D
:100C20002A81FC012683000080917F208823E1F740
:100C300080918020813011F481E017C08091802064
:100C4000882F90E0292F2F938F9384E390E2892FB0
:100C50008F9384E390E28F930E94440F0F900F9044
:100C60000F900F9080E001C080E02996CDBFDEBFDD
:100C7000DF91CF910F910895CF93DF931F92CDB75E
:100C8000DEB780EA94E0FC01848189838981882F22
:100C900090E084709927892B21F084E08093802054
:100CA00003C083E08093802080EA94E0298128605B
:100CB000FC01248310927F2000000F90DF91CF91E0
:100CC0000895CF93DF9300D01F92CDB7DEB7809108
:100CD0007B20898380917C208A8380EA94E0FC01D8
:100CE0008481882F90E080719927892B59F080EAC0
:100CF00094E023E0FC01238385E080938020109220
:100D00007F2034C090917D2089819817C0F4209174
:100D100077203091782080917D20882F90E0820F7D
:100D2000931FFC0180818B8380EA94E02B81FC017E
:100D3000278380917D208F5F80937D2017C09091C5
:100D40007E208A81981750F48091762081608C8370
:100D500080EA94E02C81FC01268308C080EA94E0BC
:100D600023E0FC01238381E00E9403070000249616
:100D7000CDBFDEBFDF91CF910895CF93DF931F9258
:100D80001F92CDB7DEB780917E208032C0F480EA1A
:100D900094E0FC01878189832091792030917A2029
:100DA00080917E20882F90E0820F931F2981FC0183
:100DB000208380917E208F5F80937E2008C080EA10
:100DC00094E023E0FC01238382E00E9403078091EA
:100DD0007C208A8390917E208A81981730F480EA63
:100DE00094E022E0FC01238308C080EA94E027E03D
:100DF000FC01238381E00E94030700000F900F9005
:100E0000DF91CF910895CF93DF931F92CDB7DEB7D7
:100E1000898389818093802010927F2000000F9029
:100E2000DF91CF9108951F920F9200903F000F9293
:100E3000112400903B000F922F933F934F935F93A9
:100E40006F937F938F939F93AF93BF93EF93FF9392
:100E5000CF93DF931F92CDB7DEB780EA94E0FC0119
:100E6000848189838981882F90E088709927892BD4
:100E700039F48981882F90E084709927892B19F0A3
:100E80000E943C0613C08981882F90E080749927C6
:100E9000892B19F00E94610609C0898188231CF4FE
:100EA0000E94BD0603C086E00E94030780917F2058
:100EB00000000F90DF91CF91FF91EF91BF91AF9123
:100EC0009F918F917F916F915F914F913F912F9162
:100ED0000F9000923B000F9000923F000F901F90E8
:100EE0001895CF93DF93CDB7DEB780E896E028E082
:100EF000FC01218380E896E024E0FC01228380EA63
:100F00009AE0FC01138280EA9AE028E1FC01248344
:100F100080EA9AE023E0FC01258380EA9AE025EE4E
:100F2000FC01268380EA9AE02CEBFC01278380E019
:100F300090E2809387209093882080E090E28093D5
:100F40008520909386200000DF91CF910895CF9364
:100F5000DF9300D0CDB7DEB789836A837B8380EAD5
:100F60009AE02981FC012083000080EA9AE0FC01DC
:100F70008181882F90E080749927892BB1F380EAD2
:100F80009AE020E4FC01218380E090E02396CDBF2D
:100F9000DEBFDF91CF910895CF93DF931F921F9211
:100FA000CDB7DEB789839A83000080EA9AE0FC011E
:100FB00081818823D4F780EA9AE0FC018081882F20
:100FC00090E00F900F90DF91CF910895CF93DF9332
:100FD000CDB7DEB7A497CDBFDEBF0E9468050E94E3
:100FE000710785E490E2892F8F9385E490E28F93D7
:100FF0000E94440F0F900F900E9483050E94CD0223
:101000000E946C0A0E94A6010E940C030E94990291
:1010100081E00E94700A80E090E0A0E8BFE38D8349
:101020009E83AF83B88720E030E04AEF55E46D81BE
:101030007E818F8198850E94D709DC01CB01898749
:101040009A87AB87BC8720E030E040E85FE36985A2
:101050007A858B859C850E94510988232CF481E038
:1010600090E08D879E873FC020E03FEF4FE757E439
:1010700069857A858B859C850E94D20918164CF566
:1010800020E030E040E251E46D817E818F819885DF
:101090000E94D709DC01CB01BC01CD010E94560999
:1010A000DC01CB018D879E870FC080E293E08F87A4
:1010B000988B8F8598890197F1F78F87988B8D850D
:1010C0009E8501978D879E878D859E85892B69F7E3
:1010D00014C069857A858B859C850E945609DC0140
:1010E000CB018D879E878D859E85898B9A8B89897B
:1010F0009A890197F1F7898B9A8B0E94AE0188E457
:1011000090E028E430E0F9012081217F2460FC0197
:10111000208388E490E028E430E0F9012081216018
:10112000FC01208380910E200E94F30281E08093D5
:101130000E2080910E20880F80930E2080910E202B
:10114000882F90E08F709927892B49F460E070E038
:1011500080E090E00E94760381E080930E209E0163
:101160002D5D3F4FAE014F5D5F4FBE01615E7F4F12
:10117000CE014D960E94030280E090E0AAE7B4E41D
:1011800089839A83AB83BC8320E030E04AEF55E447
:1011900069817A818B819C810E94D709DC01CB0116
:1011A0008B8B9C8BAD8BBE8B20E030E040E85FE307
:1011B0006B897C898D899E890E94510988232CF432
:1011C00081E090E08F8B988F3FC020E03FEF4FE7AA
:1011D00057E46B897C898D899E890E94D2091816F3
:1011E0004CF520E030E040E251E469817A818B8166
:1011F0009C810E94D709DC01CB01BC01CD010E947A
:101200005609DC01CB018F8B988F0FC080E293E0F1
:10121000898F9A8F898D9A8D0197F1F7898F9A8F8F
:101220008F89988D01978F8B988F8F89988D892BB7
:1012300069F714C06B897C898D899E890E94560943
:10124000DC01CB018F8B988F8F89988D8B8F9C8F32
:101250008B8D9C8D0197F1F78B8F9C8F6BA17CA15F
:1012600049A15AA12F8D38A18D8D9E8DE72FEF9327
:101270006F93652F6F934F93432F4F932F93292F86
:101280002F938F938CE590E2892F8F938CE590E2DA
:101290008F930E94440F8DB79EB70A96CDBFDEBFD5
:1012A00048CF0E94850908F481E008950E94B109A1
:1012B00088F09F5798F0B92F9927B751B0F0E1F017
:1012C000660F771F881F991F1AF0BA95C9F714C0C7
:1012D000B13091F00E94CB09B1E008950C94CB0994
:1012E000672F782F8827B85F39F0B93FCCF3869500
:1012F00077956795B395D9F73EF49095809570955D
:1013000061957F4F8F4F9F4F0895990F0008550F9C
:10131000AA0BE0E8FEEF16161706E807F907C0F07B
:1013200012161306E407F50798F0621B730B840B83
:10133000950B39F40A2661F0232B242B252B21F45D
:1013400008950A2609F4A140A6958FEF811D811DFD
:10135000089557FD9058440F551F59F05F3F71F0A5
:101360004795880F97FB991F61F09F3F79F087950C
:101370000895121613061406551FF2CF4695F1DF95
:1013800008C0161617061806991FF1CF8695710525
:10139000610508940895E894BB2766277727CB0159
:1013A00097F908950E94850908F48FEF08950E9427
:1013B000EA090C945B0A0E944D0A38F00E94540A14
:1013C00020F0952311F00C94440A0C944A0A11243D
:1013D0000C94CC090E94A90970F3959FC1F3950F55
:1013E00050E0551F629FF001729FBB27F00DB11DA9
:1013F000639FAA27F00DB11DAA1F649F6627B00D39
:10140000A11D661F829F2227B00DA11D621F739F21
:10141000B00DA11D621F839FA00D611D221F749F2F
:101420003327A00D611D231F849F600D211D822F76
:10143000762F6A2F11249F5750409AF0F1F088239D
:101440004AF0EE0FFF1FBB1F661F771F881F9150CA
:101450005040A9F79E3F510580F00C94440A0C942B
:10146000CC095F3FE4F3983ED4F386957795679572
:10147000B795F795E7959F5FC1F7FE2B880F911DF4
:101480009695879597F9089597F99F6780E870E09A
:1014900060E008959FEF80EC089500240A941616EA
:1014A000170618060906089500240A941216130652
:1014B000140605060895092E0394000C11F48823E0
:1014C00052F0BB0F40F4BF2B11F460FF04C06F5FFC
:1014D0007F4F8F4F9F4F089580E28093410608957C
:1014E000811104C080E280934606089580E28093D3
:1014F000450608952F923F924F925F926F927F928E
:101500008F929F92AF92BF92CF92DF92EF92FF9213
:101510000F931F93CF93DF93CDB7DEB76097CDBF07
:10152000DEBF7C011B016A01FC01168217828381E8
:1015300081FF44C39E012F5F3F4F3901F701938123
:10154000F10193FD859193FF81911F01882309F497
:1015500031C3853239F493FD859193FF81911F0149
:10156000853239F4B70190E00E94080F56016501F9
:10157000E5CF10E0512C912CFFE1F915D8F08B321A
:1015800079F038F4803279F08332A1F4F92DF061EA
:101590002EC08D3261F0803369F4292D21602DC079
:1015A000392D3260932E892D8460982E2AC0E92D22
:1015B000E86015C097FC2DC020ED280F2A3088F474
:1015C00096FE06C03AE0139F200D1124122F19C079
:1015D0008AE0589E200D1124522EE92DE0629E2EA5
:1015E00010C08E3231F496FCE5C2F92DF0649F2EC6
:1015F00008C08C3621F4292D2068922E02C088362E
:1016000041F4F10193FD859193FF81911F018111B7
:10161000B3CF9BEB980F933020F4992D9061805EAF
:1016200007C09BE9980F933008F066C1992D9F7E03
:1016300096FF16E09F73992E853619F49064992EC3
:1016400008C0863621F4392F3068932E02C011115C
:10165000115097FE07C01C3350F444244394410EAC
:1016600027E00BC0183038F027E017E005C027E06E
:101670009CE3492E02C0212F412C560184E0A80E84
:10168000B11CF6016081718182819381042DA301D7
:101690000E941A0E6C01F981FC87F0FF02C0F3FF73
:1016A00006C091FC06C092FE06C000E205C00DE235
:1016B00003C00BE201C000E08C858C7019F00111B1
:1016C0005AC29BC297FE10C04C0CFC85F4FF04C0AC
:1016D0008A81813309F44A94141474F528E024159E
:1016E00078F588E0482E2CC096FC2AC0812F90E027
:1016F0008C159D059CF03CEFC3163FEFD30674F0AC
:10170000892D8068982E0AC0E2E0F0E0EC0FFD1F02
:10171000E10FF11D8081803319F411501111F4CFC4
:1017200097FE0EC044244394410E812F90E0C816CA
:10173000D9062CF41C1904C04424439401C010E0C1
:1017400097FE06C01C141D0434F4C601019605C0A2
:1017500085E090E002C081E090E001110196112344
:1017600031F0212F30E02F5F3F4F820F931F252D47
:1017700030E08217930714F4581A01C0512C892DB8
:10178000897049F4552039F0B70180E290E00E9459
:10179000080F5A94F7CF002329F0B701802F90E06B
:1017A0000E94080F93FC09C0552039F0B70180E36F
:1017B00090E00E94080F5A94F7CF97FE4CC0460164
:1017C000D7FE02C0812C912CC60188199909F3011A
:1017D000E80FF91FED87FE879601241931092F873D
:1017E000388B012F10E01195019511093FEF8316F9
:1017F000930629F4B7018EE290E00E94080FC81406
:10180000D9044CF08F8598898815990524F4ED85C5
:10181000FE85818101C080E3F1E08F1A91082D855A
:101820003E852F5F3F4F2D873E87801691062CF017
:10183000B70190E00E94080FD9CFC814D90441F431
:101840009A81963320F4953319F43C8534FF81E373
:10185000B70190E04EC08A81813319F09C859F7E4C
:101860009C87B70190E00E94080F111105C094FCFD
:1018700018C085E690E017C0B7018EE290E00E94A4
:10188000080F1E5F82E001E0080FF301E80FF11D71
:101890008081B70190E00E94080F802F0113F3CFE1
:1018A000E6CF85E490E0B7010E94080FD7FC06C0A0
:1018B000C114D10441F4EC85E4FF05C0D194C19476
:1018C000D1088DE201C08BE2B70190E00E94080FC1
:1018D00080E32AE0C216D1042CF08F5FFAE0CF1A21
:1018E000D108F7CFB70190E00E94080FB701C601F9
:1018F000C0960E94080F54C1833631F0833779F0C7
:10190000833509F056C020C0560132E0A30EB11C49
:10191000F6018081898301E010E0630112C0560165
:10192000F2E0AF0EB11CF601C080D18096FE03C07C
:10193000612F70E002C06FEF7FEFC6010E94FD0EC5
:101940008C01F92DFF7714C0560122E0A20EB11CC4
:10195000F601C080D18096FE03C0612F70E002C006
:101960006FEF7FEFC6010E94F20E8C01F92DF06837
:101970009F2EF3FD1AC0852D90E008171907A8F4D3
:10198000B70180E290E00E94080F5A94F4CFF6016C
:1019900097FC859197FE81916F01B70190E00E94BD
:1019A000080F51105A94015011090115110579F7CA
:1019B000F7C0843611F0893661F5560197FE09C0EB
:1019C00024E0A20EB11CF6016081718182819381B5
:1019D0000AC0F2E0AF0EB11CF60160817181072EE2
:1019E000000C880B990BF92DFF769F2E97FF09C0ED
:1019F00090958095709561957F4F8F4F9F4FF068C0
:101A00009F2E2AE030E0A3010E94580FC82EC6186E
:101A10003FC0092D853721F40F7E2AE030E01DC03C
:101A2000097F8F3691F018F4883559F0C3C080379C
:101A300019F0883711F0BEC0006104FF09C00460CE
:101A400007C094FE08C0066006C028E030E005C06C
:101A500020E130E002C020E132E0560107FF09C07A
:101A600084E0A80EB11CF6016081718182819381AE
:101A700008C0F2E0AF0EB11CF6016081718180E018
:101A800090E0A3010E94580FC82EC6180F77902E21
:101A900096FE0BC0092D0E7FC11650F494FE0AC0AD
:101AA00092FC08C0092D0E7E05C0DC2C092D03C058
:101AB000DC2C01C0D12E04FF0DC0FE01EC0DF11D88
:101AC0008081803311F4097E09C002FF06C0D394DF
:101AD000D39404C0802F867809F0D39403FD11C0FD
:101AE00000FF06C01C2DD51480F4150D1D190DC066
:101AF000D51458F4B70180E290E00E94080FD39407
:101B0000F7CFD51410F45D1801C0512C04FF10C09C
:101B1000B70180E390E00E94080F02FF17C001FDAB
:101B200003C088E790E002C088E590E0B7010CC0F0
:101B3000802F867859F001FF02C08BE201C080E25D
:101B400007FD8DE2B70190E00E94080FC11638F43E
:101B5000B70180E390E00E94080F1150F7CFCA94BC
:101B6000F301EC0DF11D8081B70190E00E94080F98
:101B7000C110F5CF15C0F4E0F51560F584E0581AF2
:101B800093FE1FC0011127C02C8523FF2AC004E04B
:101B900012E0392D3071932EF8018491811124C007
:101BA000552009F4E4CCB70180E290E00E94080FD0
:101BB0005A94F6CFF7018681978126C08FEF9FEF69
:101BC00023C0B70180E290E00E94080F5A945110A0
:101BD000F8CFD8CF512CB701802F90E00E94080F8A
:101BE000D3CF08E012E0D5CF91108052B70190E03A
:101BF0000E94080F0F5F1F4FCFCF23E0251510F471
:101C000083E0BDCF512CC0CF6096CDBFDEBFDF914A
:101C1000CF911F910F91FF90EF90DF90CF90BF90E9
:101C2000AF909F908F907F906F905F904F903F907C
:101C30002F900895283008F027E03327DA01990F14
:101C4000311D87FD916000966105710539F43260A0
:101C50002E5F3D9330E32A95E1F708959F3F30F0E2
:101C600080387105610509F03C5F3C5F3D93913020
:101C700008F08068911DDF93CF931F930F93FF921D
:101C8000EF92192F987F9695E92F96959695E90FE3
:101C9000FF27EA59FD4F99273327EE24FF24A70198
:101CA000E70105900894079428F4360FE71EF81E04
:101CB000491F511D660F771F881F991F0694A1F7B2
:101CC0000590079428F4E70EF81E491F561FC11D02
:101CD000770F881F991F661F0694A1F70590079438
:101CE00028F4F80E491F561FC71FD11D880F991FD2
:101CF000661F771F0694A1F70590079420F4490FFB
:101D0000561FC71FD81F990F661F771F881F06947D
:101D1000A9F784911095177041F0D695C7955795FE
:101D20004795F794E7941A95C1F7ECE0F2E06894D0
:101D30001590159135916591959105907FE2739578
:101D4000E118F10A430B560BC90BD009C0F7E10C9F
:101D5000F11E431F561FC91FD01D7EF4703311F4AE
:101D60008A95E6CFE894015030F0080F0AF4002776
:101D7000021708F4202F2395022F7A3328F079E3F5
:101D80007D932A95E9F710C07D932A9589F60694EC
:101D900097956795379517951794E118F10A430BB6
:101DA000560BC90BD00998F023957E9173957A3321
:101DB00008F070E37C932013B8F77E9170617D93F7
:101DC00030F0839571E37D9370E32A95E1F7112458
:101DD000EF90FF900F911F91CF91DF91992787FD91
:101DE00090950895FC010590615070400110D8F75E
:101DF000809590958E0F9F1F0895FC016150704053
:101E000001900110D8F7809590958E0F9F1F08952F
:101E10000F931F93CF93DF93FB01238121FD03C019
:101E20008FEF9FEF2CC022FF16C04681578124817F
:101E300035814217530744F4A081B1819D012F5F82
:101E40003F4F208331838C93268137812F5F3F4F13
:101E50002683378314C08B01EC01FB010084F185DC
:101E6000E02D1995892BE1F6D80116968D919C915C
:101E70001797019616968D939C931797CE01DF9135
:101E8000CF911F910F910895CF93DF93CDB7DEB718
:101E9000AE014A5F5F4FFA0161917191AF0180918C
:101EA0008720909188200E947A0ADF91CF9108952F
:101EB000FA01AA27283051F1203181F1E8946F937B
:101EC0006E7F6E5F7F4F8F4F9F4FAF4FB1E03ED021
:101ED000B4E03CD0670F781F891F9A1FA11D680FBF
:101EE000791F8A1F911DA11D6A0F711D811D911DF2
:101EF000A11D20D009F468943F912AE0269F112467
:101F00003019305D3193DEF6CF010895462F4770CA
:101F1000405D4193B3E00FD0C9F7F6CF462F4F7025
:101F2000405D4A3318F0495D31FD4052419302D083
:101F3000A9F7EACFB4E0A695979587957795679529
:101F4000BA95C9F700976105710508959B01AC0129
:101F50000A2E06945795479537952795BA95C9F750
:101F6000620F731F841F951FA01D0895F894FFCF63
:101F70000000000300000000A707CC070000074195
:101F800044505339393630204944207265616462C7
:101F900061636B206661696C3A202564207265611B
:101FA000640D0A005457494D5F524553554C543AFD
:101FB00025640D0A00496E697469616C6973696E04
:101FC0006720447269766572730A0D00433A25648E
:101FD0000920523A25640920473A25640920423AEB
:061FE0002564090A0D0052
:00000001FF
