S01400004C696E65626F7446696E616C2E7372656359
S11300000C9461030C9482030C9422070C94A907AA
S11300100C9482030C9482030C9482030C94820348
S11300200C9482030C9482030C9482030C94820338
S11300300C9482030C9482030C94A70F0C948203F7
S11300400C941B100C9482030C9482030C94820372
S11300500C9482030C9482030C9482030C94820308
S11300600C9482030C9482030C9482030C948203F8
S11300700C9482030C9482030C9482030C948203E8
S11300800C9482030C9482030C9435050C94820323
S11300900C9482030C9482030C9482030C948203C8
S11300A00C9482030C9482030C9482030C94300805
S11300B00C94B7080C9482030C94C60B0C94820322
S11300C00C9482030C9482030C9482030C94820398
S11300D00C9482030C9482030C9482030C94820388
S11300E00C9482030C9482030C94E60C0C9482030B
S11300F00C949F0C0C9482030C9482030C94820342
S11301000C9482030C9482030C9482030C94820357
S11301100C9482030C9482030C9482030C940204C6
S11301200C9482030C9482030C9482030C94820337
S11301300C9482030C9482030C9482030C94820327
S11301400C9482030C9482030C9482030C94820317
S11301500C9482030C9482030C9482030C94820307
S11301600C9482030C9482030C9482030C948203F7
S11301700C9482030C9482030C9482030C948203E7
S11301800C9482030C9482030C9482030C948203D7
S11301900C9482030C9482030C9482030C948203C7
S11301A00C9482030C9482030C9482030C948203B7
S11301B00C9482030C9482030C9482030C948203A7
S11301C00C9482030C9482030C9482030C94820397
S11301D00C9482030C9482030C9482030C94820387
S11301E00C9482030C9482030C9482030C94820377
S11301F00C9482030C9482030C9482030C94460C9A
S11302000C94300C0C9405240C946A210C945F29F2
S11302100C94862A0C9477230C940B2B0C94C32AED
S11302200C94BD220C94DB240C943B160C94D5291D
S11302300C94A1276E616E00696E660000407A100E
S1130240F35A00A0724E18090010A5D4E80000E883
S11302507648170000E40B54020000CA9A3B0000E1
S113026000E1F505000080969800000040420F0070
S11302700000A08601000000102700000000E80331
S1130280000000006400000000000A0000000000FC
S11302900100000000002C76D888DC674F0823DFBB
S11302A0C1DFAE59E1B1B796E5E3E453C63AE6518E
S11302B0997696E8E6C28426EB898C9B62ED407CB5
S11302C06FFCEFBC9C9F40F2BAA56FA5F490055A51
S11302D02AF75C936B6CF9676DC11BFCE0E40D4776
S11302E0FEF520E6B500D0ED902E03009435770599
S11302F00080841E080000204E0A000000C80C3351
S11303003333330F986E12831141EF8D2114893BDF
S1130310E65516CFFEE6DB18D1844B381BF77C1D5F
S1130320901DA4BBE424203284725E228100C9F1B2
S113033024ECA1E53D274E414E494E495459494EBE
S113034046CDCCCC3D0AD7233C17B7D13877CC2B3C
S1130350329595E6241FB14F0A000020410000C8E1
S11303604200401C4620BCBE4CCA1B0E5AAEC59D62
S1130370746175787077722073746174653A277349
S113038074617465273D313A207475726E206F6E06
S11303902061757820706F776572206E65742C20EB
S11303A0277374617465273D303A207475726E202A
S11303B06F66662061757820706F776572206E6550
S11303C0740D0A00676574616463203A726574751C
S11303D0726E7320416E616C6F67206368616E6E2C
S11303E0656C7320696E20666F726D617420276C72
S11303F06566745F6C696E655F73656E736F72209A
S11304006D69645F6C696E655F73656E736F72208E
S113041072696768745F6C696E655F73656E736F2C
S11304207220706F74656E74696F6D657465720D9A
S11304300A00676574677972203A72657475726E22
S113044073206779726F73636F706520696E666F6E
S113045020696E20666F726D6174202779617772EE
S113046061746520286465672F7329207961772872
S1130470646567290D0A00676574726762203A72C1
S1130480657475726E7320524742206C6967687494
S11304902073656E736F722076616C7565730D0AD7
S11304A000676574656E63203A676574206D6F74C8
S11304B06F7220656E636F6465722076616C75651A
S11304C0730D0A007365746D6F74206C6566746DCA
S11304D06F746F725F70776D2072696768746D6F87
S11304E0746F725F70776D203A6469726563746CBF
S11304F07920636F6E74726F6C206D6F746F7220ED
S113050070776D207369676E616C2E2050776D2053
S1130510697320696E20612072616E6765206F6661
S1130520202D3430393520746F20343039350D0A9C
S1130530007365746C656420656666656374203A4F
S113054073657420524742206C6564206566666555
S113055063742028736565205247425461736B2E7F
S113056068290D0A00647276736567207370656587
S113057064203A666F6C6C6F77206C696E652073CB
S113058065676D656E7420756E74696C20656E6444
S11305902061742061207370656564206F66202774
S11305A0737065656427206D6D2F730D0A00726F7B
S11305B07463747220616E676C6520737065656422
S11305C0203A726F746174652027616E676C6527C9
S11305D020646567726565732061726F756E64204F
S11305E063656E746572206F6620726F626F74202B
S11305F061742061207370656564206F66202773C1
S11306007065656427206D6D2F730D0A0064727622
S11306107374722064697374616E636520737065AA
S11306206564203A447269766520737472616967FF
S11306306874206F766572202764697374616E63D1
S11306406527206D6D206174206120737065656479
S1130650206F662027737065656427206D6D2F7386
S11306600D0A006D656D6D6170203A73686F7720B7
S11306706D656D6F7279206D61700D0A0074736B16
S11306806C7374203A6C69737420467265655254B5
S11306904F53207461736B730D0A0068656C70208E
S11306A03A746869732068656C7020706167650DC1
S11306B00A00436F6D6D616E64206C6973743A0D4A
S11306C00A0011241FBECFEFCDBFDFE9DEBF00E07B
S11306D00CBF14E2A0E0B0E2E8EDF6E700E00BBFE7
S11306E002C007900D92A230B107D9F725E2A2E02B
S11306F0B4E201C01D92AA36B207E1F70E9452216A
S11307000C946A3B0C940000E0E0F2E081E080830A
S113071096E0918392E0928393E0948382A343E0F2
S113072060E00E948C11809348259093492543E012
S113073060E081E00E948C118093462590934725C8
S113074020E040E050E060E070E080914825909126
S113075049250C94D011CF93DF93C82FD62F6FEF78
S11307607FEF80914825909149250E942414C0313F
S113077028F080E197E2DF91CF910895CC0FCC0F60
S1130780CC0FC0932102DF3FA1F1D43068F582E0A1
S11307908093200280910102806180930102809104
S11307A02102D82BD093210280912002806880936B
S11307B020026FEF7FEF80914625909147250E949C
S11307C02414C0912402D091250220E040E050E09E
S11307D060E070E080914825909149250E94D011F5
S11307E0CE01DF91CF910895D450D43010F68FE12B
S11307F0CFCF81E080932002809101028F7E80938D
S11308000102D2CF1F920F920FB60F9211240BB692
S11308100F922F933F934F935F936F937F938F9395
S11308209F93AF93BF93EF93FF93CF93DF931F9265
S1130830CDB7DEB71982BE016F5F7F4F8091462529
S1130840909147250E941413898181110E94830F7E
S11308500F90DF91CF91FF91EF91BF91AF919F9155
S11308608F917F916F915F914F913F912F910F9055
S11308700BBE0F900FBE0F901F9018950F93CF9340
S1130880DF931F921F92CDB7DEB780E8898381E0A2
S11308908A8342E0BE016F5F7F4F89E30E94500B61
S11308A082E9898301E09E012F5F3F4F41E0B90156
S11308B089E30E94C10A89818B3A61F01F928F9368
S11308C086E190E29F938F930E94B9380F900F9026
S11308D00F900F9081E889838BED8A8342E0BE01FB
S11308E06F5F7F4F89E30E94500B8FE8898383E019
S11308F08A8342E0BE016F5F7F4F89E30E94500B01
S11309000F900F90DF91CF910F9108958F929F9246
S1130910AF92BF92CF92DF92EF92FF920F931F9309
S1130920CF93DF93CDB7DEB72997CDBFDEBF4C01A0
S11309305B016A01790180E8898383E08A8342E06C
S1130940BE016F5F7F4F89E30E94500B13E903C020
S1130950898180FD15C0198301E09E012F5F3F4FFF
S113096041E0B90189E30E94C10A8111F1CF63E436
S113097070E08BE390E20E942021898180FFEBCF1D
S113098084E9898308E09E012F5F3F4F41E0B9016C
S113099089E30E94C10A882381F18114910429F01A
S11309A089819A81F40180839183A114B10429F08F
S11309B08B819C81F50180839183C114D10429F03A
S11309C08D819E81F60180839183E114F10429F0E5
S11309D08F819885F701808391832996CDBFDEBFEF
S11309E0DF91CF911F910F91FF90EF90DF90CF9007
S11309F0BF90AF909F908F9008956AE470E08BE36E
S1130A0090E20E942021C9CFE0E2F6E098EF9283C1
S1130A1089E5838B848B858B868B878B928781E09A
S1130A20818740E061E08AE00E948C118093082471
S1130A309093092408958091280683FF12C080E1D1
S1130A409091280694FD88609091280695FD846015
S1130A509091280696FD82609091280697FD03C028
S1130A60089580E0EDCF816008951F920F920FB634
S1130A700F9211240BB60F92CF92DF92EF92FF9256
S1130A800F931F932F933F934F935F936F937F9392
S1130A908F939F93AF93BF93EF93FF93CF93DF9382
S1130AA01F921F92CDB7DEB71982809120089091D2
S1130AB02108C0905425D0905525E0905625F090FB
S1130AC05725C80ED91EE11CF11C0E941B058A8300
S1130AD040910424509105246091062470910724C8
S1130AE097018601041B150B260B370BB901A801CE
S1130AF04130584A6146710510F0811121C0898145
S1130B0081110E94830F0F900F90DF91CF91FF917D
S1130B10EF91BF91AF919F918F917F916F915F9171
S1130B204F913F912F911F910F91FF90EF90DF9084
S1130B30CF900F900BBE0F900FBE0F901F90189583
S1130B4020E0AE014F5F5F4FBE016E5F7F4F80912B
S1130B500824909109240E94B912C0920424D092CE
S1130B600524E0920624F0920724C9CFDC011092F8
S1130B700D2410920E249C919923B1F0FD0131961D
S1130B8080E49093A00A9091A10A96FFFCCF8093F1
S1130B90A10A9F012A1B3B0B91919111F2CF209343
S1130BA00D2430930E2408950895FC0110920D2411
S1130BB010920E2490819923E1F0319620E030E0E8
S1130BC080E4261737071CF06115710569F49093CA
S1130BD0A00A9091A10A96FFFCCF8093A10A2F5FEF
S1130BE03F4F91919111EDCF20930D2430930E241A
S1130BF008950895CF92DF92EF92FF920F931F937F
S1130C00CF93DF937C0180E197E280930B24909350
S1130C100C2410920A24C5E0D0E0C12CE0E1F7E2F4
S1130C20A0E4DA2E0AE010E0C701BF010E946A3393
S1130C30AB019B01ADECBCEC0E94B4339695879557
S1130C4096958795969587959C01220F331F880F5B
S1130C50991F880F991F880F991F820F931F9A015C
S1130C60281B390BC901009711F4CC2059F0805D81
S1130C708093A00A8091A10A86FFFCCFD092A10A9A
S1130C80CC24C394CF01B8010E947E33FB01219789
S1130C9059F6C0920A2460930B2470930C24DF91BC
S1130CA0CF911F910F91FF90EF90DF90CF90089517
S1130CB0E0E2F6E087E0818380E4808B818B828BA5
S1130CC0E0E0F6E090E89183878B0895E0E2F6E0B7
S1130CD09481282F2770922B9483E0E0F6E094818E
S1130CE088708295807F892B84830895E0EAF6E0FA
S1130CF08FE1818380E4848B20E12583E0E0FBE0C5
S1130D0091E0908393EF918340E050E146A357A391
S1130D10E0E4F6E090EC9283868B878B828790E800
S1130D20938795E09187E0E8F6E030E33283848BA3
S1130D30858B228780E28387918740E065E084E1A8
S1130D400E948C1180934E2590934F25089520E1A5
S1130D50009769F56115710509F457C02093A6063B
S1130D60813020EF92070CF457C091958195910939
S1130D708093280B9093290B10922A0B10922B0B23
S1130D807195619571091616170644F1613020EFCB
S1130D9072070CF444C071956195710960932C0B32
S1130DA070932D0B10922E0B10922F0B08952093FD
S1130DB0A60618161906A4F61092280B1092290BF1
S1130DC0811520E19207F4F480932A0B90932B0B66
S1130DD071956195710916161706C4F610922C0BBD
S1130DE010922D0B611580E178072CF460932E0B83
S1130DF070932F0B08956FEF7FE060932E0B709329
S1130E002F0B08958FEF9FE0DFCF2093A50681304D
S1130E1020EF92070CF0A9CF81E090EFA6CF61E01C
S1130E2070EFB9CF0FB6F8940F9240914A255091C4
S1130E304B2520914C2530914D250F900FBEBA01C2
S1130E40C90108951F920F920FB60F9211240BB689
S1130E500F921F932F933F934F935F936F937F93BF
S1130E608F939F93AF93BF93EF93FF93CF93DF93AE
S1130E7000D000D0CDB7DEB71E822091200830917B
S1130E8021088091542590915525A0915625B09123
S1130E905725820F931FA11DB11D89839A83AB83AC
S1130EA0BC8380914806182F107886FF37C081E0F4
S1130EB08D8320E0AE014A5F5F4FBE016F5F7F4FBD
S1130EC080914E2590914F250E94B9121123B9F1BA
S1130ED080914A2590914B25019680934A259093C1
S1130EE04B258E8181110E94830F2696CDBFDEBFD4
S1130EF0DF91CF91FF91EF91BF91AF919F918F912E
S1130F007F916F915F914F913F912F911F910F901E
S1130F100BBE0F900FBE0F901F90189585E08D8328
S1130F2020E0AE014A5F5F4FBE016F5F7F4F80914B
S1130F304E2590914F250E94B912112349F28091B8
S1130F404A2590914B25019780934A2590934B25F0
S1130F50C8CF1F920F920FB60F9211240BB60F92A7
S1130F601F932F933F934F935F936F937F938F932D
S1130F709F93AF93BF93EF93FF93CF93DF9300D0EF
S1130F8000D0CDB7DEB71E82209120083091210811
S1130F908091542590915525A0915625B0915725BF
S1130FA0820F931FA11DB11D89839A83AB83BC83D8
S1130FB080914806182F107487FF37C082E08D8314
S1130FC020E0AE014A5F5F4FBE016F5F7F4F8091AB
S1130FD04E2590914F250E94B9121123B9F18091A9
S1130FE04A2590914B25019780934A2590934B2550
S1130FF08E8181110E94830F2696CDBFDEBFDF91C3
S1131000CF91FF91EF91BF91AF919F918F917F917C
S11310106F915F914F913F912F911F910F900BBE54
S11310200F900FBE0F901F90189586E08D8320E0DF
S1131030AE014A5F5F4FBE016F5F7F4F80914E25C7
S113104090914F250E94B912112349F280914A25AB
S113105090914B25019680934A2590934B25C8CFB8
S11310601F920F920FB60F9211240BB60F921F937B
S11310702F933F934F935F936F937F938F939F939C
S1131080AF93BF93EF93FF93CF93DF9300D000D040
S1131090CDB7DEB71E8220912008309121088091BF
S11310A0542590915525A0915625B0915725820F2E
S11310B0931FA11DB11D89839A83AB83BC83809147
S11310C08806182F107284FF37C083E08D8320E0D8
S11310D0AE014A5F5F4FBE016F5F7F4F80914E2527
S11310E090914F250E94B9121123B9F180914C259A
S11310F090914D25019680934C2590934D258E819A
S113110081110E94830F2696CDBFDEBFDF91CF9160
S1131110FF91EF91BF91AF919F918F917F916F91CB
S11311205F914F913F912F911F910F900BBE0F90A4
S11311300FBE0F901F90189587E08D8320E0AE01BD
S11311404A5F5F4FBE016F5F7F4F80914E25909144
S11311504F250E94B912112349F280914C25909198
S11311604D25019780934C2590934D25C8CF1F9210
S11311700F920FB60F9211240BB60F921F932F9359
S11311803F934F935F936F937F938F939F93AF930B
S1131190BF93EF93FF93CF93DF9300D000D0CDB7ED
S11311A0DEB71E82209120083091210880915425B9
S11311B090915525A0915625B0915725820F931FE4
S11311C0A11DB11D89839A83AB83BC83809188065A
S11311D0182F107284FF1CC084E08D8320E0AE01C0
S11311E04A5F5F4FBE016F5F7F4F80914E259091A4
S11311F04F250E94B912112309F447C080914C2550
S113120090914D25019780934C2590934D251AC0BC
S113121088E08D8320E0AE014A5F5F4FBE016F5FBF
S11312207F4F80914E2590914F250E94B912809155
S11312304C2590914D25111122C0019780934C2586
S113124090934D258E8181110E94830F2696CDBFE8
S1131250DEBFDF91CF91FF91EF91BF91AF919F914D
S11312608F917F916F915F914F913F912F911F913A
S11312700F900BBE0F900FBE0F901F901895019604
S113128080934C2590934D25DDCF80914C259091F2
S11312904D25019680934C2590934D25D3CF0FB6C1
S11312A0F8940F9210924A2510924B2510924C25D7
S11312B010924D250F900FBE0895CF93C82F8091A3
S11312C05E248E3450F590915F24911106C0E82F6E
S11312D0F0E0E05FFB4D2FEF2083C11110C0E82F39
S11312E0F0E0E05FFB4D20E830E0092E02C03595C8
S11312F027950A94E2F720953081232320839F5F6A
S1131300983039F410925F248F5F80935E24CF91DC
S1131310089590935F24CF91089567E270E087E584
S113132090E20E94202190915F2480915E2491118B
S11313300DC0E82FF0E0E05FFB4D2FEF20838E34EB
S113134060F281E080935F24CF9108958E3428F277
S11313509F5F9830B9F2DDCF80E00E945D0981E0A3
S11313600E945D0981E00E945D0981E00E945D099F
S113137081E00C945D0980E00E945D0980E00E9498
S11313805D0980E00E945D0980E00E945D0981E0C2
S11313900C945D09CF93DF93D82FC8E005C00E9459
S11313A0AC09DD0FC15039F0D7FFF9CF0E94BB095A
S11313B0DD0FC150C9F7DF91CF910895E0E0F6E069
S11313C080E48183868308953F924F925F926F9267
S11313D07F928F929F92AF92BF92CF92DF92EF92C1
S11313E0FF920F931F93CF93DF93362E472E582EE1
S11313F0D22E132FD42F88E08093610690E490932B
S113140073061092A3098093A40980EC8093A50924
S113141085E08093A60980E1882E84E2982E9EE5DB
S1131420692E94E2792EF4018FEF81936E167F0674
S1131430E1F710925E24C5E881E00E945D09C15085
S1131440D9F7832D0E94CA09842D0E94CA09852DCB
S11314500E94CA098D2D0E94CA09812F0E94CA09BF
S11314608D2F0E94CA098E2D0E94CA098F2D0E94B9
S1131470CA09802F0E94CA098A2D0E94CA098B2D8D
S11314800E94CA098C2D0E94CA090FB6F8940F92C3
S113149010920F2480E48093050620E4F4019191D6
S11314A04F018091A10985FFFCCF2093A10990935E
S11314B0A0096814790491F78FEE90E00197F1F791
S11314C000C0000080E4809306060F900FBEDF91F9
S11314D0CF911F910F91FF90EF90DF90CF90BF902D
S11314E0AF909F908F907F906F905F904F903F90C0
S11314F0089580E2809341060895811104C080E23A
S113150080934606089580E28093450608958BEC07
S11315108093520088E0809350008091510083FFB3
S1131520FCCF82EC8093550088E180935000809139
S1131530510084FFFCCF88ED84BF84E08093400099
S113154080E0089510926524E0E8F6E088E1808B5D
S1131550818BE0EAF4E088E7818383E2858381E09C
S113156084830E949F12809362249093632443E0B7
S113157060E081E00E948C11809360249093612448
S11315800895CF92DF92EF92FF920F931F93CF9320
S1131590DF93D82F6B01142F79016FEF7FEF8091C8
S11315A06224909163240E942414C0926C24D092EB
S11315B06D24E0926A24F0926B24C0916524C111D9
S11315C055C081E080936524109264248D2F880F88
S11315D080936E24109369240093682410926724E6
S11315E010926624809169248823B1F180916E243D
S11315F08E7F8093A6046FEF7FEF8091602490919B
S113160061240E942414809164248130E1F11F92AA
S11316108F931F92DF9386E790E29F938F930E94AC
S1131620B93820E040E050E060E070E0809162244E
S1131630909163240E94D0110F900F900F900F90FF
S11316400F900F908C2FDF91CF911F910F91FF90EE
S1131650EF90DF90CF90089580916824882359F209
S113166080916E2481608093A604C5CF20E040E081
S113167050E060E070E080916224909163240E94C5
S1131680D011C0E0DFCF20E040E050E060E070E047
S113169080916224909163240E94D011C1E0D2CF42
S11316A00F9300E020E030E00E94C10A0F910895FA
S11316B090916924209168248091A40484FD22C01F
S11316C080916724891768F080916624821718F145
S11316D083E08093A30481E08093642410926524C2
S11316E0089580916724E0916C24F0916D24E80FB3
S11316F0F11D80818093A704809167248F5F80937C
S11317006724089583E08093A30485E08093642490
S113171010926524089580916E2481608093A604BC
S11317200895809166248032F8F48091A704909102
S11317306624E0916A24F0916B24E90FF11D808303
S1131740809166248F5F80936624909168248091B1
S113175066248917B8F087E08093A30481E080931E
S1131760642410926524089583E08093A30482E0A6
S11317708093642410926524909168248091662457
S1131780891748F782E08093A30408951F920F926B
S11317900FB60F9211240BB60F922F933F934F93D2
S11317A05F936F937F938F939F93AF93BF93EF93C5
S11317B0FF93CF93DF931F92CDB7DEB71982809149
S11317C0A404982F9C70E1F486FD44C087FD45C0B5
S11317D086E08093642410926524809165248111AD
S11317E01FC0BE016F5F7F4F809160249091612480
S11317F00E9414138981882399F00E94830F10C0DA
S11318008091A40482FD22C093E0909364248860B4
S11318108093A4041092652480916524882309F39D
S11318200F90DF91CF91FF91EF91BF91AF919F9175
S11318308F917F916F915F914F913F912F910F9075
S11318400BBE0F900FBE0F901F90189594E09093CD
S11318506424DDCF0E94580BDFCF0E94910BDCCFB4
S1131860CF93DF931F92CDB7DEB74FEF5FEFBE018B
S11318706F5F7F4F80915025909151250E9467138F
S1131880898190E00F90DF91CF910895CF93DF93FA
S11318901F921F92CDB7DEB78A8320E04FEF5FEF30
S11318A0BE016E5F7F4F80915225909153250E9417
S11318B0D0118091A10A85FF0EC040E050E0BE0126
S11318C06F5F7F4F80915225909153250E9467133B
S11318D089818093A00A80E090E00F900F90DF91BF
S11318E0CF91089540E061E080E80E948C118093DC
S11318F052259093532540E061E080E80E948C11CA
S11319008093502590935125E0E8F6E088E08183A8
S113191084E08283E0EAFAE084E1838388E18483DB
S113192083E0858385EE86838CEB8783E2E6F5E2AC
S113193086E090E2828393838083918308951F924B
S11319400F920FB60F9211240BB60F922F933F9361
S11319504F935F936F937F938F939F93AF93BF93B3
S1131960EF93FF93CF93DF931F921F92CDB7DEB710
S11319701982AE014F5F5F4FBE016E5F7F4F809152
S11319805225909153250E94DB158130D9F089812D
S113199081110E94830F0F900F90DF91CF91FF91DF
S11319A0EF91BF91AF919F918F917F916F915F91D3
S11319B04F913F912F910F900BBE0F900FBE0F9040
S11319C01F9018958A818093A00AE1CF1F920F92ED
S11319D00FB60F9211240BB60F922F933F934F9390
S11319E05F936F937F938F939F93AF93BF93EF9383
S11319F0FF93CF93DF931F921F92CDB7DEB7198267
S1131A008091A00A8A8320E0AE014F5F5F4FBE0140
S1131A106E5F7F4F80915025909151250E94B9129D
S1131A20898181110E94830F0F900F90DF91CF91D4
S1131A30FF91EF91BF91AF919F918F917F916F91A2
S1131A405F914F913F912F910F900BBE0F900FBE5E
S1131A500F901F9018950F931F93CF93DF93EC0172
S1131A600E94601A80916F24811121C0E091582551
S1131A70F0915925CF010196809374249093752495
S1131A8010927624109277248FEF9FE38093722430
S1131A9090937324109270241092712483839483FE
S1131AA080E794E28183928381E080936F2420977E
S1131AB009F464C0AE014C5F5F4F2396CE3FDF4311
S1131AC008F05CC0E0917424F0917524A4E7B4E2BA
S1131AD006C080819181009739F0DF01FC012281E9
S1131AE0338124173507A8F3C4E2E037FC0709F46F
S1131AF045C0CD91DC9111978E010C5F1F4F808101
S1131B0091818D939C93C901841B950B8930910518
S1131B1000F1BF01640F751FDB0112968D939C9336
S1131B2013974283538312962D913C911397A4E704
S1131B30B4E201C0DF01ED91FC91119782819381A0
S1131B4082179307B8F3EB01E883F9836D937C93D1
S1131B509A018091142090911520821B930B8093FD
S1131B601420909315200E944A1B0115110541F081
S1131B70C801DF91CF911F910F9108950E944A1BD4
S1131B800E94D72000E010E0C801DF91CF911F919F
S1131B900F910895CF93DF93009721F1EC012497DF
S1131BA00E94601A4A815B81A4E7B4E201C0DF01AC
S1131BB0ED91FC9111972281338124173507B8F3F5
S1131BC0E883F983CD93DC938091142090911520C0
S1131BD0480F591F4093142050931520DF91CF9143
S1131BE00C944A1BDF91CF910895FC0103968183E5
S1131BF092832FEF3FEF23833483858396838783F8
S1131C00908710820895FC01108611860895CF9361
S1131C10DF939C01FB01DC011196CD91DC911297BD
S1131C20C283D3838C819D81848395838C819D81A0
S1131C30DC0112966D937C9313976C837D832087CC
S1131C403187F90180818F5F8083DF91CF9108957F
S1131C50CF93DF93EB01488159814F3F2FEF520718
S1131C6001F1DC01139601C0DF011296ED91FC91A4
S1131C7013972081318142175307B0F7EA83FB831E
S1131C80C483D583AC83BD831296CD93DC93139721
S1131C9088879987FC0120812F5F2083DF91CF9172
S1131CA00895FC01A781B0851296ED91FC911397DC
S1131CB0E5CFCF93DF93FC01A085B18522813381E9
S1131CC084819581E9018C839D8384819581EC01D4
S1131CD02A833B8311962D913C911297E217F307C7
S1131CE049F0108611868C9181508C938C91DF91F0
S1131CF0CF91089511968D939C931297F2CF31E171
S1131D00FC013083319722E220833197A3E3A0833F
S1131D1031976083319770833197108231971082A5
S1131D20319760E8608331971082319762E0608375
S1131D30319763E06083319764E06083319765E0B5
S1131D406083319766E06083319767E06083319701
S1131D5068E06083319769E06083319760E1608374
S1131D6031973083319732E13083319733E13083D7
S1131D70319734E13083319735E13083319736E15F
S1131D803083319737E13083319738E130833197AD
S1131D9039E13083319730E23083319731E2308357
S1131DA031972083319723E2208331974083319701
S1131DB05083319726E22083319727E2208331979D
S1131DC028E22083319729E22083319720E320837E
S1131DD0319721E3208387970895E0E0F8E08FEFBF
S1131DE09FEF80A791A781E0808390E4918386830D
S1131DF0878380E09DE786A397A3A0911625B091E1
S1131E001725CD91CDBFDD91DEBFFF91EF91DF911D
S1131E10CF91BF91AF919F918F917F916F915F917E
S1131E204F913F912F911F910F91FF90EF90DF9071
S1131E30CF90BF90AF909F908F907F906F905F9066
S1131E404F903F902F901F900F900FBE0F900895CA
S1131E5081E008950F920FB6F8940F921F92112407
S1131E602F923F924F925F926F927F928F929F92A6
S1131E70AF92BF92CF92DF92EF92FF920F931F9394
S1131E802F933F934F935F936F937F938F939F937E
S1131E90AF93BF93CF93DF93EF93FF93A091162556
S1131EA0B09117250DB60D920EB60D920E94541CDA
S1131EB0A0911625B0911725CD91CDBFDD91DEBF40
S1131EC0FF91EF91DF91CF91BF91AF919F918F914E
S1131ED07F916F915F914F913F912F911F910F913E
S1131EE0FF90EF90DF90CF90BF90AF909F908F9036
S1131EF07F906F905F904F903F902F901F900F9026
S1131F000FBE0F90089580912008909121088C595C
S1131F109F4F809328089093290820912808309196
S1131F20290880912608909127082817390770F00E
S1131F30209126083091270880912808909129083B
S1131F40821B930B809328089093290808950F927D
S1131F500FB6F8940F921F9211242F923F924F9232
S1131F605F926F927F928F929F92AF92BF92CF9225
S1131F70DF92EF92FF920F931F932F933F934F9310
S1131F805F936F937F938F939F93AF93BF93CF93FD
S1131F90DF93EF93FF93A0911625B09117250DB60B
S1131FA00D920EB60D92209126083091270880914B
S1131FB0542590915525A0915625B0915725820F0F
S1131FC0931FA11DB11D8093542590935525A09373
S1131FD05625B09357250E94701A0E94541CA09154
S1131FE01625B0911725CD91CDBFDD91DEBFFF91B0
S1131FF0EF91DF91CF91BF91AF919F918F917F919D
S11320006F915F914F913F912F911F910F91FF908D
S1132010EF90DF90CF90BF90AF909F908F907F9084
S11320206F905F904F903F902F901F900F900FBE36
S11320300F90189508950F920FB6F8940F921F926F
S113204011242F923F924F925F926F927F928F92C0
S11320509F92AF92BF92CF92DF92EF92FF920F9333
S11320601F932F933F934F935F936F937F938F931C
S11320709F93AF93BF93CF93DF93EF93FF93A0917D
S11320801625B09117250DB60D920EB60D928FEF51
S11320909FEF80932808909329080E94541CA091D4
S11320A01625B0911725CD91CDBFDD91DEBFFF91EF
S11320B0EF91DF91CF91BF91AF919F918F917F91DC
S11320C06F915F914F913F912F911F910F91FF90CD
S11320D0EF90DF90CF90BF90AF909F908F907F90C4
S11320E06F905F904F903F902F901F900F900FBE76
S11320F00F9018950F931F93CF93DF93EC01042F48
S11321001A8D4C8D41110DC088819981892B09F458
S113211043C01F5F80E01A8FDF91CF911F910F9111
S1132120089550E0011115C08A819B810E94E8370F
S11321302C8D8A819B81820F911D8A839B832C81A4
S11321403D818217930728F3888199818A839B8331
S1132150E0CF8E819F810E94E8378C8D90E091952D
S1132160819591092E813F81280F391F2E833F834A
S1132170488159812417350730F42C813D81820F21
S1132180931F8E839F83023021F6112311F080E088
S1132190C2CF11E080E0BFCF8C819D810E94481F97
S11321A01C821D821F5FB7CFFC01CB01448D4423E9
S11321B091F050E066817781640F751F66837783A1
S11321C0248135816217730720F0608171816683F1
S11321D077830C94E8370895EF92FF920F931F933F
S11321E0CF938C010FB6F8940F92FC01C68D1C1688
S11321F0C4F4FC0181898823A1F07801F1E1EF0E98
S1132200F11C06C0C15069F0F8018189882349F0A6
S1132210C7010E947E1C8823A9F30E94371DC15068
S113222099F78FEFF801868F0F900FBE0FB6F894D1
S11322300F92C58D1C16C4F4F80180858823A1F083
S11322407801F8E0EF0EF11C06C0C15069F0F80106
S11322508085882349F0C7010E947E1C8823A9F346
S11322600E94371DC15099F78FEFF801858F0F90A9
S11322700FBECF911F910F91FF90EF9008951F9380
S1132280CF93DF93EC01162F892B09F43EC00FB6D0
S1132290F8940F92488159818B8D6C8D9A01869F99
S11322A0200D311D11242C833D831A8E4A835B83B8
S11322B090E00197689F9001699F300D1124CA0135
S11322C0820F931F8E839F838FEF8D8F8E8F1111BB
S11322D013C08885811107C00F900FBE81E0DF9184
S11322E0CF911F910895CE0108960E947E1C8823E9
S11322F099F30E942A0FF0CFCE0108960E94F50DA3
S1132300CE0141960E94F50DE7CF63E071E08EE8BF
S113231090E20E942021BBCFFF920F931F93CF9393
S1132320DF93182F062FF42E882399F10023D1F080
S1132330109FC001112481960E942B0DEC0100977F
S113234051F08196888399831B8F0C8F61E0CE01B5
S11323500E943F11F8A2CE01DF91CF911F910F91FE
S1132360FF90089581E290E00E942B0DEC01892BEF
S113237091F3C883D9831B8F0C8F61E0CE010E9437
S11323803F11F8A2CE01DF91CF911F910F91FF90E1
S1132390089566E771E08EE890E20E942021C6CF9E
S11323A0BF92CF92DF92EF92FF920F931F93CF933E
S11323B0DF93CDB7DEB72597CDBFDEBF8C016B01B0
S11323C04C835D83B22E892B09F4B2C0C114D104AD
S11323D009F4A2C0F2E0BF1609F47DC0F801838DB0
S11323E020E07801F8E0EF0EF11C10C06C817D81D3
S11323F0C7010E945E1CC8010E94EC100E944A1B87
S1132400882309F44AC0F801838D21E00FB6F894BB
S11324100F92F801928D981708F442C0F2E0BF16AB
S113242009F43EC08C819D81892B09F460C022236C
S113243059F10F900FBE0E94601A0FB6F8940F92D4
S1132440F801858D8F3F39F1F801868D8F3F09F1B1
S11324500F900FBEBE016C5F7F4FCE0101960E94AC
S1132460E01C811148C00FB6F8940F92F801928DC8
S11324700F900FBE838D981709F4B8CFC8010E943E
S1132480EC100E944A1BBFCFCE0101960E94D51CBE
S1132490D0CF168EDDCF158ED7CF0E942A0FB3CFA3
S11324A04B2DB601C8010E947A10F801918991114F
S11324B02CC0811127C00F900FBE81E02596CDBF9F
S11324C0DEBFDF91CF911F910F91FF90EF90DF90CE
S11324D0CF90BF900895F801838D813009F480CFA7
S11324E063EF72E08EE890E20E94202177CF0F9094
S11324F00FBE80E0E3CFC8010E94EC100E944A1B8B
S113250080E0DCCF0E942A0FD6CFC80141960E94FA
S11325107E1C882381F2F6CFF801848D882309F488
S113252059CF62EF72E08EE890E20E94202152CFF0
S113253061EF72E08EE890E20E94202147CFCF93B2
S1132540DF93482F60E081E00E948C11EC0100973A
S113255061F01C821D82188219821E8220E040E0F4
S113256050E060E070E00E94D011CE01DF91CF9185
S11325700895CF92DF92EF92FF920F931F93CF9320
S1132580DF93EC018B016A01F22E892B09F445C01B
S113259001151105C1F182E0F81671F09A8D8B8D49
S11325A09817A0F080E0DF91CF911F910F91FF90D9
S11325B0EF90DF90CF9008958B8D813031F065ECF2
S11325C073E08EE890E20E9420218A8DEE8C4F2DDC
S11325D0B801CE010E947A10EFEFEE1621F0E394D9
S11325E0EE8E81E0E0CF89898823D9F3CE0141962C
S11325F00E947E1C8823A9F3C114D10491F381E0C5
S1132600F6018083D0CF8C8D882329F264EC73E0AB
S11326108EE890E20E942021BECF63EC73E08EE846
S113262090E20E942021B4CF0F931F93CF93DF93A6
S1132630EC018B01892B09F443C08C8D81111BC0E3
S113264088819981892B09F18A8D9B8D891768F47A
S11326509E8D8F5F8A8F9F3F19F19F5F9E8F81E0D0
S1132660DF91CF911F910F91089580E0DF91CF9179
S11326701F910F91089564E674E08EE890E20E9441
S1132680202188819981892BF9F68C819D81892B60
S1132690D9F269E674E08EE890E20E942021D4CF5A
S11326A089898823E1F2CE0141960E947E1C882309
S11326B0B1F20115110599F281E0F8018083D0CFC0
S11326C060E674E08EE890E20E942021B6CFAF92DB
S11326D0BF92CF92DF92FF920F931F93CF93DF931A
S11326E0CDB7DEB72597CDBFDEBF8C015B014C8330
S11326F05D83892B09F4A1C0A114B10409F491C02C
S113270020E06801F1E1CF0ED11C0FB6F8940F92CE
S1132710F801F28CF1106AC08C819D81892B09F437
S113272073C0222309F459C00F900FBE0E94601A8F
S11327300FB6F8940F92F801858D8F3F09F454C0B9
S1132740F801868D8F3F09F44DC00F900FBEBE0176
S11327506C5F7F4FCE0101960E94E01C811122C064
S11327600FB6F8940F92F801828D0F900FBE81116D
S113277012C06C817D81C6010E945E1CC8010E944A
S1132780EC100E944A1B882311F021E0BECF0E9466
S11327902A0F21E0BACFC8010E94EC100E944A1B04
S11327A021E0B3CFC8010E94EC100E944A1B0FB66F
S11327B0F8940F92F801828D0F900FBE8111E5CF2E
S11327C02596CDBFDEBFDF91CF911F910F91FF9072
S11327D0DF90CF90BF90AF900895CE0101960E94F4
S11327E0D51CA2CF168EB1CF158EAACFB501C801C4
S11327F00E94D410FA94F801F28E8085811108C0E9
S11328000F900FBE81E0DCCF0F900FBE80E0D8CFD9
S1132810C80108960E947E1C882391F30E942A0F07
S1132820EFCFF801848D882309F46ACF64E075E062
S11328308EE890E20E94202163CF60E075E08EE88C
S113284090E20E94202158CFDF92EF92FF920F93E3
S11328501F93CF93DF93CDB7DEB72597CDBFDEBFF0
S11328608C016C837D83892B09F4D0C0D8015C96DC
S11328708C918111BBC0D12C20E07801B1E1EB0E29
S1132880F11C0FB6F8940F92F801828D811189C062
S11328908C819D81892B09F49DC0222309F45FC09A
S11328A00F900FBE0E94601A0FB6F8940F92D801D1
S11328B05D968C915D978F3F09F456C0F801868D23
S11328C08F3F09F458C00F900FBEBE016C5F7F4F5D
S11328D0CE0101960E94E01C811123C00FB6F8942A
S11328E00F92D8015A968C915A970F900FBE81116E
S11328F044C0F80180819181892B09F445C06C8121
S11329007D81C7010E945E1CC8010E94EC100E94D8
S11329104A1B882311F021E0B4CF0E942A0F21E042
S1132920B0CFC8010E94EC100E944A1B0FB6F89465
S11329300F92F801828D0F900FBE8111ECCFDD2034
S113294009F472C00FB6F8940F928189811165C0A1
S113295060E0F801848195810E949F1F43C0CE01ED
S113296001960E94D51C9CCF5D961C92F801868D21
S11329708F3F09F0A8CF168EA6CFC8010E94EC1095
S11329800E944A1B21E07DCF0FB6F8940F92149653
S11329908D919C9115970E94D51ED82E0F900FBE35
S11329A0AECF8150828F80819181892B09F43EC002
S11329B0F8018085811121C00F900FBE81E025961A
S11329C0CDBFDEBFDF91CF911F910F91FF90EF90AC
S11329D0DF900895DD2031F061EE75E08EE890E23D
S11329E00E9420210F900FBE80E0E9CF65E975E0D9
S11329F08EE890E20E9420213ECFC80108960E94F2
S1132A007E1C8823C9F20E942A0FD6CF61E975E0A3
S1132A108EE890E20E94202129CF0688F789E02DD4
S1132A2080816AE0681B95CF80E0C9CF0E94C420F2
S1132A30D80114968D939C931597BACFCF92DF92B9
S1132A40EF92FF920F931F93CF93DF93CDB7DEB72F
S1132A502597CDBFDEBF8C016B014C835D83892B31
S1132A6009F4A2C0C114D10409F492C020E0780191
S1132A70F1E1EF0EF11C0FB6F8940F92F801828D7C
S1132A80811169C08C819D81892B09F474C0222332
S1132A9009F458C00F900FBE0E94601A0FB6F89444
S1132AA00F92F801858D8F3F09F453C0F801868D8C
S1132AB08F3F09F44CC00F900FBEBE016C5F7F4F77
S1132AC0CE0101960E94E01C811122C00FB6F89439
S1132AD00F92F801828D0F900FBE811112C06C818C
S1132AE07D81C7010E945E1CC8010E94EC100E94F7
S1132AF04A1B882311F021E0BECF0E942A0F21E057
S1132B00BACFC8010E94EC100E944A1B21E0B3CF47
S1132B10C8010E94EC100E944A1B0FB6F8940F9251
S1132B20F801828D0F900FBE8111E5CF2596CDBFA0
S1132B30DEBFDF91CF911F910F91FF90EF90DF9057
S1132B40CF900895CE0101960E94D51CA3CF168E76
S1132B50B2CF158EABCFE680F780B601C8010E94D4
S1132B60D410F801E682F7828189811108C00F90A0
S1132B700FBE81E0DBCF0F900FBE80E0D7CFC8013E
S1132B8041960E947E1C882391F30E942A0FEFCF66
S1132B90F801848D882309F469CF6CE676E08EE829
S1132BA090E20E94202162CF68E676E08EE890E20F
S1132BB00E94202157CFCF92DF92EF92FF920F9382
S1132BC01F93CF93DF93EC017B016A01892BB9F149
S1132BD0E114F104D1F01A8D11110AC080E0DF91E3
S1132BE0CF911F910F91FF90EF90DF90CF900895B8
S1132BF00D8DB701CE010E94D41011501A8F0F3FD2
S1132C0071F00F5F0D8F81E0EACF8C8D882319F36B
S1132C106CEF76E08EE890E20E942021DCCF88857C
S1132C20882389F3CE0108960E947E1C882359F3D9
S1132C30C114D10441F381E0F6018083D0CF6BEF5E
S1132C4076E08EE890E20E942021C2CFCF93DF93FA
S1132C50EC01892B49F00FB6F8940F928A8D0F90EE
S1132C600FBEDF91CF9108956AE877E08EE890E295
S1132C700E942021F0CF20C00FB6F8940F92E0916B
S1132C809924F0919A24C681D781CE0102960E949C
S1132C90590E8091892481508093892480919324B2
S1132CA08150809393240F900FBE8F89988D0E943A
S1132CB0CA0DCE010E94CA0D809193248111DCCFEC
S1132CC08091BC24823010F00E942A0F0E94D620EA
S1132CD0F3CFCF93DF93EC010E94F837FE0101900C
S1132CE00020E9F73197EC1BFD0BE730F10560F4A8
S1132CF0EC0FFD1F9E01295F3F4F80E28193E21795
S1132D00F307E1F7E7E0F0E0CE018E0F9F1FFC012F
S1132D101082DF91CF910895E091A824F091A92425
S1132D200580F681E02D0680F781E02D8281938174
S1132D3080937F24909380240895CF93DF93EC01B4
S1132D40892B99F08A859B858A58944221F080E0EA
S1132D50DF91CF9108952C893D8984E22D3938077C
S1132D60B1F381E0232B99F7F3CF62EF76E082EAA7
S1132D7090E20E942021E6CFFF920F931F93CF93FE
S1132D80DF93EC01F62E0091872410918824809122
S1132D9016259091172502960E94590ECF3F8FEF6A
S1132DA0D807A9F1C00FD11FE0911625F09117257E
S1132DB0C283D3836091162570911725C017D1075C
S1132DC0C8F08091A8249091A9246E5F7F4F0E943F
S1132DD0280E80917F2490918024C817D90720F46D
S1132DE0C0937F24D0938024DF91CF911F910F91C2
S1132DF0FF9008958091A6249091A7246E5F7F4F41
S1132E00DF91CF911F910F91FF900C94280EFF201A
S1132E1049F260911625709117256E5F7F4F8AE8FD
S1132E2094E2DF91CF911F910F91FF900C94070EC4
S1132E300F931F93CF9310928324209120083091F5
S1132E4021088091542590915525A0915625B09143
S1132E505725820F931FA11DB11D00917824109155
S1132E60792420917A2430917B24081719072A07A2
S1132E703B07A0F4E0911625F091172547A150A532
S1132E8061A572A5401B510B620B730B480F591FB0
S1132E906A1F7B1F47A350A761A772A7809378245A
S1132EA090937924A0937A24B0937B24E0911625FF
S1132EB0F09117250788F08DE02D80819181A28102
S1132EC0B381853A954AA54AB54A09F44CC0609144
S1132ED01625709117258091162590911725675E08
S1132EE07F4F0E94F620C09186248C2F90E09C0195
S1132EF0220F331F220F331F220F331FF901E80F54
S1132F00F91FE454FB4D408141110CC0CC2311F056
S1132F10C150EBCF6CE87BE082EA90E20E94202172
S1132F20C150E3CF820F931FDC01A454BB4D119613
S1132F30ED91FC9112970280F381E02D1196ED93AF
S1132F40FC93129781549B4DE817F90759F1868138
S1132F5097818093162590931725C0938624CF914B
S1132F601F910F91089584819581A681B781853A37
S1132F70954AA54AB54A09F0AACF80859185A285CC
S1132F80B385853A954AA54AB54A09F0A0CF848508
S1132F909585A685B785853A954AA54AB54A09F027
S1132FA096CFA1CF0280F381E02D1196ED93FC938F
S1132FB01297CDCF5F926F927F928F929F92AF9232
S1132FC0BF92CF92DF92EF92FF920F931F93CF9312
S1132FD0DF934C01EB015A013901502ECA010E94C2
S1132FE02B0D8C01892B09F4DEC080E390E00E9454
S1132FF02B0D6C01009709F4D3C0DC0157960D9397
S11330001C935897209709F4D0C0C801A50165EA1C
S113301070E00E94F137F1E0AF1AB108D60157967B
S11330208D919C915897A80EB91EF60179969E0130
S1133030285F3F4FDE01899181938C91882319F099
S1133040C217D307B9F7F60110A2052D0A3008F00C
S1133050A1C0D60156960C93569793960C939397CA
S113306094961C92E6012296CE010E94030EC6019C
S11330700C960E94030EF601C086D1868AE090E089
S1133080801B910984879587C28AD38A15A216A2C8
S113309017A210A611A612A613A614A615A616A664
S11330A017A6A301B401C5010E947F0ED6018D931A
S11330B09C93E114F10419F0F701C082D1820FB698
S11330C0F8940F92809189248F5F80938924809152
S11330D0162590911725892B99F0809185248111CB
S11330E018C0E0911625F0911725D60156968C91BB
S11330F09689891788F0C0921625D09217250CC09E
S1133100C0921625D092172580918924813009F424
S113311056C0D60156968C91909181249F5F9093CE
S11331208124F60191A390918624981780F190E070
S11331309C01220F331F220F331F220F331F820FD4
S1133140931FBE0184549B4D0E94070E0F900FBE27
S113315080918524882351F0E0911625F09117255C
S11331609689D60156968C919817B0F081E0DF913C
S1133170CF911F910F91FF90EF90DF90CF90BF9070
S1133180AF909F908F907F906F905F900895809301
S11331908624CDCF09E05DCF0E942A0F81E0E7CFDE
S11331A0C8010E94CA0D8FEFE2CF60E673E082EAA5
S11331B090E20E942021F6018789908D27CF0CEBA5
S11331C014E256E1E52E55E2F52EC8010E94F50DF4
S11331D0075F1F4FE016F106C1F783EB94E20E94EC
S11331E0F50D8AEA94E20E94F50D8DE994E20E94BD
S11331F0F50D84E994E20E94F50D8AE894E20E94B8
S1133200F50D83EB94E28093A8249093A9248AEA91
S113321094E28093A6249093A724F60186897CCF18
S1133220CF93DF93EC01892B09F43AC080911625E2
S113323090911725C817D90779F10FB6F8940F9212
S11332408A859B852091A8243091A9244091A624A5
S11332505091A7240F900FBE82179307A9F08417EB
S1133260950791F024E28A38920751F024E28439D8
S1133270920771F0892B61F081E0DF91CF9108957D
S11332808C899D89892B99F082E0DF91CF910895F3
S113329084E0DF91CF91089580E0DF91CF9108958C
S11332A06CE475E082EA90E20E942021BFCF8FA5F2
S11332B0813051F383E0E1CF0F931F93CF93DF93DA
S11332C0EC010FB6F8940F92892B09F462C08E01B9
S11332D00E5F1F4FC8010E94590E8C899D89892B4E
S11332E021F0CE010C960E94590EB8018AE894E2AE
S11332F00E94070E8FA5813021F10F900FBE80919F
S11333008524882391F00FB6F8940F92E091A824B5
S1133310F091A924808181112BC08FEF9FEF8093BE
S11333207F24909380240F900FBE80911625909156
S11333301725C817D90739F0DF91CF911F910F9145
S113334008951FA6DACF809185248823A1F0809167
S11333507C24882331F068EC76E082EA90E20E94D3
S113336020210E942A0FDF91CF911F910F91089580
S11333700E948C16D8CF90918A2480918924981722
S113338099F080917C24882349F081E08093832400
S1133390D3CFC0911625D091172599CFDF91CF9126
S11333A01F910F910C94181710921625109217253F
S11333B0C3CF0F931F93CF93DF93EC01892B09F4B1
S11333C03DC08091162590911725C817D90751F053
S11333D00FB6F8940F92CE010E949D16811107C07A
S11333E00F900FBEDF91CF911F910F9108958E0121
S11333F00E5F1F4FC8010E94590E8E89909186243A
S1133400981710F48093862490E09C01220F331FB8
S1133410220F331F220F331F820F931FB8018454CE
S11334209B4D0E94070EE0911625F09117259E8969
S113343086899817A8F20E942A0FD2CF6CE177E010
S113344082EA90E20E94202180911625909117250E
S1133450C9CFEF92FF920F938DE7E82E84E2F82E06
S113346000E020E030E040E051E066EB70E28BE306
S113347096E10E94DA17813079F08F3F21F00F91A5
S1133480FF90EF90089567E078E082EA90E20F9170
S1133490FF90EF900C942021F8942FEF3FEF2093AE
S11334A07F24309380248093852410928724109263
S11334B088240E941A100F91FF90EF900C94ED0E47
S11334C080917C248F5F80937C2408950FB6F894B8
S11334D00F9280918724909188240F900FBE0895B5
S11334E0DF92EF92FF920F931F93CF93DF9380911C
S11334F07C248111B9C0E0908724F09088248FEF58
S1133500E81AF80AE0928724F0928824E114F1047E
S113351049F5E091A824F091A92480818111ABC0E0
S11335208091A8249091A9242091A6243091A724C5
S11335302093A8243093A9248093A6249093A724AD
S1133540809182248F5F80938224E091A824F0915B
S1133550A9248081811196C08FEF9FEF80937F24EF
S11335609093802480917F2490918024D12CE8161C
S1133570F90608F453C0E091A824F091A9248081AD
S1133580882309F445C0E091A824F091A92405807A
S1133590F681E02DC681D7818A819B81E816F906E0
S11335A008F473C08E010E5F1F4FC8010E94590EAC
S11335B08C899D89892B21F0CE010C960E94590E8D
S11335C08E8990918624981710F48093862490E035
S11335D09C01220F331F220F331F220F331F820F30
S11335E0931FB80184549B4D0E94070EE091162549
S11335F0F09117259E898689981708F4BCCFDD249D
S1133600D394E091A824F091A92480818111BBCFA7
S11336108FEF9FEF80937F2490938024E091162571
S1133620F0911725868990E0FC01EE0FFF1FEE0F45
S1133630FF1FEE0FFF1F8E0F9F1FFC01E454FB4D75
S11336408081823010F0DD24D394809183248823F8
S113365011F0DD24D3948D2DDF91CF911F910F9123
S1133660FF90EF90DF900895809184248F5F809382
S11336708424D12CEACF66E67AE082EA90E20E94C2
S113368020214ECF0E948C166DCF80937F2490937F
S11336908024C4CFFF920F931F93CF93DF93809125
S11336A07C24882309F477C00FB6F8940F92809194
S11336B07C24815080937C2480917C24811162C07D
S11336C080918924882309F45DC0C0E0D0E0FF2400
S11336D0F39480919D248823A1F1E091A224F09198
S11336E0A324C681D781CE010C960E94590E8E0167
S11336F00E5F1F4FC8010E94590E8E899091862437
S1133700981710F48093862490E09C01220F331FB5
S1133710220F331F220F331F820F931FB8018454CB
S11337209B4D0E94070EE0911625F09117259E8966
S11337308689981770F2F092832480919D248111D8
S1133740CCCFCD2B69F0E091A824F091A9248081FD
S113375081112CC08FEF9FEF80937F24909380245E
S1133760C0918424CC2351F0D1E00E94701A8111BD
S1133770D0938324C150C9F7109284248091832468
S1133780811110C080E00F900FBEDF91CF911F9187
S11337900F91FF9008956CE678E082EA90E20E942F
S11337A0202182CF0E942A0F81E0EDCF0E948C1647
S11337B0D7CF0F931F93CF93DF938C01EB01892B0A
S11337C009F446C02097E9F180917C24811132C02C
S11337D080917C248F5F80937C2440918724509136
S11337E08824F80120813181CE01820F931F421772
S11337F0530788F48217930788F0F8018083918334
S11338000E944A1B811102C00E942A0FDF91CF91AE
S11338101F910F9108958217930718F048175907BD
S113382060F7F8018083918360E0841B950B0E940C
S1133830BC16E6CF6CEC74E082EA90E20E94202190
S1133840C7CF6BEC74E082EA90E20E942021BCCFE7
S11338506AEC74E082EA90E20E942021B3CFCF9315
S1133860DF93EC01892B29F40E942A0FDF91CF9179
S1133870089580917C24811110C080917C248F5FF5
S113388080937C2460E0CE010E94BC160E944A1BF7
S1133890882351F3DF91CF91089560E275E082EAC5
S11338A090E20E942021E9CF80917C24811102C002
S11338B00C94181781E08093832408950F931F9329
S11338C0CF93DF93EC018B01892B89F0609116254E
S11338D070911725645F7F4FCE010E94280E61E02E
S11338E0C801DF91CF911F910F910C94BC1663EA2C
S11338F07BE082EA90E20E942021E8CF0F931F939D
S1133900CF93DF93DC011596ED91FC911697C68158
S1133910D781209709F442C08E01045F1F4FC8016C
S11339200E94590E80917C24811129C00A501109EA
S1133930C8010E94590E8E8990918624981728F107
S113394090E09C01220F331F220F331F220F331FDD
S1133950820F931FB80184549B4D0E94070EE0917F
S11339601625F09117259E898689891788F481E0A8
S113397080938324DF91CF911F910F910895B80113
S11339808DE994E20E94070EEACF80938624D8CF73
S113399080E0DF91CF911F910F9108956EEF7BE04E
S11339A082EA90E20E942021B7CF20918224FC0178
S11339B020832091872430918824218332830895A1
S11339C00F931F93CF93DF93EC018B01892B09F4A1
S11339D040C00115110509F443C00FB6F8940F92C5
S11339E08091872490918824F801208131812F3F90
S11339F0FFEF3F0761F149815A8160918224788108
S1133A00761719F08417950780F4841B950B821799
S1133A10930768F0F8011082118281E00F900FBEC5
S1133A20DF91CF911F910F91089581E0F7CF281B6B
S1133A30390BF8012083318380918224888380911B
S1133A4087249091882489839A8380E0E7CF80E05B
S1133A50E5CF69E67CE082EA90E20E942021B9CFBA
S1133A606AE67CE082EA90E20E942021B6CF81E0FF
S1133A70809383240895FF920F931F93CF93DF9332
S1133A808C01EB01F42E892B09F464C0088319839B
S1133A90C80149968A839B83D80156968C91569780
S1133AA08E8357968D919C9158978C879D8791967C
S1133AB08C9191978C8393968C9193978F839796FF
S1133AC08D919D910D90BC91A02D88879987AA878F
S1133AD0BB87253009F443C08091162590911725A2
S1133AE00817190709F440C02D83233021F1FF2062
S1133AF0D1F0D8015796ED91FC9158978081853A81
S1133B00A9F5319680E090E0DC010196A11DB11D7C
S1133B102191253AD1F38E879F87DF91CF911F9111
S1133B200F91FF9008951E861F86DF91CF911F91FC
S1133B300F91FF90089580917C248F5F80937C2463
S1133B40F80184899589892B11F082E08D830E9484
S1133B504A1BCDCF009116251091172597CFC80188
S1133B600E9410198D83C3CF1D82C1CF80E090E0E5
S1133B70D2CF8F929F92AF92BF92CF92DF92EF9269
S1133B80FF920F931F93CF93DF935C018B01D42F8C
S1133B90DB011196ED91FC9112970280F381E02DE7
S1133BA01196ED93FC9312977B01B3E0EB0EF11C9D
S1133BB0EE15FF05E1F1C680D780C0E016C086800F
S1133BC09780B501B0E1CB9F600D711D11242D2F9D
S1133BD041E0C4010E943B1DCF5FC814D904C9F061
S1133BE0D8011196ED91FC9112970280F381E02D9A
S1133BF0D8011196ED93FC931297EE16FF06F9F691
S1133C001596ED91FC9116971196ED93FC931297EE
S1133C10D6CF8C2FDF91CF911F910F91FF90EF9012
S1133C20DF90CF90BF90AF909F908F9008950280C7
S1133C30F381E02DC0CFEF92FF920F931F93CF93A8
S1133C40DF938C017A0180917C248F5F80937C24A4
S1133C5080918924681708F466C0CAE0D0E004C0E3
S1133C6080E0D80FCC23F9F0C1506C2F70E0CB0169
S1133C70880F991F880F991F880F991F680F791F44
S1133C80FB01E454FB4D8081882351F341E0BF01E3
S1133C90C80120E1D29F800D911D11240E94B91DFD
S1133CA0D80FC111E1CFE091A824F091A92480811B
S1133CB081113BC080E0D80FE091A624F091A724A5
S1133CC08081811145C080E0D80F809194248111B6
S1133CD04FC080E0D80F80918A2481115AC080E0BF
S1133CE0D80FE114F104A9F02091200830912108A3
S1133CF08091542590915525A0915625B091572532
S1133D00820F931FA11DB11DF70180839183A283AC
S1133D10B3830E944A1B8D2FDF91CF911F910F9186
S1133D20FF90EF900895D0E0F4CF42E0BF01C801C6
S1133D30E0E1DE9F800D911D11240E94B91DD80F72
S1133D40E091A624F091A7248081882309F4BBCFB5
S1133D5042E0BF01C801F0E1DF9F800D911D1124F5
S1133D600E94B91DD80F80919424882309F4B1CFFF
S1133D7044E064E974E2C80120E1D29F800D911D02
S1133D8011240E94B91DD80F80918A24882309F434
S1133D90A6CF43E06AE874E2C801E0E1DE9F800D4B
S1133DA0911D11240E94B91D9BCF0F931F93CF9394
S1133DB0DF93FC01892B09F441C02689A0911625C3
S1133DC0B091172556968C91281770F584859585A2
S1133DD097FD0CC0A0911625B091172556963C91DD
S1133DE08AE090E0831B91098487958730E0C901BC
S1133DF0880F991F880F991F880F991F280F391F43
S1133E0024543B4D8285938582179307E9F0A09152
S1133E101625B091172556968C91868B81E0DF91FB
S1133E20CF911F910F910895A0911625B091172558
S1133E3081E023A156969C91291788F380E0DF91B5
S1133E40CF911F910F9108958F01EF012296CE011A
S1133E500E94590EE0911625F09117258689F801E4
S1133E60868B90918624981710F48093862490E092
S1133E709C01220F331F220F331F220F331F820F87
S1133E80931FBE0184549B4D0E94070E81E0C7CF4F
S1133E900F931F93CF93DF930097C9F0EC018091A8
S1133EA0162590911725C817D90731F06EE77FE0E2
S1133EB082EA90E20E9420218CA18823C1F18150E2
S1133EC08CA32E899BA1291711F0882331F080E05F
S1133ED0DF91CF911F910F9108958E010E5F1F4FB7
S1133EE0C8010E94590E2BA12E8B822F90E04AE02C
S1133EF050E0481B590B4C875D873091862432175C
S1133F0010F4209386249C01220F331F220F331FA9
S1133F10220F331F820F931FB80184549B4D0E94BC
S1133F20070E81E0DF91CF911F910F9108956FE704
S1133F307FE082EA90E20E9420218CA1C0CF0F93FF
S1133F401F93CF93DF93009779F0162FEC018CA188
S1133F50882309F454C00BA1011758F08E898017E7
S1133F6019F09CA1913039F0DF91CF911F910F91FD
S1133F700895012FF3CF2091162530911725C217EC
S1133F80D30709F443C00E8B2C853D8537FD06C04D
S1133F902AE030E0201B31092C873D8790E09C010A
S1133FA0220F331F220F331F220F331F820F931F41
S1133FB084549B4D2A853B8528173907A9F68E0121
S1133FC00E5F1F4FC8010E94590E8E89909186245E
S1133FD0981710F48093862490E09C01220F331FDD
S1133FE0220F331F220F331F820F931FB8018454F3
S1133FF09B4DDF91CF911F910F910C94070E6DECA7
S11340007FE082EA90E20E942021A5CF68EE7FE063
S113401082EA90E20E9420218E89B5CF2F923F92AE
S11340204F925F926F927F928F929F92AF92BF92C4
S1134030CF92DF92EF92FF920F931F93CF93DF9370
S113404000D01F92CDB7DEB78C01FC011082F09036
S1134050892480918924F0E18F9FC00111240E945A
S11340602B0D5C01009709F479C0AE014F5F5F4FDF
S11340706F2D0E941B1E882E69817A818B819C8101
S113408024E630E040E050E00E94923329833A83F2
S11340904B835C83211531054105510509F45BC04F
S11340A0882009F458C07501912C88EDC82E80E24F
S11340B0D82E9AEC292E90E2392E26C07F926F9248
S11340C05F924F92F70183858F9382858F938185C9
S11340D08F9380858F933F922F921F930F930E940B
S11340E02539CDBFDEBFF80101900020E9F78F012B
S11340F001501109939490E1E90EF11C891459F1CE
S113410029813A814B815C81F701608571858285C3
S113411093850E94923329013A01F70162817381E8
S1134120C8010E9469168C01411451046104710490
S113413029F6F70183858F9382858F9381858F93E9
S113414080858F93DF92CF921F930F930E9425391E
S1134150CDBFDEBFC8CFC5010E94CA0D2496CDBF16
S1134160DEBFDF91CF911F910F91FF90EF90DF9011
S1134170CF90BF90AF909F908F907F906F905F9003
S11341804F903F902F900895809116259091172578
S1134190892B39F0E0911625F091172584A18F5FC2
S11341A084A3809116259091172508950895F89475
S11341B085EE90E20E94B60580E880930106809324
S11341C005062FEF33EC99E0215030409040E1F7A1
S11341D000C00000809306062FEF33EC99E02150D5
S11341E030409040E1F700C00000E9CFEB01F894C3
S11341F080E88093010687E091E20E94B6056AE0B8
S113420070E0CE010E94D50582EE90E20E94B605D0
S113421080E8809305062FEF33ED90E32150304082
S11342209040E1F700C00000809306062FEF33EDC5
S113423090E3215030409040E1F700C00000E9CF06
S11342408C01EB01F89480E8809301068FE191E200
S11342500E94B60564E670E0C8010E94D5058FE2AD
S113426091E20E94B605CE010E94FA0582EE90E228
S11342700E94B60580E8809305062FEF33EC99E0A1
S1134280215030409040E1F700C0000080930606C2
S11342902FEF33ED90E3215030409040E1F700C020
S11342A00000E9CF0E94870A80E090E40E94CE33A8
S11342B08093582590935925892B59F087E0809352
S11342C0A20078940E94F72A0E94291A80E090E0C4
S11342D00895FFCFFC0144855585FB012485358570
S11342E04217530740F081E090E02417350708F4A3
S11342F0089580E008958FEF9FEF08955F926F9285
S11343007F928F929F92AF92BF92CF92DF92EF9261
S1134310FF920F931F93CF93DF93CDB7DEB7C054B3
S1134320D140CDBFDEBF40E050E064E1CE01019654
S11343300E941B1E882E912C2AE631E240E150E0B7
S1134340B401CE0101960E9436358AE391E20E94BF
S1134350F53887E491E20E94F5381F921F921F926C
S11343601F9284E591E29F938F930E94B9381F9224
S11343701F928FE08F931FEF1F9383E791E29F9328
S11343808F930E94B9381F921F9280E18F931F92DE
S113439080E991E29F938F930E94B9381F921F92F4
S11343A08FE18F931F938AEA91E29F938F930E94E8
S11343B0B9381F921F9280E28F931F9282EC91E290
S11343C09F938F930E94B93880E090E29F938F93DC
S11343D08AED91E29F938F930E94B938CDBFDEBFDF
S11343E081E094E29F938F9383EF91E29F938F9365
S11343F00E94B93882E094E29F938F938AE092E21C
S11344009F938F930E94B93889E695E29F938F9387
S113441082E292E29F938F930E94B938809159254A
S11344208F93809158258F9388E392E29F938F9383
S11344300E94B938CDBFDEBF8114910409F452C083
S113444000E010E0512C94ECA92E92E2B92E25ED57
S1134450C22E22E2D22E3CEEE32E32E2F32E43E0D1
S1134460642E43E2742E02951295107F1027007F6C
S11344701027E1E0F0E0EC0FFD1F0E0F1F1FF80105
S113448083818F9382818F93BF92AF920E94B938B8
S1134490F80185858F9384858F93DF92CF920E9454
S11344A0B938F80181818F9380818F93FF92EF92C5
S11344B00E94B938F80180819181FC0132970597F7
S11344C020813181820F931F9F938F937F926F92EC
S11344D00E94B9385394052D10E0CDBFDEBF0815F6
S11344E019050CF280915825909159258150904CD2
S11344F09F938F9381E592E29F938F930E94B938A3
S11345008091582590915925905C9F938F9388E6CC
S113451092E29F938F930E94B9381F921F920FE9E2
S11345200F931FEF1F938AE892E29F938F930E9449
S1134530B9381F921F920F931F938DEA92E29F93B3
S11345408F930E94B93887E491E20E94F538CDBF79
S1134550DEBFC05CDE4FCDBFDEBFDF91CF911F91C8
S11345600F91FF90EF90DF90CF90BF90AF909F900E
S11345708F907F906F905F900895CF93DF93CDB726
S1134580DEB72A97CDBFDEBF87E00E9466060E9491
S1134590661A89879A8764E080E00E94AB03898366
S11345A09A8364E081E00E94AB038B839C8364E084
S11345B082E00E94AB038D839E8364E083E00E94CB
S11345C0AB038F83988722E040E050E0BE016F5F29
S11345D07F4F80915A2590915B250E94D0116AE00B
S11345E070E0CE0109960E94D91BD5CFEF92FF92BD
S11345F00F9340E068E081E00E948C1180935A257B
S113460090935B25E12CF12C02E020E030E040E0C7
S113461052E068E173E28DEB92E20E94DA170F91A7
S1134620FF90EF900895CF93DF93CDB7DEB76097F7
S1134630CDBFDEBF4FEF5FEFBE01675F7F4F80915D
S11346405A2590915B250E941E1588E0FE0139963B
S1134650DE01119601900D928A95E1F729813A8144
S11346604B815C816D817E818F8198856096CDBF01
S1134670DEBFDF91CF9108950F931F93CF93DF9304
S11346808C01EB016FEF7FEF809120259091212524
S11346900E9424140115110569F080911C25909144
S11346A01D25A0911E25B0911F25F80180839183BB
S11346B0A283B383209761F08091182590911925E6
S11346C0A0911A25B0911B2588839983AA83BB8363
S11346D020E040E050E060E070E08091202590917F
S11346E02125DF91CF911F910F910C94D011CF937D
S11346F0DF93CDB7DEB72A97CDBFDEBF0CE113E25F
S11347001BC0C301B2010E94702E7B0120E030E087
S1134710A901C501B4010E94F92D87FD5DC0C50141
S1134720B4010E94702EC7010E94A7066AE070E0DF
S1134730CE0109960E94D91B0E94661A89879A871E
S11347400E94132329833A836D837E8369817A814E
S11347508D819E81681B790B072E000C880B990BA9
S11347600E94A82E6B017C01FF928F93DF926F93BE
S11347701F930F930E94B9382DEC3CEC4CE45EE39C
S11347806C2D7D2D8E2D9F2D0E945D2F6B017C0144
S113479020E030E048E455E40E948D2D2B013C01DB
S11347A0A701960160E070E088E495E40E948C2DF6
S11347B04B015C010F900F900F900F900F900F9092
S11347C020E030E0A901C301B2010E94F92D87FF66
S11347D098CFE12CF12C9ACF60E070E0A4CFEF9257
S11347E0FF920F9382E2E82E85E2F82E03E020E0A8
S11347F030E040E051E066E273E287E793E20E9432
S1134800DA170F91FF90EF900895CF93DF93CDB710
S1134810DEB72A97CDBFDEBF6FEF7FEF80912625ED
S1134820909127250E94241480912C2590912D2568
S1134830A0912E25B0912F2580932825909329258A
S1134840A0932A25B0932B250E94661A89879A87FC
S113485018C0C501B4010E94702EC7010E94C52969
S113486060E070E080912425909125250E94241415
S1134870813009F455C06AE070E0CE0109960E94C7
S1134880D91B0E94132329833A836D837E83698114
S11348907A818D819E81681B790B64567109072E7C
S11348A0000C880B990B0E94A82E2DEC3CEC4CECD0
S11348B05DE30E945D2F4B015C01C0902825D090E0
S11348C02925E0902A25F0902B25A70196010E9426
S11348D08D2D2B013C01A5019401C701B6010E9455
S11348E08C2D4B015C0120E030E0A901C301B20131
S11348F00E94F92D87FF0EC0E12CF12C20E030E05E
S1134900A901C501B4010E94F92D87FFA2CF60E07F
S113491070E0A3CFC301B2010E94702E7B01EECFE1
S113492060E070E080E090E00E94C52975CFEF92CE
S1134930FF920F9343E060E081E00E948C1180932A
S113494026259093272543E060E081E00E948C11A6
S11349508093242590932525E12CF12C02E020E07E
S113496030E040E052E06FE273E285E094E20E94BE
S1134970DA170F91FF90EF90089560932C257093B0
S11349802D2580932E2590932F2520E040E050E0A4
S113499060E070E080912625909127250C94D01139
S11349A020E040E050E060E070E0809124259091A8
S11349B025250C94D011CF93DF93CDB7DEB767973D
S11349C0CDBFDEBF0FC0823009F4AEC0833009F41E
S11349D0FAC080913225909133250E9426168823AF
S11349E009F496C04FEF5FEFBE016F5F7F4F809178
S11349F03225909133250E9467138981813019F7FC
S1134A004E805F80688479848A809B80AC80BD807E
S1134A100E94661A8A879B870E94E6280E94B3290F
S1134A200E9412076B017C0120E030E0A901C5015E
S1134A30B4010E94582F2DEC3CE44FE453E41816C3
S1134A400CF050C1C501B4010E94FE2D20E030E0FD
S1134A5044EB53E40E945D2F20E030E040E450E456
S1134A600E94FE2D6C8B7D8B8E8B9F8BB601DD0C93
S1134A70880B990B0E94A82E9B01AC016C897D893F
S1134A808E899F890E948D2D0E94702E8B012DECA2
S1134A903CE44FE453E4C301B2010E94FE2D20E044
S1134AA030E044EB53E40E945D2F20E030E040E42A
S1134AB050E40E94FE2D0E94702EDC01CB01BC014B
S1134AC00E94C52909C00C151D05B4F06AE070E008
S1134AD0CE010A960E94D91B0E9412076B017C0129
S1134AE020E030E0A901C501B4010E94582F181636
S1134AF054F3C016D10654F70E94FF280E94BF2920
S1134B0080913225909133250E94261681116ACF17
S1134B1020E040E050E060E070E08091302590912A
S1134B2031250E94D0115ECFCA80DB80EC80FD80ED
S1134B300E94661A8A8B9B8B0E94E6280E94B329E6
S1134B400E9412072DEC3CE44FE453E4C701B60184
S1134B500E94FE2D20E030E044EB53E40E945D2FE0
S1134B6020E030E040E450E40E94FE2D0E94BD2489
S1134B7000E010E00BC00F5F1F4F05311105E4F496
S1134B806AE070E0CE0142960E94D91B0E94132372
S1134B902A873B874C875D876E877F87888B998BB5
S1134BA02A853B858E859F85820F931F8A38934182
S1134BB014F700E010E0E4CF0E94D0240E94FF2804
S1134BC00E94BF2906CF4E805F80688479848A80E2
S1134BD09B80AC80BD800E94661A8A879B870E9456
S1134BE0E6280E94B3290E9412076B017C0126EC7F
S1134BF039ED47E75FE3C501B4010E945D2F4B0126
S1134C005C0120E030E0A9010E94582F18160CF036
S1134C10ABC0B601DD0C880B990B0E94A82E6B016A
S1134C207C012DEC3CE44FE453E4C501B4010E9443
S1134C30FE2D20E030E044EB53E40E945D2F20E0A1
S1134C4030E040E450E40E94FE2D9B01AC01C7011A
S1134C50B6010E948C2D0E94702E8B012DEC3CE439
S1134C604FE453E4C301B2010E94FE2D20E030E082
S1134C7044EB53E40E945D2F20E030E040E450E434
S1134C800E94FE2D2B013C010E94702E6B017C01C1
S1134C90C301B20190580E94702EDC01CB01B60111
S1134CA00E94C5290AC0C016D1060CF425CF6AE0BB
S1134CB070E0CE010A960E94D91B0E9412076B0174
S1134CC07C0120E030E0A901C501B4010E94582F05
S1134CD018164CF30C151D0554F70E94FF280E946A
S1134CE0BF290ECFC501B4010E94FE2D20E030E0A3
S1134CF044EB53E40E945D2F20E030E040E450E4B4
S1134D000E94FE2D6C8B7D8B8E8B9F8BB601DD0CF0
S1134D10880B990B0E94A82E9B01AC016C897D899C
S1134D208E899F890E948D2D0E94702E8B012DECFF
S1134D303CE44FE453E4C301B2010E94FE2D20E0A1
S1134D4030E044EB53E40E945D2F20E030E040E487
S1134D5050E40E94FE2D90580E94702EDC01CB017D
S1134D60BC010E94C529B8CEB601DD0C880B990B95
S1134D700E94A82E6B017C012DEC3CE44FE453E42B
S1134D80C501B4010E94FE2D20E030E044EB53E461
S1134D900E945D2F20E030E040E450E40E94FE2DAC
S1134DA09B01AC01C701B6010E948C2D0E94702E9C
S1134DB08B012DEC3CE44FE453E4C301B2010E94A7
S1134DC0FE2D20E030E044EB53E40E945D2F20E010
S1134DD030E040E450E40E94FE2D2B013C01905849
S1134DE00E94702E6B017C01C301B2010E94702EDF
S1134DF0DC01CB01B6010E94C5295FCFEF92FF927F
S1134E000F93E12CF12C03E020E030E040E051E08E
S1134E1067E373E28BED94E20E94DA1740E069E005
S1134E2081E00E948C11809332259093332543E0D6
S1134E3060E081E00E948C118093302590933125AD
S1134E400F91FF90EF900895CF93DF93CDB7DEB726
S1134E502997CDBFDEBFE1E0E9836A837B838C833E
S1134E609D832E833F834887598720E04FEF5FEF70
S1134E70BE016F5F7F4F80913225909133250E9450
S1134E80D0116FEF7FEF80913025909131250E94F2
S1134E9024142996CDBFDEBFDF91CF910895CF931F
S1134EA0DF93CDB7DEB72997CDBFDEBF22E02983DC
S1134EB06A837B838C839D8320E04FEF5FEFBE0189
S1134EC06F5F7F4F80913225909133250E94D011DE
S1134ED06FEF7FEF80913025909131250E9424144B
S1134EE02996CDBFDEBFDF91CF910895CF93DF9395
S1134EF0CDB7DEB72997CDBFDEBFE3E0E9836A8390
S1134F007B838C839D832E833F834887598720E04E
S1134F104FEF5FEFBE016F5F7F4F8091322590911D
S1134F2033250E94D0116FEF7FEF8091302590914F
S1134F3031250E9424142996CDBFDEBFDF91CF9185
S1134F400895CF93DF93CDB7DEB72C97CDBFDEBFE7
S1134F500E94661A809334259093352519861A8603
S1134F601B861C861D821E821F82188677C020E045
S1134F7030E0A901C701B6010E94F92D87FF0AC0DC
S1134F8020E030E84BEB54E4C701B6010E948C2DBD
S1134F906B017C0120E030EF4FE755ECC701B6010F
S1134FA00E94F92D87FFB6C001E010EFC501B401DE
S1134FB00E94A82E9B01AC0169857A858B859C850E
S1134FC00E948C2D20E030E046E953E40E945D2FDE
S1134FD06B017C0120E030E0A9010E94582F1816D3
S1134FE054F420E030E84BEB54E4C701B6010E94CE
S1134FF08D2D6B017C0120E030EF4FE755E4C701B4
S1135000B6010E94582F18160CF48AC020E030E034
S1135010A901C701B6010E94F92D87FF0AC020E04B
S113502030E84BEB54E4C701B6010E948C2D6B01B0
S11350307C0120E030EF4FE755ECC701B6010E9438
S1135040F92D87FF74C061E070EFC8010E94A706C4
S11350506AE070E084E395E20E94D91B0E94120783
S11350606B017C0160E070E080913A2590913B25D2
S11350700E9424142601DD0C66087708813009F4A7
S113508090C04701FF0CAA08BB0840E050E0BE01F5
S11350906F5F7F4F80913825909139250E94671367
S11350A0813009F449C0C301B2010E94A82E9B01BA
S11350B0AC016D817E818F8198850E948C2D20E0CA
S11350C030E046E953E40E945D2F6B017C0120E04F
S11350D030E0A9010E94582F181654F420E030E85B
S11350E04BEB54E4C701B6010E948D2D6B017C018A
S11350F020E030EF4FE755E4C701B6010E94582F76
S113510018160CF034CFC12C90EFD92E9FE7E92E5E
S113511095E4F92EC701B6010E94702E8B0146CF8B
S1135120C12C80EFD82E8FE7E82E85E4F82EC70136
S1135130B6010E94702E89CF69817A81072E000CF6
S1135140880B990B0E94A82E20E030E048EC52E432
S11351500E94FE2D9B01AC016D817E818F8198851B
S11351600E948D2D6D837E838F8398876B817C81D4
S1135170072E000C880B990B0E94A82E20E030E02B
S113518048EC52E40E94FE2D9B01AC0169857A85AE
S11351908B859C850E948D2D69877A878B879C8758
S11351A082CFC301B2010E94A82E6D837E838F83B8
S11351B098874701FF0CAA08BB08C501B4010E94E7
S11351C0A82E69877A878B879C875FCF0E944F09B7
S11351D020E040E050E060E070E080913A2590915A
S11351E03B250E94D0110E94661A80933425909327
S11351F0352580913625909137250C94D9198091C5
S11352003625909137250E945C1960E070E080E0BB
S113521090E00C94A706EF92FF920F930E947606FB
S113522086E3E82E85E2F82E03E020E030E040E05B
S113523051E06EE373E281EA97E20E94DA170E947A
S1135240FF2840E064E081E00E948C1180933825BF
S11352509093392543E060E081E00E948C118093B3
S11352603A2590933B25009751F020E040E050E030
S113527060E070E00F91FF90EF900C94D0110F91CB
S1135280FF90EF900895CF93DF9300D01F92CDB796
S1135290DEB789839A836B837C8320E04FEF5FEFD3
S11352A0BE016F5F7F4F80913825909139250E9410
S11352B0D0112496CDBFDEBFDF91CF910895CF9357
S11352C0DF9300D01F92CDB7DEB70E94661A809399
S11352D03C2590933D254FEF5FEFBE016F5F7F4FFD
S11352E080914025909141250E941E156B817C81FF
S11352F089819A810E9443296AE070E08CE395E2F7
S11353000E94D91BE8CFEF92FF920F938EE3E82E11
S113531085E2F82E03E020E030E040E051E065E46F
S113532073E28FE599E20E94DA1780913E2590910D
S11353303F250E945C1940E064E081E00E948C11EA
S11353408093402590934125E2E4F5E21082118296
S11353501282138222E040E050E0BF010F91FF90DF
S1135360EF900C94D0110E94661A80933C25909380
S11353703D2580913E2590913F250C94D91980912B
S11353803E2590913F250C945C19E2E4F5E280837C
S113539091836283738322E040E050E0BF018091F7
S11353A04025909141250C94D011CF93DF931F9207
S11353B0CDB7DEB74AC066246A9477247A948824E9
S11353C08A94912C80FF07C090E8692E20E8722E01
S11353D030E8832E912C84FF4BC022242A94312C54
S11353E0412C512C51016201710182019301A401EC
S11353F0B301C4010E94E4098AEF90E00E942F1CCB
S1135400298122FF3AC0AA24AA94BB24BA94C12CAD
S1135410D12C6FEF7FEF80E090E023FF0CC02224BB
S11354202A9433243A94412C512C66246A94772488
S11354307A94812C912C710182019301A4010E9420
S1135440E4098AEF90E00E942F1C40E050E0BE0186
S11354506F5F7F4F80915C2590915D250E941E15A2
S1135460898181FDA8CF612C712C812C912CAACF2C
S1135470212C312C412C512CB5CF51016201B301A7
S1135480C401CBCFEF92FF920F93CF93DF931F9280
S1135490CDB7DEB740E061E081E00E948C118093DB
S11354A05C2590935D25198222E040E050E0BE0126
S11354B06F5F7F4F0E94D011E12CF12C04E020E0BB
S11354C030E040E052E066EB73E285ED99E20E9441
S11354D0DA170F90DF91CF910F91FF90EF9008951D
S11354E0CF93DF931F92CDB7DEB7898322E040E0EC
S11354F050E0BE016F5F7F4F80915C2590915D25E8
S11355000E94D0110F90DF91CF910895CFE380EDE9
S113551097E00E942F1C80E090E00E947D0AC093D7
S1135520A2068091A20084608093A2008895C09313
S1135530A106EDCFEF92FF920F93E0EAF0E08281B3
S113554087648283E8E4F0E08081817F84608083E3
S1135550808181608083E0EAF6E080E8828383874B
S113556081E0878BE12CF12C00E020E030E040E08A
S113557051E06CE473E286E89AE20E94DA170F9134
S1135580FF90EF90089581E00E947D0A81E090E011
S11355900E942F1C0E9404050E9458060E94720C4F
S11355A00E94790A0E94A20A0E94DE090E948403D2
S11355B00E943E0482E390E00E942F1C80E28093CC
S11355C001060E94F6220E940B290E9483290E9450
S11355D097240E94EF230E94422A0E94782D0E9461
S11355E0FE260E949A2A80E090E00C945C19EF92C7
S11355F0FF920F93E12CF12C03E020E030E040E037
S113560051E06BE573E283EC9AE20E94DA170F91A2
S1135610FF90EF900895CF93DF93CDB7DEB7CC51D1
S1135620D140CDBFDEBF82EBA82E86E0B82E0BE9B9
S113563016E09DE7892E96E0992E23E6222E26E099
S1135640322EC701B6010E944F2783E693E20E94DF
S1135650F538409162255091632567EC70E0CE01E6
S113566001960E944B386DE271E2CE0101960E94D0
S1135670E437009731F0BC01CE0187539F4F0E945D
S1135680F8376DE271E280E090E00E94E437009721
S113569009F46AC00E94FD366B017C016DE271E27F
S11356A080E090E00E94E437009709F469C00E940A
S11356B0FD362B013C0167E673E2CE0187539F4F11
S11356C00E940A38892B09F45FC0BF92AF920E94EE
S11356D0CD381F930F930E94CD389F928F920E94D2
S11356E0CD383F922F920E94CD388DE096E09F9363
S11356F08F930E94CD388EEA95E09F938F930E94FA
S1135700CD3885E695E09F938F930E94CD3881E351
S113571095E09F938F930E94CD3884EC94E09F93FF
S11357208F930E94CD3881EA94E09F938F930E94D7
S1135730CD3887E794E09F938F930E94CD3882E31E
S113574094E09F938F930E94CD3884EC93E09F93D1
S11357508F930E94CD3881E793E09F938F930E94AB
S1135760CD38CDBFDEBF6DCFC12CD12C76016DE21B
S113577071E280E090E00E94E437009709F097CF4F
S1135780412C512C320197CF6CE673E2CE01875342
S11357909F4F0E940A38892B49F0CE0101960E943E
S11357A00E20CE0101960E94F5384BCF63E773E2D9
S11357B0CE0187539F4F0E940A38892B19F00E940B
S11357C07E213FCF6AE773E2CE0187539F4F0E9449
S11357D00A38892B59F0A3019201C701B6010E942E
S11357E0242781E893E20E94F5382BCF65E873E221
S11357F0CE0187539F4F0E940A38892B49F0C70175
S1135800B6010E944F2781E893E20E94F53819CF30
S11358106CE873E2CE0187539F4F0E940A38892BAC
S113582059F0A3019201C701B6010E94762781E8CD
S113583093E20E94F53805CF63E973E2CE01875302
S11358409F4F0E940A38892B61F0C701B6010E945C
S1135850772E862F0E94702A81E893E20E94F53801
S1135860F0CE6AE973E2CE0187539F4F0E940A3853
S1135870892BA1F0C301B2010E94702E2B013C01BF
S1135880C701B6010E94702EDC01CB01B2010E9457
S1135890A70681E893E20E94F538D3CE61EA73E269
S11358A0CE0187539F4F0E940A38892B99F00E949A
S11358B012079F938F937F936F9388EA93E29F934A
S11358C08F930E94B9380F900F900F900F900F9004
S11358D00F90B7CE63EB73E2CE0187539F4F0E94C4
S11358E00A38892B09F447C09E012B5E3E4FAE0156
S11358F0495E5E4FBE01675E7E4FCE01855E9E4F60
S11359000E948604CA5EDE4F8881C651D1408F93BF
S1135910CB5EDE4F8881C551D1408F93C85EDE4F88
S11359208881C851D1408F93C95EDE4F8881C751A9
S1135930D1408F93C65EDE4F8881CA51D1408F9388
S1135940C75EDE4F8881C951D1408F93C45EDE4F5C
S11359508881CC51D1408F93C55EDE4F8881CB5175
S1135960D1408F938AEB93E29F938F930E94B9382F
S1135970CDBFDEBF66CE6BEC73E2CE0187539F4F83
S11359800E940A38892BD9F1BE01675F7E4FCE0190
S11359908F5E9E4F0E943C23C45FDE4F8881CC50B3
S11359A0D1408F93C55FDE4F8881CB50D1408F9318
S11359B0C65FDE4F8881CA50D1408F93C75FDE4FE8
S11359C08881C950D1408F93CC5EDE4F8881C45109
S11359D0D1408F93CD5EDE4F8881C351D1408F93E8
S11359E0CE5EDE4F8881C251D1408F93CF5EDE4FB1
S11359F08881C151D1408F9382ED93E2B5CF6DED93
S1135A0073E2CE0187539F4F0E940A38892B09F411
S1135A1055C00E941323C75FDE4F2883C950D1406D
S1135A20C65FDE4F3883CA50D140C55FDE4F48831E
S1135A30CB50D140C45FDE4F5883CC50D140C35FBC
S1135A40DE4F6883CD50D140C25FDE4F7883CE50A5
S1135A50D140C15FDE4F8883CF50D140C05FDE4F5D
S1135A609883C051D1409F93C15FDE4F8881CF504E
S1135A70D1408F93C25FDE4F8881CE50D1408F9347
S1135A80C35FDE4F8881CD50D1408F93C45FDE4F1A
S1135A908881CC50D1408F93C55FDE4F8881CB5035
S1135AA0D1408F93C65FDE4F8881CA50D1408F9317
S1135AB0C75FDE4F8881C950D14053CF64EE73E293
S1135AC0CE0187539F4F0E940A38892B61F0C7018A
S1135AD0B6010E94772E862F0E947D0A81E893E208
S1135AE00E94F538AECD8BEE93E20E94F538A9CD35
S1135AF0EF92FF920F93E12CF12C01E020E030E0D3
S1135B0040E054E06CEF73E28BE09BE20E94DA1712
S1135B100F91FF90EF9008955058BB27AA270E9439
S1135B20A42D0C941E2F0E94102F38F00E94172FC2
S1135B3020F039F49F3F19F426F40C940D2F0EF441
S1135B40E095E7FB0C94072FE92F0E942F2F58F3C1
S1135B50BA17620773078407950720F079F4A6F54E
S1135B600C94512F0EF4E0950B2EBA2FA02D0B019F
S1135B70B90190010C01CA01A0011124FF27591B8E
S1135B8099F0593F50F4503E68F11A16F040A22F94
S1135B90232F342F4427585FF3CF46953795279505
S1135BA0A795F0405395C9F77EF41F16BA0B620B04
S1135BB0730B840BBAF09150A1F0FF0FBB1F661F4B
S1135BC0771F881FC2F70EC0BA0F621F731F841F8E
S1135BD048F4879577956795B795F7959E3F08F0B4
S1135BE0B0CF9395880F08F09927EE0F9795879576
S1135BF008950E94E32E08F481E008950E94122E75
S1135C000C941E2F0E94172F58F00E94102F40F062
S1135C1029F45F3F29F00C94072F51110C94522F53
S1135C200C940D2F0E942F2F68F39923B1F3552361
S1135C3091F3951B550BBB27AA276217730784079B
S1135C4038F09F5F5F4F220F331F441FAA1FA9F331
S1135C5035D00E2E3AF0E0E832D091505040E6951F
S1135C60001CCAF72BD0FE2F29D0660F771F881F80
S1135C70BB1F261737074807AB07B0E809F0BB0B73
S1135C80802DBF01FF2793585F4F3AF09E3F510587
S1135C9078F00C94072F0C94522F5F3FE4F3983E56
S1135CA0D4F3869577956795B795F7959F5FC9F770
S1135CB0880F911D9695879597F90895E1E0660FF1
S1135CC0771F881FBB1F621773078407BA0720F06A
S1135CD0621B730B840BBA0BEE1F88F7E0950895D3
S1135CE00E94772E6894B1110C94522F08950E944B
