:100000000C9404010C9425010C9425010C942501F9
:100010000C9425010C9425010C9425010C942501C8
:100020000C9425010C9425010C9425010C942501B8
:100030000C9425010C9425010C949B030C94250130
:100040000C9425010C9425010C9425010C94250198
:100050000C9425010C9425010C9425010C94250188
:100060000C9425010C9425010C9425010C94250178
:100070000C9425010C9425010C9425010C94250168
:100080000C9425010C9425010C9425010C94250158
:100090000C9425010C9425010C9425010C94250148
:1000A0000C9425010C9425010C9425010C94250138
:1000B0000C9425010C9425010C9425010C94FD034E
:1000C0000C9425010C9425010C9425010C94250118
:1000D0000C9425010C9425010C9425010C94250108
:1000E0000C9425010C9425010C9425010C942501F8
:1000F0000C9425010C9425010C9425010C942501E8
:100100000C9425010C9425010C9425010C942501D7
:100110000C9425010C9425010C9425010C942501C7
:100120000C9425010C9425010C9425010C942501B7
:100130000C9425010C9425010C9425010C942501A7
:100140000C9425010C9425010C9425010C94250197
:100150000C9425010C9425010C9425010C94250187
:100160000C9425010C9425010C9425010C94250177
:100170000C9425010C9425010C9425010C94250167
:100180000C9425010C9425010C9425010C94250157
:100190000C9425010C9425010C9425010C94250147
:1001A0000C9425010C9425010C9425010C94250137
:1001B0000C9425010C9425010C9425010C94250127
:1001C0000C9425010C9425010C9425010C94250117
:1001D0000C9425010C9425010C9425010C94250107
:1001E0000C9425010C9425010C9425010C942501F7
:1001F0000C9425010C9425010C9425010C943304D6
:100200000C944F010C94420111241FBECFEFCDBFBF
:10021000DFE9DEBF00E00CBF10E2A0E0B0E2E6EDF7
:10022000FFE000E00BBF02C007900D92A637B107B8
:10023000D9F728E2A6E7B0E201C01D92A83BB207B9
:10024000E1F70E948F070C94E9070C9400008BECF7
:100250008093520088E0809350008091510083FF8A
:10026000FCCF82EC8093550088E180935000809110
:10027000510084FFFCCF88ED84BF84E08093400070
:1002800080E008958093A009E0EAF9E0818186FF8B
:10029000FDCF80E48093A10980E090E00895E0EA3A
:1002A000F9E081818823ECF78091A00990E008951E
:1002B000E0E6F6E088E0818384E08283E0EAF9E02A
:1002C000138288E1848383E0858385EE86838CEBCB
:1002D0008783E2EBF8E280E090E28283938380837D
:1002E000918308950F931F93CF93DF93EC010E94A6
:1002F000AE058091762081111DC0EBE7F0E280E829
:1003000090E28083918312821382E7E7F0E28FEC20
:1003100097E08283938310821182AFE7B0E2139655
:100320008D939C9314971196ED93FC93129781E013
:1003300080937620209709F46BC09E012C5F3F4F7D
:100340002396CE3CD74008F060C0E0917B20F0912E
:100350007C20ABE7B0E202C0DF01FC018281938127
:100360008217930720F4808191810097A9F7C0E25A
:10037000E737FC0709F449C0CD91DC9111978E0154
:100380000C5F1F4F808191818D939C93828193811B
:10039000821B930B8930910510F1BF01620F731F0F
:1003A000DB0112968D939C931397228333831296CD
:1003B0004D915C9113978BE790E201C0CD01EC0168
:1003C000A881B98112962D913C9113972417350776
:1003D000A8F3EB01A883B983DC016D937C93809132
:1003E0000E2090910F2022813381821B930B8093EA
:1003F0000E2090930F200E946C060115110559F4F0
:100400000E949F0700E010E006C00E946C06F8CF33
:100410000E946C06F5CFC801DF91CF911F910F911B
:1004200008950F931F93CF93DF93009741F1EC0151
:100430008C01045011090E94AE05F80142815381DC
:10044000ABE7B0E201C0DF01ED91FC911197228191
:10045000338124173507B8F32497E883F9830D9384
:100460001C9320910E2030910F208A819B81820F56
:10047000931F80930E2090930F200E946C06DF91B3
:10048000CF911F910F910895FC0103968183928370
:100490002FEF3FEF23833483858396838783908771
:1004A00010820895FC01108611860895CF93DF9382
:1004B0009C01FB01DC011196CD91DC911297C28366
:1004C000D3838C819D81848395838C819D81DC0184
:1004D00012966D937C9313976C837D83208731876D
:1004E000F90180818F5F8083DF91CF910895CF9351
:1004F000DF93FC01A085B185C281D3818481958180
:100500008C839D83C481D581828193818A839B83DF
:1005100011968D919C911297E817F90731F4848117
:10052000958111968D939C931297108611868C91CC
:1005300081508C938C91DF91CF91089531E1FC0132
:100540003083319722E220833197A3E3A083319750
:100550006083319770833197108231971082319781
:1005600060E8608331971082319762E06083319751
:1005700063E06083319764E06083319765E0608376
:10058000319766E06083319767E06083319768E078
:100590006083319769E06083319760E160833197D0
:1005A0003083319732E13083319733E130833197B3
:1005B00034E13083319735E13083319736E1308350
:1005C000319737E13083319738E13083319739E122
:1005D0003083319730E23083319731E23083319785
:1005E0002083319723E220833197408331975083D2
:1005F000319726E22083319727E22083319728E242
:100600002083319729E22083319720E3208331979B
:1006100021E3208387970895E0E0F8E081E080837C
:10062000868380E09DE786A397A3A091AE28B09132
:10063000AF28CD91CDBFDD91DEBFFF91EF91DF916E
:10064000CF91BF91AF919F918F917F916F915F916A
:100650004F913F912F911F910F91FF90EF90DF905D
:10066000CF90BF90AF909F908F907F906F905F9052
:100670004F903F902F901F900F900FBE0F900895B6
:1006800081E008950F920FB6F8940F921F921124F3
:100690002F923F924F925F926F927F928F929F9292
:1006A000AF92BF92CF92DF92EF92FF920F931F9380
:1006B0002F933F934F935F936F937F938F939F936A
:1006C000AF93BF93CF93DF93EF93FF93A091AE28A7
:1006D000B091AF280DB60D920EB60D920E94EB06AA
:1006E000A091AE28B091AF28CD91CDBFDD91DEBFF6
:1006F000FF91EF91DF91CF91BF91AF919F918F913A
:100700007F916F915F914F913F912F911F910F9129
:10071000FF90EF90DF90CF90BF90AF909F908F9021
:100720007F906F905F904F903F902F901F900F9011
:100730000FBE0F9008950F920FB6F8940F921F926C
:1007400011242F923F924F925F926F927F928F92DD
:100750009F92AF92BF92CF92DF92EF92FF920F9350
:100760001F932F933F934F935F936F937F938F9339
:100770009F93AF93BF93CF93DF93EF93FF93A0919A
:10078000AE28B091AF280DB60D920EB60D920E9414
:10079000B4050E94EB06A091AE28B091AF28CD9190
:1007A000CDBFDD91DEBFFF91EF91DF91CF91BF9182
:1007B000AF919F918F917F916F915F914F913F91F9
:1007C0002F911F910F91FF90EF90DF90CF90BF90EE
:1007D000AF909F908F907F906F905F904F903F90E1
:1007E0002F901F900F900FBE0F901895E0E0FAE049
:1007F00087E0808381E0868308951F920F920FB671
:100800000F9211248F939F938091B0289091B128DB
:1008100001968093B0289093B1289F918F910F906B
:100820000FBE0F901F901895E0917628F0917728D1
:100830008081811107C08FEF9FEF8093562890939E
:1008400057280895E0917628F09177280580F68161
:10085000E02D0680F781E02D8281938180935628D8
:1008600090935728089502E618E20F2EFAE8EF2E2B
:10087000F8E2FF2EF02D80916128882329F10FB630
:10088000F8940F92D8011596ED91FC911697C681B8
:10089000D781CE0102960E94770280916028815014
:1008A00080936028809161288150809361280F9007
:1008B0000FBE8F89988D0E941102CE010E941102F5
:1008C000809161288111DBCFF7018081823010F0A7
:1008D0000E9442030E94A407CECF4F925F926F9274
:1008E0007F928F929F92AF92BF92CF92DF92EF92C0
:1008F000FF920F93CF93DF934C016B015A012901B3
:10090000CA010E9472013C01892B09F4EAC08CE201
:1009100090E00E947201EC01892BB1F06F8A788E11
:10092000A50165EA70E0C3010E94B20781E0A81A40
:10093000B1088F89988DA80EB91ED6018C91898F28
:100940008C91811105C018C0C3010E941102C9C059
:10095000AE01465E5F4FF6013196B8E0CB0ED11C7A
:10096000CF012191DA012D93AD01DC018C91882317
:1009700019F0EC15FD05A1F718A2043008F003E00A
:100980000E8B6E01B2E0CB0ED11CC6010E9452024A
:10099000CE010C960E945202C887D98784E090E06D
:1009A000801B91098C879D87CA8BDB8B1BA21CA2A5
:1009B0001DA21EA21FA218A619A61AA61BA6A20156
:1009C000B401C5010E949E0288839983E114F10459
:1009D00019F0F701C083D1830FB6F8940F9280917C
:1009E00060288F5F809360288091AE289091AF2817
:1009F000892BA9F5C093AE28D093AF2880916028A9
:100A00008130E9F58AE898E20E94440283E998E29D
:100A10000E9444028CE998E20E94440285EA98E22E
:100A20000E94440281E898E20E94440288E798E22A
:100A30000E9444028BE698E20E94440282E698E219
:100A40000E94440281E898E2809376289093772868
:100A500088E798E2809374289093752810C080915D
:100A60005C2881110CC0E091AE28F091AF289689E6
:100A70008E89891720F0C093AE28D093AF2880913B
:100A800058288F5F8093582889A38E8990915D287C
:100A9000981710F480935D2890E09C01220F331F7B
:100AA000220F331F220F331F820F931FB601865769
:100AB000974D0E9456020F900FBE80915C288823AC
:100AC00061F0E091AE28F091AF2896898E89981751
:100AD00030F40E94420381E005C081E003C081E060
:100AE00001C08FEFDF91CF910F91FF90EF90DF90DA
:100AF000CF90BF90AF909F908F907F906F905F90BE
:100B00004F900895EF92FF920F930F2EF4E5EF2E82
:100B1000F8E2FF2EF02D00E020E030E045E550E067
:100B200060E170E283E394E00E946D04813091F40F
:100B3000F8948FEF9FEF809356289093572881E089
:100B400080935C2810925E2810925F280E94F60322
:100B50000E940C030F91FF90EF900895809153280D
:100B60008F5F809353280895DF92EF92FF920F9347
:100B70001F93CF93DF9380915328811198C0E09009
:100B80005E28F0905F288FEFE81AF80AE0925E285E
:100B9000F0925F28E114F104B9F4809176289091E5
:100BA00077282091742830917528209376283093E7
:100BB00077288093742890937528809159288F5FA7
:100BC000809359280E9414048091562890915728A8
:100BD000E816F90610F4D12C52C0D12CE0917628F9
:100BE000F09177288081811107C08FEF9FEF80936C
:100BF00056289093572843C0E0917628F0917728A3
:100C00000580F681E02DC681D7818A819B81E81617
:100C1000F90628F4809356289093572830C08E0107
:100C20000E5F1F4FC8010E9477028C899D89892B16
:100C300021F0CE010C960E9477028E8990915D285A
:100C4000981710F480935D2890E09C01220F331FC9
:100C5000220F331F220F331F820F931FB8018657B5
:100C6000974D0E945602E091AE28F091AF289E89E0
:100C70008689981708F4B2CFDD24D394AFCFE091E2
:100C8000AE28F091AF28868990E0FC01EE0FFF1F9F
:100C9000EE0FFF1FEE0FFF1F8E0F9F1FFC01E65789
:100CA000F74D8081823048F0DD24D39406C08091D6
:100CB0005B288F5F80935B28D12C80915A288823F2
:100CC00011F0DD24D3948D2DDF91CF911F910F91E1
:100CD000FF90EF90DF900895DF92EF92FF920F93D5
:100CE0001F93CF93DF930FB6F8940F928091532800
:100CF0008150809353288091532881115FC0809147
:100D00006028811133C05DC0D7011596ED91FC912B
:100D10001697C681D781CE010C960E9477028E016C
:100D20000E5F1F4FC8010E9477028E8990915D2847
:100D3000981710F480935D2890E09C01220F331FD8
:100D4000220F331F220F331F820F931FB8018657C4
:100D5000974D0E945602E091AE28F091AF289E89EF
:100D60008689981768F0D0925A280AC0C0E0D0E06F
:100D70000F2EFBE6EF2EF8E2FF2EF02DDD24D394AC
:100D8000F70180818111C0CFCD2B11F00E94140496
:100D9000C0915B28CC2351F0D1E00E94B4058111B1
:100DA000D0935A28C150C9F710925B2880915A28D5
:100DB000882331F00E94420381E003C080E001C03B
:100DC00080E00F900FBEDF91CF911F910F91FF90A8
:100DD000EF90DF9008950F931F93809153288823FD
:100DE00021F081E080935A2897C010925A28809170
:100DF000B0289091B1282091200A3091210AA0E0DA
:100E0000B0E0DC0199278827820F931FA11DB11D37
:100E100000914F281091502820915128309152284C
:100E2000081719072A073B07A0F4E091AE28F091B4
:100E3000AF2843A154A165A176A1401B510B620BC1
:100E4000730B480F591F6A1F7B1F43A354A365A34D
:100E500076A380934F2890935028A0935128B09365
:100E6000522820915D28822F90E0FC01EE0FFF1F99
:100E7000EE0FFF1FEE0FFF1FE80FF91FE657F74DAC
:100E80003081311111C02150822F90E0FC01EE0F12
:100E9000FF1FEE0FFF1FEE0FFF1FE80FF91FE657B2
:100EA000F74D3081332379F3AC01440F551F440FC4
:100EB000551F440F551F480F591FDA01A657B74D4C
:100EC0001196ED91FC9112970280F381E02D11961D
:100ED000ED93FC9312974357574DE417F50729F408
:100EE00042815381FD0141835283FC01EE0FFF1FBC
:100EF000EE0FFF1FEE0FFF1F8E0F9F1FFC01E65727
:100F0000F74D0180F281E02D868197818093AE2894
:100F10009093AF2820935D281F910F9108950E9410
:100F200027010E94580187E08093A2008FE390E29E
:100F30000E94B9070E94820580E090E008958EE447
:100F400090E20E94B907FFCF8FE690E20E94B907B6
:100F50002FEF83ED90E3215080409040E1F700C0F7
:100F600000000895DC0101C06D9341505040E0F74E
:100F700008950F931F93CF93DF93E091B428F091DE
:100F8000B528238121FF1BC08C01D0E0C0E0F8010F
:100F900081918F016091B4287091B528DB0118967A
:100FA000ED91FC911997882331F01995892B79F3EC
:100FB000DFEFCFEFECCF8AE01995892B19F08FEF97
:100FC0009FEF02C08D2F9C2FDF91CF911F910F912A
:060FD0000895F894FFCF24
:100FD600000000020000000042014F010000CF07A0
:100FE60049444C45000925630925750925750925D8
:100FF600750D0A0009256C750909256C7525250DE1
:101006000A0009256C7509093C3125250D0A004998
:101016006E697420636F6D706C6574650D00455262
:10102600524F523A206D656D6F727920616C6C6F0C
:10103600636174696F6E206661696C65640D004951
:06104600646C650D000062
:00000001FF
