S01200004C696E65626F74496F542E7372656339
S11300000C9495010C94B6010C9479040C9400059D
S11300100C94B6010C94B6010C94B6010C94B60180
S11300200C94B6010C94B6010C94B6010C94B60170
S11300300C94B6010C94B6010C94D20B0C94B6013A
S11300400C94460C0C94B6010C94B6010C94B601B5
S11300500C94B6010C94B6010C94B6010C94B60140
S11300600C94B6010C94B6010C94B6010C94B60130
S11300700C94B6010C94B6010C94B6010C94B60120
S11300800C94B6010C94B6010C94C5020C94B60100
S11300900C94B6010C94B6010C94B6010C94B60100
S11300A00C94B6010C94B6010C94B6010C9487051B
S11300B00C940E060C94B6010C94F1070C94B60142
S11300C00C94B6010C94B6010C94B6010C94B601D0
S11300D00C94B6010C94B6010C94B6010C94B601C0
S11300E00C94B6010C94B6010C9411090C94B6014D
S11300F00C94CA080C94B6010C94B6010C94B60185
S11301000C94B6010C94B6010C94B6010C94B6018F
S11301100C94B6010C94B6010C94B6010C943602FE
S11301200C94B6010C94B6010C94B6010C94B6016F
S11301300C94B6010C94B6010C94B6010C94B6015F
S11301400C94B6010C94B6010C94B6010C94B6014F
S11301500C94B6010C94B6010C94B6010C94B6013F
S11301600C94B6010C94B6010C94B6010C94B6012F
S11301700C94B6010C94B6010C94B6010C94B6011F
S11301800C94B6010C94B6010C94B6010C94B6010F
S11301900C94B6010C94B6010C94B6010C94B601FF
S11301A00C94B6210C94B6010C94B6010C94B601CF
S11301B00C94B6010C94B6010C94B6010C94B601DF
S11301C00C94B6010C94B6010C94B6010C94B601CF
S11301D00C94B6010C94B6010C94B6010C94B601BF
S11301E00C94B6010C94B6010C94B6010C94B601AF
S11301F00C94B6010C94B6010C94B6010C94A31C97
S11302000C945B080C94D1200C9466120C94131F6C
S11302100C94EC210C9447210C94CD1B0C94710884
S11302200C94D61A0C94551B6E616E00696E6600B0
S113023000407A10F35A00A0724E18090010A5D499
S1130240E80000E87648170000E40B54020000CAF6
S11302509A3B000000E1F50500008096980000003C
S113026040420F000000A08601000000102700009B
S11302700000E803000000006400000000000A0021
S1130280000000000100000000002C76D888DC6724
S11302904F0823DFC1DFAE59E1B1B796E5E3E4537C
S11302A0C63AE651997696E8E6C28426EB898C9B99
S11302B062ED407C6FFCEFBC9C9F40F2BAA56FA539
S11302C0F490055A2AF75C936B6CF9676DC11BFCBB
S11302D0E0E40D47FEF520E6B500D0ED902E0300D6
S11302E0943577050080841E080000204E0A000023
S11302F000C80C333333330F986E12831141EF8DE2
S11303002114893BE65516CFFEE6DB18D1844B3821
S11303101BF77C1D901DA4BBE424203284725E2252
S11303208100C9F124ECA1E53D2711241FBECFEFC4
S1130330CDBFDFE9DEBF00E00CBF11E2A0E0B0E218
S1130340ECE4F6E500E00BBF02C007900D92AA3082
S1130350B107D9F722E2AAE0B1E201C01D92AE30A2
S1130360B207E1F70E94BE1A0C94242B0C940000EF
S1130370E0E0F2E081E0808396E0918392E0928372
S113038093E0948382A343E060E00E94B70D8093DE
S1130390EF219093F02143E060E081E00E94B70DEB
S11303A08093ED219093EE2120E040E050E060E066
S11303B070E08091EF219091F0210C94FB0DCF938C
S11303C0DF93C82FD62F6FEF7FEF8091EF219091AD
S11303D0F0210E944F10C03128F080E197E2DF91B4
S11303E0CF910895CC0FCC0FCC0FC0932102DF3FE7
S11303F0A1F1D43068F582E080932002809101025B
S113040080618093010280912102D82BD093210234
S1130410809120028068809320026FEF7FEF8091AB
S1130420ED219091EE210E944F10C0912402D091B1
S1130430250220E040E050E060E070E08091EF2190
S11304409091F0210E94FB0DCE01DF91CF91089590
S1130450D450D43010F68FE1CFCF81E080932002C6
S1130460809101028F7E80930102D2CF1F920F925E
S11304700FB60F9211240BB60F922F933F934F9305
S11304805F936F937F938F939F93AF93BF93EF93F8
S1130490FF93CF93DF931F92CDB7DEB71982BE01CE
S11304A06F5F7F4F8091ED219091EE210E943F0F6D
S11304B0898181110E94AE0B0F90DF91CF91FF9142
S11304C0EF91BF91AF919F918F917F916F915F91C8
S11304D04F913F912F910F900BBE0F900FBE0F9035
S11304E01F9018950F93CF93DF931F921F92CDB750
S11304F0DEB780E8898381E08A8342E0BE016F5FD2
S11305007F4F89E30E947B0782E9898301E09E0192
S11305102F5F3F4F41E0B90189E30E9402078981BF
S11305208B3A11F081E889838BED8A8342E0BE0126
S11305306F5F7F4F89E30E947B078FE8898383E0A5
S11305408A8342E0BE016F5F7F4F89E30E947B078D
S11305500F900F90DF91CF910F910895E0E2F6E0B4
S113056098EF928389E5838B848B858B868B878B2D
S1130570928783E0818740E061E08AE00E94B70DC2
S113058080930A2190930B2108951F920F920FB626
S11305900F9211240BB60F922F933F934F935F93B7
S11305A06F937F938F939F93AF93BF93EF93FF9337
S11305B00E94B321882361F08091A2008760809318
S11305C0A2008FE38093A10681E090E00E94BE0622
S11305D0FF91EF91BF91AF919F918F917F916F9117
S11305E05F914F913F912F910F900BBE0F900FBED3
S11305F00F901F901895DC0110920F21109210217A
S11306009C919923B1F0FD01319680E49093A00A66
S11306109091A10A96FFFCCF8093A10A9F012A1B07
S11306203B0B91919111F2CF20930F213093102124
S113063008950895FC0110920F21109210219081C9
S11306409923E1F0319620E030E080E42617370763
S11306501CF06115710569F49093A00A9091A10AA8
S113066096FFFCCF8093A10A2F5F3F4F9191911188
S1130670EDCF20930F213093102108950895CF9248
S1130680DF92EF92FF920F931F93CF93DF937C013E
S113069080E197E280930D2190930E2110920C211A
S11306A0C5E0D0E0C12CE0E1F7E2A0E4DA2E0AE0F4
S11306B010E0C701BF010E942028AB019B01ADECF3
S11306C0BCEC0E94482896958795969587959695B3
S11306D087959C01220F331F880F991F880F991F3C
S11306E0880F991F820F931F9A01281B390BC90188
S11306F0009711F4CC2059F0805D8093A00A80917A
S1130700A10A86FFFCCFD092A10ACC24C394CF01C6
S1130710B8010E943428FB01219759F6C0920C219C
S113072060930D2170930E21DF91CF911F910F9152
S1130730FF90EF90DF90CF900895E0E2F6E087E03D
S1130740818380E4808B818B828BE0E0F6E090E80B
S11307509183878B0895E0E2F6E09481282F277037
S1130760922B9483E0E0F6E0948188708295807FF8
S1130770892B84830895E0E2F6E02481982F977012
S1130780909592239483E0E0F6E0948188708295BA
S1130790807F8095892384830895E0EAF6E08FE1E1
S11307A0818380E4848B20E12583E0E0FBE091E019
S11307B0908393EF918340E050E146A357A3E0E494
S11307C0F6E090EC9283868B878B828790E8938700
S11307D095E09187E0E8F6E030E33283848B858B03
S11307E0228780E28387918740E065E084E10E946C
S11307F0B70D8093F5219093F621089520E1009799
S113080069F56115710509F457C02093A606813076
S113081020EF92070CF457C091958195910980932C
S1130820280B9093290B10922A0B10922B0B719585
S1130830619571091616170644F1613020EF7207AD
S11308400CF444C071956195710960932C0B7093FD
S11308502D0B10922E0B10922F0B08952093A606A9
S113086018161906A4F61092280B1092290B81155C
S113087020E19207F4F480932A0B90932B0B71954B
S11308806195710916161706C4F610922C0B109276
S11308902D0B611580E178072CF460932E0B709377
S11308A02F0B08956FEF7FE060932E0B70932F0B47
S11308B008958FEF9FE0DFCF2093A506813020EFCE
S11308C092070CF0A9CF81E090EFA6CF61E070EF22
S11308D0B9CF0FB6F8940F924091F1215091F221C3
S11308E02091F3213091F4210F900FBEBA01C90178
S11308F008951F920F920FB60F9211240BB60F9208
S11309001F932F933F934F935F936F937F938F9393
S11309109F93AF93BF93EF93FF93CF93DF9300D055
S113092000D0CDB7DEB71E82209120083091210877
S11309308091FB219091FC21A091FD21B091FE2199
S1130940820F931FA11DB11D89839A83AB83BC833E
S113095080914806182F107886FF37C081E08D8378
S113096020E0AE014A5F5F4FBE016F5F7F4F809111
S1130970F5219091F6210E94E40E1123B9F18091A2
S1130980F1219091F22101968093F1219093F2212B
S11309908E8181110E94AE0B2696CDBFDEBFDF9102
S11309A0CF91FF91EF91BF91AF919F918F917F91E3
S11309B06F915F914F913F912F911F910F900BBEBB
S11309C00F900FBE0F901F90189585E08D8320E047
S11309D0AE014A5F5F4FBE016F5F7F4F8091F5218B
S11309E09091F6210E94E40E112349F28091F121A5
S11309F09091F22101978093F1219093F221C8CF35
S1130A001F920F920FB60F9211240BB60F921F93E1
S1130A102F933F934F935F936F937F938F939F9302
S1130A20AF93BF93EF93FF93CF93DF9300D000D0A6
S1130A30CDB7DEB71E822091200830912108809125
S1130A40FB219091FC21A091FD21B091FE21820F08
S1130A50931FA11DB11D89839A83AB83BC838091AD
S1130A604806182F107487FF37C082E08D8320E07A
S1130A70AE014A5F5F4FBE016F5F7F4F8091F521EA
S1130A809091F6210E94E40E1123B9F18091F12195
S1130A909091F22101978093F1219093F2218E811C
S1130AA081110E94AE0B2696CDBFDEBFDF91CF91A0
S1130AB0FF91EF91BF91AF919F918F917F916F9132
S1130AC05F914F913F912F911F910F900BBE0F900B
S1130AD00FBE0F901F90189586E08D8320E0AE0125
S1130AE04A5F5F4FBE016F5F7F4F8091F521909108
S1130AF0F6210E94E40E112349F28091F121909194
S1130B00F22101968093F1219093F221C8CF1F9294
S1130B100F920FB60F9211240BB60F921F932F93BF
S1130B203F934F935F936F937F938F939F93AF9371
S1130B30BF93EF93FF93CF93DF9300D000D0CDB753
S1130B40DEB71E8220912008309121088091FB217C
S1130B509091FC21A091FD21B091FE21820F931F61
S1130B60A11DB11D89839A83AB83BC8380918806C0
S1130B70182F107284FF37C083E08D8320E0AE010C
S1130B804A5F5F4FBE016F5F7F4F8091F521909167
S1130B90F6210E94E40E1123B9F18091F321909182
S1130BA0F42101968093F3219093F4218E81811195
S1130BB00E94AE0B2696CDBFDEBFDF91CF91FF9191
S1130BC0EF91BF91AF919F918F917F916F915F91C1
S1130BD04F913F912F911F910F900BBE0F900FBE1D
S1130BE00F901F90189587E08D8320E0AE014A5F37
S1130BF05F4FBE016F5F7F4F8091F5219091F62189
S1130C000E94E40E112349F28091F3219091F42182
S1130C1001978093F3219093F421C8CF1F920F92F0
S1130C200FB60F9211240BB60F921F932F933F937D
S1130C304F935F936F937F938F939F93AF93BF93E0
S1130C40EF93FF93CF93DF9300D000D0CDB7DEB7FF
S1130C501E8220912008309121088091FB219091DF
S1130C60FC21A091FD21B091FE21820F931FA11DB3
S1130C70B11D89839A83AB83BC8380918806182F26
S1130C80107284FF1CC084E08D8320E0AE014A5FB3
S1130C905F4FBE016F5F7F4F8091F5219091F621E8
S1130CA00E94E40E112309F447C08091F32190912E
S1130CB0F42101978093F3219093F4211AC088E0E2
S1130CC08D8320E0AE014A5F5F4FBE016F5F7F4FAF
S1130CD08091F5219091F6210E94E40E8091F321F8
S1130CE09091F421111122C001978093F3219093E4
S1130CF0F4218E8181110E94AE0B2696CDBFDEBFFA
S1130D00DF91CF91FF91EF91BF91AF919F918F911F
S1130D107F916F915F914F913F912F911F910F9010
S1130D200BBE0F900FBE0F901F90189501968093E5
S1130D30F3219093F421DDCF8091F3219091F4215C
S1130D4001968093F3219093F421D3CF0FB6F894B6
S1130D500F921092F1211092F2211092F32110922D
S1130D60F4210F900FBE0895E0E0F6E080E4818363
S1130D708683089580E2809341060895811104C01A
S1130D8080E280934606089580E2809345060895A4
S1130D908BEC8093520088E0809350008091510046
S1130DA083FFFCCF82EC8093550088E18093500050
S1130DB08091510084FFFCCF88ED84BF84E0809350
S1130DC0400080E0089510921621E0E8F6E088E102
S1130DD0808B818BE0EAF4E088E7818383E285837A
S1130DE081E084830E94CA0E80931321909314217E
S1130DF043E060E081E00E94B70D8093112190935D
S1130E0012210895CF92DF92EF92FF920F931F93D6
S1130E10CF93DF93D82F6B01142F79016FEF7FEFFE
S1130E2080911321909114210E944F10C0921D2192
S1130E30D0921E21E0921B21F0921C21C091162118
S1130E40C11144C081E08093162110921521DD0F59
S1130E50D0931F2110931A21009319211092182165
S1130E601092172180911A21882331F180911F213A
S1130E708E7F8093A6046FEF7FEF80911121909174
S1130E8012210E944F108091152120E040E050E093
S1130E9060E070E0813039F1809113219091142148
S1130EA00E94FB0D8C2FDF91CF911F910F91FF902A
S1130EB0EF90DF90CF900895809119218823D9F283
S1130EC080911F2181608093A604D5CF20E040E06B
S1130ED050E060E070E080911321909114210E9411
S1130EE0FB0DC0E0DFCF80911321909114210E946B
S1130EF0FB0DC1E0D7CF0F9300E020E030E00E946B
S1130F0002070F91089590911A212091192180913F
S1130F10A40484FD22C080911821891768F080916F
S1130F201721821718F183E08093A30481E0809352
S1130F30152110921621089580911821E0911D2108
S1130F40F0911E21E80FF11D80818093A704809108
S1130F5018218F5F80931821089583E08093A30460
S1130F6085E08093152110921621089580911F2108
S1130F7081608093A6040895809117218032F8F44B
S1130F808091A70490911721E0911B21F0911C21DD
S1130F90E90FF11D8083809117218F5F80931721C2
S1130FA090911921809117218917B8F087E08093D7
S1130FB0A30481E08093152110921621089583E003
S1130FC08093A30482E080931521109216219091BE
S1130FD0192180911721891748F782E08093A3048F
S1130FE008951F920F920FB60F9211240BB60F9211
S1130FF02F933F934F935F936F937F938F939F931D
S1131000AF93BF93EF93FF93CF93DF931F92CDB72B
S1131010DEB719828091A404982F9C70E1F486FDB8
S113102044C087FD45C086E08093152110921621A7
S11310308091162181111FC0BE016F5F7F4F809187
S11310401121909112210E943F0F8981882399F0E8
S11310500E94AE0B10C08091A40482FD22C093E0D4
S11310609093152188608093A40410921621809196
S11310701621882309F30F90DF91CF91FF91EF910F
S1131080BF91AF919F918F917F916F915F914F919C
S11310903F912F910F900BBE0F900FBE0F901F909A
S11310A0189594E090931521DDCF0E948307DFCF3C
S11310B00E94BC07DCCFCF93DF931F92CDB7DEB77E
S11310C04FEF5FEFBE016F5F7F4F8091F7219091EB
S11310D0F8210E94920F898190E00F90DF91CF91C7
S11310E00895CF93DF931F921F92CDB7DEB78A8303
S11310F020E04FEF5FEFBE016E5F7F4F8091F921DB
S11311009091FA210E94FB0D8091A10A85FF0EC0E7
S113111040E050E0BE016F5F7F4F8091F9219091D4
S1131120FA210E94920F89818093A00A80E090E0C6
S11311300F900F90DF91CF91089540E061E080E837
S11311400E94B70D8093F9219093FA2140E061E069
S113115080E80E94B70D8093F7219093F821E0E88E
S1131160F6E088E0818384E08283E0EAFAE084E1C7
S1131170838388E1848383E0858385EE86838CEB97
S11311808783E8E0F2E286E090E2828393838083BF
S1131190918308951F920F920FB60F9211240BB6EC
S11311A00F922F933F934F935F936F937F938F93FC
S11311B09F93AF93BF93EF93FF93CF93DF931F92CC
S11311C01F92CDB7DEB71982AE014F5F5F4FBE01EC
S11311D06E5F7F4F8091F9219091FA210E9406124F
S11311E08130D9F0898181110E94AE0B0F900F904C
S11311F0DF91CF91FF91EF91BF91AF919F918F912B
S11312007F916F915F914F913F912F910F900BBE02
S11312100F900FBE0F901F9018958A818093A00A9B
S1131220E1CF1F920F920FB60F9211240BB60F92BB
S11312302F933F934F935F936F937F938F939F93DA
S1131240AF93BF93EF93FF93CF93DF931F921F92BC
S1131250CDB7DEB719828091A00A8A8320E0AE015F
S11312604F5F5F4FBE016E5F7F4F8091F72190917A
S1131270F8210E94E40E898181110E94AE0B0F9027
S11312800F90DF91CF91FF91EF91BF91AF919F911B
S11312908F917F916F915F914F913F912F910F901B
S11312A00BBE0F900FBE0F901F9018950F931F93B6
S11312B0CF93DF93EC010E941C16809120218111B1
S11312C021C0E091FF21F0910022CF01019680938B
S11312D025219093262110922721109228218FEF07
S11312E09FE3809323219093242110922121109233
S11312F022218383948381E291E28183928381E03A
S113130080932021209709F464C0AE014C5F5F4FA5
S11313102396CE3FDF4308F05CC0E0912521F09195
S11313202621A5E2B1E206C080819181009739F0BF
S1131330DF01FC012281338124173507A8F3C1E2C0
S1131340E132FC0709F445C0CD91DC9111978E017F
S11313500C5F1F4F808191818D939C93C901841BE5
S1131360950B8930910500F1BF01640F751FDB01F6
S113137012968D939C9313974283538312962D91C7
S11313803C911397A5E2B1E201C0DF01ED91FC911C
S113139011978281938182179307B8F3EB01E88355
S11313A0F9836D937C939A01809114209091152078
S11313B0821B930B80931420909315200E94061790
S11313C00115110541F0C801DF91CF911F910F91D3
S11313D008950E9406170E94431A00E010E0C80115
S11313E0DF91CF911F910F910895CF93DF930097D1
S11313F021F1EC0124970E941C164A815B81A5E22D
S1131400B1E201C0DF01ED91FC911197228133819A
S113141024173507B8F3E883F983CD93DC938091DF
S1131420142090911520480F591F40931420509375
S11314301520DF91CF910C940617DF91CF91089579
S1131440FC010396818392832FEF3FEF2383348340
S1131450858396838783908710820895FC01108684
S113146011860895CF93DF939C01FB01DC01119653
S1131470CD91DC911297C283D3838C819D81848327
S113148095838C819D81DC0112966D937C931397D7
S11314906C837D8320873187F90180818F5F80830E
S11314A0DF91CF910895CF93DF93EB014881598168
S11314B04F3F2FEF520701F1DC01139601C0DF010A
S11314C01296ED91FC9113972081318142175307B5
S11314D0B0F7EA83FB83C483D583AC83BD831296C0
S11314E0CD93DC93139788879987FC0120812F5F24
S11314F02083DF91CF910895FC01A781B0851296D6
S1131500ED91FC911397E5CFCF93DF93FC01A08578
S1131510B1852281338184819581E9018C839D8306
S113152084819581EC012A833B8311962D913C9112
S11315301297E217F30749F0108611868C918150B7
S11315408C938C91DF91CF91089511968D939C93F8
S11315501297F2CF31E1FC013083319722E22083EC
S11315603197A3E3A08331976083319770833197D8
S1131570108231971082319760E86083319710822E
S1131580319762E06083319763E06083319764E070
S11315906083319765E06083319766E060833197BB
S11315A067E06083319768E06083319769E0608326
S11315B0319760E1608331973083319732E1308332
S11315C0319733E13083319734E13083319735E11A
S11315D03083319736E13083319737E13083319767
S11315E038E13083319739E13083319730E2308309
S11315F0319731E2308331972083319723E220837E
S11316003197408331975083319726E22083319775
S113161027E22083319728E22083319729E220832F
S1131620319720E32083319721E32083879708951E
S1131630E0E0F8E08FEF9FEF80A791A781E080833F
S113164090E491838683878380E09DE786A397A3B4
S1131650A091C721B091C821CD91CDBFDD91DEBF4E
S1131660FF91EF91DF91CF91BF91AF919F918F91B6
S11316707F916F915F914F913F912F911F910F91A6
S1131680FF90EF90DF90CF90BF90AF909F908F909E
S11316907F906F905F904F903F902F901F900F908E
S11316A00FBE0F90089581E008950F920FB6F8943D
S11316B00F921F9211242F923F924F925F926F923A
S11316C07F928F929F92AF92BF92CF92DF92EF92CE
S11316D0FF920F931F932F933F934F935F936F93B7
S11316E07F938F939F93AF93BF93CF93DF93EF93A6
S11316F0FF93A091C721B091C8210DB60D920EB6EB
S11317000D920E941018A091C721B091C821CD91CB
S1131710CDBFDD91DEBFFF91EF91DF91CF91BF91FE
S1131720AF919F918F917F916F915F914F913F9175
S11317302F911F910F91FF90EF90DF90CF90BF906A
S1131740AF909F908F907F906F905F904F903F905D
S11317502F901F900F900FBE0F9008958091200836
S1131760909121088C599F4F8093280890932908C1
S11317702091280830912908809126089091270803
S11317802817390770F02091260830912708809196
S1131790280890912908821B930B80932808909322
S11317A0290808950F920FB6F8940F921F921124EE
S11317B02F923F924F925F926F927F928F929F925D
S11317C0AF92BF92CF92DF92EF92FF920F931F934B
S11317D02F933F934F935F936F937F938F939F9335
S11317E0AF93BF93CF93DF93EF93FF93A091C72160
S11317F0B091C8210DB60D920EB60D922091260817
S1131800309127088091FB219091FC21A091FD212A
S1131810B091FE21820F931FA11DB11D8093FB2166
S11318209093FC21A093FD21B093FE210E942C16DD
S11318300E941018A091C721B091C821CD91CDBFAD
S1131840DD91DEBFFF91EF91DF91CF91BF91AF9119
S11318509F918F917F916F915F914F913F912F91C4
S11318601F910F91FF90EF90DF90CF90BF90AF90BA
S11318709F908F907F906F905F904F903F902F90AC
S11318801F900F900FBE0F90189508950F920FB6EA
S1131890F8940F921F9211242F923F924F925F92CD
S11318A06F927F928F929F92AF92BF92CF92DF926C
S11318B0EF92FF920F931F932F933F934F935F9356
S11318C06F937F938F939F93AF93BF93CF93DF9344
S11318D0EF93FF93A091C721B091C8210DB60D924B
S11318E00EB60D928FEF9FEF8093280890932908EE
S11318F00E941018A091C721B091C821CD91CDBFED
S1131900DD91DEBFFF91EF91DF91CF91BF91AF9158
S11319109F918F917F916F915F914F913F912F9103
S11319201F910F91FF90EF90DF90CF90BF90AF90F9
S11319309F908F907F906F905F904F903F902F90EB
S11319401F900F900FBE0F9018950F931F93CF9376
S1131950DF93EC01042F1A8D4C8D41110DC0888149
S11319609981892B09F443C01F5F80E01A8FDF91AE
S1131970CF911F910F91089550E0011115C08A81F4
S11319809B810E945B2A2C8D8A819B81820F911DF1
S11319908A839B832C813D818217930728F3888156
S11319A099818A839B83E0CF8E819F810E945B2AE9
S11319B08C8D90E09195819591092E813F81280F1E
S11319C0391F2E833F83488159812417350730F40A
S11319D02C813D81820F931F8E839F83023021F6D9
S11319E0112311F080E0C2CF11E080E0BFCF8C81E1
S11319F09D810E946A191C821D821F5FB7CFFC0162
S1131A00CB01448D442391F050E066817781640FCB
S1131A10751F66837783248135816217730720F0ED
S1131A2060817181668377830C945B2A0895EF92B9
S1131A30FF920F931F93CF938C010FB6F8940F92DC
S1131A40FC01C68D1C16C4F4FC0181898823A1F015
S1131A507801F1E1EF0EF11C06C0C15069F0F80104
S1131A608189882349F0C7010E943A188823A9F381
S1131A700E94F318C15099F78FEFF801868F0F90E9
S1131A800FBE0FB6F8940F92C58D1C16C4F4F8015E
S1131A9080858823A1F07801F8E0EF0EF11C06C0E0
S1131AA0C15069F0F8018085882349F0C7010E947C
S1131AB03A188823A9F30E94F318C15099F78FEFBD
S1131AC0F801858F0F900FBECF911F910F91FF905A
S1131AD0EF9008951F93CF93DF93EC01162F892B7A
S1131AE009F43EC00FB6F8940F92488159818B8D4A
S1131AF06C8D9A01869F200D311D11242C833D830A
S1131B001A8E4A835B8390E00197689F9001699FD6
S1131B10300D1124CA01820F931F8E839F838FEF90
S1131B208D8F8E8F111113C08885811107C00F907E
S1131B300FBE81E0DF91CF911F910895CE010896E9
S1131B400E943A18882399F30E94550BF0CFCE01D6
S1131B5008960E94200ACE0141960E94200AE7CFEF
S1131B6063E071E086E190E20E948C1ABBCFFF92A1
S1131B700F931F93CF93DF93182F062FF42E8823F0
S1131B8099F10023D1F0109FC001112481960E9485
S1131B905609EC01009751F08196888399831B8F35
S1131BA00C8F61E0CE010E946A0DF8A2CE01DF9194
S1131BB0CF911F910F91FF90089581E290E00E94D0
S1131BC05609EC01892B91F3C883D9831B8F0C8FA1
S1131BD061E0CE010E946A0DF8A2CE01DF91CF919F
S1131BE01F910F91FF90089566E771E086E190E2FE
S1131BF00E948C1AC6CFBF92CF92DF92EF92FF92CF
S1131C000F931F93CF93DF93CDB7DEB72597CDBF47
S1131C10DEBF8C016B014C835D83B22E892B09F4EA
S1131C20B2C0C114D10409F4A2C0F2E0BF1609F491
S1131C307DC0F801838D20E07801F8E0EF0EF11CFF
S1131C4010C06C817D81C7010E941A18C8010E94CE
S1131C50170D0E940617882309F44AC0F801838DE2
S1131C6021E00FB6F8940F92F801928D981708F4BA
S1131C7042C0F2E0BF1609F43EC08C819D81892BDD
S1131C8009F460C0222359F10F900FBE0E941C1664
S1131C900FB6F8940F92F801858D8F3F39F1F80152
S1131CA0868D8F3F09F10F900FBEBE016C5F7F4F91
S1131CB0CE0101960E949C18811148C00FB6F89479
S1131CC00F92F801928D0F900FBE838D981709F42F
S1131CD0B8CFC8010E94170D0E940617BFCFCE01CE
S1131CE001960E949118D0CF168EDDCF158ED7CFD6
S1131CF00E94550BB3CF4B2DB601C8010E94A50C11
S1131D00F801918991112CC0811127C00F900FBE49
S1131D1081E02596CDBFDEBFDF91CF911F910F915A
S1131D20FF90EF90DF90CF90BF900895F801838DDE
S1131D30813009F480CF63EF72E086E190E20E9483
S1131D408C1A77CF0F900FBE80E0E3CFC8010E94BA
S1131D50170D0E94061780E0DCCF0E94550BD6CFEA
S1131D60C80141960E943A18882381F2F6CFF801FF
S1131D70848D882309F459CF62EF72E086E190E202
S1131D800E948C1A52CF61EF72E086E190E20E94C9
S1131D908C1A47CFCF93DF93482F60E081E00E94F5
S1131DA0B70DEC01009761F01C821D821882198224
S1131DB01E8220E040E050E060E070E00E94FB0DF5
S1131DC0CE01DF91CF910895CF92DF92EF92FF92EF
S1131DD00F931F93CF93DF93EC018B016A01F22ED3
S1131DE0892B09F445C001151105C1F182E0F816EB
S1131DF071F09A8D8B8D9817A0F080E0DF91CF91D0
S1131E001F910F91FF90EF90DF90CF9008958B8DED
S1131E10813031F065EC73E086E190E20E948C1A27
S1131E208A8DEE8C4F2DB801CE010E94A50CEFEFE8
S1131E30EE1621F0E394EE8E81E0E0CF89898823C9
S1131E40D9F3CE0141960E943A188823A9F3C1140C
S1131E50D10491F381E0F6018083D0CF8C8D882367
S1131E6029F264EC73E086E190E20E948C1ABECF02
S1131E7063EC73E086E190E20E948C1AB4CF0F9376
S1131E801F93CF93DF93EC018B01892B09F443C09B
S1131E908C8D81111BC088819981892B09F18A8DD0
S1131EA09B8D891768F49E8D8F5F8A8F9F3F19F1F0
S1131EB09F5F9E8F81E0DF91CF911F910F910895D5
S1131EC080E0DF91CF911F910F91089564E674E053
S1131ED086E190E20E948C1A88819981892BF9F617
S1131EE08C819D81892BD9F269E674E086E190E2C8
S1131EF00E948C1AD4CF89898823E1F2CE014196BD
S1131F000E943A188823B1F20115110599F281E073
S1131F10F8018083D0CF60E674E086E190E20E940D
S1131F208C1AB6CFAF92BF92CF92DF92FF920F93EB
S1131F301F93CF93DF93CDB7DEB72597CDBFDEBF19
S1131F408C015B014C835D83892B09F4A1C0A1142E
S1131F50B10409F491C020E06801F1E1CF0ED11C75
S1131F600FB6F8940F92F801F28CF1106AC08C81CC
S1131F709D81892B09F473C0222309F459C00F9061
S1131F800FBE0E941C160FB6F8940F92F801858DAF
S1131F908F3F09F454C0F801868D8F3F09F44DC07A
S1131FA00F900FBEBE016C5F7F4FCE0101960E9461
S1131FB09C18811122C00FB6F8940F92F801828DFB
S1131FC00F900FBE811112C06C817D81C6010E94E9
S1131FD01A18C8010E94170D0E940617882311F0D1
S1131FE021E0BECF0E94550B21E0BACFC8010E9468
S1131FF0170D0E94061721E0B3CFC8010E94170DE8
S11320000E9406170FB6F8940F92F801828D0F9074
S11320100FBE8111E5CF2596CDBFDEBFDF91CF91F5
S11320201F910F91FF90DF90CF90BF90AF900895D4
S1132030CE0101960E949118A2CF168EB1CF158EB3
S1132040AACFB501C8010E94FF0CFA94F801F28EE0
S11320508085811108C00F900FBE81E0DCCF0F9006
S11320600FBE80E0D8CFC80108960E943A18882392
S113207091F30E94550BEFCFF801848D882309F466
S11320806ACF64E075E086E190E20E948C1A63CF27
S113209060E075E086E190E20E948C1A58CFDF92EE
S11320A0EF92FF920F931F93CF93DF93CDB7DEB7D9
S11320B02597CDBFDEBF8C016C837D83892B09F40A
S11320C0D0C0D8015C968C918111BBC0D12C20E08A
S11320D07801B1E1EB0EF11C0FB6F8940F92F80100
S11320E0828D811189C08C819D81892B09F49DC0C9
S11320F0222309F45FC00F900FBE0E941C160FB676
S1132100F8940F92D8015D968C915D978F3F09F4F6
S113211056C0F801868D8F3F09F458C00F900FBE4A
S1132120BE016C5F7F4FCE0101960E949C18811105
S113213023C00FB6F8940F92D8015A968C915A97EF
S11321400F900FBE811144C0F80180819181892BC9
S113215009F445C06C817D81C7010E941A18C80129
S11321600E94170D0E940617882311F021E0B4CFB6
S11321700E94550B21E0B0CFC8010E94170D0E94A8
S113218006170FB6F8940F92F801828D0F900FBEC8
S11321908111ECCFDD2009F472C00FB6F8940F92D0
S11321A08189811165C060E0F801848195810E9474
S11321B0C11943C0CE0101960E9491189CCF5D962F
S11321C01C92F801868D8F3F09F0A8CF168EA6CFFA
S11321D0C8010E94170D0E94061721E07DCF0FB69B
S11321E0F8940F9214968D919C9115970E94F7186C
S11321F0D82E0F900FBEAECF8150828F80819181F7
S1132200892B09F43EC0F8018085811121C00F900B
S11322100FBE81E02596CDBFDEBFDF91CF911F9128
S11322200F91FF90EF90DF900895DD2031F061EE83
S113223075E086E190E20E948C1A0F900FBE80E058
S1132240E9CF65E975E086E190E20E948C1A3ECF01
S1132250C80108960E943A188823C9F20E94550BB7
S1132260D6CF61E975E086E190E20E948C1A29CF0D
S11322700688F789E02D80816AE0681B95CF80E0AD
S1132280C9CF0E94301AD80114968D939C93159748
S1132290BACFCF92DF92EF92FF920F931F93CF9317
S11322A0DF93CDB7DEB72597CDBFDEBF8C016B01C1
S11322B04C835D83892B09F4A2C0C114D10409F4B1
S11322C092C020E07801F1E1EF0EF11C0FB6F89412
S11322D00F92F801828D811169C08C819D81892BB7
S11322E009F474C0222309F458C00F900FBE0E9451
S11322F01C160FB6F8940F92F801858D8F3F09F4E0
S113230053C0F801868D8F3F09F44CC00F900FBE67
S1132310BE016C5F7F4FCE0101960E949C18811113
S113232022C00FB6F8940F92F801828D0F900FBE61
S1132330811112C06C817D81C7010E941A18C801E5
S11323400E94170D0E940617882311F021E0BECFCA
S11323500E94550B21E0BACFC8010E94170D0E94BC
S1132360061721E0B3CFC8010E94170D0E9406177B
S11323700FB6F8940F92F801828D0F900FBE811161
S1132380E5CF2596CDBFDEBFDF91CF911F910F9191
S1132390FF90EF90DF90CF900895CE0101960E94B8
S11323A09118A3CF168EB2CF158EABCFE680F780EF
S11323B0B601C8010E94FF0CF801E682F782818908
S11323C0811108C00F900FBE81E0DBCF0F900FBECC
S11323D080E0D7CFC80141960E943A18882391F330
S11323E00E94550BEFCFF801848D882309F469CF3F
S11323F06CE676E086E190E20E948C1A62CF68E691
S113240076E086E190E20E948C1A57CFCF92DF9259
S1132410EF92FF920F931F93CF93DF93EC017B0115
S11324206A01892BB9F1E114F104D1F01A8D11116B
S11324300AC080E0DF91CF911F910F91FF90EF9040
S1132440DF90CF9008950D8DB701CE010E94FF0C4F
S113245011501A8F0F3F71F00F5F0D8F81E0EACF9B
S11324608C8D882319F36CEF76E086E190E20E946C
S11324708C1ADCCF8885882389F3CE0108960E94C4
S11324803A18882359F3C114D10441F381E0F601C9
S11324908083D0CF6BEF76E086E190E20E948C1AC5
S11324A0C2CFCF93DF93EC01892B49F00FB6F89498
S11324B00F928A8D0F900FBEDF91CF9108956AE835
S11324C077E086E190E20E948C1AF0CF20C00FB62C
S11324D0F8940F92E0914A21F0914B21C681D78163
S11324E0CE0102960E94840A80913A218150809301
S11324F03A21809144218150809344210F900FBE52
S11325008F89988D0E94F509CE010E94F50980916A
S113251044218111DCCF80916D21823010F00E9422
S1132520550B0E94421AF3CFE0915921F0915A21A0
S11325300580F681E02D0680F781E02D828193816C
S113254080933021909331210895CF93DF93EC0150
S1132550892B99F08A859B858B53914221F080E0E9
S1132560DF91CF9108952C893D8981E22E3438077B
S1132570B1F381E0232B99F7F3CF62EF76E08AE29F
S113258090E20E948C1AE6CFFF920F931F93CF9391
S1132590DF93EC01F62E00913821109139218091BE
S11325A0C7219091C82102960E94840ACF3F8FEFE1
S11325B0D807A9F1C00FD11FE091C721F091C8211C
S11325C0C283D3836091C7217091C821C017D107FA
S11325D0C8F08091592190915A216E5F7F4F0E94DB
S11325E0530A8091302190913121C817D90720F4E2
S11325F0C0933021D0933121DF91CF911F910F915E
S1132600FF90089580915721909158216E5F7F4FDC
S1132610DF91CF911F910F91FF900C94530AFF20EB
S113262049F26091C7217091C8216E5F7F4F8BE39F
S113263091E2DF91CF911F910F91FF900C94320A98
S11326400F931F93CF93109234212091200830913F
S113265021088091FB219091FC21A091FD21B09152
S1132660FE21820F931FA11DB11D009129211091FC
S11326702A2120912B2130912C21081719072A0790
S11326803B07A0F4E091C721F091C82147A150A5D0
S113269061A572A5401B510B620B730B480F591FA8
S11326A06A1F7B1F47A350A761A772A780932921A4
S11326B090932A21A0932B21B0932C21E091C72140
S11326C0F091C8210788F08DE02D80819181A2814D
S11326D0B381853A954AA54AB54A09F44CC060913C
S11326E0C7217091C8218091C7219091C821675E4C
S11326F07F4F0E94621AC09137218C2F90E09C0179
S1132700220F331F220F331F220F331FF901E80F4B
S1132710F91FE359FE4D408141110CC0CC2311F047
S1132720C150EBCF6CE87BE08AE290E20E948C1A05
S1132730C150E3CF820F931FDC01A359BE4D119604
S1132740ED91FC9112970280F381E02D1196ED93A7
S1132750FC93129780599E4DE817F90759F1868129
S113276097818093C7219093C821C0933721CF913B
S11327701F910F91089584819581A681B781853A2F
S1132780954AA54AB54A09F0AACF80859185A285C4
S1132790B385853A954AA54AB54A09F0A0CF848500
S11327A09585A685B785853A954AA54AB54A09F01F
S11327B096CFA1CF0280F381E02D1196ED93FC9387
S11327C01297CDCF5F926F927F928F929F92AF922A
S11327D0BF92CF92DF92EF92FF920F931F93CF930A
S11327E0DF934C01EB015A013901502ECA010E94BA
S11327F056098C01892B09F4DEC080E390E00E9425
S113280056096C01009709F4D3C0DC0157960D9367
S11328101C935897209709F4D0C0C801A50165EA14
S113282070E00E94642AF1E0AF1AB108D60157960D
S11328308D919C915897A80EB91EF60179969E0128
S1132840285F3F4FDE01899181938C91882319F091
S1132850C217D307B9F7F60110A2052D0A3008F004
S1132860A1C0D60156960C93569793960C939397C2
S113287094961C92E6012296CE010E942E0AC6016D
S11328800C960E942E0AF601C086D1868AE090E05A
S1132890801B910984879587C28AD38A15A216A2C0
S11328A017A210A611A612A613A614A615A616A65C
S11328B017A6A301B401C5010E94AA0AD6018D93EB
S11328C09C93E114F10419F0F701C082D1820FB690
S11328D0F8940F9280913A218F5F80933A218091EE
S11328E0C7219091C821892B99F0809136218111BB
S11328F018C0E091C721F091C821D60156968C9159
S11329009689891788F0C092C721D092C8210CC03B
S1132910C092C721D092C82180913A21813009F414
S113292056C0D60156968C91909132219F5F909318
S11329303221F60191A390913721981780F190E00C
S11329409C01220F331F220F331F220F331F820FCC
S1132950931FBE0183599E4D0E94320A0F900FBEF1
S113296080913621882351F0E091C721F091C8214C
S11329709689D60156968C919817B0F081E0DF9134
S1132980CF911F910F91FF90EF90DF90CF90BF9068
S1132990AF909F908F907F906F905F9008958093F9
S11329A03721CDCF09E05DCF0E94550B81E0E7CF01
S11329B0C8010E94F5098FEFE2CF60E673E08AE276
S11329C090E20E948C1AF6018789908D27CF0DE63C
S11329D011E257ECE52E51E2F52EC8010E94200ABF
S11329E0075F1F4FE016F106C1F784E691E20E94EB
S11329F0200A8BE591E20E94200A8EE491E20E9473
S1132A00200A85E491E20E94200A8BE391E20E946D
S1132A10200A84E691E28093592190935A218BE510
S1132A2091E28093572190935821F60186897CCFB7
S1132A300F931F93CF93DF93EC010FB6F8940F928B
S1132A40892B09F462C08E010E5F1F4FC8010E94DA
S1132A50840A8C899D89892B21F0CE010C960E94D1
S1132A60840AB8018BE391E20E94320A8FA5813077
S1132A7021F10F900FBE80913621882391F00FB67B
S1132A80F8940F92E0915921F0915A21808181119B
S1132A902BC08FEF9FEF80933021909331210F90C3
S1132AA00FBE8091C7219091C821C817D90739F06A
S1132AB0DF91CF911F910F9108951FA6DACF8091D6
S1132AC036218823A1F080912D21882331F068ECF0
S1132AD076E08AE290E20E948C1A0E94550BDF9104
S1132AE0CF911F910F9108950E949412D8CF909185
S1132AF03B2180913A21981799F080912D218823C8
S1132B0049F081E080933421D3CFC091C721D09183
S1132B10C82199CFDF91CF911F910F910C9420136D
S1132B201092C7211092C821C3CF0F931F93CF9344
S1132B30DF93EC01892B09F43DC08091C72190916A
S1132B40C821C817D90751F00FB6F8940F92CE01D7
S1132B500E94A512811107C00F900FBEDF91CF9183
S1132B601F910F9108958E010E5F1F4FC8010E949F
S1132B70840A8E8990913721981710F48093372115
S1132B8090E09C01220F331F220F331F220F331FAB
S1132B90820F931FB80183599E4D0E94320AE0911F
S1132BA0C721F091C8219E8986899817A8F20E94AE
S1132BB0550BD2CF6CE177E08AE290E20E948C1A46
S1132BC08091C7219091C821C9CFEF92FF920F93B2
S1132BD08EE2E82E81E2F82E00E020E030E040E0D2
S1132BE051E06EE370E286E692E10E94E2138130E6
S1132BF079F08F3F21F00F91FF90EF90089567E0F7
S1132C0078E08AE290E20F91FF90EF900C948C1A96
S1132C10F8942FEF3FEF20933021309331218093AC
S1132C20362110923821109239210E94450C0F91BF
S1132C30FF90EF900C94180B80912D218F5F80935F
S1132C402D2108950FB6F8940F9280913821909118
S1132C5039210F900FBE0895DF92EF92FF920F93E8
S1132C601F93CF93DF9380912D218111B9C0E09000
S1132C703821F09039218FEFE81AF80AE0923821D0
S1132C80F0923921E114F10449F5E0915921F091D0
S1132C905A2180818111ABC08091592190915A2190
S1132CA020915721309158212093592130935A2152
S1132CB08093572190935821809133218F5F809383
S1132CC03321E0915921F0915A218081811196C0DC
S1132CD08FEF9FEF809330219093312180913021A9
S1132CE090913121D12CE816F90608F453C0E091F3
S1132CF05921F0915A218081882309F445C0E0913B
S1132D005921F0915A210580F681E02DC681D781A1
S1132D108A819B81E816F90608F473C08E010E5F60
S1132D201F4FC8010E94840A8C899D89892B21F038
S1132D30CE010C960E94840A8E89909137219817AF
S1132D4010F48093372190E09C01220F331F220F4F
S1132D50331F220F331F820F931FB80183599E4DD7
S1132D600E94320AE091C721F091C8219E89868988
S1132D70981708F4BCCFDD24D394E0915921F09145
S1132D805A2180818111BBCF8FEF9FEF8093302137
S1132D9090933121E091C721F091C821868990E078
S1132DA0FC01EE0FFF1FEE0FFF1FEE0FFF1F8E0F34
S1132DB09F1FFC01E359FE4D8081823010F0DD2419
S1132DC0D39480913421882311F0DD24D3948D2D64
S1132DD0DF91CF911F910F91FF90EF90DF900895B5
S1132DE0809135218F5F80933521D12CEACF66E61F
S1132DF07AE08AE290E20E948C1A4ECF0E949412EA
S1132E006DCF8093302190933121C4CFFF920F93E3
S1132E101F93CF93DF9380912D21882309F477C0EA
S1132E200FB6F8940F9280912D21815080932D211B
S1132E3080912D21811162C080913A21882309F467
S1132E405DC0C0E0D0E0FF24F39480914E2188233C
S1132E50A1F1E0915321F0915421C681D781CE0193
S1132E600C960E94840A8E010E5F1F4FC8010E94B7
S1132E70840A8E8990913721981710F48093372112
S1132E8090E09C01220F331F220F331F220F331FA8
S1132E90820F931FB80183599E4D0E94320AE0911C
S1132EA0C721F091C8219E898689981770F2F09203
S1132EB0342180914E218111CCCFCD2B69F0E0914A
S1132EC05921F0915A21808181112CC08FEF9FEFFD
S1132ED08093302190933121C0913521CC2351F03E
S1132EE0D1E00E942C168111D0933421C150C9F72E
S1132EF01092352180913421811110C080E00F900F
S1132F000FBEDF91CF911F910F91FF9008956CE652
S1132F1078E08AE290E20E948C1A82CF0E94550BDC
S1132F2081E0EDCF0E949412D7CF0F931F93CF93DC
S1132F30DF938C01EB01892B09F446C02097E9F15A
S1132F4080912D21811132C080912D218F5F80933A
S1132F502D214091382150913921F801208131816E
S1132F60CE01820F931F4217530788F482179307E9
S1132F7088F0F801808391830E940617811102C0B2
S1132F800E94550BDF91CF911F910F9108958217E5
S1132F90930718F04817590760F7F8018083918365
S1132FA060E0841B950B0E94C412E6CF6CEC74E0C5
S1132FB08AE290E20E948C1AC7CF6BEC74E08AE23A
S1132FC090E20E948C1ABCCF6AEC74E08AE290E230
S1132FD00E948C1AB3CFCF93DF93EC01892B29F491
S1132FE00E94550BDF91CF91089580912D2181117D
S1132FF010C080912D218F5F80932D2160E0CE0140
S11330000E94C4120E940617882351F3DF91CF91C6
S1133010089560E275E08AE290E20E948C1AE9CF9A
S113302080912D21811102C00C94201381E08093A2
S1133030342108950F931F93CF93DF93EC018B01F9
S1133040892B89F06091C7217091C821645F7F4FFB
S1133050CE010E94530A61E0C801DF91CF911F9114
S11330600F910C94C41263EA7BE08AE290E20E941E
S11330708C1AE8CF0F931F93CF93DF93DC0115963F
S1133080ED91FC911697C681D781209709F442C02F
S11330908E01045F1F4FC8010E94840A80912D2174
S11330A0811129C00A501109C8010E94840A8E891D
S11330B090913721981728F190E09C01220F331F3B
S11330C0220F331F220F331F820F931FB80183591E
S11330D09E4D0E94320AE091C721F091C8219E8939
S11330E08689891788F481E080933421DF91CF9118
S11330F01F910F910895B8018EE491E20E94320A63
S1133100EACF80933721D8CF80E0DF91CF911F9110
S11331100F9108956EEF7BE08AE290E20E948C1A90
S1133120B7CF20913321FC012083209138213091A5
S113313039212183328308950F931F93CF93DF9313
S1133140EC018B01892B09F440C00115110509F428
S113315043C00FB6F8940F92809138219091392191
S1133160F801208131812F3FFFEF3F0761F1498151
S11331705A81609133217881761719F08417950765
S113318080F4841B950B8217930768F0F801108272
S1133190118281E00F900FBEDF91CF911F910F91AB
S11331A0089581E0F7CF281B390BF8012083318380
S11331B080913321888380913821909139218983AA
S11331C09A8380E0E7CF80E0E5CF69E67CE08AE29D
S11331D090E20E948C1AB9CF6AE67CE08AE290E21F
S11331E00E948C1AB6CF81E08093342108950F9306
S11331F01F93CF93DF93FC01892B09F441C02689E7
S1133200A091C721B091C82156968C91281770F5CA
S11332108485958597FD0CC0A091C721B091C821E4
S113322056963C918AE090E0831B910984879587A8
S113323030E0C901880F991F880F991F880F991FC3
S1133240280F391F23593E4D828593858217930792
S1133250E9F0A091C721B091C82156968C91868B34
S113326081E0DF91CF911F910F910895A091C72123
S1133270B091C82181E023A156969C91291788F327
S113328080E0DF91CF911F910F9108958F01EF019D
S11332902296CE010E94840AE091C721F091C821B0
S11332A08689F801868B90913721981710F48093C2
S11332B0372190E09C01220F331F220F331F220F6E
S11332C0331F820F931FBE0183599E4D0E94320A01
S11332D081E0C7CF0F931F93CF93DF930097C9F07B
S11332E0EC018091C7219091C821C817D90731F00A
S11332F06EE77FE08AE290E20E948C1A8CA1882318
S1133300C1F181508CA32E899BA1291711F0882328
S113331031F080E0DF91CF911F910F9108958E01DC
S11333200E5F1F4FC8010E94840A2BA12E8B822F8F
S113333090E04AE050E0481B590B4C875D87309180
S11333403721321710F4209337219C01220F331FA9
S1133350220F331F220F331F820F931FB80183598B
S11333609E4D0E94320A81E0DF91CF911F910F910F
S113337008956FE77FE08AE290E20E948C1A8CA1A4
S1133380C0CF0F931F93CF93DF93009779F0162F3D
S1133390EC018CA1882309F454C00BA1011758F047
S11333A08E89801719F09CA1913039F0DF91CF916B
S11333B01F910F910895012FF3CF2091C7213091D0
S11333C0C821C217D30709F443C00E8B2C853D8551
S11333D037FD06C02AE030E0201B31092C873D87E9
S11333E090E09C01220F331F220F331F220F331F43
S11333F0820F931F83599E4D2A853B8528173907D1
S1133400A9F68E010E5F1F4FC8010E94840A8E899F
S113341090913721981710F48093372190E09C0104
S1133420220F331F220F331F220F331F820F931FCC
S1133430B80183599E4DDF91CF911F910F910C9448
S1133440320A6DEC7FE08AE290E20E948C1AA5CFEA
S113345068EE7FE08AE290E20E948C1A8E89B5CFF2
S11334608091C7219091C821892B39F0E091C7211F
S1133470F091C82184A18F5F84A38091C72190918A
S1133480C82108950895F8948DE690E20E94FB0205
S113349080E880930106809305062FEF33EC99E0D2
S11334A0215030409040E1F700C0000080930606B0
S11334B02FEF33EC99E0215030409040E1F700C009
S11334C00000E9CFEB01F89480E8809301068FE8CF
S11334D090E20E94FB026AE070E0CE010E941A03AF
S11334E08AE690E20E94FB0280E8809305062FEFB3
S11334F033ED90E3215030409040E1F700C00000EC
S1133500809306062FEF33ED90E321503040904036
S1133510E1F700C00000E9CF8C01EB01F89480E8EA
S11335208093010687EA90E20E94FB0264E670E061
S1133530C8010E941A0387EB90E20E94FB02CE01AD
S11335400E943F038AE690E20E94FB0280E8809397
S113355005062FEF33EC99E0215030409040E1F71D
S113356000C00000809306062FEF33ED90E3215056
S113357030409040E1F700C00000E9CF0E94C80647
S113358080E090E40E9457288093FF2190930022CA
S1133590892B59F087E08093A20078940E942E2210
S11335A00E94E51580E090E00895FFCFCF93DF936C
S11335B0CDB7DEB72A97CDBFDEBF87E00E94AB034D
S11335C00E94221689879A8764E080E00E94DF01C6
S11335D089839A8364E081E00E94DF018B839C836A
S11335E064E082E00E94DF018D839E8364E083E0D7
S11335F00E94DF018F83988722E040E050E0BE0103
S11336006F5F7F4F80910122909102220E94FB0DF7
S11336106AE070E0CE0109960E949517D5CFEF922B
S1133620FF920F9340E068E081E00E94B70D809321
S1133630012290930222E12CF12C02E020E030E000
S113364040E052E062EC70E286ED9AE10E94E213FF
S11336500F91FF90EF900895CF93DF93CDB7DEB72E
S11336606097CDBFDEBF4FEF5FEFBE01675F7F4F57
S113367080910122909102220E94491188E0FE016A
S11336803996DE01119601900D928A95E1F7298110
S11336903A814B815C816D817E818F8198856096B2
S11336A0CDBFDEBFDF91CF910895CF93DF93CDB728
S11336B0DEB72A97CDBFDEBF1BC0C501B4010E948F
S11336C026238B0120E030E0A901C701B6010E9446
S11336D0AF2287FD49C0C701B6010E942623C80155
S11336E00E94FE036AE070E0CE0109960E949517DD
S11336F00E94221689879A870E942C1B29833A8369
S11337006D837E8369817A818D819E81681B790BAB
S1133710072E000C880B990B0E945E232DEC3CECC9
S11337204CE45EE30E9413246B017C0120E030E052
S113373048E455E40E9443224B015C01A701960131
S113374060E070E088E495E40E9442226B017C0111
S113375020E030E0A901C501B4010E94AF2287FF37
S1133760ACCF00E010E0AECF60E070E0B8CFEF92F5
S1133770FF920F9389ECE82E81E2F82E03E020E01B
S113378030E040E051E066EC70E285E59BE10E94A8
S1133790E2130F91FF90EF900895CF93DF93CDB78D
S11337A0DEB72A97CDBFDEBF6FEF7FEF8091CD21CB
S11337B09091CE210E944F108091D3219091D421D9
S11337C0A091D521B091D6218093CF219093D0217F
S11337D0A093D121B093D2210E94221689879A877F
S11337E018C0C501B4010E942623C7010E943721D5
S11337F060E070E08091CB219091CC210E944F1029
S1133800813009F455C06AE070E0CE0109960E9447
S113381095170E942C1B29833A836D837E836981CB
S11338207A818D819E81681B790B64567109072EFC
S1133830000C880B990B0E945E232DEC3CEC4CECA5
S11338405DE30E9413244B015C01C090CF21D09012
S1133850D021E090D121F090D221A70196010E94BD
S113386043222B013C01A5019401C701B6010E942A
S113387042224B015C0120E030E0A901C301B20106
S11338800E94AF2287FF0EC0E12CF12C20E030E033
S1133890A901C501B4010E94AF2287FFA2CF60E055
S11338A070E0A3CFC301B2010E9426237B01EECFB7
S11338B060E070E080E090E00E94372175CFEF92E5
S11338C0FF920F9343E060E081E00E94B70D809384
S11338D0CD219093CE2143E060E081E00E94B70DBA
S11338E08093CB219093CC21E12CF12C02E020E0B9
S11338F030E040E052E06FEC70E28DEC9BE10E941E
S1133900E2130F91FF90EF9008956093D321709389
S1133910D4218093D5219093D62120E040E050E03B
S113392060E070E08091CD219091CE210C94FB0D4C
S113393020E040E050E060E070E08091CB21909185
S1133940CC210C94FB0DCF93DF93CDB7DEB76797F3
S1133950CDBFDEBF0FC0823009F4AEC0833009F49E
S1133960FAC08091D9219091DA210E9451128823C2
S113397009F496C04FEF5FEFBE016F5F7F4F8091F8
S1133980D9219091DA210E94920F8981813019F70F
S11339904E805F80688479848A809B80AC80BD80FF
S11339A00E9422168A879B870E9458200E94252104
S11339B00E9469046B017C0120E030E0A901C5018B
S11339C0B4010E940E242DEC3CE44FE453E4181699
S11339D00CF050C1C501B4010E94B42220E030E0D3
S11339E044EB53E40E94132420E030E040E450E42C
S11339F00E94B4226C8B7D8B8E8B9F8BB601DD0C69
S1133A00880B990B0E945E239B01AC016C897D8914
S1133A108E899F890E9443220E9426238B012DECCC
S1133A203CE44FE453E4C301B2010E94B42220E019
S1133A3030E044EB53E40E94132420E030E040E4FF
S1133A4050E40E94B4220E942623DC01CB01BC0175
S1133A500E94372109C00C151D05B4F06AE070E01E
S1133A60CE010A960E9495170E9469046B017C019D
S1133A7020E030E0A901C501B4010E940E2418160B
S1133A8054F3C016D10654F70E9471200E943121CC
S1133A908091D9219091DA210E94511281116ACF2B
S1133AA020E040E050E060E070E08091D721909108
S1133AB0D8210E94FB0D5ECFCA80DB80EC80FD80A4
S1133AC00E9422168A8B9B8B0E9458200E942521DB
S1133AD00E9469042DEC3CE44FE453E4C701B601B1
S1133AE00E94B42220E030E044EB53E40E9413240B
S1133AF020E030E040E450E40E94B4220E94851C9F
S1133B0000E010E00BC00F5F1F4F05311105E4F416
S1133B106AE070E0CE0142960E9495170E942C1B29
S1133B202A873B874C875D876E877F87888B998B35
S1133B302A853B858E859F85820F931F8A38934102
S1133B4014F700E010E0E4CF0E94981C0E9471205A
S1133B500E94312106CF4E805F80688479848A80F8
S1133B609B80AC80BD800E9422168A879B870E941E
S1133B7058200E9425210E9469046B017C0126ECD7
S1133B8039ED47E75FE3C501B4010E9413244B01FB
S1133B905C0120E030E0A9010E940E2418160CF00C
S1133BA0ABC0B601DD0C880B990B0E945E236B0140
S1133BB07C012DEC3CE44FE453E4C501B4010E94C4
S1133BC0B42220E030E044EB53E40E94132420E0CC
S1133BD030E040E450E40E94B4229B01AC01C701F0
S1133BE0B6010E9442220E9426238B012DEC3CE464
S1133BF04FE453E4C301B2010E94B42220E030E058
S1133C0044EB53E40E94132420E030E040E450E409
S1133C100E94B4222B013C010E9426236B017C01EB
S1133C20C301B20190580E942623DC01CB01B601E6
S1133C300E9437210AC0C016D1060CF425CF6AE0D1
S1133C4070E0CE010A960E9495170E9469046B01E8
S1133C507C0120E030E0A901C501B4010E940E24DA
S1133C6018164CF30C151D0554F70E9471200E9480
S1133C7031210ECFC501B4010E94B42220E030E00E
S1133C8044EB53E40E94132420E030E040E450E489
S1133C900E94B4226C8B7D8B8E8B9F8BB601DD0CC6
S1133CA0880B990B0E945E239B01AC016C897D8972
S1133CB08E899F890E9443220E9426238B012DEC2A
S1133CC03CE44FE453E4C301B2010E94B42220E077
S1133CD030E044EB53E40E94132420E030E040E45D
S1133CE050E40E94B42290580E942623DC01CB01A8
S1133CF0BC010E943721B8CEB601DD0C880B990BAC
S1133D000E945E236B017C012DEC3CE44FE453E400
S1133D10C501B4010E94B42220E030E044EB53E436
S1133D200E94132420E030E040E450E40E94B422D6
S1133D309B01AC01C701B6010E9442220E942623C6
S1133D408B012DEC3CE44FE453E4C301B2010E9427
S1133D50B42220E030E044EB53E40E94132420E03A
S1133D6030E040E450E40E94B4222B013C0190581E
S1133D700E9426236B017C01C301B2010E94262309
S1133D80DC01CB01B6010E9437215FCFEF92FF9295
S1133D900F93E12CF12C03E020E030E040E051E00F
S1133DA067ED70E283EA9CE10E94E21340E069E07F
S1133DB081E00E94B70D8093D9219093DA2143E0EA
S1133DC060E081E00E94B70D8093D7219093D821C1
S1133DD00F91FF90EF900895CF93DF93CDB7DEB7A7
S1133DE02997CDBFDEBF22E029836A837B838C833E
S1133DF09D8320E04FEF5FEFBE016F5F7F4F8091A7
S1133E00D9219091DA210E94FB0D6FEF7FEF809111
S1133E10D7219091D8210E944F102996CDBFDEBFA3
S1133E20DF91CF910895CF93DF93CDB7DEB72C9771
S1133E30CDBFDEBF0E9422168093DB219093DC214C
S1133E4019861A861B861C861D821E821F8218866E
S1133E5077C020E030E0A901C701B6010E94AF227B
S1133E6087FF0AC020E030E84BEB54E4C701B601F9
S1133E700E9442226B017C0120E030EF4FE755ECB9
S1133E80C701B6010E94AF2287FFB6C001E010EF60
S1133E90C501B4010E945E239B01AC0169857A854A
S1133EA08B859C850E94422220E030E046E953E461
S1133EB00E9413246B017C0120E030E0A9010E94E0
S1133EC00E24181654F420E030E84BEB54E4C701F8
S1133ED0B6010E9443226B017C0120E030EF4FE7E2
S1133EE055E4C701B6010E940E2418160CF48AC0CA
S1133EF020E030E0A901C701B6010E94AF2287FF8C
S1133F000AC020E030E84BEB54E4C701B6010E943C
S1133F1042226B017C0120E030EF4FE755ECC701F2
S1133F20B6010E94AF2287FF74C061E070EFC80140
S1133F300E94FE036AE070E08BED91E20E94951707
S1133F400E9469046B017C0160E070E08091E121D2
S1133F509091E2210E944F102601DD0C660877083B
S1133F60813009F490C04701FF0CAA08BB0840E067
S1133F7050E0BE016F5F7F4F8091DF219091E0217F
S1133F800E94920F813009F449C0C301B2010E941A
S1133F905E239B01AC016D817E818F8198850E9497
S1133FA0422220E030E046E953E40E9413246B01EE
S1133FB07C0120E030E0A9010E940E24181654F47C
S1133FC020E030E84BEB54E4C701B6010E944322E1
S1133FD06B017C0120E030EF4FE755E4C701B601E7
S1133FE00E940E2418160CF034CFC12C90EFD92E59
S1133FF09FE7E92E95E4F92EC701B6010E94262316
S11340008B0146CFC12C80EFD82E8FE7E82E85E4B4
S1134010F82EC701B6010E94262389CF69817A81CF
S1134020072E000C880B990B0E945E2320E030E0E1
S113403048EC52E40E94B4229B01AC016D817E8164
S11340408F8198850E9443226D837E838F83988716
S11340506B817C81072E000C880B990B0E945E23D8
S113406020E030E048EC52E40E94B4229B01AC0111
S113407069857A858B859C850E94432269877A8726
S11340808B879C8782CFC301B2010E945E236D831C
S11340907E838F8398874701FF0CAA08BB08C5015C
S11340A0B4010E945E2369877A878B879C875FCFE0
S11340B00E94A60620E040E050E060E070E08091BD
S11340C0E1219091E2210E94FB0D0E94221680932F
S11340D0DB219093DC218091DD219091DE210C94F1
S11340E095158091DD219091DE210E94181560E0E4
S11340F070E080E090E00C94FE03EF92FF920F9347
S11341000E94CD038DEDE82E81E2F82E03E020E03D
S113411030E040E051E06EED70E283E19FE10E9407
S1134120E2130E94712040E064E081E00E94B70D38
S11341308093DF219093E02143E060E081E00E94DE
S1134140B70D8093E1219093E221009751F020E094
S113415040E050E060E070E00F91FF90EF900C942D
S1134160FB0D0F91FF90EF900895CF93DF9300D054
S11341701F92CDB7DEB789839A836B837C8320E05B
S11341804FEF5FEFBE016F5F7F4F8091DF21909112
S1134190E0210E94FB0D2496CDBFDEBFDF91CF91BD
S11341A00895CF93DF9300D01F92CDB7DEB70E945E
S11341B022168093E3219093E4214FEF5FEFBE0139
S11341C06F5F7F4F8091E7219091E8210E94491110
S11341D06B817C8189819A810E94B5206AE070E0BC
S11341E083EE91E20E949517E8CFEF92FF920F932E
S11341F085EEE82E81E2F82E03E020E030E040E096
S113420051E065EE70E281ED90E20E94E21380914C
S1134210E5219091E6210E94181540E064E081E0D8
S11342200E94B70D8093E7219093E821E9EEF1E233
S1134230108211821282138222E040E050E0BF011A
S11342400F91FF90EF900C94FB0D0E942216809327
S1134250E3219093E4218091E5219091E6210C944F
S113426095158091E5219091E6210C941815E9EEBD
S1134270F1E2808391836283738322E040E050E023
S1134280BF018091E7219091E8210C94FB0D0FE38D
S1134290CCEED0E211E080ED97E00E94EB170093A2
S11342A0A20688E00E94AB030E9469049F938F9347
S11342B07F936F93DF93CF930E94B22A89E190E0BA
S11342C00E94EB170E94A60688E00E94BB0380E0D0
S11342D090E00E94BE068091A2008C7F8093A20091
S11342E0109303228AE090E00E94EB17809148002B
S11342F08160809348008895809148008E7F8093E8
S11343004800109203220F900F900F900F900F907F
S11343100F90C1CFEF92FF920F93E0EAF0E0828119
S1134320876882837894E8E4F0E08081817F846008
S11343308083E0EAF6E080E88283828789E5878BE0
S113434083E08187E12CF12C00E020E030E040E0C4
S113435051E06DEF70E287E491E20E94E2130F9165
S1134360FF90EF9008958091032208951F920F9279
S11343700FB60F9211240BB60F922F933F934F93C6
S11343805F936F937F938F939F93AF93BF93EF93B9
S1134390FF9380910322882361F08091A2008760BB
S11343A08093A2008FE38093A10681E090E00E94B5
S11343B0BE06FF91EF91BF91AF919F918F917F9135
S11343C06F915F914F913F912F910F900BBE0F9082
S11343D00FBE0F901F901895CF93DF93CDB7DEB724
S11343E02897CDBFDEBF81E00E94BE0681E090E049
S11343F00E94EB170E94AE020E949D030E949D083A
S11344000E94BA060E94E3060E94B4060E94B80104
S11344100E94720282E390E00E94EB1780E2809394
S113442001060E940F1B0E947D200E94F5200E941D
S11344305F1C0E94B71B0E94C61E0E948A216981CC
S11344407A818B819C810E94EC1E80E090E028960A
S1134450CDBFDEBFDF91CF910C941815EF92FF9280
S11344600F93E12CF12C03E020E030E040E051E038
S113447061E071E28CEE91E20E94E2130F91FF90F1
S1134480EF9008955058BB27AA270E945A220C94F3
S1134490D4230E94C62338F00E94CD2320F039F49F
S11344A09F3F19F426F40C94C3230EF4E095E7FB24
S11344B00C94BD23E92F0E94E52358F3BA17620731
S11344C073078407950720F079F4A6F50C94072464
S11344D00EF4E0950B2EBA2FA02D0B01B90190011B
S11344E00C01CA01A0011124FF27591B99F0593F5F
S11344F050F4503E68F11A16F040A22F232F342FA7
S11345004427585FF3CF469537952795A795F040F4
S11345105395C9F77EF41F16BA0B620B730B840B09
S1134520BAF09150A1F0FF0FBB1F661F771F881FC1
S1134530C2F70EC0BA0F621F731F841F48F4879519
S113454077956795B795F7959E3F08F0B0CF93950B
S1134550880F08F09927EE0F9795879508950E9484
S1134560992308F481E008950E94C8220C94D4236E
S11345700E94CD2358F00E94C62340F029F45F3FE7
S113458029F00C94BD2351110C9408240C94C323DA
S11345900E94E52368F39923B1F3552391F3951B06
S11345A0550BBB27AA2762177307840738F09F5F50
S11345B05F4F220F331F441FAA1FA9F335D00E2EBD
S11345C03AF0E0E832D091505040E695001CCAF72A
S11345D02BD0FE2F29D0660F771F881FBB1F2617ED
S11345E037074807AB07B0E809F0BB0B802DBF01C4
S11345F0FF2793585F4F3AF09E3F510578F00C9493
S1134600BD230C9408245F3FE4F3983ED4F38695CD
S113461077956795B795F7959F5FC9F7880F911DB3
S11346209695879597F90895E1E0660F771F881F9F
S1134630BB1F621773078407BA0720F0621B730B52
S1134640840BBA0BEE1F88F7E09508950E942D2382
S11346506894B1110C94082408950E94ED2388F005
S11346609F5798F0B92F9927B751B0F0E1F0660F32
S1134670771F881F991F1AF0BA95C9F714C0B13073
S113468091F00E940724B1E008950C940724672F49
S1134690782F8827B85F39F0B93FCCF386957795A2
S11346A06795B395D9F73EF490958095709561958B
S11346B07F4F8F4F9F4F0895E89409C097FB3EF4B6
S11346C090958095709561957F4F8F4F9F4F99235B
S11346D0A9F0F92F96E9BB279395F69587957795D9
S11346E06795B795F111F8CFFAF4BB0F11F460FF99
S11346F01BC06F5F7F4F8F4F9F4F16C0882311F0F1
S113470096E911C0772321F09EE8872F762F05C004
S1134710662371F096E8862F70E060E02AF09A959F
S1134720660F771F881FDAF7880F9695879597F994
S11347300895990F0008550FAA0BE0E8FEEF16162E
S11347401706E807F907C0F012161306E407F50781
S113475098F0621B730B840B950B39F40A2661F0F5
S1134760232B242B252B21F408950A2609F4A14098
S1134770A6958FEF811D811D089597F99F6780E8A5
S113478070E060E008959FEF80EC089500240A949F
S11347901616170618060906089500240A94121618
S11347A01306140605060895092E0394000C11F44B
S11347B0882352F0BB0F40F4BF2B11F460FF04C0F8
S11347C06F5F7F4F8F4F9F4F089557FD9058440F51
S11347D0551F59F05F3F71F04795880F97FB991F5C
S11347E061F09F3F79F08795089512161306140619
S11347F0551FF2CF4695F1DF08C0161617061806A6
S1134800991FF1CF86957105610508940895E89480
S1134810BB2766277727CB0197F908950E94992330
S113482008F48FEF08950E9426240C94D4230E9448
S1134830C62338F00E94CD2320F0952311F00C9468
S1134840BD230C94C32311240C9408240E94E52353
S113485070F3959FC1F3950F50E0551F629FF001CF
S1134860729FBB27F00DB11D639FAA27F00DB11DE8
S1134870AA1F649F6627B00DA11D661F829F222771
S1134880B00DA11D621F739FB00DA11D621F839FF8
S1134890A00D611D221F749F3327A00D611D231FCE
S11348A0849F600D211D822F762F6A2F11249F571C
S11348B050409AF0F1F088234AF0EE0FFF1FBB1F1F
S11348C0661F771F881F91505040A9F79E3F5105DE
S11348D080F00C94BD230C9408245F3FE4F3983ECD
S11348E0D4F3869577956795B795F795E7959F5F88
S11348F0C1F7FE2B880F911D9695879597F908951A
S11349002F923F924F925F926F927F928F929F92DB
S1134910AF92BF92CF92DF92EF92FF920F931F93C9
S1134920CF93DF93CDB7DEB76097CDBFDEBF7C01F9
S11349301B016A01FC0116821782838181FF44C333
S11349409E012F5F3F4F3901F7019381F10193FDE0
S1134950859193FF81911F01882309F431C3853226
S113496039F493FD859193FF81911F01853239F4C8
S1134970B70190E00E94762A56016501E5CF10E068
S1134980512C912CFFE1F915D8F08B3279F038F4E1
S1134990803279F08332A1F4F92DF0612EC08D328A
S11349A061F0803369F4292D21602DC0392D3260E6
S11349B0932E892D8460982E2AC0E92DE86015C0B5
S11349C097FC2DC020ED280F2A3088F496FE06C0EF
S11349D03AE0139F200D1124122F19C08AE0589E2B
S11349E0200D1124522EE92DE0629E2E10C08E322D
S11349F031F496FCE5C2F92DF0649F2E08C08C3684
S1134A0021F4292D2068922E02C0883641F4F10148
S1134A1093FD859193FF81911F018111B3CF9BEB8E
S1134A20980F933020F4992D9061805E07C09BE924
S1134A30980F933008F066C1992D9F7E96FF16E07B
S1134A409F73992E853619F49064992E08C0863682
S1134A5021F4392F3068932E02C01111115097FEA2
S1134A6007C01C3350F444244394410E27E00BC088
S1134A70183038F027E017E005C027E09CE3492E02
S1134A8002C0212F412C560184E0A80EB11CF6016E
S1134A906081718182819381042DA3010E94782910
S1134AA06C01F981FC87F0FF02C0F3FF06C091FCA2
S1134AB006C092FE06C000E205C00DE203C00BE290
S1134AC001C000E08C858C7019F001115AC29BC2A0
S1134AD097FE10C04C0CFC85F4FF04C08A8181331E
S1134AE009F44A94141474F528E0241578F588E040
S1134AF0482E2CC096FC2AC0812F90E08C159D0571
S1134B009CF03CEFC3163FEFD30674F0892D806808
S1134B10982E0AC0E2E0F0E0EC0FFD1FE10FF11D5A
S1134B208081803319F411501111F4CF97FE0EC017
S1134B3044244394410E812F90E0C816D9062CF4E6
S1134B401C1904C04424439401C010E097FE06C01D
S1134B501C141D0434F4C601019605C085E090E0E0
S1134B6002C081E090E001110196112331F0212F60
S1134B7030E02F5F3F4F820F931F252D30E08217C7
S1134B80930714F4581A01C0512C892D897049F4E3
S1134B90552039F0B70180E290E00E94762A5A94B9
S1134BA0F7CF002329F0B701802F90E00E94762AE6
S1134BB093FC09C0552039F0B70180E390E00E94CE
S1134BC0762A5A94F7CF97FE4CC04601D7FE02C00E
S1134BD0812C912CC60188199909F301E80FF91F5A
S1134BE0ED87FE879601241931092F87388B012F11
S1134BF010E01195019511093FEF8316930629F4EE
S1134C00B7018EE290E00E94762AC814D9044CF0D1
S1134C108F8598898815990524F4ED85FE85818111
S1134C2001C080E3F1E08F1A91082D853E852F5F46
S1134C303F4F2D873E87801691062CF0B70190E0F8
S1134C400E94762AD9CFC814D90441F49A819633A4
S1134C5020F4953319F43C8534FF81E3B70190E0E7
S1134C604EC08A81813319F09C859F7E9C87B70151
S1134C7090E00E94762A111105C094FC18C085E6C4
S1134C8090E017C0B7018EE290E00E94762A1E5F82
S1134C9082E001E0080FF301E80FF11D8081B70104
S1134CA090E00E94762A802F0113F3CFE6CF85E4AB
S1134CB090E0B7010E94762AD7FC06C0C114D10443
S1134CC041F4EC85E4FF05C0D194C194D1088DE290
S1134CD001C08BE2B70190E00E94762A80E32AE0CB
S1134CE0C216D1042CF08F5FFAE0CF1AD108F7CFA7
S1134CF0B70190E00E94762AB701C601C0960E94CF
S1134D00762A54C1833631F0833779F0833509F03C
S1134D1056C020C0560132E0A30EB11CF6018081BA
S1134D20898301E010E0630112C05601F2E0AF0E86
S1134D30B11CF601C080D18096FE03C0612F70E0E3
S1134D4002C06FEF7FEFC6010E946B2A8C01F92D20
S1134D50FF7714C0560122E0A20EB11CF601C080F8
S1134D60D18096FE03C0612F70E002C06FEF7FEF29
S1134D70C6010E94502A8C01F92DF0689F2EF3FD84
S1134D801AC0852D90E008171907A8F4B70180E22E
S1134D9090E00E94762A5A94F4CFF60197FC85910C
S1134DA097FE81916F01B70190E00E94762A51101D
S1134DB05A94015011090115110579F7F7C0843689
S1134DC011F0893661F5560197FE09C024E0A20E60
S1134DD0B11CF60160817181828193810AC0F2E085
S1134DE0AF0EB11CF60160817181072E000C880B97
S1134DF0990BF92DFF769F2E97FF09C0909580950A
S1134E00709561957F4F8F4F9F4FF0689F2E2AE0DA
S1134E1030E0A3010E94C62AC82EC6183FC0092D3F
S1134E20853721F40F7E2AE030E01DC0097F8F36DC
S1134E3091F018F4883559F0C3C0803719F08837D9
S1134E4011F0BEC0006104FF09C0046007C094FEF5
S1134E5008C0066006C028E030E005C020E130E06C
S1134E6002C020E132E0560107FF09C084E0A80E29
S1134E70B11CF601608171818281938108C0F2E0E6
S1134E80AF0EB11CF6016081718180E090E0A30156
S1134E900E94C62AC82EC6180F77902E96FE0BC005
S1134EA0092D0E7FC11650F494FE0AC092FC08C06E
S1134EB0092D0E7E05C0DC2C092D03C0DC2C01C09D
S1134EC0D12E04FF0DC0FE01EC0DF11D8081803355
S1134ED011F4097E09C002FF06C0D394D39404C020
S1134EE0802F867809F0D39403FD11C000FF06C01B
S1134EF01C2DD51480F4150D1D190DC0D51458F4AE
S1134F00B70180E290E00E94762AD394F7CFD514BB
S1134F1010F45D1801C0512C04FF10C0B70180E3E8
S1134F2090E00E94762A02FF17C001FD03C088E7C3
S1134F3090E002C088E590E0B7010CC0802F86782D
S1134F4059F001FF02C08BE201C080E207FD8DE24F
S1134F50B70190E00E94762AC11638F4B70180E3C5
S1134F6090E00E94762A1150F7CFCA94F301EC0D19
S1134F70F11D8081B70190E00E94762AC110F5CF1F
S1134F8015C0F4E0F51560F584E0581A93FE1FC0CF
S1134F90011127C02C8523FF2AC008E212E0392D15
S1134FA03071932EF8018491811124C0552009F4A5
S1134FB0E4CCB70180E290E00E94762A5A94F6CFBE
S1134FC0F7018681978126C08FEF9FEF23C0B70139
S1134FD080E290E00E94762A5A945110F8CFD8CFFC
S1134FE0512CB701802F90E00E94762AD3CF0CE297
S1134FF012E0D5CF91108052B70190E00E94762A3A
S11350000F5F1F4FCFCF23E0251510F483E0BDCFF2
S1135010512CC0CF6096CDBFDEBFDF91CF911F91E1
S11350200F91FF90EF90DF90CF90BF90AF909F9043
S11350308F907F906F905F904F903F902F90089546
S1135040AA1BBB1B51E107C0AA1FBB1FA617B707AA
S113505010F0A61BB70B881F991F5A95A9F78095C6
S11350609095BC01CD01089597FB072E16F400948A
S113507007D077FD09D00E94202807FC05D03EF414
S1135080909581959F4F0895709561957F4F0895F0
S1135090A29FB001B39FC001A39F700D811D112475
S11350A0911DB29F700D811D1124911D08950F93C0
S11350B01F93CF93DF938230910510F482E090E048
S11350C0E0910622F091072220E030E0A0E0B0E079
S11350D0309719F140815181028113814817590792
S11350E0C8F08417950769F4109731F012960C9361
S11350F0129713961C9327C000930622109307223D
S113510022C02115310519F04217530718F49A01EA
S1135110BD01EF01DF01F801DBCF21153105F9F005
S1135120281B390B2430310580F48A819B81611559
S1135130710521F0FB018283938304C080930622CE
S113514090930722FE01329644C0FE01E20FF31F42
S11351508193919322503109288339833AC0209155
S1135160042230910522232B41F420910220309116
S113517003202093042230930522209100203091B3
S113518001202115310541F42DB73EB7409104208B
S113519050910520241B350BE0910422F091052247
S11351A0E217F307A0F42E1B3F0B2817390778F0FA
S11351B0AC014E5F5F4F2417350748F04E0F5F1F59
S11351C040930422509305228193919302C0E0E01E
S11351D0F0E0CF01DF91CF911F910F910895CF930C
S11351E0DF93009709F481C0FC0132971282138285
S11351F0A0910622B0910722109781F42081318179
S1135200820F931F20910422309105222817390719
S113521051F5E0930422F093052267C0ED0120E0EC
S113522030E0CE17DF0740F44A815B819E014115CF
S11352305105F1F0EA01F5CFC283D3834081518156
S1135240840F951FC817D90759F488819981840F51
S1135250951F0296808391838A819B8182839383A5
S11352602115310529F4E0930622F09307223DC06D
S1135270E901EA83FB8349915991C40FD51FEC17C7
S1135280FD0761F480819181840F951F0296E901E5
S113529088839983828193818A839B83E0E0F0E011
S11352A012968D919C911397009719F0FD01DC01E2
S11352B0F7CF8D919C9111979D012E5F3F4F820FE7
S11352C0931F20910422309105222817390769F48D
S11352D0309729F4109206221092072202C01282FB
S11352E01382A0930422B0930522DF91CF910895F5
S11352F0283008F027E03327DA01990F311D87FDA4
S1135300916000966105710539F432602E5F3D931A
S113531030E32A95E1F708959F3F30F08038710516
S1135320610509F03C5F3C5F3D93913008F0806873
S1135330911DDF93CF931F930F93FF92EF92192F39
S1135340987F9695E92F96959695E90FFF27E6574E
S1135350FD4F99273327EE24FF24A701E701059089
S11353600894079428F4360FE71EF81E491F511DB0
S1135370660F771F881F991F0694A1F7059007945D
S113538028F4E70EF81E491F561FC11D770F881F0A
S1135390991F661F0694A1F70590079428F4F80E48
S11353A0491F561FC71FD11D880F991F661F771FDE
S11353B00694A1F70590079420F4490F561FC71FC0
S11353C0D81F990F661F771F881F0694A9F7849129
S11353D01095177041F0D695C79557954795F79452
S11353E0E7941A95C1F7E0E3F2E0689415901591FB
S11353F035916591959105907FE27395E118F10AD5
S1135400430B560BC90BD009C0F7E10CF11E431F27
S1135410561FC91FD01D7EF4703311F48A95E6CF50
S1135420E894015030F0080F0AF40027021708F43A
S1135430202F2395022F7A3328F079E37D932A9540
S1135440E9F710C07D932A9589F606949795679598
S1135450379517951794E118F10A430B560BC90BAE
S1135460D00998F023957E9173957A3308F070E310
S11354707C932013B8F77E9170617D9330F083950F
S113548071E37D9370E32A95E1F71124EF90FF9087
S11354900F911F91CF91DF91992787FD90950895E2
S11354A0FC010590615070400110D8F780959095EB
S11354B08E0F9F1F0895FB01DC0102C001900D9225
S11354C041505040D8F70895DC0101C06D9341501C
S11354D05040E0F70895FC016150704001900110C4
S11354E0D8F7809590958E0F9F1F08950F931F9363
S11354F0CF93DF93FB01238121FD03C08FEF9FEF47
S11355002CC022FF16C04681578124813581421761
S1135510530744F4A081B1819D012F5F3F4F208345
S113552031838C93268137812F5F3F4F26833783C6
S113553014C08B01EC01FB010084F185E02D199569
S1135540892BE1F6D80116968D919C9117970196B7
S113555016968D939C931797CE01DF91CF911F914F
S11355600F910895CF93DF93CDB7DEB7AE014A5FB5
S11355705F4FFA0161917191AF0180910A2290917C
S11355800B220E948024DF91CF910895FA01AA276B
S1135590283051F1203181F1E8946F936E7F6E5F72
S11355A07F4F8F4F9F4FAF4FB1E03ED0B4E03CD020
S11355B0670F781F891F9A1FA11D680F791F8A1F03
S11355C0911DA11D6A0F711D811D911DA11D20D06A
S11355D009F468943F912AE0269F11243019305D24
S11355E03193DEF6CF010895462F4770405D419315
S11355F0B3E00FD0C9F7F6CF462F4F70405D4A3362
S113560018F0495D31FD4052419302D0A9F7EACF29
S1135610B4E0A6959795879577956795BA95C9F758
S113562000976105710508959B01AC010A2E06944B
S11356305795479537952795BA95C9F7620F731F04
S10F5640841F951FA01D0895F894FFCF4F
S113564C00000E222000000000030000000071087E
S113565C5B080000FF3F2E2E2F4672656552544F97
S113566C532F71756575652E63002E2E2F4672654A
S113567C6552544F532F7461736B732E63004944FA
S113568C4C45000925630925750925750925750DF2
S113569C0A0009256C750909256C7525250D0A0068
S11356AC09256C7509093C3125250D0A0045525212
S11356BC4F523A206D656D6F727920616C6C6F631B
S11356CC6174696F6E206661696C65640D0A0053C0
S11356DC5441434B206F766572666C6F7720696E0C
S11356EC207461736B200041737365727420696E4E
S11356FC2066696C6520002C206C696E65206E72C6
S113570C2000414443004C46646972656374004C48
S113571C465370656564006D6F74696F6E006D6FD0
S113572C74706F73006D6F7473706400456E636F87
S113573C6465723A2025642025640A0D00736C702C
S10D574C007374617274757000003C
S9030000FC
