S01200004C696E65626F74496F542E7372656339
S11300000C9463030C9484030C944B070C94D20754
S11300100C9484030C9484030C9484030C94840340
S11300200C9484030C9484030C9484030C94840330
S11300300C9484030C9484030C9423120C94840372
S11300400C9497120C9484030C9484030C948403EE
S11300500C9484030C9484030C9484030C94840300
S11300600C9484030C9484030C9484030C948403F0
S11300700C9484030C9484030C9484030C948403E0
S11300800C9484030C9484030C9437050C9484031B
S11300900C9484030C9484030C9484030C948403C0
S11300A00C9484030C9484030C9484030C945908D6
S11300B00C94E0080C9484030C94420E0C94840376
S11300C00C9484030C9484030C9484030C94840390
S11300D00C9484030C9484030C9484030C94840380
S11300E00C9484030C9484030C94620F0C94840386
S11300F00C941B0F0C9484030C9484030C948403BD
S11301000C9484030C9484030C9484030C9484034F
S11301100C9484030C9484030C9484030C940404BE
S11301200C9484030C9484030C9484030C9484032F
S11301300C9484030C9484030C9484030C9484031F
S11301400C9484030C9484030C9484030C9484030F
S11301500C9484030C9484030C9484030C948403FF
S11301600C9484030C9484030C9484030C948403EF
S11301700C9484030C9484030C9484030C948403DF
S11301800C9484030C9484030C9484030C948403CF
S11301900C9484030C9484030C9484030C948403BF
S11301A00C944A2E0C9484030C9484030C948403BE
S11301B00C9484030C9484030C9484030C9484039F
S11301C00C9484030C9484030C9484030C9484038F
S11301D00C9484030C9484030C9484030C9484037F
S11301E00C9484030C9484030C9484030C9484036F
S11301F00C9484030C9484030C9484030C94C20E16
S11302000C94AC0E0C945A270C94E6230C94B42C46
S11302100C94DB2D0C94802E0C94CD2E0C9439254B
S11302200C94D1260C94B8250C9430280C94B7184F
S11302300C942A2D0C94F62A6E616E00696E660089
S113024000407A10F35A00A0724E18090010A5D489
S1130250E80000E87648170000E40B54020000CAE6
S11302609A3B000000E1F50500008096980000002C
S113027040420F000000A08601000000102700008B
S11302800000E803000000006400000000000A0011
S1130290000000000100000000002C76D888DC6714
S11302A04F0823DFC1DFAE59E1B1B796E5E3E4536C
S11302B0C63AE651997696E8E6C28426EB898C9B89
S11302C062ED407C6FFCEFBC9C9F40F2BAA56FA529
S11302D0F490055A2AF75C936B6CF9676DC11BFCAB
S11302E0E0E40D47FEF520E6B500D0ED902E0300C6
S11302F0943577050080841E080000204E0A000013
S113030000C80C333333330F986E12831141EF8DD1
S11303102114893BE65516CFFEE6DB18D1844B3811
S11303201BF77C1D901DA4BBE424203284725E2242
S11303308100C9F124ECA1E53D274E414E494E49C7
S11303405459494E46CDCCCC3D0AD7233C17B7D19E
S11303503877CC2B329595E6241FB14F0A00002044
S1130360410000C84200401C4620BCBE4CCA1B0EC3
S11303705AAEC59D74617578707772207374617418
S1130380653A277374617465273D313A2074757238
S11303906E206F6E2061757820706F776572206EA5
S11303A065742C20277374617465273D303A20747A
S11303B075726E206F66662061757820706F776540
S11303C072206E65740D0A00676574616463203A77
S11303D072657475726E7320416E616C6F67206311
S11303E068616E6E656C7320696E20666F726D61F4
S11303F07420276C6566745F6C696E655F73656EE7
S1130400736F72206D69645F6C696E655F73656E8E
S1130410736F722072696768745F6C696E655F736D
S1130420656E736F7220706F74656E74696F6D653D
S11304307465720D0A00676574677972203A726593
S11304407475726E73206779726F73636F70652051
S1130450696E666F20696E20666F726D6174202705
S11304607961777261746520286465672F73292028
S113047079617728646567290D0A00676574726776
S113048062203A72657475726E7320524742206C12
S1130490696768742073656E736F722076616C751A
S11304A065730D0A00676574656E63203A67657449
S11304B0206D6F746F7220656E636F646572207651
S11304C0616C7565730D0A007365746D6F74206CCF
S11304D06566746D6F746F725F70776D2072696793
S11304E068746D6F746F725F70776D203A646972AF
S11304F06563746C7920636F6E74726F6C206D6FBA
S1130500746F722070776D207369676E616C2E2032
S113051050776D20697320696E20612072616E6767
S113052065206F66202D3430393520746F203430C7
S113053039350D0A007365746C65642065666665FB
S11305406374203A73657420524742206C656420BA
S11305506566666563742028736565205247425456
S113056061736B2E68290D0A0064727673656720C7
S11305707370656564203A666F6C6C6F77206C6984
S11305806E65207365676D656E7420756E74696C35
S113059020656E6420617420612073706565642039
S11305A06F662027737065656427206D6D2F730D4A
S11305B00A00726F7463747220616E676C652073D5
S11305C070656564203A726F746174652027616E8A
S11305D0676C652720646567726565732061726F57
S11305E0756E642063656E746572206F6620726F29
S11305F0626F742061742061207370656564206F7C
S1130600662027737065656427206D6D2F730D0A4E
S1130610006472767374722064697374616E6365C6
S1130620207370656564203A44726976652073743A
S1130630726169676874206F7665722027646973D4
S113064074616E636527206D6D2061742061207371
S113065070656564206F6620277370656564272064
S11306606D6D2F730D0A006D656D6D6170203A73A9
S1130670686F77206D656D6F7279206D61700D0AFA
S11306800074736B6C7374203A6C697374204672D3
S1130690656552544F53207461736B730D0A00687F
S11306A0656C70203A746869732068656C7020709A
S11306B06167650D0A00436F6D6D616E64206C693E
S11306C073743A0D0A0011241FBECFEFCDBFDFE9CA
S11306D0DEBF00E00CBF14E2A0E0B0E2E2E6FEE719
S11306E000E00BBF02C007900D92A035B107D9F707
S11306F029E2A0E5B4E201C01D92AB3BB207E1F7E9
S11307000E94CE230C942F3F0C940000E0E0F2E012
S113071081E0808396E0918392E0928393E09483D6
S113072082A343E060E00E94081480939829909388
S1130730992943E060E081E00E940814809396299F
S11307409093972920E040E050E060E070E08091D1
S11307509829909199290C944C14CF93DF93C82F26
S1130760D62F6FEF7FEF80919829909199290E945D
S1130770A016C03128F080E197E2DF91CF9108956F
S1130780CC0FCC0FCC0FC0932102DF3FA1F1D430AA
S113079068F582E080932002809101028061809359
S11307A0010280912102D82BD09321028091200252
S11307B08068809320026FEF7FEF8091962990915B
S11307C097290E94A016C0912402D091250220E00E
S11307D040E050E060E070E0809198299091992980
S11307E00E944C14CE01DF91CF910895D450D4309F
S11307F010F68FE1CFCF81E0809320028091010237
S11308008F7E80930102D2CF1F920F920FB60F9268
S113081011240BB60F922F933F934F935F936F93D3
S11308207F938F939F93AF93BF93EF93FF93CF9354
S1130830DF931F92CDB7DEB71982BE016F5F7F4F82
S113084080919629909197290E9490158981811110
S11308500E94FF110F90DF91CF91FF91EF91BF9113
S1130860AF919F918F917F916F915F914F913F9144
S11308702F910F900BBE0F900FBE0F901F901895E5
S11308800F93CF93DF931F921F92CDB7DEB780E80B
S1130890898381E08A8342E0BE016F5F7F4F89E3F1
S11308A00E94CC0D82E9898301E09E012F5F3F4FB6
S11308B041E0B90189E30E943D0D89818B3A61F0E1
S11308C01F928F9386E190E29F938F930E947E3CC8
S11308D00F900F900F900F9081E889838BED8A839E
S11308E042E0BE016F5F7F4F89E30E94CC0D8FE829
S11308F0898383E08A8342E0BE016F5F7F4F89E38F
S11309000E94CC0D0F900F90DF91CF910F9108951D
S11309108F929F92AF92BF92CF92DF92EF92FF920B
S11309200F931F93CF93DF93CDB7DEB72997CDBF36
S1130930DEBF4C015B016A01790180E8898383E0B1
S11309408A8342E0BE016F5F7F4F89E30E94CC0D32
S113095013E903C0898180FD15C0198301E09E015C
S11309602F5F3F4F41E0B90189E30E943D0D8111A2
S1130970F1CF63E470E08BE390E20E949C238981D1
S113098080FFEBCF84E9898308E09E012F5F3F4F0E
S113099041E0B90189E30E943D0D882381F181146E
S11309A0910429F089819A81F40180839183A114AF
S11309B0B10429F08B819C81F50180839183C1145A
S11309C0D10429F08D819E81F60180839183E11405
S11309D0F10429F08F819885F7018083918329960A
S11309E0CDBFDEBFDF91CF911F910F91FF90EF90AC
S11309F0DF90CF90BF90AF909F908F9008956AE45E
S1130A0070E08BE390E20E949C23C9CFE0E2F6E021
S1130A1098EF928389E5838B848B858B868B878B78
S1130A20928783E0818740E061E08AE00E940814B5
S1130A30809356249093572408958091280683FF29
S1130A4012C080E19091280694FD88609091280658
S1130A5095FD84609091280696FD82609091280609
S1130A6097FD03C0089580E0EDCF816008951F9243
S1130A700F920FB60F9211240BB60F92CF92DF9202
S1130A80EF92FF920F931F932F933F934F935F9394
S1130A906F937F938F939F93AF93BF93EF93FF9342
S1130AA0CF93DF931F921F92CDB7DEB70E94472EDC
S1130AB081114CC019828091200890912108C09026
S1130AC0A429D090A529E090A629F090A729C80EC2
S1130AD0D91EE11CF11C0E941D058A8340915224F9
S1130AE050915324609154247091552497018601A8
S1130AF0041B150B260B370BB901A8014130584ACA
S1130B006146710510F0811132C0898181110E9402
S1130B10FF110F900F90DF91CF91FF91EF91BF9153
S1130B20AF919F918F917F916F915F914F913F9181
S1130B302F911F910F91FF90EF90DF90CF900F9026
S1130B400BBE0F900FBE0F901F9018958091A200BE
S1130B5087608093A2008FE38093A10681E090E0F8
S1130B600E94F90C87E090E00E947D06A3CF20E06C
S1130B70AE014F5F5F4FBE016E5F7F4F8091562481
S1130B80909157240E943515C0925224D092532438
S1130B90E0925424F0925524B8CFDC0110925B24E7
S1130BA010925C249C919923B1F0FD01319680E46C
S1130BB09093A00A9091A10A96FFFCCF8093A10A7A
S1130BC09F012A1B3B0B91919111F2CF20935B243F
S1130BD030935C2408950895FC0110925B241092D4
S1130BE05C2490819923E1F0319620E030E080E4A8
S1130BF0261737071CF06115710569F49093A00A54
S1130C009091A10A96FFFCCF8093A10A2F5F3F4FDA
S1130C1091919111EDCF20935B2430935C2408953E
S1130C200895CF92DF92EF92FF920F931F93CF9389
S1130C30DF937C0180E197E28093592490935A24B6
S1130C4010925824C5E0D0E0C12CE0E1F7E2A0E422
S1130C50DA2E0AE010E0C701BF010E942F37AB0172
S1130C609B01ADECBCEC0E947937969587959695DF
S1130C708795969587959C01220F331F880F991F9E
S1130C80880F991F880F991F820F931F9A01281BA1
S1130C90390BC901009711F4CC2059F0805D809381
S1130CA0A00A8091A10A86FFFCCFD092A10ACC248D
S1130CB0C394CF01B8010E944337FB01219759F631
S1130CC0C09258246093592470935A24DF91CF9191
S1130CD01F910F91FF90EF90DF90CF900895E0E285
S1130CE0F6E087E0818380E4808B818B828BE0E077
S1130CF0F6E090E89183878B0895E0E2F6E0948132
S1130D00282F2770922B9483E0E0F6E0948188707A
S1130D108295807F892B84830895E0E2F6E0248124
S1130D20982F9770909592239483E0E0F6E0948155
S1130D3088708295807F8095892384830895E0EA72
S1130D40F6E08FE1818380E4848B20E12583E0E079
S1130D50FBE091E0908393EF918340E050E146A360
S1130D6057A3E0E4F6E090EC9283868B878B82872E
S1130D7090E8938795E09187E0E8F6E030E33283EA
S1130D80848B858B228780E28387918740E065E0AE
S1130D9084E10E94081480939E2990939F290895CA
S1130DA020E1009769F56115710509F457C0209396
S1130DB0A606813020EF92070CF457C091958195D7
S1130DC091098093280B9093290B10922A0B10926F
S1130DD02B0B7195619571091616170644F1613054
S1130DE020EF72070CF444C071956195710960930A
S1130DF02C0B70932D0B10922E0B10922F0B089529
S1130E002093A60618161906A4F61092280B109221
S1130E10290B811520E19207F4F480932A0B909317
S1130E202B0B71956195710916161706C4F610926D
S1130E302C0B10922D0B611580E178072CF4609334
S1130E402E0B70932F0B08956FEF7FE060932E0BA2
S1130E5070932F0B08958FEF9FE0DFCF2093A506AB
S1130E60813020EF92070CF0A9CF81E090EFA6CF5C
S1130E7061E070EFB9CF0FB6F8940F9240919A29C0
S1130E8050919B2920919C2930919D290F900FBE50
S1130E90BA01C90108951F920F920FB60F9211243F
S1130EA00BB60F921F932F933F934F935F936F93C0
S1130EB07F938F939F93AF93BF93EF93FF93CF93BE
S1130EC0DF9300D000D0CDB7DEB71E82209120087A
S1130ED0309121088091A4299091A529A091A62957
S1130EE0B091A729820F931FA11DB11D89839A83F5
S1130EF0AB83BC8380914806182F107886FF37C0D7
S1130F0081E08D8320E0AE014A5F5F4FBE016F5FD9
S1130F107F4F80919E2990919F290E94351511231E
S1130F20B9F180919A2990919B29019680939A29ED
S1130F3090939B298E8181110E94FF112696CDBF2B
S1130F40DEBFDF91CF91FF91EF91BF91AF919F9160
S1130F508F917F916F915F914F913F912F911F914D
S1130F600F900BBE0F900FBE0F901F90189585E049
S1130F708D8320E0AE014A5F5F4FBE016F5F7F4FFC
S1130F8080919E2990919F290E943515112349F241
S1130F9080919A2990919B29019780939A29909303
S1130FA09B29C8CF1F920F920FB60F9211240BB634
S1130FB00F921F932F933F934F935F936F937F935E
S1130FC08F939F93AF93BF93EF93FF93CF93DF934D
S1130FD000D000D0CDB7DEB71E822091200830911A
S1130FE021088091A4299091A529A091A629B091C6
S1130FF0A729820F931FA11DB11D89839A83AB83F7
S1131000BC8380914806182F107487FF37C082E094
S11310108D8320E0AE014A5F5F4FBE016F5F7F4F5B
S113102080919E2990919F290E9435151123B9F131
S113103080919A2990919B29019780939A29909362
S11310409B298E8181110E94FF112696CDBFDEBFA0
S1131050DF91CF91FF91EF91BF91AF919F918F91CC
S11310607F916F915F914F913F912F911F910F90BD
S11310700BBE0F900FBE0F901F90189586E08D83C6
S113108020E0AE014A5F5F4FBE016F5F7F4F8091EA
S11310909E2990919F290E943515112349F2809130
S11310A09A2990919B29019680939A2990939B2940
S11310B0C8CF1F920F920FB60F9211240BB60F9246
S11310C01F932F933F934F935F936F937F938F93CC
S11310D09F93AF93BF93EF93FF93CF93DF9300D08E
S11310E000D0CDB7DEB71E822091200830912108B0
S11310F08091A4299091A529A091A629B091A7290E
S1131100820F931FA11DB11D89839A83AB83BC8376
S113111080918806182F107284FF37C083E08D8376
S113112020E0AE014A5F5F4FBE016F5F7F4F809149
S11311309E2990919F290E9435151123B9F1809120
S11311409C2990919D29019680939C2990939D2997
S11311508E8181110E94FF112696CDBFDEBFDF91E3
S1131160CF91FF91EF91BF91AF919F918F917F911B
S11311706F915F914F913F912F911F910F900BBEF3
S11311800F900FBE0F901F90189587E08D8320E07D
S1131190AE014A5F5F4FBE016F5F7F4F80919E2912
S11311A090919F290E943515112349F280919C2921
S11311B090919D29019780939C2990939D29C8CF54
S11311C01F920F920FB60F9211240BB60F921F931A
S11311D02F933F934F935F936F937F938F939F933B
S11311E0AF93BF93EF93FF93CF93DF9300D000D0DF
S11311F0CDB7DEB71E82209120083091210880915E
S1131200A4299091A529A091A629B091A729820F7C
S1131210931FA11DB11D89839A83AB83BC838091E5
S11312208806182F107284FF1CC084E08D8320E090
S1131230AE014A5F5F4FBE016F5F7F4F80919E2971
S113124090919F290E943515112309F447C080917C
S11312509C2990919D29019780939C2990939D2985
S11312601AC088E08D8320E0AE014A5F5F4FBE0163
S11312706F5F7F4F80919E2990919F290E94351521
S113128080919C2990919D29111122C001978093EE
S11312909C2990939D298E8181110E94FF1126968D
S11312A0CDBFDEBFDF91CF91FF91EF91BF91AF91A1
S11312B09F918F917F916F915F914F913F912F916A
S11312C01F910F900BBE0F900FBE0F901F9018959B
S11312D0019680939C2990939D29DDCF80919C2930
S11312E090919D29019680939C2990939D29D3CF19
S11312F00FB6F8940F9210929A2910929B2910928B
S11313009C2910929D290F900FBE08950F931F934F
S1131310CF93DF931F921F92CDB7DEB785E7898302
S113132001E09E012F5F3F4F41E0B90188E60E9432
S11313303D0D8823D9F08981883619F11F9298E6EA
S11313409F931F928F938CE690E29F938F930E94BA
S11313507E3C0F900F900F900F900F900F900F9076
S11313600F90DF91CF911F910F91089587E590E23F
S11313700E94BA3C0F900F90DF91CF911F910F9173
S1131380089589E189831A8242E0BE016F5F7F4F2D
S113139088E60E94CC0D8AE1898311E01A8342E039
S11313A0BE016F5F7F4F88E60E94CC0D8BE189837D
S11313B01A8242E0BE016F5F7F4F88E60E94CC0D27
S11313C087E3898380E18A8342E0BE016F5F7F4FB8
S11313D088E60E94CC0D88E389831A8342E0BE012B
S11313E06F5F7F4F88E60E94CC0D8BE689831A835A
S11313F042E0BE016F5F7F4F88E60E94CC0D0F90E4
S11314000F90DF91CF911F910F910895AF92BF92EA
S1131410CF92DF92EF92FF920F93CF93DF93CDB7EA
S1131420DEB72C97CDBFDEBF5C016B017A0183E48C
S1131430898306E09E012F5F3F4F41E0B90188E6B2
S11314400E943D0D8A818B8789818C878C81898755
S11314508B818A878E818F838D818887A114B104C3
S113146029F08B859C85F50180839183C114D10477
S113147029F089859A85F60180839183E114F1042A
S113148029F08F819885F701808391832C96CDBFB5
S1131490DEBFDF91CF910F91FF90EF90DF90CF905F
S11314A0BF90AF9008951F93CF93DF931F921F9225
S11314B0CDB7DEB710E8198382E28A8342E0BE0129
S11314C06F5F7F4F8CE30E94CC0D19831A8242E038
S11314D0BE016F5F7F4F8CE30E94CC0D198387E0C0
S11314E08A8342E0BE016F5F7F4F8CE30E94CC0D84
S11314F00F900F90DF91CF911F9108951F93CF9379
S1131500DF931F921F92CDB7DEB710E8198381E2F3
S11315108A8342E0BE016F5F7F4F8CE30E94CC0D53
S113152019831A8242E0BE016F5F7F4F8CE30E94F1
S1131530CC0D19838FE78A8342E0BE016F5F7F4F32
S11315408CE30E94CC0D0F900F90DF91CF911F91EF
S11315500895BF92CF92DF92EF92FF920F931F9361
S1131560CF93DF93CDB7DEB76197CDBFDEBF809158
S11315705D24882349F10E947E0A80915D248111B3
S113158030C08FE5C82E84E2D82E9FE5E92E98E27C
S1131590F92E8E010E5E1F4F20E4B22EB982FE0199
S11315A03296D6018D918193E017F107D9F741E185
S11315B0BE016F5F7F4F8CE30E94CC0D80E1C80EAB
S11315C0D11CEC14FD0451F76196CDBFDEBFDF9151
S11315D0CF911F910F91FF90EF90DF90CF90BF902C
S11315E008950E94530ACDCF0F931F93CF93DF9397
S11315F000D01F92CDB7DEB710925D2480935E2495
S113160010E819838EEA8A8342E0BE016F5F7F4F40
S11316108CE30E94CC0D882309F4C3C0198385EDA3
S11316208A831B831C8344E0BE016F5F7F4F8CE37E
S11316300E94CC0D198388EA8A831B838FE38C83F1
S113164044E0BE016F5F7F4F8CE30E94CC0D198391
S113165083ED8A831B831C8244E0BE016F5F7F4F4E
S11316608CE30E94CC0D19838DE88A831B8384E16B
S11316708C8344E0BE016F5F7F4F8CE30E94CC0DEE
S1131680198300E40A8342E0BE016F5F7F4F8CE35D
S11316900E94CC0D198386EA8A8342E0BE016F5F03
S11316A07F4F8CE30E94CC0D198384EA8A8342E045
S11316B0BE016F5F7F4F8CE30E94CC0D198381EADA
S11316C08A8342E0BE016F5F7F4F8CE30E94CC0DA2
S11316D0198388EC8A8342E0BE016F5F7F4F8CE3FD
S11316E00E94CC0D198380E28A8342E0BE016F5FC1
S11316F07F4F8CE30E94CC0D19831A8242E0BE0115
S11317006F5F7F4F8CE30E94CC0D19838AED8A832F
S11317101B8382E18C8344E0BE016F5F7F4F8CE3C7
S11317200E94CC0D198381E88A831B838FE88C8304
S113173044E0BE016F5F7F4F8CE30E94CC0D1983A0
S113174089ED8A831B8381EF8C8344E0BE016F5F44
S11317507F4F8CE30E94CC0D19838BED8A831B830E
S11317600C8344E0BE016F5F7F4F8CE30E94CC0D7D
S113177019838FEA8A8342E0BE016F5F7F4F8CE357
S11317800E94CC0D80E094E0EFE5F4E2DF019C01DF
S11317901D9221503040E1F70E94A90A81E0809314
S11317A05D242496CDBFDEBFDF91CF911F910F91B1
S11317B00895CF93C82F8091AE288E3450F5909120
S11317C0AF28911106C0E82FF0E0E05AF74D2FEF53
S11317D02083C11110C0E82FF0E0E05AF74D20E853
S11317E030E0092E02C0359527950A94E2F720953A
S11317F03081232320839F5F983039F41092AF28DF
S11318008F5F8093AE28CF9108959093AF28CF91A6
S1131810089567E270E083EA90E20E949C2390912D
S1131820AF288091AE2891110DC0E82FF0E0E05A66
S1131830F74D2FEF20838E3460F281E08093AF2840
S1131840CF9108958E3428F29F5F9830B9F2DDCF9E
S113185080E00E94D90B81E00E94D90B81E00E94B4
S1131860D90B81E00E94D90B81E00C94D90B80E064
S11318700E94D90B80E00E94D90B80E00E94D90B12
S113188080E00E94D90B81E00C94D90BCF93DF93B5
S1131890D82FC8E005C00E94280CDD0FC15039F0D4
S11318A0D7FFF9CF0E94370CDD0FC150C9F7DF9184
S11318B0CF910895E0E0F6E080E481838683089583
S11318C03F924F925F926F927F928F929F92AF92CC
S11318D0BF92CF92DF92EF92FF920F931F93CF9319
S11318E0DF93362E472E582ED22E132FD42F88E076
S11318F08093610690E4909373061092A3098093F9
S1131900A40980EC8093A50985E08093A60980E66C
S1131910882E88E2982E9EEA692E98E2792EF401A8
S11319208FEF81936E167F06E1F71092AE28C5E81B
S113193081E00E94D90BC150D9F7832D0E94460C37
S1131940842D0E94460C852D0E94460C8D2D0E94EC
S1131950460C812F0E94460C8D2F0E94460C8E2D22
S11319600E94460C8F2D0E94460C802F0E94460C2C
S11319708A2D0E94460C8B2D0E94460C8C2D0E94B1
S1131980460C0FB6F8940F9210925F2880E480936F
S1131990050620E4F40191914F018091A10985FF8E
S11319A0FCCF2093A1099093A0096814790491F7BE
S11319B08FEE90E00197F1F700C0000080E480937F
S11319C006060F900FBEDF91CF911F910F91FF90EC
S11319D0EF90DF90CF90BF90AF909F908F907F90CB
S11319E06F905F904F903F90089580E280934106FE
S11319F00895811104C080E280934606089580E230
S1131A008093450608958BEC8093520088E0809380
S1131A1050008091510083FFFCCF82EC80935500ED
S1131A2088E1809350008091510084FFFCCF88EDC1
S1131A3084BF84E08093400080E008951092B5282C
S1131A40E0E8F6E088E1808B818BE0EAF4E088E767
S1131A50818383E2858381E084830E941B158093C4
S1131A60B2289093B32843E060E081E00E94081418
S1131A708093B0289093B1280895CF92DF92EF928B
S1131A80FF920F931F93CF93DF93D82F6B01142FE3
S1131A9079016FEF7FEF8091B2289091B3280E9473
S1131AA0A016C092BC28D092BD28E092BA28F09229
S1131AB0BB28C091B528C11155C081E08093B528D9
S1131AC01092B4288D2F880F8093BE281093B928C4
S1131AD00093B8281092B7281092B6288091B9289C
S1131AE08823B1F18091BE288E7F8093A6046FEF86
S1131AF07FEF8091B0289091B1280E94A016809128
S1131B00B4288130E1F11F928F931F92DF9382EC0E
S1131B1090E29F938F930E947E3C20E040E050E04F
S1131B2060E070E08091B2289091B3280E944C1438
S1131B300F900F900F900F900F900F908C2FDF91BC
S1131B40CF911F910F91FF90EF90DF90CF90089568
S1131B508091B828882359F28091BE2881608093AF
S1131B60A604C5CF20E040E050E060E070E0809142
S1131B70B2289091B3280E944C14C0E0DFCF20E03B
S1131B8040E050E060E070E08091B2289091B3288A
S1131B900E944C14C1E0D2CF0F9300E020E030E06B
S1131BA00E943D0D0F9108959091B9282091B82875
S1131BB08091A40484FD22C08091B728891768F01D
S1131BC08091B628821718F183E08093A30481E002
S1131BD08093B4281092B52808958091B728E09195
S1131BE0BC28F091BD28E80FF11D80818093A704E3
S1131BF08091B7288F5F8093B728089583E08093FE
S1131C00A30485E08093B4281092B52808958091A8
S1131C10BE2881608093A60408958091B6288032FE
S1131C20F8F48091A7049091B628E091BA28F09135
S1131C30BB28E90FF11D80838091B6288F5F8093C4
S1131C40B6289091B8288091B6288917B8F087E013
S1131C508093A30481E08093B4281092B52808955A
S1131C6083E08093A30482E08093B4281092B52883
S1131C709091B8288091B628891748F782E080931C
S1131C80A30408951F920F920FB60F9211240BB65E
S1131C900F922F933F934F935F936F937F938F9301
S1131CA09F93AF93BF93EF93FF93CF93DF931F92D1
S1131CB0CDB7DEB719828091A404982F9C70E1F40B
S1131CC086FD44C087FD45C086E08093B428109209
S1131CD0B5288091B52881111FC0BE016F5F7F4F69
S1131CE08091B0289091B1280E9490158981882311
S1131CF099F00E94FF1110C08091A40482FD22C0BB
S1131D0093E09093B42888608093A4041092B5283B
S1131D108091B528882309F30F90DF91CF91FF912B
S1131D20EF91BF91AF919F918F917F916F915F914F
S1131D304F913F912F910F900BBE0F900FBE0F90BC
S1131D401F90189594E09093B428DDCF0E94D40D91
S1131D50DFCF0E940D0EDCCFCF93DF931F92CDB760
S1131D60DEB74FEF5FEFBE016F5F7F4F8091A02919
S1131D709091A1290E94E315898190E00F90DF9151
S1131D80CF910895CF93DF931F921F92CDB7DEB703
S1131D908A8320E04FEF5FEFBE016E5F7F4F80913B
S1131DA0A2299091A3290E944C148091A10A85FF35
S1131DB00EC040E050E0BE016F5F7F4F8091A229CA
S1131DC09091A3290E94E31589818093A00A80E061
S1131DD090E00F900F90DF91CF91089540E061E083
S1131DE080E80E9408148093A2299093A32940E0DC
S1131DF061E080E80E9408148093A0299093A129AF
S1131E00E0E8F6E088E0818384E08283E0EAFAE0B7
S1131E1084E3838388E1848383E0858385EE8683FA
S1131E208CEB8783E3EBF9E286E090E28283938391
S1131E308083918308951F920F920FB60F921124FD
S1131E400BB60F922F933F934F935F936F937F93B0
S1131E508F939F93AF93BF93EF93FF93CF93DF93AE
S1131E601F921F92CDB7DEB71982AE014F5F5F4F4D
S1131E70BE016E5F7F4F8091A2299091A3290E9499
S1131E8057188130D9F0898181110E94FF110F9078
S1131E900F90DF91CF91FF91EF91BF91AF919F91FF
S1131EA08F917F916F915F914F913F912F910F90FF
S1131EB00BBE0F900FBE0F901F9018958A818093D0
S1131EC0A00AE1CF1F920F920FB60F9211240BB606
S1131ED00F922F933F934F935F936F937F938F93BF
S1131EE09F93AF93BF93EF93FF93CF93DF931F928F
S1131EF01F92CDB7DEB719828091A00A8A8320E0B1
S1131F00AE014F5F5F4FBE016E5F7F4F8091A0298E
S1131F109091A1290E943515898181110E94FF1198
S1131F200F900F90DF91CF91FF91EF91BF91AF91FF
S1131F309F918F917F916F915F914F913F912F91DD
S1131F400F900BBE0F900FBE0F901F9018950F931C
S1131F501F93CF93DF93EC010E94DC1C8091BF2878
S1131F60811121C0E091A829F091A929CF010196FE
S1131F708093C4289093C5281092C6281092C7282D
S1131F808FEF9FE38093C2289093C3281092C028B8
S1131F901092C1288383948380EC98E28183928396
S1131FA081E08093BF28209709F464C0AE014C5FA0
S1131FB05F4F2396CE3FDF4308F05CC0E091C42816
S1131FC0F091C528A4ECB8E206C080819181009705
S1131FD039F0DF01FC012281338124173507A8F38E
S1131FE0C8E2E03CFC0709F445C0CD91DC911197AF
S1131FF08E010C5F1F4F808191818D939C93C90149
S1132000841B950B8930910500F1BF01640F751F86
S1132010DB0112968D939C931397428353831296FC
S11320202D913C911397A4ECB8E201C0DF01ED912E
S1132030FC9111978281938182179307B8F3EB0186
S1132040E883F9836D937C939A0180911420909195
S11320501520821B930B80931420909315200E94CB
S1132060C61D0115110541F0C801DF91CF911F91E3
S11320700F9108950E94C61D0E94532300E010E0B2
S1132080C801DF91CF911F910F910895CF93DF93F2
S1132090009721F1EC0124970E94DC1C4A815B81AA
S11320A0A4ECB8E201C0DF01ED91FC91119722810B
S11320B0338124173507B8F3E883F983CD93DC9390
S11320C08091142090911520480F591F409314209B
S11320D050931520DF91CF910C94C61DDF91CF91C1
S11320E00895FC010396818392832FEF3FEF2383AE
S11320F03483858396838783908710820895FC01B7
S1132100108611860895CF93DF939C01FB01DC01B7
S11321101196CD91DC911297C283D3838C819D81DA
S1132120848395838C819D81DC0112966D937C93CD
S113213013976C837D8320873187F90180818F5FBA
S11321408083DF91CF910895CF93DF93EB01488192
S113215059814F3F2FEF520701F1DC01139601C063
S1132160DF011296ED91FC91139720813181421782
S11321705307B0F7EA83FB83C483D583AC83BD8361
S11321801296CD93DC93139788879987FC0120815D
S11321902F5F2083DF91CF910895FC01A781B08543
S11321A01296ED91FC911397E5CFCF93DF93FC0149
S11321B0A085B1852281338184819581E9018C8355
S11321C09D8384819581EC012A833B8311962D9113
S11321D03C911297E217F30749F0108611868C910F
S11321E081508C938C91DF91CF91089511968D93AA
S11321F09C931297F2CF31E1FC013083319722E2B4
S113220020833197A3E3A083319760833197708350
S11322103197108231971082319760E8608331974B
S11322201082319762E06083319763E06083319775
S113223064E06083319765E06083319766E0608392
S1132240319767E06083319768E06083319769E094
S11322506083319760E1608331973083319732E155
S11322603083319733E13083319734E130833197D0
S113227035E13083319736E13083319737E130836C
S1132280319738E13083319739E13083319730E247
S11322903083319731E2308331972083319723E2C1
S11322A020833197408331975083319726E22083EE
S11322B0319727E22083319728E22083319729E25E
S11322C02083319720E32083319721E3208387976C
S11322D00895E0E0F8E08FEF9FEF80A791A781E0F9
S11322E0808390E491838683878380E09DE786A33F
S11322F097A3A0916629B0916729CD91CDBFDD91B7
S1132300DEBFFF91EF91DF91CF91BF91AF919F918C
S11323108F917F916F915F914F913F912F911F9179
S11323200F91FF90EF90DF90CF90BF90AF909F9070
S11323308F907F906F905F904F903F902F901F9061
S11323400F900FBE0F90089581E008950F920FB67D
S1132350F8940F921F9211242F923F924F925F9202
S11323606F927F928F929F92AF92BF92CF92DF92A1
S1132370EF92FF920F931F932F933F934F935F938B
S11323806F937F938F939F93AF93BF93CF93DF9379
S1132390EF93FF93A0916629B09167290DB60D9232
S11323A00EB60D920E94D01EA0916629B0916729A5
S11323B0CD91CDBFDD91DEBFFF91EF91DF91CF9144
S11323C0BF91AF919F918F917F916F915F914F9149
S11323D03F912F911F910F91FF90EF90DF90CF903D
S11323E0BF90AF909F908F907F906F905F904F9031
S11323F03F902F901F900F900FBE0F9008958091E3
S11324002008909121088C599F4F8093280890931D
S11324102908209128083091290880912608909154
S113242027082817390770F02091260830912708CB
S11324308091280890912908821B930B8093280887
S11324409093290808950F920FB6F8940F921F9253
S113245011242F923F924F925F926F927F928F92AC
S11324609F92AF92BF92CF92DF92EF92FF920F931F
S11324701F932F933F934F935F936F937F938F9308
S11324809F93AF93BF93CF93DF93EF93FF93A09169
S11324906629B09167290DB60D920EB60D92209162
S11324A02608309127088091A4299091A529A0910C
S11324B0A629B091A729820F931FA11DB11D809356
S11324C0A4299093A529A093A629B093A7290E9493
S11324D0EC1C0E94D01EA0916629B0916729CD9171
S11324E0CDBFDD91DEBFFF91EF91DF91CF91BF9121
S11324F0AF919F918F917F916F915F914F913F9198
S11325002F911F910F91FF90EF90DF90CF90BF908C
S1132510AF909F908F907F906F905F904F903F907F
S11325202F901F900F900FBE0F90189508950F9243
S11325300FB6F8940F921F9211242F923F924F924C
S11325405F926F927F928F929F92AF92BF92CF923F
S1132550DF92EF92FF920F931F932F933F934F932A
S11325605F936F937F938F939F93AF93BF93CF9317
S1132570DF93EF93FF93A0916629B09167290DB67D
S11325800D920EB60D928FEF9FEF809328089093D3
S113259029080E94D01EA0916629B0916729CD9187
S11325A0CDBFDD91DEBFFF91EF91DF91CF91BF9160
S11325B0AF919F918F917F916F915F914F913F91D7
S11325C02F911F910F91FF90EF90DF90CF90BF90CC
S11325D0AF909F908F907F906F905F904F903F90BF
S11325E02F901F900F900FBE0F9018950F931F936D
S11325F0CF93DF93EC01042F1A8D4C8D41110DC044
S113260088819981892B09F443C01F5F80E01A8F68
S1132610DF91CF911F910F91089550E0011115C0E2
S11326208A819B810E94AD3B2C8D8A819B81820F84
S1132630911D8A839B832C813D818217930728F304
S1132640888199818A839B83E0CF8E819F810E94B8
S1132650AD3B8C8D90E09195819591092E813F81C0
S1132660280F391F2E833F8348815981241735074A
S113267030F42C813D81820F931F8E839F8302301F
S113268021F6112311F080E0C2CF11E080E0BFCF2A
S11326908C819D810E94C4211C821D821F5FB7CF43
S11326A0FC01CB01448D442391F050E06681778195
S11326B0640F751F668377832481358162177307DE
S11326C020F060817181668377830C94AD3B08951B
S11326D0EF92FF920F931F93CF938C010FB6F89450
S11326E00F92FC01C68D1C16C4F4FC018189882359
S11326F0A1F07801F1E1EF0EF11C06C0C15069F0C0
S1132700F8018189882349F0C7010E94FA1E8823B1
S1132710A9F30E94B31FC15099F78FEFF801868F78
S11327200F900FBE0FB6F8940F92C58D1C16C4F40B
S1132730F80180858823A1F07801F8E0EF0EF11C00
S113274006C0C15069F0F8018085882349F0C701AB
S11327500E94FA1E8823A9F30E94B31FC15099F75F
S11327608FEFF801858F0F900FBECF911F910F91BE
S1132770FF90EF9008951F93CF93DF93EC01162FF2
S1132780892B09F43EC00FB6F8940F924881598101
S11327908B8D6C8D9A01869F200D311D11242C8305
S11327A03D831A8E4A835B8390E00197689F900172
S11327B0699F300D1124CA01820F931F8E839F835A
S11327C08FEF8D8F8E8F111113C08885811107C0F3
S11327D00F900FBE81E0DF91CF911F910895CE013C
S11327E008960E94FA1E882399F30E94A611F0CF3E
S11327F0CE0108960E947110CE0141960E9471107C
S1132800E7CF63E071E08AED90E20E949C23BBCFA6
S1132810FF920F931F93CF93DF93182F062FF42E5D
S1132820882399F10023D1F0109FC00111248196CF
S11328300E94A70FEC01009751F081968883998339
S11328401B8F0C8F61E0CE010E94BB13F8A2CE0156
S1132850DF91CF911F910F91FF90089581E290E055
S11328600E94A70FEC01892B91F3C883D9831B8F96
S11328700C8F61E0CE010E94BB13F8A2CE01DF9160
S1132880CF911F910F91FF90089566E771E08AED53
S113289090E20E949C23C6CFBF92CF92DF92EF9228
S11328A0FF920F931F93CF93DF93CDB7DEB7259796
S11328B0CDBFDEBF8C016B014C835D83B22E892BAF
S11328C009F4B2C0C114D10409F4A2C0F2E0BF16E5
S11328D009F47DC0F801838D20E07801F8E0EF0E63
S11328E0F11C10C06C817D81C7010E94DA1EC801F1
S11328F00E9468130E94C61D882309F44AC0F80187
S1132900838D21E00FB6F8940F92F801928D9817F9
S113291008F442C0F2E0BF1609F43EC08C819D81E8
S1132920892B09F460C0222359F10F900FBE0E9435
S1132930DC1C0FB6F8940F92F801858D8F3F39F1A6
S1132940F801868D8F3F09F10F900FBEBE016C5FB9
S11329507F4FCE0101960E945C1F811148C00FB6C3
S1132960F8940F92F801928D0F900FBE838D9817F3
S113297009F4B8CFC8010E9468130E94C61DBFCFD6
S1132980CE0101960E94511FD0CF168EDDCF158E39
S1132990D7CF0E94A611B3CF4B2DB601C8010E9418
S11329A0F612F801918991112CC0811127C00F9062
S11329B00FBE81E02596CDBFDEBFDF91CF911F9181
S11329C00F91FF90EF90DF90CF90BF900895F801A2
S11329D0838D813009F480CF63EF72E08AED90E259
S11329E00E949C2377CF0F900FBE80E0E3CFC801F5
S11329F00E9468130E94C61D80E0DCCF0E94A611CD
S1132A00D6CFC80141960E94FA1E882381F2F6CFE0
S1132A10F801848D882309F459CF62EF72E08AEDBE
S1132A2090E20E949C2352CF61EF72E08AED90E223
S1132A300E949C2347CFCF93DF93482F60E081E02F
S1132A400E940814EC01009761F01C821D82188218
S1132A5019821E8220E040E050E060E070E00E94B5
S1132A604C14CE01DF91CF910895CF92DF92EF9273
S1132A70FF920F931F93CF93DF93EC018B016A01B5
S1132A80F22E892B09F445C001151105C1F182E02C
S1132A90F81671F09A8D8B8D9817A0F080E0DF9175
S1132AA0CF911F910F91FF90EF90DF90CF900895F9
S1132AB08B8D813031F065EC73E08AED90E20E94F9
S1132AC09C238A8DEE8C4F2DB801CE010E94F61204
S1132AD0EFEFEE1621F0E394EE8E81E0E0CF8989EA
S1132AE08823D9F3CE0141960E94FA1E8823A9F3C4
S1132AF0C114D10491F381E0F6018083D0CF8C8D91
S1132B00882329F264EC73E08AED90E20E949C230E
S1132B10BECF63EC73E08AED90E20E949C23B4CFB5
S1132B200F931F93CF93DF93EC018B01892B09F44F
S1132B3043C08C8D81111BC088819981892B09F137
S1132B408A8D9B8D891768F49E8D8F5F8A8F9F3F36
S1132B5019F19F5F9E8F81E0DF91CF911F910F91BB
S1132B60089580E0DF91CF911F910F91089564E65D
S1132B7074E08AED90E20E949C2388819981892BDC
S1132B80F9F68C819D81892BD9F269E674E08AED8E
S1132B9090E20E949C23D4CF89898823E1F2CE015C
S1132BA041960E94FA1E8823B1F20115110599F28B
S1132BB081E0F8018083D0CF60E674E08AED90E292
S1132BC00E949C23B6CFAF92BF92CF92DF92FF9226
S1132BD00F931F93CF93DF93CDB7DEB72597CDBF68
S1132BE0DEBF8C015B014C835D83892B09F4A1C09A
S1132BF0A114B10409F491C020E06801F1E1CF0E01
S1132C00D11C0FB6F8940F92F801F28CF1106AC03F
S1132C108C819D81892B09F473C0222309F459C046
S1132C200F900FBE0E94DC1C0FB6F8940F92F801AF
S1132C30858D8F3F09F454C0F801868D8F3F09F4C8
S1132C404DC00F900FBEBE016C5F7F4FCE01019649
S1132C500E945C1F811122C00FB6F8940F92F801F4
S1132C60828D0F900FBE811112C06C817D81C601CF
S1132C700E94DA1EC8010E9468130E94C61D8823A0
S1132C8011F021E0BECF0E94A61121E0BACFC80105
S1132C900E9468130E94C61D21E0B3CFC8010E94A0
S1132CA068130E94C61D0FB6F8940F92F801828D26
S1132CB00F900FBE8111E5CF2596CDBFDEBFDF910A
S1132CC0CF911F910F91FF90DF90CF90BF90AF9065
S1132CD00895CE0101960E94511FA2CF168EB1CF46
S1132CE0158EAACFB501C8010E945013FA94F801B9
S1132CF0F28E8085811108C00F900FBE81E0DCCF79
S1132D000F900FBE80E0D8CFC80108960E94FA1E2B
S1132D10882391F30E94A611EFCFF801848D8823B4
S1132D2009F46ACF64E075E08AED90E20E949C2386
S1132D3063CF60E075E08AED90E20E949C2358CF57
S1132D40DF92EF92FF920F931F93CF93DF93CDB750
S1132D50DEB72597CDBFDEBF8C016C837D83892BC5
S1132D6009F4D0C0D8015C968C918111BBC0D12CE0
S1132D7020E07801B1E1EB0EF11C0FB6F8940F924C
S1132D80F801828D811189C08C819D81892B09F480
S1132D909DC0222309F45FC00F900FBE0E94DC1C6B
S1132DA00FB6F8940F92D8015D968C915D978F3F82
S1132DB009F456C0F801868D8F3F09F458C00F906E
S1132DC00FBEBE016C5F7F4FCE0101960E945C1F57
S1132DD0811123C00FB6F8940F92D8015A968C91A2
S1132DE05A970F900FBE811144C0F80180819181E0
S1132DF0892B09F445C06C817D81C7010E94DA1ECC
S1132E00C8010E9468130E94C61D882311F021E0A6
S1132E10B4CF0E94A61121E0B0CFC8010E9468136C
S1132E200E94C61D0FB6F8940F92F801828D0F9080
S1132E300FBE8111ECCFDD2009F472C00FB6F894F7
S1132E400F928189811165C060E0F80184819581C8
S1132E500E941B2243C0CE0101960E94511F9CCFA9
S1132E605D961C92F801868D8F3F09F0A8CF168ECF
S1132E70A6CFC8010E9468130E94C61D21E07DCF21
S1132E800FB6F8940F9214968D919C9115970E9409
S1132E905121D82E0F900FBEAECF8150828F8081EA
S1132EA09181892B09F43EC0F8018085811121C0EC
S1132EB00F900FBE81E02596CDBFDEBFDF91CF918D
S1132EC01F910F91FF90EF90DF900895DD2031F076
S1132ED061EE75E08AED90E20E949C230F900FBE94
S1132EE080E0E9CF65E975E08AED90E20E949C23D9
S1132EF03ECFC80108960E94FA1E8823C9F20E9498
S1132F00A611D6CF61E975E08AED90E20E949C2378
S1132F1029CF0688F789E02D80816AE0681B95CF68
S1132F2080E0C9CF0E944023D80114968D939C93CE
S1132F301597BACFCF92DF92EF92FF920F931F9320
S1132F40CF93DF93CDB7DEB72597CDBFDEBF8C011E
S1132F506B014C835D83892B09F4A2C0C114D10495
S1132F6009F492C020E07801F1E1EF0EF11C0FB6F4
S1132F70F8940F92F801828D811169C08C819D8132
S1132F80892B09F474C0222309F458C00F900FBE92
S1132F900E94DC1C0FB6F8940F92F801858D8F3FC8
S1132FA009F453C0F801868D8F3F09F44CC00F908B
S1132FB00FBEBE016C5F7F4FCE0101960E945C1F65
S1132FC0811122C00FB6F8940F92F801828D0F90F0
S1132FD00FBE811112C06C817D81C7010E94DA1E6F
S1132FE0C8010E9468130E94C61D882311F021E0C5
S1132FF0BECF0E94A61121E0BACFC8010E94681377
S11330000E94C61D21E0B3CFC8010E9468130E942C
S1133010C61D0FB6F8940F92F801828D0F900FBE63
S11330208111E5CF2596CDBFDEBFDF91CF911F91F2
S11330300F91FF90EF90DF90CF900895CE0101960D
S11330400E94511FA3CF168EB2CF158EABCFE68050
S1133050F780B601C8010E945013F801E682F78296
S11330608189811108C00F900FBE81E0DBCF0F90E2
S11330700FBE80E0D7CFC80141960E94FA1E882374
S113308091F30E94A611EFCFF801848D882309F4EF
S113309069CF6CE676E08AED90E20E949C2362CFD1
S11330A068E676E08AED90E20E949C2357CFCF92A7
S11330B0DF92EF92FF920F931F93CF93DF93EC0174
S11330C07B016A01892BB9F1E114F104D1F01A8D65
S11330D011110AC080E0DF91CF911F910F91FF90F1
S11330E0EF90DF90CF9008950D8DB701CE010E942F
S11330F0501311501A8F0F3F71F00F5F0D8F81E045
S1133100EACF8C8D882319F36CEF76E08AED90E298
S11331100E949C23DCCF8885882389F3CE010896FE
S11331200E94FA1E882359F3C114D10441F381E0AB
S1133130F6018083D0CF6BEF76E08AED90E20E94B7
S11331409C23C2CFCF93DF93EC01892B49F00FB6B8
S1133150F8940F928A8D0F900FBEDF91CF9108954E
S11331606AE877E08AED90E20E949C23F0CF20C0C9
S11331700FB6F8940F92E091E928F091EA28C681FD
S1133180D781CE0102960E94D5108091D928815012
S11331908093D9288091E32881508093E3280F906D
S11331A00FBE8F89988D0E944610CE010E94461052
S11331B08091E3288111DCCF80910C29823010F0BA
S11331C00E94A6110E945223F3CFCF93DF93EC0108
S11331D00E94BD3BFE0101900020E9F73197EC1BF2
S11331E0FD0BE730F10560F4EC0FFD1F9E01295F34
S11331F03F4F80E28193E217F307E1F7E7E0F0E065
S1133200CE018E0F9F1FFC011082DF91CF91089594
S1133210E091F828F091F9280580F681E02D0680E8
S1133220F781E02D828193818093CF289093D028D9
S11332300895CF93DF93EC01892B99F08A859B85C0
S11332408A5D984221F080E0DF91CF9108952C8926
S11332503D8988E22D3E3807B1F381E0232B99F7AD
S1133260F3CF62EF76E08EEE90E20E949C23E6CFED
S1133270FF920F931F93CF93DF93EC01F62E0091EF
S1133280D7281091D82880916629909167290296B1
S11332900E94D510CF3F8FEFD807A9F1C00FD11FDF
S11332A0E0916629F0916729C283D38360916629EE
S11332B070916729C017D107C8F08091F8289091C0
S11332C0F9286E5F7F4F0E94A4108091CF289091BF
S11332D0D028C817D90720F4C093CF28D093D0287A
S11332E0DF91CF911F910F91FF9008958091F6285F
S11332F09091F7286E5F7F4FDF91CF911F910F91CF
S1133300FF900C94A410FF2049F2609166297091FB
S113331067296E5F7F4F8AED98E2DF91CF911F910D
S11333200F91FF900C9483100F931F93CF931092DF
S1133330D32820912008309121088091A4299091CC
S1133340A529A091A629B091A729820F931FA11D99
S1133350B11D0091C8281091C9282091CA28309124
S1133360CB28081719072A073B07A0F4E091662920
S1133370F091672947A150A561A572A5401B510B87
S1133380620B730B480F591F6A1F7B1F47A350A77B
S113339061A772A78093C8289093C928A093CA28CC
S11333A0B093CB28E0916629F09167290788F08DC6
S11333B0E02D80819181A281B381853A954AA54A05
S11333C0B54A09F44CC060916629709167298091CF
S11333D0662990916729675E7F4F0E947223C0918E
S11333E0D6288C2F90E09C01220F331F220F331F0D
S11333F0220F331FF901E80FF91FE45FF64D4081F6
S113340041110CC0CC2311F0C150EBCF6CE87BE030
S11334108EEE90E20E949C23C150E3CF820F931F53
S1133420DC01A45FB64D1196ED91FC9112970280D8
S1133430F381E02D1196ED93FC931297815F964DE5
S1133440E817F90759F1868197818093662990934B
S11334506729C093D628CF911F910F910895848135
S11334609581A681B781853A954AA54AB54A09F05E
S1133470AACF80859185A285B385853A954AA54AC8
S1133480B54A09F0A0CF84859585A685B785853A88
S1133490954AA54AB54A09F096CFA1CF0280F38197
S11334A0E02D1196ED93FC931297CDCF5F926F921E
S11334B07F928F929F92AF92BF92CF92DF92EF92C0
S11334C0FF920F931F93CF93DF934C01EB015A01AB
S11334D03901502ECA010E94A70F8C01892B09F4CF
S11334E0DEC080E390E00E94A70F6C01009709F40E
S11334F0D3C0DC0157960D931C935897209709F479
S1133500D0C0C801A50165EA70E00E94B63BF1E0B5
S1133510AF1AB108D60157968D919C915897A80E71
S1133520B91EF60179969E01285F3F4FDE0189910D
S113353081938C91882319F0C217D307B9F7F60148
S113354010A2052D0A3008F0A1C0D60156960C939E
S1133550569793960C93939794961C92E601229611
S1133560CE010E947F10C6010C960E947F10F601C6
S1133570C086D1868AE090E0801B91098487958774
S1133580C28AD38A15A216A217A210A611A612A641
S113359013A614A615A616A617A6A301B401C50161
S11335A00E94FB10D6018D939C93E114F10419F051
S11335B0F701C082D1820FB6F8940F928091D92876
S11335C08F5F8093D9288091662990916729892BF0
S11335D099F08091D528811118C0E0916629F09165
S11335E06729D60156968C919689891788F0C092DE
S11335F06629D09267290CC0C0926629D0926729A7
S11336008091D928813009F456C0D60156968C9100
S11336109091D1289F5F9093D128F60191A3909126
S1133620D628981780F190E09C01220F331F220FB7
S1133630331F220F331F820F931FBE01845F964DE9
S11336400E9483100F900FBE8091D528882351F0DB
S1133650E0916629F09167299689D60156968C9156
S11336609817B0F081E0DF91CF911F910F91FF90F7
S1133670EF90DF90CF90BF90AF909F908F907F900E
S11336806F905F9008958093D628CDCF09E05DCFE9
S11336900E94A61181E0E7CFC8010E9446108FEF77
S11336A0E2CF60E673E08EEE90E20E949C23F60186
S11336B08789908D27CF0CE019E256E6E52E59E272
S11336C0F52EC8010E947110075F1F4FE016F10626
S11336D0C1F783E099E20E9471108AEF98E20E9498
S11336E071108DEE98E20E94711084EE98E20E94AF
S11336F071108AED98E20E94711083E099E2809340
S1133700F8289093F9288AEF98E28093F62890930A
S1133710F728F60186897CCFCF93DF93EC01892BC0
S113372009F43AC08091662990916729C817D9078E
S113373079F10FB6F8940F928A859B852091F82829
S11337403091F9284091F6285091F7280F900FBE38
S113375082179307A9F08417950791F028E28A3D10
S1133760920751F028E2843E920771F0892B61F0B0
S113377081E0DF91CF9108958C899D89892B99F0FF
S113378082E0DF91CF91089584E0DF91CF91089595
S113379080E0DF91CF9108956CE475E08EEE90E2C5
S11337A00E949C23BFCF8FA5813051F383E0E1CFEA
S11337B00F931F93CF93DF93EC010FB6F8940F92FE
S11337C0892B09F462C08E010E5F1F4FC8010E944D
S11337D0D5108C899D89892B21F0CE010C960E94ED
S11337E0D510B8018AED98E20E9483108FA581302C
S11337F021F10F900FBE8091D528882391F00FB648
S1133800F8940F92E091F828F091F92880818111C1
S11338102BC08FEF9FEF8093CF289093D0280F90E9
S11338200FBE8091662990916729C817D90739F08E
S1133830DF91CF911F910F9108951FA6DACF809148
S1133840D5288823A1F08091CC28882331F068EC16
S113385076E08EEE90E20E949C230E94A611DF91F6
S1133860CF911F910F9108950E940819D8CF90917C
S1133870DA288091D928981799F08091CC28882348
S113388049F081E08093D328D3CFC0916629D091A9
S1133890672999CFDF91CF911F910F910C949419BF
S11338A01092662910926729C3CF0F931F93CF9369
S11338B0DF93EC01892B09F43DC080916629909136
S11338C06729C817D90751F00FB6F8940F92CE01A3
S11338D00E941919811107C00F900FBEDF91CF917B
S11338E01F910F9108958E010E5F1F4FC8010E9412
S11338F0D5108E899091D628981710F48093D628E5
S113390090E09C01220F331F220F331F220F331F1D
S1133910820F931FB801845F964D0E948310E0913B
S11339206629F09167299E8986899817A8F20E94D2
S1133930A611D2CF6CE177E08EEE90E20E949C2338
S11339408091662990916729C9CFEF92FF920F93D6
S11339508DECE82E88E2F82E00E020E030E040E034
S113396051E062E071E287EB98E10E94561A8130DF
S113397079F08F3F21F00F91FF90EF90089567E069
S113398078E08EEE90E20F91FF90EF900C949C23E0
S1133990F8942FEF3FEF2093CF283093D0288093D3
S11339A0D5281092D7281092D8280E9496120F91E9
S11339B0FF90EF900C9469118091CC288F5F8093D5
S11339C0CC2808950FB6F8940F928091D72890913F
S11339D0D8280F900FBE0895DF92EF92FF920F93B5
S11339E01F93CF93DF938091CC288111B9C0E090CD
S11339F0D728F090D8288FEFE81AF80AE092D72851
S1133A00F092D828E114F10449F5E091F828F091F6
S1133A10F92880818111ABC08091F8289091F92810
S1133A202091F6283091F7282093F8283093F9282C
S1133A308093F6289093F7288091D2288F5F809303
S1133A40D228E091F828F091F9288081811196C05C
S1133A508FEF9FEF8093CF289093D0288091CF2829
S1133A609091D028D12CE816F90608F453C0E091BF
S1133A70F828F091F9288081882309F445C0E09161
S1133A80F828F091F9280580F681E02DC681D781C8
S1133A908A819B81E816F90608F473C08E010E5FD3
S1133AA01F4FC8010E94D5108C899D89892B21F054
S1133AB0CE010C960E94D5108E899091D628981725
S1133AC010F48093D62890E09C01220F331F220F1C
S1133AD0331F220F331F820F931FB801845F964D4B
S1133AE00E948310E0916629F09167299E89868956
S1133AF0981708F4BCCFDD24D394E091F828F09112
S1133B00F92880818111BBCF8FEF9FEF8093CF285D
S1133B109093D028E0916629F0916729868990E0F6
S1133B20FC01EE0FFF1FEE0FFF1FEE0FFF1F8E0FA6
S1133B309F1FFC01E45FF64D8081823010F0DD248C
S1133B40D3948091D328882311F0DD24D3948D2D30
S1133B50DF91CF911F910F91FF90EF90DF90089527
S1133B608091D4288F5F8093D428D12CEACF66E645
S1133B707AE08EEE90E20E949C234ECF0E940819B8
S1133B806DCF8093CF289093D028C4CFFF920F930A
S1133B901F93CF93DF938091CC28882309F477C0B7
S1133BA00FB6F8940F928091CC2881508093CC2842
S1133BB08091CC28811162C08091D928882309F48E
S1133BC05DC0C0E0D0E0FF24F3948091ED28882309
S1133BD0A1F1E091F228F091F328C681D781CE01BA
S1133BE00C960E94D5108E010E5F1F4FC8010E94D3
S1133BF0D5108E899091D628981710F48093D628E2
S1133C0090E09C01220F331F220F331F220F331F1A
S1133C10820F931FB801845F964D0E948310E09138
S1133C206629F09167299E898689981770F2F09227
S1133C30D3288091ED288111CCCFCD2B69F0E09170
S1133C40F828F091F928808181112CC08FEF9FEF23
S1133C508093CF289093D028C091D428CC2351F0BE
S1133C60D1E00E94EC1C8111D093D328C150C9F734
S1133C701092D4288091D328811110C080E00F9035
S1133C800FBEDF91CF911F910F91FF9008956CE6C5
S1133C9078E08EEE90E20E949C2382CF0E94A611CF
S1133CA081E0EDCF0E940819D7CF0F931F93CF93D4
S1133CB0DF938C01EB01892B09F446C02097E9F1CD
S1133CC08091CC28811132C08091CC288F5F809361
S1133CD0CC284091D7285091D828F80120813181EF
S1133CE0CE01820F931F4217530788F4821793075C
S1133CF088F0F801808391830E94C61D811102C05F
S1133D000E94A611DF91CF911F910F910895821700
S1133D10930718F04817590760F7F80180839183D7
S1133D2060E0841B950B0E943819E6CF6CEC74E0BC
S1133D308EEE90E20E949C23C7CF6BEC74E08EEE73
S1133D4090E20E949C23BCCF6AEC74E08EEE90E279
S1133D500E949C23B3CFCF93DF93EC01892B29F4EA
S1133D600E94A611DF91CF9108958091CC288111F2
S1133D7010C08091CC288F5F8093CC2860E0CE0166
S1133D800E9438190E94C61D882351F3DF91CF91F8
S1133D90089560E275E08EEE90E20E949C23E9CFE4
S1133DA08091CC28811102C00C94941981E08093F5
S1133DB0D32808950F931F93CF93DF93EC018B01C6
S1133DC0892B89F06091662970916729645F7F4F20
S1133DD0CE010E94A41061E0C801DF91CF911F9130
S1133DE00F910C94381963EA7BE08EEE90E20E9406
S1133DF09C23E8CF0F931F93CF93DF93DC01159699
S1133E00ED91FC911697C681D781209709F442C0A1
S1133E108E01045F1F4FC8010E94D5108091CC28E9
S1133E20811129C00A501109C8010E94D5108E8938
S1133E309091D628981728F190E09C01220F331F07
S1133E40220F331F220F331F820F931FB801845F89
S1133E50964D0E948310E0916629F09167299E890E
S1133E608689891788F481E08093D328DF91CF91E4
S1133E701F910F910895B8018DEE98E20E9483106E
S1133E80EACF8093D628D8CF80E0DF91CF911F91DD
S1133E900F9108956EEF7BE08EEE90E20E949C23DA
S1133EA0B7CF2091D228FC0120832091D7283091CC
S1133EB0D8282183328308950F931F93CF93DF93E0
S1133EC0EC018B01892B09F440C00115110509F49B
S1133ED043C00FB6F8940F928091D7289091D828B8
S1133EE0F801208131812F3FFFEF3F0761F14981C4
S1133EF05A816091D2287881761719F08417950732
S1133F0080F4841B950B8217930768F0F8011082E4
S1133F10118281E00F900FBEDF91CF911F910F911D
S1133F20089581E0F7CF281B390BF80120833183F2
S1133F308091D22888838091D7289091D82889832A
S1133F409A8380E0E7CF80E0E5CF69E67CE08EEEFF
S1133F5090E20E949C23B9CF6AE67CE08EEE90E268
S1133F600E949C23B6CF81E08093D3280895FF92CA
S1133F700F931F93CF93DF938C01EB01F42E892BC6
S1133F8009F464C008831983C80149968A839B8312
S1133F90D80156968C9156978E8357968D919C9105
S1133FA058978C879D8791968C9191978C83939643
S1133FB08C9193978F8397968D919D910D90BC9141
S1133FC0A02D88879987AA87BB87253009F443C029
S1133FD080916629909167290817190709F440C050
S1133FE02D83233021F1FF20D1F0D8015796ED9194
S1133FF0FC9158978081853AA9F5319680E090E04C
S1134000DC010196A11DB11D2191253AD1F38E87C2
S11340109F87DF91CF911F910F91FF9008951E8686
S11340201F86DF91CF911F910F91FF90089580918A
S1134030CC288F5F8093CC28F80184899589892BBB
S113404011F082E08D830E94C61DCDCF00916629B8
S11340501091672997CFC8010E948C1B8D83C3CF11
S11340601D82C1CF80E090E0D2CF8F929F92AF9219
S1134070BF92CF92DF92EF92FF920F931F93CF9351
S1134080DF935C018B01D42FDB011196ED91FC9140
S113409012970280F381E02D1196ED93FC93129711
S11340A07B01B3E0EB0EF11CEE15FF05E1F1C680D8
S11340B0D780C0E016C086809780B501B0E1CB9F61
S11340C0600D711D11242D2F41E0C4010E94B71F02
S11340D0CF5FC814D904C9F0D8011196ED91FC91B1
S11340E012970280F381E02DD8011196ED93FC9391
S11340F01297EE16FF06F9F61596ED91FC911697B8
S11341001196ED93FC931297D6CF8C2FDF91CF911C
S11341101F910F91FF90EF90DF90CF90BF90AF90E1
S11341209F908F9008950280F381E02DC0CFEF928D
S1134130FF920F931F93CF93DF938C017A018091A9
S1134140CC288F5F8093CC288091D928681708F4F5
S113415066C0CAE0D0E004C080E0D80FCC23F9F0F8
S1134160C1506C2F70E0CB01880F991F880F991FE5
S1134170880F991F680F791FFB01E45FF64D80815A
S1134180882351F341E0BF01C80120E1D29F800D93
S1134190911D11240E943520D80FC111E1CFE09167
S11341A0F828F091F928808181113BC080E0D80F74
S11341B0E091F628F091F7288081811145C080E0D4
S11341C0D80F8091E42881114FC080E0D80F8091EE
S11341D0DA2881115AC080E0D80FE114F104A9F063
S11341E020912008309121088091A4299091A5293B
S11341F0A091A629B091A729820F931FA11DB11DDB
S1134200F70180839183A283B3830E94C61D8D2FFF
S1134210DF91CF911F910F91FF90EF900895D0E01F
S1134220F4CF42E0BF01C801E0E1DE9F800D911DA3
S113423011240E943520D80FE091F628F091F72838
S11342408081882309F4BBCF42E0BF01C801F0E1BB
S1134250DF9F800D911D11240E943520D80F80917D
S1134260E428882309F4B1CF44E064EE78E2C8017D
S113427020E1D29F800D911D11240E943520D80F7A
S11342808091DA28882309F4A6CF43E06AED78E226
S1134290C801E0E1DE9F800D911D11240E943520AC
S11342A09BCF0F931F93CF93DF93FC01892B09F4CA
S11342B041C02689A0916629B091672956968C91B0
S11342C0281770F58485958597FD0CC0A091662903
S11342D0B091672956963C918AE090E0831B91093E
S11342E08487958730E0C901880F991F880F991F2B
S11342F0880F991F280F391F245F364D82859385B7
S113430082179307E9F0A0916629B0916729569620
S11343108C91868B81E0DF91CF911F910F9108954D
S1134320A0916629B091672981E023A156969C91BA
S1134330291788F380E0DF91CF911F910F910895A1
S11343408F01EF012296CE010E94D510E0916629DB
S1134350F09167298689F801868B9091D628981761
S113436010F48093D62890E09C01220F331F220F73
S1134370331F220F331F820F931FBE01845F964D9C
S11343800E94831081E0C7CF0F931F93CF93DF93D5
S11343900097C9F0EC018091662990916729C817AC
S11343A0D90731F06EE77FE08EEE90E20E949C2305
S11343B08CA18823C1F181508CA32E899BA129173C
S11343C011F0882331F080E0DF91CF911F910F919C
S11343D008958E010E5F1F4FC8010E94D5102BA1B6
S11343E02E8B822F90E04AE050E0481B590B4C87FB
S11343F05D873091D628321710F42093D6289C017B
S1134400220F331F220F331F220F331F820F931FDC
S1134410B801845F964D0E94831081E0DF91CF91B3
S11344201F910F9108956FE77FE08EEE90E20E9456
S11344309C238CA1C0CF0F931F93CF93DF9300973E
S113444079F0162FEC018CA1882309F454C00BA138
S1134450011758F08E89801719F09CA1913039F01A
S1134460DF91CF911F910F910895012FF3CF2091E8
S1134470662930916729C217D30709F443C00E8B0C
S11344802C853D8537FD06C02AE030E0201B31092C
S11344902C873D8790E09C01220F331F220F331F8E
S11344A0220F331F820F931F845F964D2A853B850D
S11344B028173907A9F68E010E5F1F4FC8010E9405
S11344C0D5108E899091D628981710F48093D62809
S11344D090E09C01220F331F220F331F220F331F42
S11344E0820F931FB801845F964DDF91CF911F9186
S11344F00F910C9483106DEC7FE08EEE90E20E949D
S11345009C23A5CF68EE7FE08EEE90E20E949C2370
S11345108E89B5CF2F923F924F925F926F927F9286
S11345208F929F92AF92BF92CF92DF92EF92FF92BF
S11345300F931F93CF93DF9300D01F92CDB7DEB7B5
S11345408C01FC011082F090D9288091D928F0E1E7
S11345508F9FC00111240E94A70F5C01009709F4EA
S113456079C0AE014F5F5F4F6F2D0E949720882E58
S113457069817A818B819C8124E630E040E050E0BF
S11345800E94573729833A834B835C832115310575
S11345904105510509F45BC0882009F458C0750130
S11345A0912C84E2C82E81E2D82E96E1292E91E244
S11345B0392E26C07F926F925F924F92F7018385C6
S11345C08F9382858F9381858F9380858F933F927C
S11345D02F921F930F930E94EA3CCDBFDEBFF801D8
S11345E001900020E9F78F0101501109939490E1A3
S11345F0E90EF11C891459F129813A814B815C81BE
S1134600F70160857185828593850E94573729015A
S11346103A01F70162817381C8010E94E5188C0197
S1134620411451046104710429F6F70183858F93C1
S113463082858F9381858F9380858F93DF92CF922C
S11346401F930F930E94EA3CCDBFDEBFC8CFC501C4
S11346500E9446102496CDBFDEBFDF91CF911F91FB
S11346600F91FF90EF90DF90CF90BF90AF909F900D
S11346708F907F906F905F904F903F902F90089510
S11346808091662990916729892B39F0E0916629F8
S1134690F091672984A18F5F84A38091662990910A
S11346A0672908950895F89481E391E20E94CD0565
S11346B080E880930106809305062FEF33EC99E0A0
S11346C0215030409040E1F700C00000809306067E
S11346D02FEF33EC99E0215030409040E1F700C0D7
S11346E00000E9CFEB01F89480E88093010683E5AC
S11346F091E20E94CD056AE070E0CE010E94EC05D3
S11347008EE291E20E94CD0580E8809305062FEFAA
S113471033ED90E3215030409040E1F700C00000B9
S1134720809306062FEF33ED90E321503040904004
S1134730E1F700C00000E9CF8C01EB01F89480E8B8
S1134740809301068BE691E20E94CD0564E670E059
S1134750C8010E94EC058BE791E20E94CD05CE01D1
S11347600E9411068EE291E20E94CD0580E88093BA
S113477005062FEF33EC99E0215030409040E1F7EB
S113478000C00000809306062FEF33ED90E3215024
S113479030409040E1F700C00000E9CF0E94030DD3
S11347A080E090E40E9493378093A8299093A929EC
S11347B0892B59F087E08093A20078940E94B92E47
S11347C00E94A51C80E090E00895FFCFFC01448581
S11347D05585FB01248535854217530740F081E058
S11347E090E02417350708F4089580E008958FEFCA
S11347F09FEF08955F926F927F928F929F92AF92F4
S1134800BF92CF92DF92EF92FF920F931F93CF93B9
S1134810DF93CDB7DEB7C054D140CDBFDEBF40E09B
S113482050E064E1CE0101960E949720882E912CDD
S113483026EE33E240E150E0B401CE0101960E943D
S1134840FB3886E891E20E94BA3C83E991E20E9437
S1134850BA3C1F921F921F921F9280EA91E29F938B
S11348608F930E947E3C1F921F928FE08F931FEFC5
S11348701F938FEB91E29F938F930E947E3C1F9234
S11348801F9280E18F931F928CED91E29F938F93FF
S11348900E947E3C1F921F928FE18F931F9386EF9D
S11348A091E29F938F930E947E3C1F921F9280E21D
S11348B08F931F928EE092E29F938F930E947E3C8F
S11348C080E090E29F938F9386E292E29F938F938E
S11348D00E947E3CCDBFDEBF8FE494E29F938F9312
S11348E08FE392E29F938F930E947E3C80E594E253
S11348F09F938F9386E592E29F938F930E947E3CD1
S11349008AEB99E29F938F938EE692E29F938F9323
S11349100E947E3C8091A9298F938091A8298F932E
S113492084E892E29F938F930E947E3CCDBFDEBFCA
S11349308114910409F452C000E010E0512C90E17C
S1134940A92E93E2B92E21E2C22E23E2D22E38E31D
S1134950E32E33E2F32E4FE4642E43E2742E0295E9
S11349601295107F1027007F1027E1E0F0E0EC0F94
S1134970FD1F0E0F1F1FF80183818F9382818F9378
S1134980BF92AF920E947E3CF80185858F93848507
S11349908F93DF92CF920E947E3CF80181818F93A6
S11349A080818F93FF92EF920E947E3CF801808178
S11349B09181FC013297059720813181820F931FE9
S11349C09F938F937F926F920E947E3C5394052D08
S11349D010E0CDBFDEBF081519050CF28091A8299F
S11349E09091A9298150904C9F938F938DE992E2E5
S11349F09F938F930E947E3C8091A8299091A9292E
S1134A00905C9F938F9384EB92E29F938F930E9489
S1134A107E3C1F921F920FE90F931FEF1F9386EDA9
S1134A2092E29F938F930E947E3C1F921F920F935A
S1134A301F9389EF92E29F938F930E947E3C83E9B8
S1134A4091E20E94BA3CCDBFDEBFC05CDE4FCDBF59
S1134A50DEBFDF91CF911F910F91FF90EF90DF9018
S1134A60CF90BF90AF909F908F907F906F905F900A
S1134A700895CF93DF93CDB7DEB72A97CDBFDEBFBE
S1134A8087E00E947D060E94E21C89879A8764E081
S1134A9080E00E94AD0389839A8364E081E00E94F0
S1134AA0AD038B839C8364E082E00E94AD038D831D
S1134AB09E8364E083E00E94AD038F83988722E0A5
S1134AC040E050E0BE016F5F7F4F8091AA29909132
S1134AD0AB290E944C146AE070E0CE0109960E9452
S1134AE0551ED5CFEF92FF920F9340E068E081E02E
S1134AF00E9408148093AA299093AB29E12CF12CED
S1134B0002E020E030E040E052E064E673E289E352
S1134B1095E20E94561A0F91FF90EF900895CF935B
S1134B20DF93CDB7DEB76097CDBFDEBF4FEF5FEF4A
S1134B30BE01675F7F4F8091AA299091AB290E94A3
S1134B409A1788E0FE013996DE01119601900D92C4
S1134B508A95E1F729813A814B815C816D817E815F
S1134B608F8198856096CDBFDEBFDF91CF91089588
S1134B70CF93DF9300D01F92CDB7DEB70E94860992
S1134B800E94E21C89839A8388EC90E00E94AB1E09
S1134B90AE014D5F5F4F60E070E080E090E00E9406
S1134BA0060A6B817C81072E000C880B990B0E94EE
S1134BB06D322DE233E24AEF5BE30E9422334B0174
S1134BC05C01612C712CC12CD12C0EC0C501B40127
S1134BD00E9452314B015C016AE070E0CE01019603
S1134BE00E94551E37016801AE014D5F5F4F60E0C2
S1134BF070E080E090E00E94060A6FEF7FEF809102
S1134C007029909171290E94A0166B817C81072ED6
S1134C10000C880B990B0E946D322DE233E24AEFAF
S1134C205BE30E942233A50194010E9451317B0170
S1134C308C01CB01D80180936C2990936D29A093AA
S1134C406E29B0936F2920E030E048EC52E4B701BC
S1134C50C8010E94C3311B012C0120E030E048EC64
S1134C6052E4B301C6010E94C3319B01AC01C201ED
S1134C70B1010E94523120E030E040E05FE30E9445
S1134C8022339B01AC01609168297091692980915C
S1134C906A2990916B290E9452316093682970931C
S1134CA0692980936A2990936B2920E040E050E0C1
S1134CB060E070E080917029909171290E944C14F9
S1134CC020E030E0A90160916C2970916D298091F8
S1134CD06E2990916F290E941D332FE632E143E83B
S1134CE05AE318160CF472CFC501B4010E94513175
S1134CF04B015C0171CFEF92FF920F93E12CF12CE9
S1134D0003E020E030E040E051E068E673E288EB45
S1134D1095E20E94561A81E00E941B158093702927
S1134D20909371290F91FF90EF9008950F931F9323
S1134D30CF93DF938C01EB016FEF7FEF80917029AC
S1134D40909171290E94A0160115110569F08091B6
S1134D506C2990916D29A0916E29B0916F29F80169
S1134D6080839183A283B383209761F08091682923
S1134D7090916929A0916A29B0916B2988839983BC
S1134D80AA83BB8320E040E050E060E070E08091C3
S1134D90702990917129DF91CF911F910F910C94FB
S1134DA04C14CF93DF93CDB7DEB72A97CDBFDEBFC8
S1134DB01BC0C501B4010E9435328B0120E030E0F4
S1134DC0A901C701B6010E94BE3187FD49C0C701D0
S1134DD0B6010E943532C8010E94D00661E070E03D
S1134DE0CE0109960E94551E0E94E21C89879A876B
S1134DF00E948F2529833A836D837E8369817A811A
S1134E008D819E81681B790B072E000C880B990BF2
S1134E100E946D322AE939E949E15EE30E942233B6
S1134E206B017C0120E030E44CE155E40E945231F6
S1134E304B015C01A701960160E070E48CE195E40C
S1134E400E9451316B017C0120E030E0A901C501D1
S1134E50B4010E94BE3187FFACCF00E010E0AECFBA
S1134E6060E070E0B8CFEF92FF920F9382E7E82EF4
S1134E7089E2F82E03E020E030E040E051E06DE606
S1134E8073E281ED96E20E94561A80917229909104
S1134E9073290F91FF90EF900C94D81B8091722985
S1134EA0909173290C94551C8091722990917329C7
S1134EB00C94D81BCF93DF93CDB7DEB72A97CDBF21
S1134EC0DEBF6FEF7FEF80917629909177290E9462
S1134ED0A01680917C2990917D29A0917E29B09182
S1134EE07F298093782990937929A0937A29B09384
S1134EF07B290E94E21C89879A8718C0C501B401E6
S1134F000E943532C7010E941A2D60E070E0809142
S1134F107429909175290E94A016813009F455C016
S1134F206AE070E0CE0109960E94551E0E948F250A
S1134F3029833A836D837E8369817A818D819E8101
S1134F40681B790B64567109072E000C880B990BAA
S1134F500E946D322DEC3CEC4CEC5DE30E9422335C
S1134F604B015C01C0907829D0907929E0907A298E
S1134F70F0907B29A70196010E9452312B013C013C
S1134F80A5019401C701B6010E9451314B015C0196
S1134F9020E030E0A901C301B2010E94BE3187FFC5
S1134FA00EC0E12CF12C20E030E0A901C501B401D0
S1134FB00E94BE3187FFA2CF60E070E0A3CFC3019F
S1134FC0B2010E9435327B01EECF60E070E080E0F8
S1134FD090E00E941A2D75CFEF92FF920F9343E059
S1134FE060E081E00E9408148093762990937729E9
S1134FF043E060E081E00E94081480937429909358
S11350007529E12CF12C02E020E030E040E052E090
S113501066E773E28AE597E20E94561A0F91FF90C1
S1135020EF90089560937C2970937D2980937E2965
S113503090937F2920E040E050E060E070E08091B0
S11350407629909177290C944C1420E040E050E0AC
S113505060E070E080917429909175290C944C144F
S1135060CF93DF93CDB7DEB76797CDBFDEBF0FC059
S1135070823009F4AEC0833009F4FAC080918229E9
S1135080909183290E94A218882309F496C04FEFB7
S11350905FEFBE016F5F7F4F8091822990918329DA
S11350A00E94E3158981813019F74E805F806884FE
S11350B079848A809B80AC80BD800E94E21C8A87B0
S11350C09B870E943B2C0E94082D0E943B076B018A
S11350D07C0120E030E0A901C501B4010E941D3328
S11350E02DEC3CE44FE453E418160CF050C1C50118
S11350F0B4010E94C33120E030E044EB53E40E9449
S1135100223320E030E040E450E40E94C3316C8B51
S11351107D8B8E8B9F8BB601DD0C880B990B0E94C7
S11351206D329B01AC016C897D898E899F890E94B7
S113513052310E9435328B012DEC3CE44FE453E4B0
S1135140C301B2010E94C33120E030E044EB53E4D8
S11351500E94223320E030E040E450E40E94C33156
S11351600E943532DC01CB01BC010E941A2D09C01A
S11351700C151D05B4F06AE070E0CE010A960E9499
S1135180551E0E943B076B017C0120E030E0A90121
S1135190C501B4010E941D33181654F3C016D1067C
S11351A054F70E94542C0E94142D809182299091CE
S11351B083290E94A21881116ACF20E040E050E0C8
S11351C060E070E080918029909181290E944C14C4
S11351D05ECFCA80DB80EC80FD800E94E21C8A8B5B
S11351E09B8B0E943B2C0E94082D0E943B072DECB8
S11351F03CE44FE453E4C701B6010E94C33120E00C
S113520030E044EB53E40E94223320E030E040E4F9
S113521050E40E94C3310E94122800E010E00BC049
S11352200F5F1F4F05311105E4F46AE070E0CE0111
S113523042960E94551E0E948F252A873B874C87E1
S11352405D876E877F87888B998B2A853B858E85C2
S11352509F85820F931F8A38934114F700E010E072
S1135260E4CF0E9425280E94542C0E94142D06CFBE
S11352704E805F80688479848A809B80AC80BD8006
S11352800E94E21C8A879B870E943B2C0E94082D67
S11352900E943B076B017C0126EC39ED47E75FE395
S11352A0C501B4010E9422334B015C0120E030E0CF
S11352B0A9010E941D3318160CF0ABC0B601DD0C19
S11352C0880B990B0E946D326B017C012DEC3CE440
S11352D04FE453E4C501B4010E94C33120E030E03F
S11352E044EB53E40E94223320E030E040E450E4F5
S11352F00E94C3319B01AC01C701B6010E94513128
S11353000E9435328B012DEC3CE44FE453E4C3019D
S1135310B2010E94C33120E030E044EB53E40E9428
S1135320223320E030E040E450E40E94C3312B01FA
S11353303C010E9435326B017C01C301B2019058DB
S11353400E943532DC01CB01B6010E941A2D0AC03D
S1135350C016D1060CF425CF6AE070E0CE010A969F
S11353600E94551E0E943B076B017C0120E030E047
S1135370A901C501B4010E941D3318164CF30C1584
S11353801D0554F70E94542C0E94142D0ECFC50104
S1135390B4010E94C33120E030E044EB53E40E94A6
S11353A0223320E030E040E450E40E94C3316C8BAF
S11353B07D8B8E8B9F8BB601DD0C880B990B0E9425
S11353C06D329B01AC016C897D898E899F890E9415
S11353D052310E9435328B012DEC3CE44FE453E40E
S11353E0C301B2010E94C33120E030E044EB53E436
S11353F00E94223320E030E040E450E40E94C331B4
S113540090580E943532DC01CB01BC010E941A2D58
S1135410B8CEB601DD0C880B990B0E946D326B017E
S11354207C012DEC3CE44FE453E4C501B4010E943B
S1135430C33120E030E044EB53E40E94223320E007
S113544030E040E450E40E94C3319B01AC01C70149
S1135450B6010E9451310E9435328B012DEC3CE49F
S11354604FE453E4C301B2010E94C33120E030E0B1
S113547044EB53E40E94223320E030E040E450E463
S11354800E94C3312B013C0190580E9435326B01BC
S11354907C01C301B2010E943532DC01CB01B601AB
S11354A00E941A2D5FCFEF92FF920F93E12CF12C03
S11354B003E020E030E040E051E06EE773E280E397
S11354C098E20E94561A40E069E081E00E940814C4
S11354D0809382299093832943E060E081E00E94D5
S11354E0081480938029909381290F91FF90EF9065
S11354F00895CF93DF93CDB7DEB72997CDBFDEBF35
S1135500E1E0E9836A837B838C839D832E833F83DD
S11355104887598720E04FEF5FEFBE016F5F7F4FF1
S113552080918229909183290E944C146FEF7FEF20
S113553080918029909181290E94A0162996CDBF3F
S1135540DEBFDF91CF910895CF93DF93CDB7DEB760
S11355502997CDBFDEBF22E029836A837B838C83B6
S11355609D8320E04FEF5FEFBE016F5F7F4F80911F
S11355708229909183290E944C146FEF7FEF8091D0
S11355808029909181290E94A0162996CDBFDEBF63
S1135590DF91CF910895CF93DF93CDB7DEB72997ED
S11355A0CDBFDEBFE3E0E9836A837B838C839D8385
S11355B02E833F834887598720E04FEF5FEFBE017A
S11355C06F5F7F4F80918229909183290E944C14B0
S11355D06FEF7FEF80918029909181290E94A0161E
S11355E02996CDBFDEBFDF91CF910895CF93DF938E
S11355F0CDB7DEB72C97CDBFDEBF0E94E21C8093EF
S113560084299093852919861A861B861C861D82F7
S11356101E821F82188677C020E030E0A901C701EE
S1135620B6010E94BE3187FF0AC020E030E84BEB90
S113563054E4C701B6010E9451316B017C0120E0A2
S113564030EF4FE755ECC701B6010E94BE3187FF2A
S1135650B6C001E010EFC501B4010E946D329B0198
S1135660AC0169857A858B859C850E94513120E047
S113567030E046E953E40E9422336B017C0120E0D0
S113568030E0A9010E941D33181654F420E030E8DC
S11356904BEB54E4C701B6010E9452316B017C010B
S11356A020E030EF4FE755E4C701B6010E941D33F7
S11356B018160CF48AC020E030E0A901C701B60135
S11356C00E94BE3187FF0AC020E030E84BEB54E46F
S11356D0C701B6010E9451316B017C0120E030EF1B
S11356E04FE755ECC701B6010E94BE3187FF74C075
S11356F061E070EFC8010E94D0066AE070E084E8BF
S113570099E20E94551E0E943B076B017C0160E0F8
S113571070E080918A2990918B290E94A01626011D
S1135720DD0C66087708813009F490C04701FF0C4E
S1135730AA08BB0840E050E0BE016F5F7F4F809134
S11357408829909189290E94E315813009F449C080
S1135750C301B2010E946D329B01AC016D817E8157
S11357608F8198850E94513120E030E046E953E46E
S11357700E9422336B017C0120E030E0A9010E94E9
S11357801D33181654F420E030E84BEB54E4C70101
S1135790B6010E9452316B017C0120E030EF4FE7EB
S11357A055E4C701B6010E941D3318160CF034CF1E
S11357B0C12C90EFD92E9FE7E92E95E4F92EC7016D
S11357C0B6010E9435328B0146CFC12C80EFD82E12
S11357D08FE7E82E85E4F82EC701B6010E94353222
S11357E089CF69817A81072E000C880B990B0E945E
S11357F06D3220E030E048EC52E40E94C3319B015A
S1135800AC016D817E818F8198850E9452316D83B8
S11358107E838F8398876B817C81072E000C880B95
S1135820990B0E946D3220E030E048EC52E40E9473
S1135830C3319B01AC0169857A858B859C850E9467
S1135840523169877A878B879C8782CFC301B201E3
S11358500E946D326D837E838F8398874701FF0C8E
S1135860AA08BB08C501B4010E946D3269877A8712
S11358708B879C875FCF0E94780920E040E050E04E
S113588060E070E080918A2990918B290E944C14E9
S11358900E94E21C80938429909385298091862913
S11358A0909187290C94551C809186299091872981
S11358B00E94D81B60E070E080E090E00C94D00679
S11358C0EF92FF920F930E949F0686E8E82E89E2EA
S11358D0F82E03E020E030E040E051E065E873E2B8
S11358E086EF9AE20E94561A0E94542C40E064E02B
S11358F081E00E940814809388299093892943E0C9
S113590060E081E00E94081480938A2990938B2997
S1135910009751F020E040E050E060E070E00F912B
S1135920FF90EF900C944C140F91FF90EF9008951A
S1135930CF93DF9300D01F92CDB7DEB789839A83CC
S11359406B837C8320E04FEF5FEFBE016F5F7F4F7F
S113595080918829909189290E944C142496CDBF66
S1135960DEBFDF91CF910895CF93DF9300D01F92D4
S1135970CDB7DEB70E94E21C80938C2990938D29C9
S11359804FEF5FEFBE016F5F7F4F80919029909141
S113599091290E949A176B817C8189819A810E9446
S11359A0982C6AE070E08CE899E20E94551EE8CFDA
S11359B0EF92FF920F938EE8E82E89E2F82E03E02F
S11359C020E030E040E051E06CE873E284EB9CE2DC
S11359D00E94561A80918E2990918F290E94D81B7B
S11359E040E064E081E00E94081480939029909341
S11359F09129E2E9F9E2108211821282138222E0F3
S1135A0040E050E0BF010F91FF90EF900C944C14D4
S1135A100E94E21C80938C2990938D2980918E2979
S1135A2090918F290C94551C80918E2990918F29E7
S1135A300C94D81BE2E9F9E2808391836283738337
S1135A4022E040E050E0BF0180919029909191299B
S1135A500C944C14CF93DF931F92CDB7DEB74AC09A
S1135A6066246A9477247A9488248A94912C80FFFB
S1135A7007C090E8692E20E8722E30E8832E912C1E
S1135A8084FF4BC022242A94312C412C512C5101E7
S1135A906201710182019301A401B301C4010E9456
S1135AA0600C8AEF90E00E94AB1E298122FF3AC06D
S1135AB0AA24AA94BB24BA94C12CD12C6FEF7FEFF3
S1135AC080E090E023FF0CC022242A9433243A94EB
S1135AD0412C512C66246A9477247A94812C912C3D
S1135AE0710182019301A4010E94600C8AEF90E08D
S1135AF00E94AB1E40E050E0BE016F5F7F4F80917B
S1135B00AC299091AD290E949A17898181FDA8CF73
S1135B10612C712C812C912CAACF212C312C412C5D
S1135B20512CB5CF51016201B301C401CBCFEF9227
S1135B30FF920F93CF93DF931F92CDB7DEB740E070
S1135B4061E081E00E9408148093AC299093AD2910
S1135B50198222E040E050E0BE016F5F7F4F0E9457
S1135B604C14E12CF12C04E020E030E040E052E061
S1135B7065E074E28AE29DE20E94561A0F90DF917A
S1135B80CF910F91FF90EF900895CF93DF931F92E1
S1135B90CDB7DEB7898322E040E050E0BE016F5FFD
S1135BA07F4F8091AC299091AD290E944C140F90A5
S1135BB0DF91CF9108950FE3C3E9D3E211E088E8C0
S1135BC093E10E94AB1E0093A20688E00E947D062A
S1135BD00E943B079F938F937F936F93DF93CF93A1
S1135BE00E947E3C89E190E00E94AB1E0E947809ED
S1135BF08FE00E948D0680E090E00E94F90C809175
S1135C00A2008C7F8093A2001093AE298AE090E0DA
S1135C100E94AB1E80914800816080934800889563
S1135C20809148008E7F809348001092AE290F9097
S1135C300F900F900F900F900F90C1CFEF92FF92A3
S1135C400F93E0EAF0E08281876882837894E8E445
S1135C50F0E08081817F8083E0EAF6E080E882835F
S1135C60828789E5878B83E08187E12CF12C00E032
S1135C7020E030E040E051E066EA73E28BED9DE223
S1135C800E94561A0F91FF90EF900C944E2780912A
S1135C90AE2908951F920F920FB60F9211240BB6DE
S1135CA00F922F933F934F935F936F937F938F93B1
S1135CB09F93AF93BF93EF93FF938091AE29882373
S1135CC061F08091A20087608093A2008FE38093AB
S1135CD0A10681E090E00E94F90CFF91EF91BF9141
S1135CE0AF919F918F917F916F915F914F913F9170
