S01800004C696E65626F7454656D706C617465312E73726563D2
S11300000C9483010C94A4010C94DC030C9444041C
S11300100C94A4010C94A4010C94A4010C94A401C8
S11300200C94A4010C94A4010C94A4010C94A401B8
S11300300C94A4010C94A4010C94A4010C94A401A8
S11300400C94A4010C94A4010C94A4010C94A40198
S11300500C94A4010C94A4010C94A4010C94A40188
S11300600C94A4010C94A4010C94A4010C94A40178
S11300700C94A4010C94A4010C94A4010C94A40168
S11300800C94A4010C94A4010C94A4010C94A40158
S11300900C94A4010C94A4010C94A4010C94A40148
S11300A00C94A4010C94A4010C94A4010C94AC042D
S11300B00C9414050C94A4010C940F070C94A40143
S11300C00C94A4010C94A4010C94A4010C94A40118
S11300D00C94A4010C94A4010C94A4010C94A40108
S11300E00C94A4010C94A4010C94A4010C94A401F8
S11300F00C94A4010C94A4010C94A4010C94A401E8
S11301000C94A4010C94A4010C94A4010C94A401D7
S11301100C94A4010C94A4010C94A4010C94A401C7
S11301200C94A4010C94A4010C94A4010C94A401B7
S11301300C94A4010C94A4010C94A4010C94A401A7
S11301400C94A4010C94A4010C94A4010C94A40197
S11301500C94A4010C94A4010C94A4010C94A40187
S11301600C94A4010C94A4010C94A4010C94A40177
S11301700C94A4010C94A4010C94A4010C94A40167
S11301800C94A4010C94A4010C94A4010C94A40157
S11301900C94A4010C94A4010C94A4010C94A40147
S11301A00C94CE020C94A4010C94A4010C94A4010C
S11301B00C94A4010C94A4010C94A4010C94A40127
S11301C00C94A4010C94A4010C94A4010C94A40117
S11301D00C94A4010C94A4010C94A4010C94A40107
S11301E00C94A4010C94A4010C94A4010C94A401F7
S11301F00C94A4010C94A4010C94A4010C94A307E2
S11302000C94C8076E616E00696E660000407A1037
S1130210F35A00A0724E18090010A5D4E80000E8B3
S11302207648170000E40B54020000CA9A3B000011
S113023000E1F505000080969800000040420F00A0
S11302400000A08601000000102700000000E80361
S1130250000000006400000000000A00000000002C
S11302600100000000002C76D888DC674F0823DFEB
S1130270C1DFAE59E1B1B796E5E3E453C63AE651BE
S1130280997696E8E6C28426EB898C9B62ED407CE5
S11302906FFCEFBC9C9F40F2BAA56FA5F490055A81
S11302A02AF75C936B6CF9676DC11BFCE0E40D47A6
S11302B0FEF520E6B500D0ED902E030094357705C9
S11302C00080841E080000204E0A000000C80C3381
S11302D03333330F986E12831141EF8D2114893B10
S11302E0E65516CFFEE6DB18D1844B381BF77C1D90
S11302F0901DA4BBE424203284725E228100C9F1E3
S113030024ECA1E53D2711241FBECFEFCDBFDFE9CB
S1130310DEBF00E00CBF10E2A0E0B0E2EEE9FEE1D7
S113032000E00BBF02C007900D92A437B107D9F7C4
S113033020E2A4E7B0E201C01D92A938B207E1F7B8
S11303400E94E2070C944D0F0C940000CF93DF93AE
S1130350CDB7DEB70000DF91CF9108950F93CF930F
S1130360DF9300D0CDB7DEB780E88A8381E08B834A
S1130370CE01029642E0BC0189E30E94BA0589835A
S11303808981882F90E0292F2F938F938FE090E21B
S1130390892F8F938FE090E28F930E94DB0E0F9052
S11303A00F900F900F9082E98A839E012E5F3F4F3A
S11303B0CE01029601E041E0BC0189E30E94D90527
S11303C089838A81823999F08A81882F90E0292F44
S11303D02F938F938EE190E2892F8F938EE190E299
S11303E08F930E94DB0E0F900F900F900F9081E877
S11303F08A838BED8B83CE01029642E0BC0189E3B4
S11304000E94BA0589838FE88A8383E08B83CE01B7
S1130410029642E0BC0189E30E94BA058983000088
S11304202396CDBFDEBFDF91CF910F9108950F9337
S1130430CF93DF93CDB7DEB76C97CDBFDEBF8D8B87
S11304409E8B6F8B788F498F5A8F2B8F3C8FCE0169
S11304500C9689839A83CE010C9602968B839C8397
S1130460CE010C9604968D839E83CE010C9606963F
S11304708F839887CE010C9689879A8780E88C872A
S113048083E08D87CE010C9642E0BC0189E30E9493
S1130490BA058B8783E98C879E01245F3F4FCE0189
S11304A00C9601E041E0BC0189E30E94D9058B87E9
S11304B08C85882F90E081709927892B59F384E9E2
S11304C08C879E01245F3F4FCE010C9608E041E0EB
S11304D0BC0189E30E94D9058B878D899E89892B6C
S11304E051F089819A81FC01208131818D899E8915
S11304F0FC01208331838F89988D892B51F08B8166
S11305009C81FC01208131818F89988DFC0120839D
S11305103183898D9A8D892B51F08D819E81FC01C7
S113052020813181898D9A8DFC01208331838B8DCB
S11305309C8D892B51F08F819885FC01208131811C
S11305408B8D9C8DFC012083318300006C96CDBF84
S1130550DEBFDF91CF910F910895CF93DF93CDB795
S1130560DEB780EA96E022E0FC01218780EA96E08B
S113057020E8FC01228780EA96E021E0FC01278B39
S113058080EA90E027E8FC0122838FE390E020E8F2
S1130590FC0120830000DF91CF9108951F920F92F8
S11305A000903F000F921124CF93DF93CDB7DEB7B5
S11305B00000DF91CF910F9000923F000F901F90A9
S11305C01895CF93DF93CDB7DEB780E296E027E0AE
S11305D0FC01218380E296E028E5FC01208B80E287
S11305E096E028E5FC01218B80E296E028E5FC01F9
S11305F0228B80E096E020E8FC01218380E096E0F5
S113060028E5FC01278B0000DF91CF910895CF935B
S1130610DF931F92CDB7DEB7898380E296E029810C
S11306202770FC01248380E096E0298128702295BC
S1130630207FFC01248300000F90DF91CF91089567
S1130640CF93DF93CDB7DEB780EA96E02FE3FC01CA
S1130650218380EA96E028E5FC01258B80EA96E078
S113066028E5FC01248B80EA96E020E1FC01238B41
S113067080EA96E020E1FC01228B80EA96E020E10A
S1130680FC01218B80EA96E020E1FC01208B80E0D4
S11306909BE027E0FC01208380E09BE023EFFC014A
S11306A0218380E09BE02FEF3FE0FC0126A337A3EA
S11306B080E496E025E0FC01218780E496E020E8D0
S11306C0FC01228780E496E020E4FC01238780E497
S11306D096E0FC01178A80E496E0FC01168A80E823
S11306E096E025E0FC01218780E896E020E8FC0103
S11306F0228780E896E020E4FC01238780E896E0E6
S1130700FC01178A80E896E0FC01168A0000DF915C
S1130710CF910895CF93DF9300D01F92CDB7DEB76A
S113072089839A836B837C8389819A81992384F456
S113073080E09BE029813A81319521953109FC01C2
S113074020A731A780E09BE0FC0112A613A60CC0F1
S113075080E09BE0FC0110A611A680E09BE02981CB
S11307603A81FC0122A733A78B819C8118161906B4
S11307706CF480E09BE02B813C81FC0124A735A72D
S113078080E09BE0FC0116A617A60FC080E09BE06A
S1130790FC0114A615A680E09BE02B813C813195D9
S11307A021953109FC0126A737A700002496CDBF67
S11307B0DEBFDF91CF9108951F920F9200903F000A
S11307C00F92112400903B000F928F939F93EF930D
S11307D0FF93CF93DF931F92CDB7DEB780E496E00B
S11307E0FC018085829586958695837089838981AD
S11307F0882F90E081709927892BD9F08981882FDF
S113080090E082709927892B51F080917F209091FC
S11308108020019780937F209093802024C0809132
S11308207F2090918020019680937F209093802058
S11308301AC08981882F90E082709927892B51F002
S113084080917F2090918020019680937F209093C7
S1130850802009C080917F2090918020019780930F
S11308607F209093802000000F90DF91CF91FF9123
S1130870EF919F918F910F9000923B000F90009207
S11308803F000F901F9018951F920F9200903F0009
S11308900F92112400903B000F928F939F93EF933C
S11308A0FF93CF93DF931F92CDB7DEB780E496E03A
S11308B0FC018085829586958695837089838981DC
S11308C0882F90E082709927892BD9F08981882F0D
S11308D090E081709927892B51F080917F2090912D
S11308E08020019680937F209093802024C0809163
S11308F07F2090918020019780937F209093802087
S11309001AC08981882F90E082709927892B51F031
S113091080917F2090918020019780937F209093F5
S1130920802009C080917F2090918020019680933F
S11309307F209093802000000F90DF91CF91FF9152
S1130940EF919F918F910F9000923B000F90009236
S11309503F000F901F9018951F920F9200903F0038
S11309600F92112400903B000F928F939F93EF936B
S1130970FF93CF93DF931F92CDB7DEB780E896E065
S1130980FC0180858295869586958370898389810B
S1130990882F90E081709927892BD9F08981882F3D
S11309A090E082709927892B51F080918120909159
S11309B082200197809381209093822024C080918B
S11309C081209091822001968093812090938220AF
S11309D01AC08981882F90E082709927892B51F061
S11309E08091812090918220019680938120909320
S11309F0822009C080918120909182200197809368
S1130A0081209093822000000F90DF91CF91FF917D
S1130A10EF919F918F910F9000923B000F90009265
S1130A203F000F901F9018951F920F9200903F0067
S1130A300F92112400903B000F928F939F93EF939A
S1130A40FF93CF93DF931F92CDB7DEB780E896E094
S1130A50FC0180858295869586958370898389813A
S1130A60882F90E082709927892BD9F08981882F6B
S1130A7090E081709927892B51F080918120909189
S1130A8082200196809381209093822024C08091BB
S1130A9081209091822001978093812090938220DD
S1130AA01AC08981882F90E082709927892B51F090
S1130AB0809181209091822001978093812090934E
S1130AC0822009C080918120909182200196809398
S1130AD081209093822000000F90DF91CF91FF91AD
S1130AE0EF919F918F910F9000923B000F90009295
S1130AF03F000F901F9018958BEC8093520088E074
S1130B00809350008091510083FFFCCF82EC80934E
S1130B10550088E1809350008091510084FFFCCF00
S1130B2088ED84BF84E08093400080E00895CF93F3
S1130B30DF93CDB7DEB710927D2080E896E028E100
S1130B40FC01208B80E896E028E1FC01218B80EAFF
S1130B5094E028E7FC01218380EA94E023E2FC018D
S1130B60258380EA94E021E0FC0124830000DF91E6
S1130B70CF9108950F93CF93DF93CDB7DEB7259729
S1130B80CDBFDEBF8A836B837C834D838B819C8145
S1130B9000E020E030E04D81BC018A810E94D9054B
S1130BA0898389812596CDBFDEBFDF91CF910F91D7
S1130BB008950F93CF93DF93CDB7DEB72997CDBFB9
S1130BC0DEBF8B836C837D834E832F8338870987B5
S1130BD08C819D8180937520909376208F81988558
S1130BE0809377209093782080917D208823B9F595
S1130BF081E080937D2010927E208B81880F8093EA
S1130C0074208E8180937920898580937A20109234
S1130C107B2010927C2080917920882351F0809150
S1130C2074208E7F898380EA94E02981FC012683E5
S1130C3010C080917A20882361F0809174208160B3
S1130C408A8380EA94E02A81FC01268302C081E041
S1130C5008C0000080917D208823C9F702C080E08D
S1130C6000C02996CDBFDEBFDF91CF910F910895CB
S1130C70CF93DF931F92CDB7DEB780EA94E0FC01F7
S1130C80848189838981882F90E084709927892BB6
S1130C9021F084E080937E2003C083E080937E2053
S1130CA080EA94E029812860FC01248310927D204D
S1130CB000000F90DF91CF910895CF93DF9300D080
S1130CC01F92CDB7DEB780917920898380917A20F5
S1130CD08A8380EA94E0FC018481882F90E080710B
S1130CE09927892B59F080EA94E023E0FC012383BF
S1130CF085E080937E2010927D2034C090917B20EB
S1130D0089819817C0F420917520309176208091C4
S1130D107B20882F90E0820F931FFC0180818B83BE
S1130D2080EA94E02B81FC01278380917B208F5FF4
S1130D3080937B2017C090917C208A81981750F46F
S1130D408091742081608C8380EA94E02C81FC0182
S1130D50268308C080EA94E023E0FC01238381E039
S1130D600E94FF0600002496CDBFDEBFDF91CF9125
S1130D700895CF93DF931F921F92CDB7DEB7809172
S1130D807C208032C0F480EA94E0FC01878189836E
S1130D90209177203091782080917C20882F90E0DA
S1130DA0820F931F2981FC01208380917C208F5F17
S1130DB080937C2008C080EA94E023E0FC01238334
S1130DC082E00E94FF0680917A208A8390917C20A1
S1130DD08A81981730F480EA94E022E0FC012383AE
S1130DE008C080EA94E027E0FC01238381E00E94AC
S1130DF0FF0600000F900F90DF91CF910895CF93DD
S1130E00DF931F92CDB7DEB78983898180937E20DB
S1130E1010927D2000000F90DF91CF9108951F92D2
S1130E200F9200903F000F92112400903B000F920C
S1130E302F933F934F935F936F937F938F939F93DE
S1130E40AF93BF93EF93FF93CF93DF931F92CDB7ED
S1130E50DEB780EA94E0FC01848189838981882F4C
S1130E6090E088709927892B39F48981882F90E044
S1130E7084709927892B19F00E94380613C0898140
S1130E80882F90E080749927892B19F00E945D06C1
S1130E9009C0898188231CF40E94B90603C086E036
S1130EA00E94FF0680917D2000000F90DF91CF917A
S1130EB0FF91EF91BF91AF919F918F917F916F912E
S1130EC05F914F913F912F910F9000923B000F90B3
S1130ED000923F000F901F901895CF93DF93CDB7EA
S1130EE0DEB780E896E028E0FC01218380E896E004
S1130EF024E0FC01228380EA9AE0FC01138280EA68
S1130F009AE028E1FC01248380EA9AE023E0FC01D2
S1130F10258380EA9AE025EEFC01268380EA9AE0A4
S1130F202CEBFC01278380E090E280938520909352
S1130F30862080E090E280938320909384200000B8
S1130F40DF91CF910895CF93DF9300D0CDB7DEB773
S1130F5089836A837B8380EA9AE02981FC01208368
S1130F60000080EA9AE0FC018181882F90E080747F
S1130F709927892BB1F380EA9AE020E4FC012183CC
S1130F8080E090E02396CDBFDEBFDF91CF9108953E
S1130F90CF93DF931F921F92CDB7DEB789839A83D5
S1130FA0000080EA9AE0FC0181818823D4F780EA7A
S1130FB09AE0FC018081882F90E00F900F90DF91E0
S1130FC0CF910895CF93DF93CDB7DEB76E97CDBFA2
S1130FD0DEBF0E947C050E946D0783E490E2892FA6
S1130FE08F9383E490E28F930E94DB0E0F900F9017
S1130FF00E9497050E94E1020E94030A0E94A60132
S11310000E9420030E94AD0280E00E94070A0E9411
S1131010AE0188E490E028E430E0F9012081217FEA
S11310202460FC01208388E490E028E430E0F901A6
S113103020812160FC012083CE01479689839A8315
S1131040CE0149968B839C83CE014B968D839E83E0
S1131050CE014D968F83988780910E200E940703BE
S113106081E080930E2080910E20880F80930E20C3
S113107080910E20882F90E08F709927892B49F456
S113108060E070E080E090E00E948A0381E0809359
S11310900E202F8138854D815E816B817C81898111
S11310A09A810E94170280E090E0AAE7B4E489875D
S11310B09A87AB87BC8720E030E04AEF55E4698526
S11310C07A858B859C850E946E09DC01CB018D8716
S11310D09E87AF87B88B20E030E040E85FE36D8502
S11310E07E858F8598890E94E80888232CF481E006
S11310F090E0898B9A8B3FC020E03FEF4FE757E4A5
S11311006D857E858F8598890E94690918164CF52E
S113111020E030E040E251E469857A858B859C8546
S11311200E946E09DC01CB01BC01CD010E94ED08D7
S1131130DC01CB01898B9A8B0FC080E293E08B8B0F
S11311409C8B8B899C890197F1F78B8B9C8B89896C
S11311509A890197898B9A8B89899A89892B69F74E
S113116014C06D857E858F8598890E94ED08DC0109
S1131170CB01898B9A8B89899A898D8B9E8B8D89DA
S11311809E890197F1F78D8B9E8B6D8D7E8D4B8D96
S11311905C8D298D3A8D8F89988DE72FEF936F930E
S11311A0652F6F934F93432F4F932F93292F2F9393
S11311B08F938AE590E2892F8F938AE590E28F934B
S11311C00E94DB0E8DB79EB70A96CDBFDEBF4BCF14
S11311D00E941C0908F481E008950E94480988F0DF
S11311E09F5798F0B92F9927B751B0F0E1F0660FE7
S11311F0771F881F991F1AF0BA95C9F714C0B13028
S113120091F00E946209B1E008950C946209672F7D
S1131210782F8827B85F39F0B93FCCF38695779556
S11312206795B395D9F73EF490958095709561953F
S11312307F4F8F4F9F4F0895990F0008550FAA0BAA
S1131240E0E8FEEF16161706E807F907C0F01216D5
S11312501306E407F50798F0621B730B840B950BD8
S113126039F40A2661F0232B242B252B21F408952D
S11312700A2609F4A140A6958FEF811D811D0895CA
S113128057FD9058440F551F59F05F3F71F0479533
S1131290880F97FB991F61F09F3F79F08795089518
S11312A0121613061406551FF2CF4695F1DF08C037
S11312B0161617061806991FF1CF86957105610554
S11312C008940895E894BB2766277727CB0197F9FC
S11312D008950E941C0908F48FEF08950E94810963
S11312E00C94F2090E94E40938F00E94EB0920F002
S11312F0952311F00C94DB090C94E10911240C944E
S113130063090E94400970F3959FC1F3950F50E063
S1131310551F629FF001729FBB27F00DB11D639FA3
S1131320AA27F00DB11DAA1F649F6627B00DA11D49
S1131330661F829F2227B00DA11D621F739FB00DEF
S1131340A11D621F839FA00D611D221F749F33275F
S1131350A00D611D231F849F600D211D822F762FF8
S11313606A2F11249F5750409AF0F1F088234AF0D5
S1131370EE0FFF1FBB1F661F771F881F9150504041
S1131380A9F79E3F510580F00C94DB090C94630986
S11313905F3FE4F3983ED4F3869577956795B795C8
S11313A0F795E7959F5FC1F7FE2B880F911D9695E2
S11313B0879597F9089597F99F6780E870E060E052
S11313C008959FEF80EC089500240A9416161706DA
S11313D018060906089500240A9412161306140622
S11313E005060895092E0394000C11F4882352F085
S11313F0BB0F40F4BF2B11F460FF04C06F5F7F4F3D
S11314008F4F9F4F089580E2809341060895811184
S113141004C080E280934606089580E280934506E6
S113142008952F923F924F925F926F927F928F9284
S11314309F92AF92BF92CF92DF92EF92FF920F935F
S11314401F93CF93DF93CDB7DEB76097CDBFDEBFD9
S11314507C011B016A01FC0116821782838181FFD2
S113146044C39E012F5F3F4F3901F7019381F1017E
S113147093FD859193FF81911F01882309F431C362
S1131480853239F493FD859193FF81911F01853253
S113149039F4B70190E00E949F0E56016501E5CF33
S11314A010E0512C912CFFE1F915D8F08B3279F032
S11314B038F4803279F08332A1F4F92DF0612EC032
S11314C08D3261F0803369F4292D21602DC0392DCE
S11314D03260932E892D8460982E2AC0E92DE8600D
S11314E015C097FC2DC020ED280F2A3088F496FEF5
S11314F006C03AE0139F200D1124122F19C08AE070
S1131500589E200D1124522EE92DE0629E2E10C00B
S11315108E3231F496FCE5C2F92DF0649F2E08C09A
S11315208C3621F4292D2068922E02C0883641F48D
S1131530F10193FD859193FF81911F018111B3CF37
S11315409BEB980F933020F4992D9061805E07C037
S11315509BE9980F933008F066C1992D9F7E96FF02
S113156016E09F73992E853619F49064992E08C05D
S1131570863621F4392F3068932E02C01111115090
S113158097FE07C01C3350F444244394410E27E0D3
S11315900BC0183038F027E017E005C027E09CE3C3
S11315A0492E02C0212F412C560184E0A80EB11C03
S11315B0F6016081718182819381042DA3010E94CF
S11315C0B10D6C01F981FC87F0FF02C0F3FF06C086
S11315D091FC06C092FE06C000E205C00DE203C005
S11315E00BE201C000E08C858C7019F001115AC225
S11315F09BC297FE10C04C0CFC85F4FF04C08A818A
S1131600813309F44A94141474F528E0241578F508
S113161088E0482E2CC096FC2AC0812F90E08C15BF
S11316209D059CF03CEFC3163FEFD30674F0892D63
S11316308068982E0AC0E2E0F0E0EC0FFD1FE10F95
S1131640F11D8081803319F411501111F4CF97FEEC
S11316500EC044244394410E812F90E0C816D9064D
S11316602CF41C1904C04424439401C010E097FED8
S113167006C01C141D0434F4C601019605C085E09F
S113168090E002C081E090E001110196112331F055
S1131690212F30E02F5F3F4F820F931F252D30E025
S11316A08217930714F4581A01C0512C892D89709C
S11316B049F4552039F0B70180E290E00E949F0E72
S11316C05A94F7CF002329F0B701802F90E00E94AD
S11316D09F0E93FC09C0552039F0B70180E390E0D8
S11316E00E949F0E5A94F7CF97FE4CC04601D7FE36
S11316F002C0812C912CC60188199909F301E80FC5
S1131700F91FED87FE879601241931092F87388B3D
S1131710012F10E01195019511093FEF83169306EF
S113172029F4B7018EE290E00E949F0EC814D904F8
S11317304CF08F8598898815990524F4ED85FE85EC
S1131740818101C080E3F1E08F1A91082D853E85E7
S11317502F5F3F4F2D873E87801691062CF0B701EF
S113176090E00E949F0ED9CFC814D90441F49A8105
S1131770963320F4953319F43C8534FF81E3B701A3
S113178090E04EC08A81813319F09C859F7E9C87AE
S1131790B70190E00E949F0E111105C094FC18C07F
S11317A085E690E017C0B7018EE290E00E949F0E9C
S11317B01E5F82E001E0080FF301E80FF11D808154
S11317C0B70190E00E949F0E802F0113F3CFE6CF64
S11317D085E490E0B7010E949F0ED7FC06C0C114B7
S11317E0D10441F4EC85E4FF05C0D194C194D1083F
S11317F08DE201C08BE2B70190E00E949F0E80E36E
S11318002AE0C216D1042CF08F5FFAE0CF1AD10877
S1131810F7CFB70190E00E949F0EB701C601C096B2
S11318200E949F0E54C1833631F0833779F083359B
S113183009F056C020C0560132E0A30EB11CF601D7
S11318408081898301E010E0630112C05601F2E057
S1131850AF0EB11CF601C080D18096FE03C0612F8B
S113186070E002C06FEF7FEFC6010E94940E8C01FE
S1131870F92DFF7714C0560122E0A20EB11CF60127
S1131880C080D18096FE03C0612F70E002C06FEF6C
S11318907FEFC6010E94890E8C01F92DF0689F2EFE
S11318A0F3FD1AC0852D90E008171907A8F4B701B5
S11318B080E290E00E949F0E5A94F4CFF60197FCC8
S11318C0859197FE81916F01B70190E00E949F0E70
S11318D051105A94015011090115110579F7F7C0F7
S11318E0843611F0893661F5560197FE09C024E06B
S11318F0A20EB11CF60160817181828193810AC0BC
S1131900F2E0AF0EB11CF60160817181072E000C6C
S1131910880B990BF92DFF769F2E97FF09C09095A0
S11319208095709561957F4F8F4F9F4FF0689F2EE4
S11319302AE030E0A3010E94EF0EC82EC6183FC073
S1131940092D853721F40F7E2AE030E01DC0097F80
S11319508F3691F018F4883559F0C3C0803719F0E8
S1131960883711F0BEC0006104FF09C0046007C0DD
S113197094FE08C0066006C028E030E005C020E1FF
S113198030E002C020E132E0560107FF09C084E0E4
S1131990A80EB11CF601608171818281938108C017
S11319A0F2E0AF0EB11CF6016081718180E090E03D
S11319B0A3010E94EF0EC82EC6180F77902E96FE34
S11319C00BC0092D0E7FC11650F494FE0AC092FC80
S11319D008C0092D0E7E05C0DC2C092D03C0DC2CAB
S11319E001C0D12E04FF0DC0FE01EC0DF11D80815C
S11319F0803311F4097E09C002FF06C0D394D39446
S1131A0004C0802F867809F0D39403FD11C000FF31
S1131A1006C01C2DD51480F4150D1D190DC0D51448
S1131A2058F4B70180E290E00E949F0ED394F7CF60
S1131A30D51410F45D1801C0512C04FF10C0B70177
S1131A4080E390E00E949F0E02FF17C001FD03C0D7
S1131A5088E790E002C088E590E0B7010CC0802FD1
S1131A60867859F001FF02C08BE201C080E207FDD5
S1131A708DE2B70190E00E949F0EC11638F4B701C1
S1131A8080E390E00E949F0E1150F7CFCA94F301B7
S1131A90EC0DF11D8081B70190E00E949F0EC110F2
S1131AA0F5CF15C0F4E0F51560F584E0581A93FEFF
S1131AB01FC0011127C02C8523FF2AC004E012E0B7
S1131AC0392D3071932EF8018491811124C0552051
S1131AD009F4E4CCB70180E290E00E949F0E5A948E
S1131AE0F6CFF7018681978126C08FEF9FEF23C041
S1131AF0B70180E290E00E949F0E5A945110F8CFF3
S1131B00D8CF512CB701802F90E00E949F0ED3CFE5
S1131B1008E012E0D5CF91108052B70190E00E9406
S1131B209F0E0F5F1F4FCFCF23E0251510F483E0E6
S1131B30BDCF512CC0CF6096CDBFDEBFDF91CF911A
S1131B401F910F91FF90EF90DF90CF90BF90AF90D7
S1131B509F908F907F906F905F904F903F902F90C9
S1131B600895283008F027E03327DA01990F311D52
S1131B7087FD916000966105710539F432602E5F2E
S1131B803D9330E32A95E1F708959F3F30F0803884
S1131B907105610509F03C5F3C5F3D93913008F0AD
S1131BA08068911DDF93CF931F930F93FF92EF9261
S1131BB0192F987F9695E92F96959695E90FFF270B
S1131BC0EA59FD4F99273327EE24FF24A701E701A3
S1131BD005900894079428F4360FE71EF81E491F51
S1131BE0511D660F771F881F991F0694A1F7059052
S1131BF0079428F4E70EF81E491F561FC11D770FDE
S1131C00881F991F661F0694A1F70590079428F46E
S1131C10F80E491F561FC71FD11D880F991F661F35
S1131C20771F0694A1F70590079420F4490F561FD7
S1131C30C71FD81F990F661F771F881F0694A9F71F
S1131C4084911095177041F0D695C795579547958F
S1131C50F794E7941A95C1F7ECE0F2E068941590D4
S1131C60159135916591959105907FE27395E118F1
S1131C70F10A430B560BC90BD009C0F7E10CF11E56
S1131C80431F561FC91FD01D7EF4703311F48A956B
S1131C90E6CFE894015030F0080F0AF40027021749
S1131CA008F4202F2395022F7A3328F079E37D93CB
S1131CB02A95E9F710C07D932A9589F6069497959D
S1131CC06795379517951794E118F10A430B560B4E
S1131CD0C90BD00998F023957E9173957A3308F057
S1131CE070E37C932013B8F77E9170617D9330F09C
S1131CF0839571E37D9370E32A95E1F71124EF90C6
S1131D00FF900F911F91CF91DF91992787FD9095B7
S1131D100895FC010590615070400110D8F780953A
S1131D2090958E0F9F1F0895FC01615070400190A3
S1131D300110D8F7809590958E0F9F1F08950F93EB
S1131D401F93CF93DF93FB01238121FD03C08FEF0A
S1131D509FEF2CC022FF16C0468157812481358114
S1131D604217530744F4A081B1819D012F5F3F4F77
S1131D70208331838C93268137812F5F3F4F2683C5
S1131D80378314C08B01EC01FB010084F185E02D45
S1131D901995892BE1F6D80116968D919C91179788
S1131DA0019616968D939C931797CE01DF91CF9150
S1131DB01F910F910895CF93DF93CDB7DEB7AE0196
S1131DC04A5F5F4FFA0161917191AF018091852063
S1131DD0909186200E94110ADF91CF910895FA0113
S1131DE0AA27283051F1203181F1E8946F936E7F56
S1131DF06E5F7F4F8F4F9F4FAF4FB1E03ED0B4E047
S1131E003CD0670F781F891F9A1FA11D680F791F87
S1131E108A1F911DA11D6A0F711D811D911DA11D98
S1131E2020D009F468943F912AE0269F11243019A8
S1131E30305D3193DEF6CF010895462F4770405D43
S1131E404193B3E00FD0C9F7F6CF462F4F70405DF2
S1131E504A3318F0495D31FD4052419302D0A9F74D
S1131E60EACFB4E0A6959795879577956795BA9547
S1131E70C9F700976105710508959B01AC010A2E0D
S1131E8006945795479537952795BA95C9F7620FE4
S1111E90731F841F951FA01D0895F894FFCFA3
S1131E9E0000000300000000A307C8070000075459
S1131EAE77696D57726974653A25640D0A00414469
S1131EBE5053393936302049442072656164626169
S1131ECE636B206661696C3A2025642072656164D7
S1131EDE0D0A00496E697469616C6973696E6720D5
S1131EEE447269766572730A0D00433A25640920BB
S1131EFE523A25640920473A25640920423A25645A
S1071F0E090A0D00AB
S9030000FC
