:100000000C9461030C9482030C9422070C94A907AE
:100010000C9482030C9482030C9482030C9482034C
:100020000C9482030C9482030C9482030C9482033C
:100030000C9482030C9482030C94A70F0C948203FB
:100040000C941B100C9482030C9482030C94820376
:100050000C9482030C9482030C9482030C9482030C
:100060000C9482030C9482030C9482030C948203FC
:100070000C9482030C9482030C9482030C948203EC
:100080000C9482030C9482030C9435050C94820327
:100090000C9482030C9482030C9482030C948203CC
:1000A0000C9482030C9482030C9482030C94300809
:1000B0000C94B7080C9482030C94C60B0C94820326
:1000C0000C9482030C9482030C9482030C9482039C
:1000D0000C9482030C9482030C9482030C9482038C
:1000E0000C9482030C9482030C94E60C0C9482030F
:1000F0000C949F0C0C9482030C9482030C94820346
:100100000C9482030C9482030C9482030C9482035B
:100110000C9482030C9482030C9482030C940204CA
:100120000C9482030C9482030C9482030C9482033B
:100130000C9482030C9482030C9482030C9482032B
:100140000C9482030C9482030C9482030C9482031B
:100150000C9482030C9482030C9482030C9482030B
:100160000C9482030C9482030C9482030C948203FB
:100170000C9482030C9482030C9482030C948203EB
:100180000C9482030C9482030C9482030C948203DB
:100190000C9482030C9482030C9482030C948203CB
:1001A0000C9482030C9482030C9482030C948203BB
:1001B0000C9482030C9482030C9482030C948203AB
:1001C0000C9482030C9482030C9482030C9482039B
:1001D0000C9482030C9482030C9482030C9482038B
:1001E0000C9482030C9482030C9482030C9482037B
:1001F0000C9482030C9482030C9482030C94460C9E
:100200000C94300C0C94EF230C946A210C94492923
:100210000C94702A0C94FA2A0C94B22A0C94BD22E5
:100220000C9477230C94C5240C943B160C94BF2992
:100230000C948B276E616E00696E660000407A1028
:10024000F35A00A0724E18090010A5D4E80000E887
:100250007648170000E40B54020000CA9A3B0000E5
:1002600000E1F505000080969800000040420F0074
:100270000000A08601000000102700000000E80335
:10028000000000006400000000000A000000000000
:100290000100000000002C76D888DC674F0823DFBF
:1002A000C1DFAE59E1B1B796E5E3E453C63AE65192
:1002B000997696E8E6C28426EB898C9B62ED407CB9
:1002C0006FFCEFBC9C9F40F2BAA56FA5F490055A55
:1002D0002AF75C936B6CF9676DC11BFCE0E40D477A
:1002E000FEF520E6B500D0ED902E0300943577059D
:1002F0000080841E080000204E0A000000C80C3355
:100300003333330F986E12831141EF8D2114893BE3
:10031000E65516CFFEE6DB18D1844B381BF77C1D63
:10032000901DA4BBE424203284725E228100C9F1B6
:1003300024ECA1E53D274E414E494E495459494EC2
:1003400046CDCCCC3D0AD7233C17B7D13877CC2B40
:10035000329595E6241FB14F0A000020410000C8E5
:100360004200401C4620BCBE4CCA1B0E5AAEC59D66
:10037000746175787077722073746174653A27734D
:1003800074617465273D313A207475726E206F6E0A
:100390002061757820706F776572206E65742C20EF
:1003A000277374617465273D303A207475726E202E
:1003B0006F66662061757820706F776572206E6554
:1003C000740D0A00676574616463203A7265747520
:1003D000726E7320416E616C6F67206368616E6E30
:1003E000656C7320696E20666F726D617420276C76
:1003F0006566745F6C696E655F73656E736F72209E
:100400006D69645F6C696E655F73656E736F722092
:1004100072696768745F6C696E655F73656E736F30
:100420007220706F74656E74696F6D657465720D9E
:100430000A00676574677972203A72657475726E26
:1004400073206779726F73636F706520696E666F72
:1004500020696E20666F726D6174202779617772F2
:1004600061746520286465672F7329207961772876
:10047000646567290D0A00676574726762203A72C5
:10048000657475726E7320524742206C6967687498
:100490002073656E736F722076616C7565730D0ADB
:1004A00000676574656E63203A676574206D6F74CC
:1004B0006F7220656E636F6465722076616C75651E
:1004C000730D0A007365746D6F74206C6566746DCE
:1004D0006F746F725F70776D2072696768746D6F8B
:1004E000746F725F70776D203A6469726563746CC3
:1004F0007920636F6E74726F6C206D6F746F7220F1
:1005000070776D207369676E616C2E2050776D2057
:10051000697320696E20612072616E6765206F6665
:10052000202D3430393520746F20343039350D0AA0
:10053000007365746C656420656666656374203A53
:1005400073657420524742206C6564206566666559
:1005500063742028736565205247425461736B2E83
:1005600068290D0A0064727673656720737065658B
:1005700064203A666F6C6C6F77206C696E652073CF
:1005800065676D656E7420756E74696C20656E6448
:100590002061742061207370656564206F66202778
:1005A000737065656427206D6D2F730D0A00726F7F
:1005B0007463747220616E676C6520737065656426
:1005C000203A726F746174652027616E676C6527CD
:1005D00020646567726565732061726F756E642053
:1005E00063656E746572206F6620726F626F74202F
:1005F00061742061207370656564206F66202773C5
:100600007065656427206D6D2F730D0A0064727626
:100610007374722064697374616E636520737065AE
:100620006564203A44726976652073747261696703
:100630006874206F766572202764697374616E63D5
:100640006527206D6D20617420612073706565647D
:10065000206F662027737065656427206D6D2F738A
:100660000D0A006D656D6D6170203A73686F7720BB
:100670006D656D6F7279206D61700D0A0074736B1A
:100680006C7374203A6C69737420467265655254B9
:100690004F53207461736B730D0A0068656C702092
:1006A0003A746869732068656C7020706167650DC5
:1006B0000A00436F6D6D616E64206C6973743A0D4E
:1006C0000A0011241FBECFEFCDBFDFE9DEBF00E07F
:1006D0000CBF13E2A0E0B0E2E6EBF6E700E00BBFF0
:1006E00002C007900D92A83FB107D9F725E2A8EF05
:1006F000B3E201C01D92A036B207E1F70E94522179
:100700000C94593B0C940000E0E0F2E081E080831F
:1007100096E0918392E0928393E0948382A343E0F6
:1007200060E00E948C1180933E2590933F2543E02A
:1007300060E081E00E948C1180933C2590933D25E0
:1007400020E040E050E060E070E080913E25909134
:100750003F250C94D011CF93DF93C82FD62F6FEF86
:100760007FEF80913E2590913F250E942414C03157
:1007700028F080E197E2DF91CF910895CC0FCC0F64
:10078000CC0FC0932102DF3FA1F1D43068F582E0A5
:100790008093200280910102806180930102809108
:1007A0002102D82BD093210280912002806880936F
:1007B00020026FEF7FEF80913C2590913D250E94B4
:1007C0002414C0912402D091250220E040E050E0A2
:1007D00060E070E080913E2590913F250E94D0110D
:1007E000CE01DF91CF910895D450D43010F68FE12F
:1007F000CFCF81E080932002809101028F7E809391
:100800000102D2CF1F920F920FB60F9211240BB696
:100810000F922F933F934F935F936F937F938F9399
:100820009F93AF93BF93EF93FF93CF93DF931F9269
:10083000CDB7DEB71982BE016F5F7F4F80913C2537
:1008400090913D250E941413898181110E94830F8C
:100850000F90DF91CF91FF91EF91BF91AF919F9159
:100860008F917F916F915F914F913F912F910F9059
:100870000BBE0F900FBE0F901F9018950F93CF9344
:10088000DF931F921F92CDB7DEB780E8898381E0A6
:100890008A8342E0BE016F5F7F4F89E30E94500B65
:1008A00082E9898301E09E012F5F3F4F41E0B9015A
:1008B00089E30E94C10A89818B3A61F01F928F936C
:1008C00086E190E29F938F930E94A8380F900F903B
:1008D0000F900F9081E889838BED8A8342E0BE01FF
:1008E0006F5F7F4F89E30E94500B8FE8898383E01D
:1008F0008A8342E0BE016F5F7F4F89E30E94500B05
:100900000F900F90DF91CF910F9108958F929F924A
:10091000AF92BF92CF92DF92EF92FF920F931F930D
:10092000CF93DF93CDB7DEB72997CDBFDEBF4C01A4
:100930005B016A01790180E8898383E08A8342E070
:10094000BE016F5F7F4F89E30E94500B13E903C024
:10095000898180FD15C0198301E09E012F5F3F4F03
:1009600041E0B90189E30E94C10A8111F1CF63E43A
:1009700070E08BE390E20E942021898180FFEBCF21
:1009800084E9898308E09E012F5F3F4F41E0B90170
:1009900089E30E94C10A882381F18114910429F01E
:1009A00089819A81F40180839183A114B10429F093
:1009B0008B819C81F50180839183C114D10429F03E
:1009C0008D819E81F60180839183E114F10429F0E9
:1009D0008F819885F701808391832996CDBFDEBFF3
:1009E000DF91CF911F910F91FF90EF90DF90CF900B
:1009F000BF90AF909F908F9008956AE470E08BE372
:100A000090E20E942021C9CFE0E2F6E098EF9283C5
:100A100089E5838B848B858B868B878B928781E09E
:100A2000818740E061E08AE00E948C118093FE2380
:100A30009093FF2308958091280683FF12C080E1E0
:100A40009091280694FD88609091280695FD846019
:100A50009091280696FD82609091280697FD03C02C
:100A6000089580E0EDCF816008951F920F920FB638
:100A70000F9211240BB60F92CF92DF92EF92FF925A
:100A80000F931F932F933F934F935F936F937F9396
:100A90008F939F93AF93BF93EF93FF93CF93DF9386
:100AA0001F921F92CDB7DEB71982809120089091D6
:100AB0002108C0904A25D0904B25E0904C25F0901D
:100AC0004D25C80ED91EE11CF11C0E941B058A830E
:100AD0004091FA235091FB236091FC237091FD23F8
:100AE00097018601041B150B260B370BB901A801D2
:100AF0004130584A6146710510F0811121C0898149
:100B000081110E94830F0F900F90DF91CF91FF9181
:100B1000EF91BF91AF919F918F917F916F915F9175
:100B20004F913F912F911F910F91FF90EF90DF9088
:100B3000CF900F900BBE0F900FBE0F901F90189587
:100B400020E0AE014F5F5F4FBE016E5F7F4F80912F
:100B5000FE239091FF230E94B912C092FA23D092F3
:100B6000FB23E092FC23F092FD23C9CFDC0110921D
:100B70000324109204249C919923B1F0FD01319635
:100B800080E49093A00A9091A10A96FFFCCF8093F5
:100B9000A10A9F012A1B3B0B91919111F2CF209347
:100BA00003243093042408950895FC011092032433
:100BB0001092042490819923E1F0319620E030E0F6
:100BC00080E4261737071CF06115710569F49093CE
:100BD000A00A9091A10A96FFFCCF8093A10A2F5FF3
:100BE0003F4F91919111EDCF209303243093042432
:100BF00008950895CF92DF92EF92FF920F931F9383
:100C0000CF93DF937C0180E197E28093012490935E
:100C1000022410920024C5E0D0E0C12CE0E1F7E20C
:100C2000A0E4DA2E0AE010E0C701BF010E945933A8
:100C3000AB019B01ADECBCEC0E94A333969587956C
:100C400096958795969587959C01220F331F880F5F
:100C5000991F880F991F880F991F820F931F9A0160
:100C6000281B390BC901009711F4CC2059F0805D85
:100C70008093A00A8091A10A86FFFCCFD092A10A9E
:100C8000CC24C394CF01B8010E946D33FB0121979E
:100C900059F6C09200246093012470930224DF91DE
:100CA000CF911F910F91FF90EF90DF90CF9008951B
:100CB000E0E2F6E087E0818380E4808B818B828BA9
:100CC000E0E0F6E090E89183878B0895E0E2F6E0BB
:100CD0009481282F2770922B9483E0E0F6E0948192
:100CE00088708295807F892B84830895E0EAF6E0FE
:100CF0008FE1818380E4848B20E12583E0E0FBE0C9
:100D000091E0908393EF918340E050E146A357A395
:100D1000E0E4F6E090EC9283868B878B828790E804
:100D2000938795E09187E0E8F6E030E33283848BA7
:100D3000858B228780E28387918740E065E084E1AC
:100D40000E948C118093442590934525089520E1BD
:100D5000009769F56115710509F457C02093A6063F
:100D6000813020EF92070CF457C09195819591093D
:100D70008093280B9093290B10922A0B10922B0B27
:100D80007195619571091616170644F1613020EFCF
:100D900072070CF444C071956195710960932C0B36
:100DA00070932D0B10922E0B10922F0B0895209301
:100DB000A60618161906A4F61092280B1092290BF5
:100DC000811520E19207F4F480932A0B90932B0B6A
:100DD00071956195710916161706C4F610922C0BC1
:100DE00010922D0B611580E178072CF460932E0B87
:100DF00070932F0B08956FEF7FE060932E0B70932D
:100E00002F0B08958FEF9FE0DFCF2093A506813051
:100E100020EF92070CF0A9CF81E090EFA6CF61E020
:100E200070EFB9CF0FB6F8940F92409140255091D2
:100E3000412520914225309143250F900FBEBA01E4
:100E4000C90108951F920F920FB60F9211240BB68D
:100E50000F921F932F933F934F935F936F937F93C3
:100E60008F939F93AF93BF93EF93FF93CF93DF93B2
:100E700000D000D0CDB7DEB71E822091200830917F
:100E8000210880914A2590914B25A0914C25B09145
:100E90004D25820F931FA11DB11D89839A83AB83BA
:100EA000BC8380914806182F107886FF37C081E0F8
:100EB0008D8320E0AE014A5F5F4FBE016F5F7F4FC1
:100EC00080914425909145250E94B9121123B9F1D2
:100ED00080914025909141250196809340259093E3
:100EE00041258E8181110E94830F2696CDBFDEBFE2
:100EF000DF91CF91FF91EF91BF91AF919F918F9132
:100F00007F916F915F914F913F912F911F910F9022
:100F10000BBE0F900FBE0F901F90189585E08D832C
:100F200020E0AE014A5F5F4FBE016F5F7F4F80914F
:100F30004425909145250E94B912112349F28091D0
:100F4000402590914125019780934025909341251C
:100F5000C8CF1F920F920FB60F9211240BB60F92AB
:100F60001F932F933F934F935F936F937F938F9331
:100F70009F93AF93BF93EF93FF93CF93DF9300D0F3
:100F800000D0CDB7DEB71E82209120083091210815
:100F900080914A2590914B25A0914C25B0914D25EB
:100FA000820F931FA11DB11D89839A83AB83BC83DC
:100FB00080914806182F107487FF37C082E08D8318
:100FC00020E0AE014A5F5F4FBE016F5F7F4F8091AF
:100FD0004425909145250E94B9121123B9F18091C1
:100FE000402590914125019780934025909341257C
:100FF0008E8181110E94830F2696CDBFDEBFDF91C7
:10100000CF91FF91EF91BF91AF919F918F917F9180
:101010006F915F914F913F912F911F910F900BBE58
:101020000F900FBE0F901F90189586E08D8320E0E3
:10103000AE014A5F5F4FBE016F5F7F4F80914425D5
:10104000909145250E94B912112349F280914025C3
:101050009091412501968093402590934125C8CFDA
:101060001F920F920FB60F9211240BB60F921F937F
:101070002F933F934F935F936F937F938F939F93A0
:10108000AF93BF93EF93FF93CF93DF9300D000D044
:10109000CDB7DEB71E8220912008309121088091C3
:1010A0004A2590914B25A0914C25B0914D25820F5A
:1010B000931FA11DB11D89839A83AB83BC8380914B
:1010C0008806182F107284FF37C083E08D8320E0DC
:1010D000AE014A5F5F4FBE016F5F7F4F8091442535
:1010E000909145250E94B9121123B9F180914225B2
:1010F00090914325019680934225909343258E81BC
:1011000081110E94830F2696CDBFDEBFDF91CF9164
:10111000FF91EF91BF91AF919F918F917F916F91CF
:101120005F914F913F912F911F910F900BBE0F90A8
:101130000FBE0F901F90189587E08D8320E0AE01C1
:101140004A5F5F4FBE016F5F7F4F80914425909152
:1011500045250E94B912112349F2809142259091B0
:10116000432501978093422590934325C8CF1F9232
:101170000F920FB60F9211240BB60F921F932F935D
:101180003F934F935F936F937F938F939F93AF930F
:10119000BF93EF93FF93CF93DF9300D000D0CDB7F1
:1011A000DEB71E82209120083091210880914A25C7
:1011B00090914B25A0914C25B0914D25820F931F06
:1011C000A11DB11D89839A83AB83BC83809188065E
:1011D000182F107284FF1CC084E08D8320E0AE01C4
:1011E0004A5F5F4FBE016F5F7F4F809144259091B2
:1011F00045250E94B912112309F447C08091422568
:1012000090914325019780934225909343251AC0DE
:1012100088E08D8320E0AE014A5F5F4FBE016F5FC3
:101220007F4F80914425909145250E94B91280916D
:10123000422590914325111122C0019780934225A8
:10124000909343258E8181110E94830F2696CDBFF6
:10125000DEBFDF91CF91FF91EF91BF91AF919F9151
:101260008F917F916F915F914F913F912F911F913E
:101270000F900BBE0F900FBE0F901F901895019608
:101280008093422590934325DDCF80914225909114
:10129000432501968093422590934325D3CF0FB6E3
:1012A000F8940F92109240251092412510924225F9
:1012B000109243250F900FBE0895CF93C82F8091B1
:1012C00054248E3450F590915524911106C0E82F86
:1012D000F0E0EA5FFB4D2FEF2083C11110C0E82F33
:1012E000F0E0EA5FFB4D20E830E0092E02C03595C2
:1012F00027950A94E2F720953081232320839F5F6E
:10130000983039F4109255248F5F80935424CF91F4
:10131000089590935524CF91089567E270E087E592
:1013200090E20E94202190915524809154249111A3
:101330000DC0E82FF0E0EA5FFB4D2FEF20838E34E5
:1013400060F281E080935524CF9108958E3428F285
:101350009F5F9830B9F2DDCF80E00E945D0981E0A7
:101360000E945D0981E00E945D0981E00E945D09A3
:1013700081E00C945D0980E00E945D0980E00E949C
:101380005D0980E00E945D0980E00E945D0981E0C6
:101390000C945D09CF93DF93D82FC8E005C00E945D
:1013A000AC09DD0FC15039F0D7FFF9CF0E94BB095E
:1013B000DD0FC150C9F7DF91CF910895E0E0F6E06D
:1013C00080E48183868308953F924F925F926F926B
:1013D0007F928F929F92AF92BF92CF92DF92EF92C5
:1013E000FF920F931F93CF93DF93362E472E582EE5
:1013F000D22E132FD42F88E08093610690E490932F
:1014000073061092A3098093A40980EC8093A50928
:1014100085E08093A60986E0882E84E2982E94E5E4
:10142000692E94E2792EF4018FEF81936E167F0678
:10143000E1F710925424C5E881E00E945D09C15093
:10144000D9F7832D0E94CA09842D0E94CA09852DCF
:101450000E94CA098D2D0E94CA09812F0E94CA09C3
:101460008D2F0E94CA098E2D0E94CA098F2D0E94BD
:10147000CA09802F0E94CA098A2D0E94CA098B2D91
:101480000E94CA098C2D0E94CA090FB6F8940F92C7
:101490001092052480E48093050620E4F4019191E4
:1014A0004F018091A10985FFFCCF2093A109909362
:1014B000A0096814790491F78FEE90E00197F1F795
:1014C00000C0000080E4809306060F900FBEDF91FD
:1014D000CF911F910F91FF90EF90DF90CF90BF9031
:1014E000AF909F908F907F906F905F904F903F90C4
:1014F000089580E2809341060895811104C080E23E
:1015000080934606089580E28093450608958BEC0B
:101510008093520088E0809350008091510083FFB7
:10152000FCCF82EC8093550088E18093500080913D
:10153000510084FFFCCF88ED84BF84E0809340009D
:1015400080E0089510925B24E0E8F6E088E1808B6B
:10155000818BE0EAF4E088E7818383E2858381E0A0
:1015600084830E949F12809358249093592443E0CF
:1015700060E081E00E948C11809356249093572460
:101580000895CF92DF92EF92FF920F931F93CF9324
:10159000DF93D82F6B01142F79016FEF7FEF8091CC
:1015A0005824909159240E942414C0926224D0920D
:1015B0006324E0926024F0926124C0915B24C11105
:1015C00055C081E080935B2410925A248D2F880FA0
:1015D0008093642410935F2400935E2410925D2412
:1015E00010925C2480915F248823B1F1809164245F
:1015F0008E7F8093A6046FEF7FEF809156249091A9
:1016000057240E94241480915A248130E1F11F92C2
:101610008F931F92DF9386E790E29F938F930E94B0
:10162000A83820E040E050E060E070E0809158246D
:10163000909159240E94D0110F900F900F900F900D
:101640000F900F908C2FDF91CF911F910F91FF90F2
:10165000EF90DF90CF90089580915E24882359F217
:101660008091642481608093A604C5CF20E040E08F
:1016700050E060E070E080915824909159240E94DD
:10168000D011C0E0DFCF20E040E050E060E070E04B
:1016900080915824909159240E94D011C1E0D2CF5A
:1016A0000F9300E020E030E00E94C10A0F910895FE
:1016B00090915F2420915E248091A40484FD22C037
:1016C00080915D24891768F080915C24821718F15D
:1016D00083E08093A30481E080935A2410925B24DA
:1016E000089580915D24E0916224F0916324E80FD5
:1016F000F11D80818093A70480915D248F5F80938A
:101700005D24089583E08093A30485E080935A24A8
:1017100010925B2408958091642481608093A604D4
:10172000089580915C248032F8F48091A704909110
:101730005C24E0916024F0916124E90FF11D808325
:1017400080915C248F5F80935C2490915E248091D3
:101750005C248917B8F087E08093A30481E080932C
:101760005A2410925B24089583E08093A30482E0BE
:1017700080935A2410925B2490915E2480915C2483
:10178000891748F782E08093A30408951F920F926F
:101790000FB60F9211240BB60F922F933F934F93D6
:1017A0005F936F937F938F939F93AF93BF93EF93C9
:1017B000FF93CF93DF931F92CDB7DEB7198280914D
:1017C000A404982F9C70E1F486FD44C087FD45C0B9
:1017D00086E080935A2410925B2480915B248111CF
:1017E0001FC0BE016F5F7F4F809156249091572498
:1017F0000E9414138981882399F00E94830F10C0DE
:101800008091A40482FD22C093E090935A248860C2
:101810008093A40410925B2480915B24882309F3B5
:101820000F90DF91CF91FF91EF91BF91AF919F9179
:101830008F917F916F915F914F913F912F910F9079
:101840000BBE0F900FBE0F901F90189594E09093D1
:101850005A24DDCF0E94580BDFCF0E94910BDCCFC2
:10186000CF93DF931F92CDB7DEB74FEF5FEFBE018F
:101870006F5F7F4F80914625909147250E946713A7
:10188000898190E00F90DF91CF910895CF93DF93FE
:101890001F921F92CDB7DEB78A8320E04FEF5FEF34
:1018A000BE016E5F7F4F80914825909149250E942F
:1018B000D0118091A10A85FF0EC040E050E0BE012A
:1018C0006F5F7F4F80914825909149250E94671353
:1018D00089818093A00A80E090E00F900F90DF91C3
:1018E000CF91089540E061E080E80E948C118093E0
:1018F00048259093492540E061E080E80E948C11E2
:101900008093462590934725E0E8F6E088E08183C0
:1019100084E08283E0EAFAE084E1838388E18483DF
:1019200083E0858385EE86838CEB8783E8E5F5E2AB
:1019300086E090E2828393838083918308951F924F
:101940000F920FB60F9211240BB60F922F933F9365
:101950004F935F936F937F938F939F93AF93BF93B7
:10196000EF93FF93CF93DF931F921F92CDB7DEB714
:101970001982AE014F5F5F4FBE016E5F7F4F809156
:101980004825909149250E94DB158130D9F0898145
:1019900081110E94830F0F900F90DF91CF91FF91E3
:1019A000EF91BF91AF919F918F917F916F915F91D7
:1019B0004F913F912F910F900BBE0F900FBE0F9044
:1019C0001F9018958A818093A00AE1CF1F920F92F1
:1019D0000FB60F9211240BB60F922F933F934F9394
:1019E0005F936F937F938F939F93AF93BF93EF9387
:1019F000FF93CF93DF931F921F92CDB7DEB719826B
:101A00008091A00A8A8320E0AE014F5F5F4FBE0144
:101A10006E5F7F4F80914625909147250E94B912B5
:101A2000898181110E94830F0F900F90DF91CF91D8
:101A3000FF91EF91BF91AF919F918F917F916F91A6
:101A40005F914F913F912F910F900BBE0F900FBE62
:101A50000F901F9018950F931F93CF93DF93EC0176
:101A60000E94601A80916524811121C0E0914E2569
:101A7000F0914F25CF01019680936A2490936B24B7
:101A800010926C2410926D248FEF9FE38093682452
:101A90009093692410926624109267248383948320
:101AA00086E694E28183928381E080936524209787
:101AB00009F464C0AE014C5F5F4F2396CE3FDF4315
:101AC00008F05CC0E0916A24F0916B24AAE6B4E2CD
:101AD00006C080819181009739F0DF01FC012281ED
:101AE000338124173507A8F3C4E2E636FC0709F46E
:101AF00045C0CD91DC9111978E010C5F1F4F808105
:101B000091818D939C93C901841B950B893091051C
:101B100000F1BF01640F751FDB0112968D939C933A
:101B200013974283538312962D913C911397AAE603
:101B3000B4E201C0DF01ED91FC91119782819381A4
:101B400082179307B8F3EB01E883F9836D937C93D5
:101B50009A018091142090911520821B930B809301
:101B60001420909315200E944A1B0115110541F085
:101B7000C801DF91CF911F910F9108950E944A1BD8
:101B80000E94D72000E010E0C801DF91CF911F91A3
:101B90000F910895CF93DF93009721F1EC012497E3
:101BA0000E94601A4A815B81AAE6B4E201C0DF01AB
:101BB000ED91FC9111972281338124173507B8F3F9
:101BC000E883F983CD93DC938091142090911520C4
:101BD000480F591F4093142050931520DF91CF9147
:101BE0000C944A1BDF91CF910895FC0103968183E9
:101BF00092832FEF3FEF23833483858396838783FC
:101C0000908710820895FC01108611860895CF9365
:101C1000DF939C01FB01DC011196CD91DC911297C1
:101C2000C283D3838C819D81848395838C819D81A4
:101C3000DC0112966D937C9313976C837D832087D0
:101C40003187F90180818F5F8083DF91CF91089583
:101C5000CF93DF93EB01488159814F3F2FEF52071C
:101C600001F1DC01139601C0DF011296ED91FC91A8
:101C700013972081318142175307B0F7EA83FB8322
:101C8000C483D583AC83BD831296CD93DC93139725
:101C900088879987FC0120812F5F2083DF91CF9176
:101CA0000895FC01A781B0851296ED91FC911397E0
:101CB000E5CFCF93DF93FC01A085B18522813381ED
:101CC00084819581E9018C839D8384819581EC01D8
:101CD0002A833B8311962D913C911297E217F307CB
:101CE00049F0108611868C9181508C938C91DF91F4
:101CF000CF91089511968D939C931297F2CF31E175
:101D0000FC013083319722E220833197A3E3A08343
:101D100031976083319770833197108231971082A9
:101D2000319760E8608331971082319762E0608379
:101D3000319763E06083319764E06083319765E0B9
:101D40006083319766E06083319767E06083319705
:101D500068E06083319769E06083319760E1608378
:101D600031973083319732E13083319733E13083DB
:101D7000319734E13083319735E13083319736E163
:101D80003083319737E13083319738E130833197B1
:101D900039E13083319730E23083319731E230835B
:101DA00031972083319723E2208331974083319705
:101DB0005083319726E22083319727E220833197A1
:101DC00028E22083319729E22083319720E3208382
:101DD000319721E3208387970895E0E0F8E08FEFC3
:101DE0009FEF80A791A781E0808390E49183868311
:101DF000878380E09DE786A397A3A0910C25B091EF
:101E00000D25CD91CDBFDD91DEBFFF91EF91DF912B
:101E1000CF91BF91AF919F918F917F916F915F9182
:101E20004F913F912F911F910F91FF90EF90DF9075
:101E3000CF90BF90AF909F908F907F906F905F906A
:101E40004F903F902F901F900F900FBE0F900895CE
:101E500081E008950F920FB6F8940F921F9211240B
:101E60002F923F924F925F926F927F928F929F92AA
:101E7000AF92BF92CF92DF92EF92FF920F931F9398
:101E80002F933F934F935F936F937F938F939F9382
:101E9000AF93BF93CF93DF93EF93FF93A0910C2564
:101EA000B0910D250DB60D920EB60D920E94541CE8
:101EB000A0910C25B0910D25CD91CDBFDD91DEBF58
:101EC000FF91EF91DF91CF91BF91AF919F918F9152
:101ED0007F916F915F914F913F912F911F910F9142
:101EE000FF90EF90DF90CF90BF90AF909F908F903A
:101EF0007F906F905F904F903F902F901F900F902A
:101F00000FBE0F90089580912008909121088C5960
:101F10009F4F80932808909329082091280830919A
:101F2000290880912608909127082817390770F012
:101F3000209126083091270880912808909129083F
:101F4000821B930B809328089093290808950F9281
:101F50000FB6F8940F921F9211242F923F924F9236
:101F60005F926F927F928F929F92AF92BF92CF9229
:101F7000DF92EF92FF920F931F932F933F934F9314
:101F80005F936F937F938F939F93AF93BF93CF9301
:101F9000DF93EF93FF93A0910C25B0910D250DB623
:101FA0000D920EB60D92209126083091270880914F
:101FB0004A2590914B25A0914C25B0914D25820F3B
:101FC000931FA11DB11D80934A2590934B25A0938B
:101FD0004C25B0934D250E94701A0E94541CA0916C
:101FE0000C25B0910D25CD91CDBFDD91DEBFFF91C8
:101FF000EF91DF91CF91BF91AF919F918F917F91A1
:102000006F915F914F913F912F911F910F91FF9091
:10201000EF90DF90CF90BF90AF909F908F907F9088
:102020006F905F904F903F902F901F900F900FBE3A
:102030000F90189508950F920FB6F8940F921F9273
:1020400011242F923F924F925F926F927F928F92C4
:102050009F92AF92BF92CF92DF92EF92FF920F9337
:102060001F932F933F934F935F936F937F938F9320
:102070009F93AF93BF93CF93DF93EF93FF93A09181
:102080000C25B0910D250DB60D920EB60D928FEF69
:102090009FEF80932808909329080E94541CA091D8
:1020A0000C25B0910D25CD91CDBFDD91DEBFFF9107
:1020B000EF91DF91CF91BF91AF919F918F917F91E0
:1020C0006F915F914F913F912F911F910F91FF90D1
:1020D000EF90DF90CF90BF90AF909F908F907F90C8
:1020E0006F905F904F903F902F901F900F900FBE7A
:1020F0000F9018950F931F93CF93DF93EC01042F4C
:102100001A8D4C8D41110DC088819981892B09F45C
:1021100043C01F5F80E01A8FDF91CF911F910F9115
:10212000089550E0011115C08A819B810E94D73724
:102130002C8D8A819B81820F911D8A839B832C81A8
:102140003D818217930728F3888199818A839B8335
:10215000E0CF8E819F810E94D7378C8D90E0919542
:10216000819591092E813F81280F391F2E833F834E
:10217000488159812417350730F42C813D81820F25
:10218000931F8E839F83023021F6112311F080E08C
:10219000C2CF11E080E0BFCF8C819D810E94481F9B
:1021A0001C821D821F5FB7CFFC01CB01448D4423ED
:1021B00091F050E066817781640F751F66837783A5
:1021C000248135816217730720F0608171816683F5
:1021D00077830C94D7370895EF92FF920F931F9354
:1021E000CF938C010FB6F8940F92FC01C68D1C168C
:1021F000C4F4FC0181898823A1F07801F1E1EF0E9C
:10220000F11C06C0C15069F0F8018189882349F0AA
:10221000C7010E947E1C8823A9F30E94371DC1506C
:1022200099F78FEFF801868F0F900FBE0FB6F894D5
:102230000F92C58D1C16C4F4F80180858823A1F087
:102240007801F8E0EF0EF11C06C0C15069F0F8010A
:102250008085882349F0C7010E947E1C8823A9F34A
:102260000E94371DC15099F78FEFF801858F0F90AD
:102270000FBECF911F910F91FF90EF9008951F9384
:10228000CF93DF93EC01162F892B09F43EC00FB6D4
:10229000F8940F92488159818B8D6C8D9A01869F9D
:1022A000200D311D11242C833D831A8E4A835B83BC
:1022B00090E00197689F9001699F300D1124CA0139
:1022C000820F931F8E839F838FEF8D8F8E8F1111BF
:1022D00013C08885811107C00F900FBE81E0DF9188
:1022E000CF911F910895CE0108960E947E1C8823ED
:1022F00099F30E942A0FF0CFCE0108960E94F50DA7
:10230000CE0141960E94F50DE7CF63E071E08EE8C3
:1023100090E20E942021BBCFFF920F931F93CF9397
:10232000DF93182F062FF42E882399F10023D1F084
:10233000109FC001112481960E942B0DEC01009783
:1023400051F08196888399831B8F0C8F61E0CE01B9
:102350000E943F11F8A2CE01DF91CF911F910F9102
:10236000FF90089581E290E00E942B0DEC01892BF3
:1023700091F3C883D9831B8F0C8F61E0CE010E943B
:102380003F11F8A2CE01DF91CF911F910F91FF90E5
:10239000089566E771E08EE890E20E942021C6CFA2
:1023A000BF92CF92DF92EF92FF920F931F93CF9342
:1023B000DF93CDB7DEB72597CDBFDEBF8C016B01B4
:1023C0004C835D83B22E892B09F4B2C0C114D104B1
:1023D00009F4A2C0F2E0BF1609F47DC0F801838DB4
:1023E00020E07801F8E0EF0EF11C10C06C817D81D7
:1023F000C7010E945E1CC8010E94EC100E944A1B8B
:10240000882309F44AC0F801838D21E00FB6F894BF
:102410000F92F801928D981708F442C0F2E0BF16AF
:1024200009F43EC08C819D81892B09F460C0222370
:1024300059F10F900FBE0E94601A0FB6F8940F92D8
:10244000F801858D8F3F39F1F801868D8F3F09F1B5
:102450000F900FBEBE016C5F7F4FCE0101960E94B0
:10246000E01C811148C00FB6F8940F92F801928DCC
:102470000F900FBE838D981709F4B8CFC8010E9442
:10248000EC100E944A1BBFCFCE0101960E94D51CC2
:10249000D0CF168EDDCF158ED7CF0E942A0FB3CFA7
:1024A0004B2DB601C8010E947A10F8019189911153
:1024B0002CC0811127C00F900FBE81E02596CDBFA3
:1024C000DEBFDF91CF911F910F91FF90EF90DF90D2
:1024D000CF90BF900895F801838D813009F480CFAB
:1024E00063EF72E08EE890E20E94202177CF0F9098
:1024F0000FBE80E0E3CFC8010E94EC100E944A1B8F
:1025000080E0DCCF0E942A0FD6CFC80141960E94FE
:102510007E1C882381F2F6CFF801848D882309F48C
:1025200059CF62EF72E08EE890E20E94202152CFF4
:1025300061EF72E08EE890E20E94202147CFCF93B6
:10254000DF93482F60E081E00E948C11EC0100973E
:1025500061F01C821D82188219821E8220E040E0F8
:1025600050E060E070E00E94D011CE01DF91CF9189
:102570000895CF92DF92EF92FF920F931F93CF9324
:10258000DF93EC018B016A01F22E892B09F445C01F
:1025900001151105C1F182E0F81671F09A8D8B8D4D
:1025A0009817A0F080E0DF91CF911F910F91FF90DD
:1025B000EF90DF90CF9008958B8D813031F065ECF6
:1025C00073E08EE890E20E9420218A8DEE8C4F2DE0
:1025D000B801CE010E947A10EFEFEE1621F0E394DD
:1025E000EE8E81E0E0CF89898823D9F3CE01419630
:1025F0000E947E1C8823A9F3C114D10491F381E0C9
:10260000F6018083D0CF8C8D882329F264EC73E0AF
:102610008EE890E20E942021BECF63EC73E08EE84A
:1026200090E20E942021B4CF0F931F93CF93DF93AA
:10263000EC018B01892B09F443C08C8D81111BC0E7
:1026400088819981892B09F18A8D9B8D891768F47E
:102650009E8D8F5F8A8F9F3F19F19F5F9E8F81E0D4
:10266000DF91CF911F910F91089580E0DF91CF917D
:102670001F910F91089564E674E08EE890E20E9445
:10268000202188819981892BF9F68C819D81892B64
:10269000D9F269E674E08EE890E20E942021D4CF5E
:1026A00089898823E1F2CE0141960E947E1C88230D
:1026B000B1F20115110599F281E0F8018083D0CFC4
:1026C00060E674E08EE890E20E942021B6CFAF92DF
:1026D000BF92CF92DF92FF920F931F93CF93DF931E
:1026E000CDB7DEB72597CDBFDEBF8C015B014C8334
:1026F0005D83892B09F4A1C0A114B10409F491C030
:1027000020E06801F1E1CF0ED11C0FB6F8940F92D2
:10271000F801F28CF1106AC08C819D81892B09F43B
:1027200073C0222309F459C00F900FBE0E94601A93
:102730000FB6F8940F92F801858D8F3F09F454C0BD
:10274000F801868D8F3F09F44DC00F900FBEBE017A
:102750006C5F7F4FCE0101960E94E01C811122C068
:102760000FB6F8940F92F801828D0F900FBE811171
:1027700012C06C817D81C6010E945E1CC8010E944E
:10278000EC100E944A1B882311F021E0BECF0E946A
:102790002A0F21E0BACFC8010E94EC100E944A1B08
:1027A00021E0B3CFC8010E94EC100E944A1B0FB673
:1027B000F8940F92F801828D0F900FBE8111E5CF32
:1027C0002596CDBFDEBFDF91CF911F910F91FF9076
:1027D000DF90CF90BF90AF900895CE0101960E94F8
:1027E000D51CA2CF168EB1CF158EAACFB501C801C8
:1027F0000E94D410FA94F801F28E8085811108C0ED
:102800000F900FBE81E0DCCF0F900FBE80E0D8CFDD
:10281000C80108960E947E1C882391F30E942A0F0B
:10282000EFCFF801848D882309F46ACF64E075E066
:102830008EE890E20E94202163CF60E075E08EE890
:1028400090E20E94202158CFDF92EF92FF920F93E7
:102850001F93CF93DF93CDB7DEB72597CDBFDEBFF4
:102860008C016C837D83892B09F4D0C0D8015C96E0
:102870008C918111BBC0D12C20E07801B1E1EB0E2D
:10288000F11C0FB6F8940F92F801828D811189C066
:102890008C819D81892B09F49DC0222309F45FC09E
:1028A0000F900FBE0E94601A0FB6F8940F92D801D5
:1028B0005D968C915D978F3F09F456C0F801868D27
:1028C0008F3F09F458C00F900FBEBE016C5F7F4F61
:1028D000CE0101960E94E01C811123C00FB6F8942E
:1028E0000F92D8015A968C915A970F900FBE811172
:1028F00044C0F80180819181892B09F445C06C8125
:102900007D81C7010E945E1CC8010E94EC100E94DC
:102910004A1B882311F021E0B4CF0E942A0F21E046
:10292000B0CFC8010E94EC100E944A1B0FB6F89469
:102930000F92F801828D0F900FBE8111ECCFDD2038
:1029400009F472C00FB6F8940F928189811165C0A5
:1029500060E0F801848195810E949F1F43C0CE01F1
:1029600001960E94D51C9CCF5D961C92F801868D25
:102970008F3F09F0A8CF168EA6CFC8010E94EC1099
:102980000E944A1B21E07DCF0FB6F8940F92149657
:102990008D919C9115970E94D51ED82E0F900FBE39
:1029A000AECF8150828F80819181892B09F43EC006
:1029B000F8018085811121C00F900FBE81E025961E
:1029C000CDBFDEBFDF91CF911F910F91FF90EF90B0
:1029D000DF900895DD2031F061EE75E08EE890E241
:1029E0000E9420210F900FBE80E0E9CF65E975E0DD
:1029F0008EE890E20E9420213ECFC80108960E94F6
:102A00007E1C8823C9F20E942A0FD6CF61E975E0A7
:102A10008EE890E20E94202129CF0688F789E02DD8
:102A200080816AE0681B95CF80E0C9CF0E94C420F6
:102A3000D80114968D939C931597BACFCF92DF92BD
:102A4000EF92FF920F931F93CF93DF93CDB7DEB733
:102A50002597CDBFDEBF8C016B014C835D83892B35
:102A600009F4A2C0C114D10409F492C020E0780195
:102A7000F1E1EF0EF11C0FB6F8940F92F801828D80
:102A8000811169C08C819D81892B09F474C0222336
:102A900009F458C00F900FBE0E94601A0FB6F89448
:102AA0000F92F801858D8F3F09F453C0F801868D90
:102AB0008F3F09F44CC00F900FBEBE016C5F7F4F7B
:102AC000CE0101960E94E01C811122C00FB6F8943D
:102AD0000F92F801828D0F900FBE811112C06C8190
:102AE0007D81C7010E945E1CC8010E94EC100E94FB
:102AF0004A1B882311F021E0BECF0E942A0F21E05B
:102B0000BACFC8010E94EC100E944A1B21E0B3CF4B
:102B1000C8010E94EC100E944A1B0FB6F8940F9255
:102B2000F801828D0F900FBE8111E5CF2596CDBFA4
:102B3000DEBFDF91CF911F910F91FF90EF90DF905B
:102B4000CF900895CE0101960E94D51CA3CF168E7A
:102B5000B2CF158EABCFE680F780B601C8010E94D8
:102B6000D410F801E682F7828189811108C00F90A4
:102B70000FBE81E0DBCF0F900FBE80E0D7CFC80142
:102B800041960E947E1C882391F30E942A0FEFCF6A
:102B9000F801848D882309F469CF6CE676E08EE82D
:102BA00090E20E94202162CF68E676E08EE890E213
:102BB0000E94202157CFCF92DF92EF92FF920F9386
:102BC0001F93CF93DF93EC017B016A01892BB9F14D
:102BD000E114F104D1F01A8D11110AC080E0DF91E7
:102BE000CF911F910F91FF90EF90DF90CF900895BC
:102BF0000D8DB701CE010E94D41011501A8F0F3FD6
:102C000071F00F5F0D8F81E0EACF8C8D882319F36F
:102C10006CEF76E08EE890E20E942021DCCF888580
:102C2000882389F3CE0108960E947E1C882359F3DD
:102C3000C114D10441F381E0F6018083D0CF6BEF62
:102C400076E08EE890E20E942021C2CFCF93DF93FE
:102C5000EC01892B49F00FB6F8940F928A8D0F90F2
:102C60000FBEDF91CF9108956AE877E08EE890E299
:102C70000E942021F0CF20C00FB6F8940F92E0916F
:102C80008F24F0919024C681D781CE0102960E94B4
:102C9000590E80917F24815080937F2480918924D4
:102CA0008150809389240F900FBE8F89988D0E9448
:102CB000CA0DCE010E94CA0D809189248111DCCFFA
:102CC0008091B224823010F00E942A0F0E94D620F8
:102CD000F3CFCF93DF93EC010E94E737FE01019021
:102CE0000020E9F73197EC1BFD0BE730F10560F4AC
:102CF000EC0FFD1F9E01295F3F4F80E28193E21799
:102D0000F307E1F7E7E0F0E0CE018E0F9F1FFC0133
:102D10001082DF91CF910895E0919E24F0919F243D
:102D20000580F681E02D0680F781E02D8281938178
:102D300080937524909376240895CF93DF93EC01CC
:102D4000892B99F08A859B858058944221F080E0F8
:102D5000DF91CF9108952C893D8984E2233938078A
:102D6000B1F381E0232B99F7F3CF62EF76E082EAAB
:102D700090E20E942021E6CFFF920F931F93CF9302
:102D8000DF93EC01F62E00917D2410917E2480913A
:102D90000C2590910D2502960E94590ECF3F8FEF82
:102DA000D807A9F1C00FD11FE0910C25F0910D2596
:102DB000C283D38360910C2570910D25C017D10774
:102DC000C8F080919E2490919F246E5F7F4F0E9457
:102DD000280E8091752490917624C817D90720F485
:102DE000C0937524D0937624DF91CF911F910F91DA
:102DF000FF90089580919C2490919D246E5F7F4F59
:102E0000DF91CF911F910F91FF900C94280EFF201E
:102E100049F260910C2570910D256E5F7F4F80E81F
:102E200094E2DF91CF911F910F91FF900C94070EC8
:102E30000F931F93CF931092792420912008309103
:102E4000210880914A2590914B25A0914C25B09165
:102E50004D25820F931FA11DB11D00916E2410916D
:102E60006F242091702430917124081719072A07C4
:102E70003B07A0F4E0910C25F0910D2547A150A54A
:102E800061A572A5401B510B620B730B480F591FB4
:102E90006A1F7B1F47A350A761A772A780936E2468
:102EA00090936F24A0937024B0937124E0910C252B
:102EB000F0910D250788F08DE02D80819181A28110
:102EC000B381853A954AA54AB54A09F44CC0609148
:102ED0000C2570910D2580910C2590910D25675E34
:102EE0007F4F0E94F620C0917C248C2F90E09C01A3
:102EF000220F331F220F331F220F331FF901E80F58
:102F0000F91FEE54FB4D408141110CC0CC2311F050
:102F1000C150EBCF6CE87BE082EA90E20E94202176
:102F2000C150E3CF820F931FDC01AE54BB4D11960D
:102F3000ED91FC9112970280F381E02D1196ED93B3
:102F4000FC9312978B549B4DE817F90759F1868132
:102F5000978180930C2590930D25C0937C24CF916D
:102F60001F910F91089584819581A681B781853A3B
:102F7000954AA54AB54A09F0AACF80859185A285D0
:102F8000B385853A954AA54AB54A09F0A0CF84850C
:102F90009585A685B785853A954AA54AB54A09F02B
:102FA00096CFA1CF0280F381E02D1196ED93FC9393
:102FB0001297CDCF5F926F927F928F929F92AF9236
:102FC000BF92CF92DF92EF92FF920F931F93CF9316
:102FD000DF934C01EB015A013901502ECA010E94C6
:102FE0002B0D8C01892B09F4DEC080E390E00E9458
:102FF0002B0D6C01009709F4D3C0DC0157960D939B
:103000001C935897209709F4D0C0C801A50165EA20
:1030100070E00E94E037F1E0AF1AB108D601579690
:103020008D919C915897A80EB91EF60179969E0134
:10303000285F3F4FDE01899181938C91882319F09D
:10304000C217D307B9F7F60110A2052D0A3008F010
:10305000A1C0D60156960C93569793960C939397CE
:1030600094961C92E6012296CE010E94030EC601A0
:103070000C960E94030EF601C086D1868AE090E08D
:10308000801B910984879587C28AD38A15A216A2CC
:1030900017A210A611A612A613A614A615A616A668
:1030A00017A6A301B401C5010E947F0ED6018D931E
:1030B0009C93E114F10419F0F701C082D1820FB69C
:1030C000F8940F9280917F248F5F80937F2480916A
:1030D0000C2590910D25892B99F080917B248111ED
:1030E00018C0E0910C25F0910D25D60156968C91D3
:1030F0009689891788F0C0920C25D0920D250CC0B6
:10310000C0920C25D0920D2580917F24813009F446
:1031100056C0D60156968C91909177249F5F9093DC
:103120007724F60191A390917C24981780F190E088
:103130009C01220F331F220F331F220F331F820FD8
:10314000931FBE018E549B4D0E94070E0F900FBE21
:1031500080917B24882351F0E0910C25F0910D257E
:103160009689D60156968C919817B0F081E0DF9140
:10317000CF911F910F91FF90EF90DF90CF90BF9074
:10318000AF909F908F907F906F905F900895809305
:103190007C24CDCF09E05DCF0E942A0F81E0E7CFEC
:1031A000C8010E94CA0D8FEFE2CF60E673E082EAA9
:1031B00090E20E942021F6018789908D27CF02EBB3
:1031C00014E25CE0E52E55E2F52EC8010E94F50DF3
:1031D000075F1F4FE016F106C1F789EA94E20E94EB
:1031E000F50D80EA94E20E94F50D83E994E20E94D5
:1031F000F50D8AE894E20E94F50D80E894E20E94C1
:10320000F50D89EA94E280939E2490939F2480EAAE
:1032100094E280939C2490939D24F60186897CCF30
:10322000CF93DF93EC01892B09F43AC080910C25F0
:1032300090910D25C817D90779F10FB6F8940F9220
:103240008A859B8520919E2430919F2440919C24C7
:1032500050919D240F900FBE82179307A9F08417F9
:10326000950791F024E28038920751F024E28A38E1
:10327000920771F0892B61F081E0DF91CF91089581
:103280008C899D89892B99F082E0DF91CF910895F7
:1032900084E0DF91CF91089580E0DF91CF91089590
:1032A0006CE475E082EA90E20E942021BFCF8FA5F6
:1032B000813051F383E0E1CF0F931F93CF93DF93DE
:1032C000EC010FB6F8940F92892B09F462C08E01BD
:1032D0000E5F1F4FC8010E94590E8C899D89892B52
:1032E00021F0CE010C960E94590EB80180E894E2BC
:1032F0000E94070E8FA5813021F10F900FBE8091A3
:103300007B24882391F00FB6F8940F92E0919E24CD
:10331000F0919F24808181112BC08FEF9FEF8093CC
:103320007524909376240F900FBE80910C25909178
:103330000D25C817D90739F0DF91CF911F910F9153
:1033400008951FA6DACF80917B248823A1F0809175
:103350007224882331F068EC76E082EA90E20E94E1
:1033600020210E942A0FDF91CF911F910F91089584
:103370000E948C16D8CF9091802480917F2498173A
:1033800099F080917224882349F081E08093792418
:10339000D3CFC0910C25D0910D2599CFDF91CF913E
:1033A0001F910F910C94181710920C2510920D2557
:1033B000C3CF0F931F93CF93DF93EC01892B09F4B5
:1033C0003DC080910C2590910D25C817D90751F06B
:1033D0000FB6F8940F92CE010E949D16811107C07E
:1033E0000F900FBEDF91CF911F910F9108958E0125
:1033F0000E5F1F4FC8010E94590E8E8990917C2448
:10340000981710F480937C2490E09C01220F331FC6
:10341000220F331F220F331F820F931FB8018E54C8
:103420009B4D0E94070EE0910C25F0910D259E8981
:1034300086899817A8F20E942A0FD2CF6CE177E014
:1034400082EA90E20E94202180910C2590910D2526
:10345000C9CFEF92FF920F9383E7E82E84E2F82E14
:1034600000E020E030E040E051E066EB70E28BE30A
:1034700096E10E94DA17813079F08F3F21F00F91A9
:10348000FF90EF90089567E078E082EA90E20F9174
:10349000FF90EF900C942021F8942FEF3FEF2093B2
:1034A00075243093762480937B2410927D2410928F
:1034B0007E240E941A100F91FF90EF900C94ED0E55
:1034C000809172248F5F8093722408950FB6F894D0
:1034D0000F9280917D2490917E240F900FBE0895CD
:1034E000DF92EF92FF920F931F93CF93DF93809120
:1034F00072248111B9C0E0907D24F0907E248FEF7A
:10350000E81AF80AE0927D24F0927E24E114F10496
:1035100049F5E0919E24F0919F2480818111ABC0F8
:1035200080919E2490919F2420919C2430919D24F1
:1035300020939E2430939F2480939C2490939D24D9
:10354000809178248F5F80937824E0919E24F0917D
:103550009F248081811196C08FEF9FEF8093752407
:10356000909376248091752490917624D12CE8163E
:10357000F90608F453C0E0919E24F0919F248081C5
:10358000882309F445C0E0919E24F0919F24058092
:10359000F681E02DC681D7818A819B81E816F906E4
:1035A00008F473C08E010E5F1F4FC8010E94590EB0
:1035B0008C899D89892B21F0CE010C960E94590E91
:1035C0008E8990917C24981710F480937C2490E04D
:1035D0009C01220F331F220F331F220F331F820F34
:1035E000931FB8018E549B4D0E94070EE0910C254D
:1035F000F0910D259E898689981708F4BCCFDD24AB
:10360000D394E0919E24F0919F2480818111BBCFBF
:103610008FEF9FEF8093752490937624E0910C2593
:10362000F0910D25868990E0FC01EE0FFF1FEE0F53
:10363000FF1FEE0FFF1F8E0F9F1FFC01EE54FB4D6F
:103640008081823010F0DD24D39480917924882306
:1036500011F0DD24D3948D2DDF91CF911F910F9127
:10366000FF90EF90DF90089580917A248F5F809390
:103670007A24D12CEACF66E67AE082EA90E20E94D0
:1036800020214ECF0E948C166DCF8093752490938D
:103690007624C4CFFF920F931F93CF93DF93809133
:1036A0007224882309F477C00FB6F8940F928091A2
:1036B000722481508093722480917224811162C09F
:1036C00080917F24882309F45DC0C0E0D0E0FF240E
:1036D000F394809193248823A1F1E0919824F091B0
:1036E0009924C681D781CE010C960E94590E8E0175
:1036F0000E5F1F4FC8010E94590E8E8990917C2445
:10370000981710F480937C2490E09C01220F331FC3
:10371000220F331F220F331F820F931FB8018E54C5
:103720009B4D0E94070EE0910C25F0910D259E897E
:103730008689981770F2F0927924809193248111F0
:10374000CCCFCD2B69F0E0919E24F0919F24808115
:1037500081112CC08FEF9FEF809375249093762476
:10376000C0917A24CC2351F0D1E00E94701A8111CB
:10377000D0937924C150C9F710927A24809179248A
:10378000811110C080E00F900FBEDF91CF911F918B
:103790000F91FF9008956CE678E082EA90E20E9433
:1037A000202182CF0E942A0F81E0EDCF0E948C164B
:1037B000D7CF0F931F93CF93DF938C01EB01892B0E
:1037C00009F446C02097E9F180917224811132C03A
:1037D000809172248F5F8093722440917D24509158
:1037E0007E24F80120813181CE01820F931F421780
:1037F000530788F48217930788F0F8018083918338
:103800000E944A1B811102C00E942A0FDF91CF91B2
:103810001F910F9108958217930718F048175907C1
:1038200060F7F8018083918360E0841B950B0E9410
:10383000BC16E6CF6CEC74E082EA90E20E94202194
:10384000C7CF6BEC74E082EA90E20E942021BCCFEB
:103850006AEC74E082EA90E20E942021B3CFCF9319
:10386000DF93EC01892B29F40E942A0FDF91CF917D
:10387000089580917224811110C0809172248F5F0D
:103880008093722460E0CE010E94BC160E944A1B05
:10389000882351F3DF91CF91089560E275E082EAC9
:1038A00090E20E942021E9CF80917224811102C010
:1038B0000C94181781E08093792408950F931F9337
:1038C000CF93DF93EC018B01892B89F060910C255C
:1038D00070910D25645F7F4FCE010E94280E61E03C
:1038E000C801DF91CF911F910F910C94BC1663EA30
:1038F0007BE082EA90E20E942021E8CF0F931F93A1
:10390000CF93DF93DC011596ED91FC911697C6815C
:10391000D781209709F442C08E01045F1F4FC80170
:103920000E94590E80917224811129C00A501109F8
:10393000C8010E94590E8E8990917C24981728F115
:1039400090E09C01220F331F220F331F220F331FE1
:10395000820F931FB8018E549B4D0E94070EE09179
:103960000C25F0910D259E898689891788F481E0C0
:1039700080937924DF91CF911F910F910895B80121
:1039800083E994E20E94070EEACF80937C24D8CF8B
:1039900080E0DF91CF911F910F9108956EEF7BE052
:1039A00082EA90E20E942021B7CF20917824FC0186
:1039B000208320917D2430917E24218332830895B9
:1039C0000F931F93CF93DF93EC018B01892B09F4A5
:1039D00040C00115110509F443C00FB6F8940F92C9
:1039E00080917D2490917E24F801208131812F3FA8
:1039F000FFEF3F0761F149815A8160917824788116
:103A0000761719F08417950780F4841B950B82179D
:103A1000930768F0F8011082118281E00F900FBEC9
:103A2000DF91CF911F910F91089581E0F7CF281B6F
:103A3000390BF80120833183809178248883809129
:103A40007D2490917E2489839A8380E0E7CF80E073
:103A5000E5CF69E67CE082EA90E20E942021B9CFBE
:103A60006AE67CE082EA90E20E942021B6CF81E003
:103A7000809379240895FF920F931F93CF93DF9340
:103A80008C01EB01F42E892B09F464C0088319839F
:103A9000C80149968A839B83D80156968C91569784
:103AA0008E8357968D919C9158978C879D87919680
:103AB0008C9191978C8393968C9193978F83979603
:103AC0008D919D910D90BC91A02D88879987AA8793
:103AD000BB87253009F443C080910C2590910D25BA
:103AE0000817190709F440C02D83233021F1FF2066
:103AF000D1F0D8015796ED91FC9158978081853A85
:103B0000A9F5319680E090E0DC010196A11DB11D80
:103B10002191253AD1F38E879F87DF91CF911F9115
:103B20000F91FF9008951E861F86DF91CF911F9100
:103B30000F91FF900895809172248F5F809372247B
:103B4000F80184899589892B11F082E08D830E9488
:103B50004A1BCDCF00910C2510910D2597CFC801A0
:103B60000E9410198D83C3CF1D82C1CF80E090E0E9
:103B7000D2CF8F929F92AF92BF92CF92DF92EF926D
:103B8000FF920F931F93CF93DF935C018B01D42F90
:103B9000DB011196ED91FC9112970280F381E02DEB
:103BA0001196ED93FC9312977B01B3E0EB0EF11CA1
:103BB000EE15FF05E1F1C680D780C0E016C0868013
:103BC0009780B501B0E1CB9F600D711D11242D2FA1
:103BD00041E0C4010E943B1DCF5FC814D904C9F065
:103BE000D8011196ED91FC9112970280F381E02D9E
:103BF000D8011196ED93FC931297EE16FF06F9F695
:103C00001596ED91FC9116971196ED93FC931297F2
:103C1000D6CF8C2FDF91CF911F910F91FF90EF9016
:103C2000DF90CF90BF90AF909F908F9008950280CB
:103C3000F381E02DC0CFEF92FF920F931F93CF93AC
:103C4000DF938C017A01809172248F5F80937224BC
:103C500080917F24681708F466C0CAE0D0E004C0F1
:103C600080E0D80FCC23F9F0C1506C2F70E0CB016D
:103C7000880F991F880F991F880F991F680F791F48
:103C8000FB01EE54FB4D8081882351F341E0BF01DD
:103C9000C80120E1D29F800D911D11240E94B91D01
:103CA000D80FC111E1CFE0919E24F0919F24808133
:103CB00081113BC080E0D80FE0919C24F0919D24BD
:103CC0008081811145C080E0D80F80918A248111C4
:103CD0004FC080E0D80F8091802481115AC080E0CD
:103CE000D80FE114F104A9F02091200830912108A7
:103CF00080914A2590914B25A0914C25B0914D255E
:103D0000820F931FA11DB11DF70180839183A283B0
:103D1000B3830E944A1B8D2FDF91CF911F910F918A
:103D2000FF90EF900895D0E0F4CF42E0BF01C801CA
:103D3000E0E1DE9F800D911D11240E94B91DD80F76
:103D4000E0919C24F0919D248081882309F4BBCFCD
:103D500042E0BF01C801F0E1DF9F800D911D1124F9
:103D60000E94B91DD80F80918A24882309F4B1CF0D
:103D700044E06AE874E2C80120E1D29F800D911D01
:103D800011240E94B91DD80F80918024882309F442
:103D9000A6CF43E060E874E2C801E0E1DE9F800D59
:103DA000911D11240E94B91D9BCF0F931F93CF9398
:103DB000DF93FC01892B09F441C02689A0910C25D1
:103DC000B0910D2556968C91281770F584859585B0
:103DD00097FD0CC0A0910C25B0910D2556963C91F5
:103DE0008AE090E0831B91098487958730E0C901C0
:103DF000880F991F880F991F880F991F280F391F47
:103E00002E543B4D8285938582179307E9F0A0914C
:103E10000C25B0910D2556968C91868B81E0DF9113
:103E2000CF911F910F910895A0910C25B0910D2570
:103E300081E023A156969C91291788F380E0DF91B9
:103E4000CF911F910F9108958F01EF012296CE011E
:103E50000E94590EE0910C25F0910D258689F801FC
:103E6000868B90917C24981710F480937C2490E0AA
:103E70009C01220F331F220F331F220F331F820F8B
:103E8000931FBE018E549B4D0E94070E81E0C7CF49
:103E90000F931F93CF93DF930097C9F0EC018091AC
:103EA0000C2590910D25C817D90731F06EE77FE0FA
:103EB00082EA90E20E9420218CA18823C1F18150E6
:103EC0008CA32E899BA1291711F0882331F080E063
:103ED000DF91CF911F910F9108958E010E5F1F4FBB
:103EE000C8010E94590E2BA12E8B822F90E04AE030
:103EF00050E0481B590B4C875D8730917C2432176A
:103F000010F420937C249C01220F331F220F331FB7
:103F1000220F331F820F931FB8018E549B4D0E94B6
:103F2000070E81E0DF91CF911F910F9108956FE708
:103F30007FE082EA90E20E9420218CA1C0CF0F9303
:103F40001F93CF93DF93009779F0162FEC018CA18C
:103F5000882309F454C00BA1011758F08E898017EB
:103F600019F09CA1913039F0DF91CF911F910F9101
:103F70000895012FF3CF20910C2530910D25C21704
:103F8000D30709F443C00E8B2C853D8537FD06C051
:103F90002AE030E0201B31092C873D8790E09C010E
:103FA000220F331F220F331F220F331F820F931F45
:103FB0008E549B4D2A853B8528173907A9F68E011B
:103FC0000E5F1F4FC8010E94590E8E8990917C246C
:103FD000981710F480937C2490E09C01220F331FEB
:103FE000220F331F220F331F820F931FB8018E54ED
:103FF0009B4DDF91CF911F910F910C94070E6DECAB
:104000007FE082EA90E20E942021A5CF68EE7FE067
:1040100082EA90E20E9420218E89B5CF2F923F92B2
:104020004F925F926F927F928F929F92AF92BF92C8
:10403000CF92DF92EF92FF920F931F93CF93DF9374
:1040400000D01F92CDB7DEB78C01FC011082F0903A
:104050007F2480917F24F0E18F9FC00111240E9472
:104060002B0D5C01009709F479C0AE014F5F5F4FE3
:104070006F2D0E941B1E882E69817A818B819C8105
:1040800024E630E040E050E00E94813329833A8307
:104090004B835C83211531054105510509F45BC053
:1040A000882009F458C07501912C88EDC82E80E253
:1040B000D82E9AEC292E90E2392E26C07F926F924C
:1040C0005F924F92F70183858F9382858F938185CD
:1040D0008F9380858F933F922F921F930F930E940F
:1040E0001439CDBFDEBFF80101900020E9F78F0140
:1040F00001501109939490E1E90EF11C891459F1D2
:1041000029813A814B815C81F701608571858285C7
:1041100093850E94813329013A01F70162817381FD
:10412000C8010E9469168C01411451046104710494
:1041300029F6F70183858F9382858F9381858F93ED
:1041400080858F93DF92CF921F930F930E94143933
:10415000CDBFDEBFC8CFC5010E94CA0D2496CDBF1A
:10416000DEBFDF91CF911F910F91FF90EF90DF9015
:10417000CF90BF90AF909F908F907F906F905F9007
:104180004F903F902F90089580910C2590910D2590
:10419000892B39F0E0910C25F0910D2584A18F5FDA
:1041A00084A380910C2590910D2508950895F8948D
:1041B00085EE90E20E94B60580E880930106809328
:1041C00005062FEF33EC99E0215030409040E1F7A5
:1041D00000C00000809306062FEF33EC99E02150D9
:1041E00030409040E1F700C00000E9CFEB01F894C7
:1041F00080E88093010687E091E20E94B6056AE0BC
:1042000070E0CE010E94D50582EE90E20E94B605D4
:1042100080E8809305062FEF33ED90E32150304086
:104220009040E1F700C00000809306062FEF33EDC9
:1042300090E3215030409040E1F700C00000E9CF0A
:104240008C01EB01F89480E8809301068FE191E204
:104250000E94B60564E670E0C8010E94D5058FE2B1
:1042600091E20E94B605CE010E94FA0582EE90E22C
:104270000E94B60580E8809305062FEF33EC99E0A5
:10428000215030409040E1F700C0000080930606C6
:104290002FEF33ED90E3215030409040E1F700C024
:1042A0000000E9CF0E94870A80E090E40E94BD33BD
:1042B00080934E2590934F25892B59F087E080936A
:1042C000A20078940E94E62A0E94291A80E090E0D9
:1042D0000895FFCFFC0144855585FB012485358574
:1042E0004217530740F081E090E02417350708F4A7
:1042F000089580E008958FEF9FEF08955F926F9289
:104300007F928F929F92AF92BF92CF92DF92EF9265
:10431000FF920F931F93CF93DF93CDB7DEB7C054B7
:10432000D140CDBFDEBF40E050E064E1CE01019658
:104330000E941B1E882E912C2AE631E240E150E0BB
:10434000B401CE0101960E9425358AE391E20E94D4
:10435000E43887E491E20E94E4381F921F921F9292
:104360001F9284E591E29F938F930E94A8381F9239
:104370001F928FE08F931FEF1F9383E791E29F932C
:104380008F930E94A8381F921F9280E18F931F92F3
:1043900080E991E29F938F930E94A8381F921F9209
:1043A0008FE18F931F938AEA91E29F938F930E94EC
:1043B000A8381F921F9280E28F931F9282EC91E2A5
:1043C0009F938F930E94A83880E090E29F938F93F1
:1043D0008AED91E29F938F930E94A838CDBFDEBFF4
:1043E00087EF93E29F938F9383EF91E29F938F9355
:1043F0000E94A83888EF93E29F938F938AE092E21D
:104400009F938F930E94A8388FE595E29F938F9397
:1044100082E292E29F938F930E94A83880914F2569
:104420008F9380914E258F9388E392E29F938F9391
:104430000E94A838CDBFDEBF8114910409F452C098
:1044400000E010E0512C94ECA92E92E2B92E25ED5B
:10445000C22E22E2D22E3CEEE32E32E2F32E43E0D5
:10446000642E43E2742E02951295107F1027007F70
:104470001027E1E0F0E0EC0FFD1F0E0F1F1FF80109
:1044800083818F9382818F93BF92AF920E94A838CD
:10449000F80185858F9384858F93DF92CF920E9458
:1044A000A838F80181818F9380818F93FF92EF92DA
:1044B0000E94A838F80180819181FC01329705970C
:1044C00020813181820F931F9F938F937F926F92F0
:1044D0000E94A8385394052D10E0CDBFDEBF08150B
:1044E00019050CF280914E2590914F258150904CEA
:1044F0009F938F9381E592E29F938F930E94A838B8
:1045000080914E2590914F25905C9F938F9388E6E4
:1045100092E29F938F930E94A8381F921F920FE9F7
:104520000F931FEF1F938AE892E29F938F930E944D
:10453000A8381F921F920F931F938DEA92E29F93C8
:104540008F930E94A83887E491E20E94E438CDBF9F
:10455000DEBFC05CDE4FCDBFDEBFDF91CF911F91CC
:104560000F91FF90EF90DF90CF90BF90AF909F9012
:104570008F907F906F905F900895CF93DF93CDB72A
:10458000DEB72A97CDBFDEBF87E00E9466060E9495
:10459000661A89879A8764E080E00E94AB0389836A
:1045A0009A8364E081E00E94AB038B839C8364E088
:1045B00082E00E94AB038D839E8364E083E00E94CF
:1045C000AB038F83988722E040E050E0BE016F5F2D
:1045D0007F4F80915025909151250E94D0116AE023
:1045E00070E0CE0109960E94D91BD5CFEF92FF92C1
:1045F0000F9340E068E081E00E948C118093502589
:1046000090935125E12CF12C02E020E030E040E0D5
:1046100052E068E173E28DEB92E20E94DA170F91AB
:10462000FF90EF900895CF93DF93CDB7DEB76097FB
:10463000CDBFDEBF4FEF5FEFBE01675F7F4F809161
:104640005025909151250E941E1588E0FE01399653
:10465000DE01119601900D928A95E1F729813A8148
:104660004B815C816D817E818F8198856096CDBF05
:10467000DEBFDF91CF9108950F931F93CF93DF9308
:104680008C01EB016FEF7FEF80911625909117253C
:104690000E9424140115110569F080911225909152
:1046A0001325A0911425B0911525F80180839183DD
:1046B000A283B383209761F080910E2590910F25FE
:1046C000A0911025B091112588839983AA83BB837B
:1046D00020E040E050E060E070E08091162590918D
:1046E0001725DF91CF911F910F910C94D011CF938B
:1046F000DF93CDB7DEB72A97CDBFDEBF1BC0C501A4
:10470000B4010E945F2E8B0120E030E0A901C701B7
:10471000B6010E94E82D87FD49C0C701B6010E947D
:104720005F2EC8010E94A7066AE070E0CE010996DC
:104730000E94D91B0E94661A89879A870E941323B8
:1047400029833A836D837E8369817A818D819E81FD
:10475000681B790B072E000C880B990B0E94972E73
:104760002DEC3CEC4CE45EE30E944C2F6B017C0191
:1047700020E030E048E455E40E947C2D4B015C01D0
:10478000A701960160E070E088E495E40E947B2D2B
:104790006B017C0120E030E0A901C501B4010E9459
:1047A000E82D87FFACCF00E010E0AECF60E070E016
:1047B000B8CFEF92FF920F9388E1E82E85E2F82EB2
:1047C00003E020E030E040E051E06CE173E287E795
:1047D00093E20E94DA170F91FF90EF900895CF9324
:1047E000DF93CDB7DEB72A97CDBFDEBF6FEF7FEF88
:1047F00080911C2590911D250E94241480912225D2
:1048000090912325A0912425B091252580931E25E4
:1048100090931F25A0932025B09321250E94661A0E
:1048200089879A8718C0C501B4010E945F2EC7010D
:104830000E94AF2960E070E080911A2590911B25BD
:104840000E942414813009F455C06AE070E0CE0162
:1048500009960E94D91B0E94132329833A836D83F2
:104860007E8369817A818D819E81681B790B645674
:104870007109072E000C880B990B0E94972E2DECC6
:104880003CEC4CEC5DE30E944C2F4B015C01C09072
:104890001E25D0901F25E0902025F0902125A7010E
:1048A00096010E947C2D2B013C01A5019401C701BA
:1048B000B6010E947B2D4B015C0120E030E0A90194
:1048C000C301B2010E94E82D87FF0EC0E12CF12C3C
:1048D00020E030E0A901C501B4010E94E82D87FF66
:1048E000A2CF60E070E0A3CFC301B2010E945F2EAF
:1048F0007B01EECF60E070E080E090E00E94AF29A5
:1049000075CFEF92FF920F9343E060E081E00E9449
:104910008C1180931C2590931D2543E060E081E07D
:104920000E948C1180931A2590931B25E12CF12C69
:1049300002E020E030E040E052E065E273E28FEE1A
:1049400093E20E94DA170F91FF90EF900895609321
:10495000222570932325809324259093252520E0FC
:1049600040E050E060E070E080911C2590911D25B2
:104970000C94D01120E040E050E060E070E08091C5
:104980001A2590911B250C94D011CF93DF93CDB7AE
:10499000DEB76797CDBFDEBF0FC0823009F4AEC06F
:1049A000833009F4FAC080912825909129250E942E
:1049B0002616882309F496C04FEF5FEFBE016F5FA4
:1049C0007F4F80912825909129250E946713898126
:1049D000813019F74E805F80688479848A809B805B
:1049E000AC80BD800E94661A8A879B870E94D0286F
:1049F0000E949D290E9412076B017C0120E030E09B
:104A0000A901C501B4010E94472F2DEC3CE44FE4FD
:104A100053E418160CF050C1C501B4010E94ED2DED
:104A200020E030E044EB53E40E944C2F20E030E0E3
:104A300040E450E40E94ED2D6C8B7D8B8E8B9F8B20
:104A4000B601DD0C880B990B0E94972E9B01AC01DF
:104A50006C897D898E899F890E947C2D0E945F2EA2
:104A60008B012DEC3CE44FE453E4C301B2010E94FE
:104A7000ED2D20E030E044EB53E40E944C2F20E089
:104A800030E040E450E40E94ED2D0E945F2EDC01F6
:104A9000CB01BC010E94AF2909C00C151D05B4F063
:104AA0006AE070E0CE010A960E94D91B0E941207AC
:104AB0006B017C0120E030E0A901C501B4010E9436
:104AC000472F181654F3C016D10654F70E94E92850
:104AD0000E94A92980912825909129250E942616B7
:104AE00081116ACF20E040E050E060E070E080910A
:104AF0002625909127250E94D0115ECFCA80DB80A9
:104B0000EC80FD800E94661A8A8B9B8B0E94D028C5
:104B10000E949D290E9412072DEC3CE44FE453E4CF
:104B2000C701B6010E94ED2D20E030E044EB53E4D4
:104B30000E944C2F20E030E040E450E40E94ED2D34
:104B40000E94A72400E010E00BC00F5F1F4F05314B
:104B50001105E4F46AE070E0CE0142960E94D91B90
:104B60000E9413232A873B874C875D876E877F8748
:104B7000888B998B2A853B858E859F85820F931F15
:104B80008A38934114F700E010E0E4CF0E94BA2481
:104B90000E94E9280E94A92906CF4E805F80688480
:104BA00079848A809B80AC80BD800E94661A8A8747
:104BB0009B870E94D0280E949D290E9412076B01AA
:104BC0007C0126EC39ED47E75FE3C501B4010E94A3
:104BD0004C2F4B015C0120E030E0A9010E94472FDF
:104BE00018160CF0ABC0B601DD0C880B990B0E94B7
:104BF000972E6B017C012DEC3CE44FE453E4C5019E
:104C0000B4010E94ED2D20E030E044EB53E40E941B
:104C10004C2F20E030E040E450E40E94ED2D9B0159
:104C2000AC01C701B6010E947B2D0E945F2E8B0153
:104C30002DEC3CE44FE453E4C301B2010E94ED2D9E
:104C400020E030E044EB53E40E944C2F20E030E0C1
:104C500040E450E40E94ED2D2B013C010E945F2EA8
:104C60006B017C01C301B20190580E945F2EDC01F0
:104C7000CB01B6010E94AF290AC0C016D1060CF4C0
:104C800025CF6AE070E0CE010A960E94D91B0E94EF
:104C900012076B017C0120E030E0A901C501B401DD
:104CA0000E94472F18164CF30C151D0554F70E944F
:104CB000E9280E94A9290ECFC501B4010E94ED2D5B
:104CC00020E030E044EB53E40E944C2F20E030E041
:104CD00040E450E40E94ED2D6C8B7D8B8E8B9F8B7E
:104CE000B601DD0C880B990B0E94972E9B01AC013D
:104CF0006C897D898E899F890E947C2D0E945F2E00
:104D00008B012DEC3CE44FE453E4C301B2010E945B
:104D1000ED2D20E030E044EB53E40E944C2F20E0E6
:104D200030E040E450E40E94ED2D90580E945F2E48
:104D3000DC01CB01BC010E94AF29B8CEB601DD0C6D
:104D4000880B990B0E94972E6B017C012DEC3CE4A3
:104D50004FE453E4C501B4010E94ED2D20E030E0A2
:104D600044EB53E40E944C2F20E030E040E450E458
:104D70000E94ED2D9B01AC01C701B6010E947B2D65
:104D80000E945F2E8B012DEC3CE44FE453E4C30101
:104D9000B2010E94ED2D20E030E044EB53E40E948C
:104DA0004C2F20E030E040E450E40E94ED2D2B0138
:104DB0003C0190580E945F2E6B017C01C301B2013F
:104DC0000E945F2EDC01CB01B6010E94AF295FCFAC
:104DD000EF92FF920F93E12CF12C03E020E030E002
:104DE00040E051E06DE273E285EC94E20E94DA1754
:104DF00040E069E081E00E948C1180932825909327
:104E0000292543E060E081E00E948C1180932625F3
:104E1000909327250F91FF90EF900895CF93DF9304
:104E2000CDB7DEB72997CDBFDEBFE1E0E9836A8366
:104E30007B838C839D832E833F834887598720E023
:104E40004FEF5FEFBE016F5F7F4F809128259091FC
:104E500029250E94D0116FEF7FEF80912625909138
:104E600027250E9424142996CDBFDEBFDF91CF9164
:104E70000895CF93DF93CDB7DEB72997CDBFDEBFBF
:104E800022E029836A837B838C839D8320E04FEF1C
:104E90005FEFBE016F5F7F4F80912825909129259C
:104EA0000E94D0116FEF7FEF8091262590912725EA
:104EB0000E9424142996CDBFDEBFDF91CF910895C3
:104EC000CF93DF93CDB7DEB72997CDBFDEBFE3E049
:104ED000E9836A837B838C839D832E833F8348870A
:104EE000598720E04FEF5FEFBE016F5F7F4F8091EA
:104EF0002825909129250E94D0116FEF7FEF809196
:104F00002625909127250E9424142996CDBFDEBF27
:104F1000DF91CF910895CF93DF93CDB7DEB72C9774
:104F2000CDBFDEBF0E94661A80932A2590932B2561
:104F300019861A861B861C861D821E821F82188671
:104F400077C020E030E0A901C701B6010E94E82D3A
:104F500087FF0AC020E030E84BEB54E4C701B601FC
:104F60000E947B2D6B017C0120E030EF4FE755EC78
:104F7000C701B6010E94E82D87FFB6C001E010EF1F
:104F8000C501B4010E94972E9B01AC0169857A8509
:104F90008B859C850E947B2D20E030E046E953E420
:104FA0000E944C2F6B017C0120E030E0A9010E949F
:104FB000472F181654F420E030E84BEB54E4C701B7
:104FC000B6010E947C2D6B017C0120E030EF4FE7A1
:104FD00055E4C701B6010E94472F18160CF48AC089
:104FE00020E030E0A901C701B6010E94E82D87FF4B
:104FF0000AC020E030E84BEB54E4C701B6010E9440
:105000007B2D6B017C0120E030EF4FE755ECC701B1
:10501000B6010E94E82D87FF74C061E070EFC801FF
:105020000E94A7066AE070E08AE295E20E94D91B1E
:105030000E9412076B017C0160E070E080913025D6
:10504000909131250E9424142601DD0C6608770812
:10505000813009F490C04701FF0CAA08BB0840E06A
:1050600050E0BE016F5F7F4F80912E2590912F25DC
:105070000E946713813009F449C0C301B2010E9444
:10508000972E9B01AC016D817E818F8198850E9456
:105090007B2D20E030E046E953E40E944C2F6B0169
:1050A0007C0120E030E0A9010E94472F181654F43B
:1050B00020E030E84BEB54E4C701B6010E947C2DA0
:1050C0006B017C0120E030EF4FE755E4C701B601EA
:1050D0000E94472F18160CF034CFC12C90EFD92E18
:1050E0009FE7E92E95E4F92EC701B6010E945F2ED5
:1050F0008B0146CFC12C80EFD82E8FE7E82E85E4B8
:10510000F82EC701B6010E945F2E89CF69817A818E
:10511000072E000C880B990B0E94972E20E030E0A0
:1051200048EC52E40E94ED2D9B01AC016D817E8123
:105130008F8198850E947C2D6D837E838F839887D5
:105140006B817C81072E000C880B990B0E94972E97
:1051500020E030E048EC52E40E94ED2D9B01AC01D0
:1051600069857A858B859C850E947C2D69877A87E5
:105170008B879C8782CFC301B2010E94972E6D83DB
:105180007E838F8398874701FF0CAA08BB08C5015F
:10519000B4010E94972E69877A878B879C875FCF9F
:1051A0000E944F0920E040E050E060E070E0809114
:1051B0003025909131250E94D0110E94661A80936B
:1051C0002A2590932B2580912C2590912D250C94A8
:1051D000D91980912C2590912D250E945C1960E0B1
:1051E00070E080E090E00C94A706EF92FF920F939E
:1051F0000E9476068CE2E82E85E2F82E03E020E09D
:1052000030E040E051E064E373E28BE897E20E9413
:10521000DA170E94E92840E064E081E00E948C11E6
:1052200080932E2590932F2543E060E081E00E943B
:105230008C118093302590933125009751F020E018
:1052400040E050E060E070E00F91FF90EF900C9430
:10525000D0110F91FF90EF900895CF93DF9300D07E
:105260001F92CDB7DEB789839A836B837C8320E05E
:105270004FEF5FEFBE016F5F7F4F80912E259091C2
:105280002F250E94D0112496CDBFDEBFDF91CF9194
:105290000895CF93DF9300D01F92CDB7DEB70E9461
:1052A000661A80933225909333254FEF5FEFBE014E
:1052B0006F5F7F4F80913625909137250E941E1594
:1052C0006B817C8189819A810E942D296AE070E03E
:1052D00082E395E20E94D91BE8CFEF92FF920F93F1
:1052E00084E3E82E85E2F82E03E020E030E040E0A1
:1052F00051E06BE373E289E499E20E94DA1780914E
:105300003425909135250E945C1940E064E081E0ED
:105310000E948C118093362590933725E8E3F5E2BF
:10532000108211821282138222E040E050E0BF011D
:105330000F91FF90EF900C94D0110E94661A809309
:1053400032259093332580913425909135250C9406
:10535000D91980913425909135250C945C19E8E396
:10536000F5E2808391836283738322E040E050E022
:10537000BF0180913625909137250C94D011CF93A1
:10538000DF931F92CDB7DEB74AC066246A947724B4
:105390007A9488248A94912C80FF07C090E8692E23
:1053A00020E8722E30E8832E912C84FF4BC02224FB
:1053B0002A94312C412C512C51016201710182013E
:1053C0009301A401B301C4010E94E4098AEF90E0B3
:1053D0000E942F1C298122FF3AC0AA24AA94BB2430
:1053E000BA94C12CD12C6FEF7FEF80E090E023FFC7
:1053F0000CC022242A9433243A94412C512C662444
:105400006A9477247A94812C912C71018201930102
:10541000A4010E94E4098AEF90E00E942F1C40E062
:1054200050E0BE016F5F7F4F8091522590915325D0
:105430000E941E15898181FDA8CF612C712C812CC1
:10544000912CAACF212C312C412C512CB5CF5101BC
:105450006201B301C401CBCFEF92FF920F93CF93C0
:10546000DF931F92CDB7DEB740E061E081E00E949C
:105470008C118093522590935325198222E040E0AD
:1054800050E0BE016F5F7F4F0E94D011E12CF12CE4
:1054900004E020E030E040E052E06CEA73E28FEBA1
:1054A00099E20E94DA170F90DF91CF910F91FF9050
:1054B000EF900895CF93DF931F92CDB7DEB7898326
:1054C00022E040E050E0BE016F5F7F4F80915225A7
:1054D000909153250E94D0110F90DF91CF910895A4
:1054E000CFE380ED97E00E942F1C80E090E00E94C7
:1054F0007D0AC093A2068091A2008C7F8093A200B7
:1055000088958091A20083608093A200C093A10639
:10551000E8CFEF92FF920F93E0EAF0E08281876498
:105520008283E8E4F0E08081817F846080838081F1
:1055300081608083E0EAF6E080E88283838781E00F
:10554000878BE12CF12C00E020E030E040E051E0DE
:1055500062E473E280E79AE20E94DA170F91FF900B
:10556000EF90089581E00E947D0A81E090E00E9422
:105570002F1C0E9404050E9458060E94720C0E9473
:10558000790A0E94A20A0E94DE090E9484030E94F6
:105590003E0482E390E00E942F1C80E2809301068B
:1055A0000E94F6220E94F5280E946D290E94812403
:1055B0000E94D9230E942C2A0E94672D0E94E8266F
:1055C0000E94892A80E090E00C945C19EF92FF928F
:1055D0000F93E12CF12C03E020E030E040E051E0BB
:1055E00061E573E282EB9AE20E94DA170F91FF9075
:1055F000EF900895CF93DF93CDB7DEB7CC51D14074
:10560000CDBFDEBF82EBA82E86E0B82E0BE916E0F8
:105610009DE7892E96E0992E23E6222E26E0322E53
:10562000C701B6010E94392789E593E20E94E43858
:10563000409158255091592567EC70E0CE010196B4
:105640000E943A386DE271E2CE0101960E94D33792
:10565000009731F0BC01CE0187539F4F0E94E7377E
:105660006DE271E280E090E00E94D337009709F488
:105670006AC00E94EC366B017C016DE271E280E051
:1056800090E00E94D337009709F469C00E94EC367D
:105690002B013C016DE573E2CE0187539F4F0E94C1
:1056A000F937892B09F45FC0BF92AF920E94BC38D2
:1056B0001F930F930E94BC389F928F920E94BC3818
:1056C0003F922F920E94BC388DE096E09F938F937B
:1056D0000E94BC388EEA95E09F938F930E94BC385D
:1056E00085E695E09F938F930E94BC3881E395E017
:1056F0009F938F930E94BC3884EC94E09F938F9388
:105700000E94BC3881EA94E09F938F930E94BC383A
:1057100087E794E09F938F930E94BC3882E394E0E4
:105720009F938F930E94BC3884EC93E09F938F9358
:105730000E94BC3881E793E09F938F930E94BC380E
:10574000CDBFDEBF6DCFC12CD12C76016DE271E2F1
:1057500080E090E00E94D337009709F097CF412C6A
:10576000512C320197CF62E673E2CE0187539F4FEF
:105770000E94F937892B49F0CE0101960E940E2034
:10578000CE0101960E94E4384BCF69E673E2CE0168
:1057900087539F4F0E94F937892B19F00E947E2171
:1057A0003FCF60E773E2CE0187539F4F0E94F937E6
:1057B000892B59F0A3019201C701B6010E940E275F
:1057C00087E793E20E94E4382BCF6BE773E2CE01C8
:1057D00087539F4F0E94F937892B49F0C701B601C3
:1057E0000E94392787E793E20E94E43819CF62E8E4
:1057F00073E2CE0187539F4F0E94F937892B59F0EE
:10580000A3019201C701B6010E94602787E793E2D6
:105810000E94E43805CF69E873E2CE0187539F4FB9
:105820000E94F937892B61F0C701B6010E94662EEC
:10583000862F0E945A2A87E793E20E94E438F0CE2E
:1058400060E973E2CE0187539F4F0E94F937892B9D
:10585000A1F0C301B2010E945F2E2B013C01C701E0
:10586000B6010E945F2EDC01CB01B2010E94A706A7
:1058700087E793E20E94E438D3CE67E973E2CE0172
:1058800087539F4F0E94F937892B99F00E94120786
:105890009F938F937F936F938EE993E29F938F9360
:1058A0000E94A8380F900F900F900F900F900F90BC
:1058B000B7CE69EA73E2CE0187539F4F0E94F93752
:1058C000892B09F447C09E012B5E3E4FAE01495E15
:1058D0005E4FBE01675E7E4FCE01855E9E4F0E9489
:1058E0008604CA5EDE4F8881C651D1408F93CB5E5D
:1058F000DE4F8881C551D1408F93C85EDE4F8881CD
:10590000C851D1408F93C95EDE4F8881C751D140C5
:105910008F93C65EDE4F8881CA51D1408F93C75E98
:10592000DE4F8881C951D1408F93C45EDE4F88819C
:10593000CC51D1408F93C55EDE4F8881CB51D14091
:105940008F9380EB93E29F938F930E94A838CDBFF3
:10595000DEBF66CE61EC73E2CE0187539F4F0E949B
:10596000F937892BD9F1BE01675F7E4FCE018F5E7B
:105970009E4F0E943C23C45FDE4F8881CC50D140B3
:105980008F93C55FDE4F8881CB50D1408F93C65F28
:10599000DE4F8881CA50D1408F93C75FDE4F888128
:1059A000C950D1408F93CC5EDE4F8881C451D14025
:1059B0008F93CD5EDE4F8881C351D1408F93CE5EF1
:1059C000DE4F8881C251D1408F93CF5EDE4F8881F8
:1059D000C151D1408F9388EC93E2B5CF63ED73E270
:1059E000CE0187539F4F0E94F937892B09F455C088
:1059F0000E941323C75FDE4F2883C950D140C65F82
:105A0000DE4F3883CA50D140C55FDE4F4883CB504C
:105A1000D140C45FDE4F5883CC50D140C35FDE4FCE
:105A20006883CD50D140C25FDE4F7883CE50D140E5
:105A3000C15FDE4F8883CF50D140C05FDE4F988377
:105A4000C051D1409F93C15FDE4F8881CF50D1407C
:105A50008F93C25FDE4F8881CE50D1408F93C35F5A
:105A6000DE4F8881CD50D1408F93C45FDE4F888157
:105A7000CC50D1408F93C55FDE4F8881CB50D14051
:105A80008F93C65FDE4F8881CA50D1408F93C75F26
:105A9000DE4F8881C950D14053CF6AED73E2CE0109
:105AA00087539F4F0E94F937892B61F0C701B601D8
:105AB0000E94662E862F0E947D0A87E793E20E944D
:105AC000E438AECD81EE93E20E94E438A9CDEF92A6
:105AD000FF920F93E12CF12C01E020E030E040E058
