S01200004C696E65626F74496F542E7372656339
S11300000C9495010C94B6010C9487040C940E0581
S11300100C94B6010C94B6010C94B6010C94B60180
S11300200C94B6010C94B6010C94B6010C94B60170
S11300300C94B6010C94B6010C94F60B0C94B60116
S11300400C946A0C0C94B6010C94B6010C94B60191
S11300500C94B6010C94B6010C94B6010C94B60140
S11300600C94B6010C94B6010C94B6010C94B60130
S11300700C94B6010C94B6010C94B6010C94B60120
S11300800C94B6010C94B6010C94D1020C94B601F4
S11300900C94B6010C94B6010C94B6010C94B60100
S11300A00C94B6010C94B6010C94B6010C9495050D
S11300B00C941C060C94B6010C9415080C94B6010F
S11300C00C94B6010C94B6010C94B6010C94B601D0
S11300D00C94B6010C94B6010C94B6010C94B601C0
S11300E00C94B6010C94B6010C9435090C94B60129
S11300F00C94EE080C94B6010C94B6010C94B60161
S11301000C94B6010C94B6010C94B6010C94B6018F
S11301100C94B6010C94B6010C94B6010C943602FE
S11301200C94B6010C94B6010C94B6010C94B6016F
S11301300C94B6010C94B6010C94B6010C94B6015F
S11301400C94B6010C94B6010C94B6010C94B6014F
S11301500C94B6010C94B6010C94B6010C94B6013F
S11301600C94B6010C94B6010C94B6010C94B6012F
S11301700C94B6010C94B6010C94B6010C94B6011F
S11301800C94B6010C94B6010C94B6010C94B6010F
S11301900C94B6010C94B6010C94B6010C94B601FF
S11301A00C94C0210C94B6010C94B6010C94B601C5
S11301B00C94B6010C94B6010C94B6010C94B601DF
S11301C00C94B6010C94B6010C94B6010C94B601CF
S11301D00C94B6010C94B6010C94B6010C94B601BF
S11301E00C94B6010C94B6010C94B6010C94B601AF
S11301F00C94B6010C94B6010C94B6010C949508B9
S11302000C947F080C94F11B0C94F5200C946B2136
S11302100C94FD210C94FA1A0C94791B0C94C71CB1
S11302200C948A120C94371F6E616E00696E66001E
S113023000407A10F35A00A0724E18090010A5D499
S1130240E80000E87648170000E40B54020000CAF6
S11302509A3B000000E1F50500008096980000003C
S113026040420F000000A08601000000102700009B
S11302700000E803000000006400000000000A0021
S1130280000000000100000000002C76D888DC6724
S11302904F0823DFC1DFAE59E1B1B796E5E3E4537C
S11302A0C63AE651997696E8E6C28426EB898C9B99
S11302B062ED407C6FFCEFBC9C9F40F2BAA56FA539
S11302C0F490055A2AF75C936B6CF9676DC11BFCBB
S11302D0E0E40D47FEF520E6B500D0ED902E0300D6
S11302E0943577050080841E080000204E0A000023
S11302F000C80C333333330F986E12831141EF8DE2
S11303002114893BE65516CFFEE6DB18D1844B3821
S11303101BF77C1D901DA4BBE424203284725E2252
S11303208100C9F124ECA1E53D2711241FBECFEFC4
S1130330CDBFDFE9DEBF00E00CBF11E2A0E0B0E218
S1130340EEE6F6E500E00BBF02C007900D92A8367A
S1130350B107D9F722E2A8E6B1E201C01D92AB369B
S1130360B207E1F70E94E21A0C94352B0C940000BA
S1130370E0E0F2E081E0808396E0918392E0928372
S113038093E0948382A343E060E00E94DB0D8093BA
S11303904D2290934E2243E060E081E00E94DB0D09
S11303A080934B2290934C2220E040E050E060E0A8
S11303B070E080914D2290914E220C941F0ECF93A9
S11303C0DF93C82FD62F6FEF7FEF80914D2290914E
S11303D04E220E947310C03128F080E197E2DF9131
S11303E0CF910895CC0FCC0FCC0FC0932102DF3FE7
S11303F0A1F1D43068F582E080932002809101025B
S113040080618093010280912102D82BD093210234
S1130410809120028068809320026FEF7FEF8091AB
S11304204B2290914C220E947310C0912402D091CF
S1130430250220E040E050E060E070E080914D2231
S113044090914E220E941F0ECE01DF91CF9108950C
S1130450D450D43010F68FE1CFCF81E080932002C6
S1130460809101028F7E80930102D2CF1F920F925E
S11304700FB60F9211240BB60F922F933F934F9305
S11304805F936F937F938F939F93AF93BF93EF93F8
S1130490FF93CF93DF931F92CDB7DEB71982BE01CE
S11304A06F5F7F4F80914B2290914C220E94630F8B
S11304B0898181110E94D20B0F90DF91CF91FF911E
S11304C0EF91BF91AF919F918F917F916F915F91C8
S11304D04F913F912F910F900BBE0F900FBE0F9035
S11304E01F9018950F93CF93DF931F921F92CDB750
S11304F0DEB780E8898381E08A8342E0BE016F5FD2
S11305007F4F89E30E949F0782E9898301E09E016E
S11305102F5F3F4F41E0B90189E30E9410078981B1
S11305208B3A61F01F928F9386E190E29F938F93B1
S11305300E94C32A0F900F900F900F9081E8898337
S11305408BED8A8342E0BE016F5F7F4F89E30E9497
S11305509F078FE8898383E08A8342E0BE016F5F4F
S11305607F4F89E30E949F070F900F90DF91CF91F7
S11305700F910895E0E2F6E098EF928389E5838B8A
S1130580848B858B868B878B928783E0818740E081
S113059061E08AE00E94DB0D8093682190936921D9
S11305A008951F920F920FB60F9211240BB60F925B
S11305B02F933F934F935F936F937F938F939F9367
S11305C0AF93BF93EF93FF93E0EAF0E082818760FB
S11305D082838FE38093A10681E090E00E94CC06A1
S11305E087E590E29F938F930E94C32A0F900F9008
S11305F0FF91EF91BF91AF919F918F917F916F91F7
S11306005F914F913F912F910F900BBE0F900FBEB2
S11306100F901F901895DC0110926D2110926E219D
S11306209C919923B1F0FD01319680E49093A00A46
S11306309091A10A96FFFCCF8093A10A9F012A1BE7
S11306403B0B91919111F2CF20936D2130936E2148
S113065008950895FC0110926D2110926E219081ED
S11306609923E1F0319620E030E080E42617370743
S11306701CF06115710569F49093A00A9091A10A88
S113068096FFFCCF8093A10A2F5F3F4F9191911168
S1130690EDCF20936D2130936E2108950895CF926C
S11306A0DF92EF92FF920F931F93CF93DF937C011E
S11306B080E197E280936B2190936C2110926A21E0
S11306C0C5E0D0E0C12CE0E1F7E2A0E4DA2E0AE0D4
S11306D010E0C701BF010E943128AB019B01ADECC2
S11306E0BCEC0E9459289695879596958795969582
S11306F087959C01220F331F880F991F880F991F1C
S1130700880F991F820F931F9A01281B390BC90167
S1130710009711F4CC2059F0805D8093A00A809159
S1130720A10A86FFFCCFD092A10ACC24C394CF01A6
S1130730B8010E944528FB01219759F6C0926A210D
S113074060936B2170936C21DF91CF911F910F9176
S1130750FF90EF90DF90CF900895E0E2F6E087E01D
S1130760818380E4808B818B828BE0E0F6E090E8EB
S11307709183878B0895E0E2F6E09481282F277017
S1130780922B9483E0E0F6E0948188708295807FD8
S1130790892B84830895E0E2F6E09481282F277062
S11307A092279483E0E0F6E0948188708295807FBC
S11307B0892784830895E0EAF6E08FE1818380E469
S11307C0848B20E12583E0E0FBE091E0908393EFCC
S11307D0918340E050E146A357A3E0E4F6E090ECB7
S11307E09283868B878B828790E8938795E09187A5
S11307F0E0E8F6E030E33283848B858B228780E265
S11308008387918740E065E084E10E94DB0D80935B
S1130810532290935422089520E1009769F56115BD
S1130820710509F457C02093A606813020EF920782
S11308300CF457C09195819591098093280B90935E
S1130840290B10922A0B10922B0B7195619571094B
S11308501616170644F1613020EF72070CF444C0F9
S113086071956195710960932C0B70932D0B109207
S11308702E0B10922F0B08952093A6061816190616
S1130880A4F61092280B1092290B811520E19207EF
S1130890F4F480932A0B90932B0B71956195710955
S11308A016161706C4F610922C0B10922D0B611518
S11308B080E178072CF460932E0B70932F0B08952E
S11308C06FEF7FE060932E0B70932F0B08958FEFE3
S11308D09FE0DFCF2093A506813020EF92070CF034
S11308E0A9CF81E090EFA6CF61E070EFB9CF0FB64A
S11308F0F8940F9240914F2250915022209151220E
S1130900309152220F900FBEBA01C90108951F926F
S11309100F920FB60F9211240BB60F921F932F93C1
S11309203F934F935F936F937F938F939F93AF9373
S1130930BF93EF93FF93CF93DF9300D000D0CDB755
S1130940DEB71E822091200830912108809159221F
S113095090915A22A0915B22B0915C22820F931F46
S1130960A11DB11D89839A83AB83BC838091480602
S1130970182F107886FF37C081E08D8320E0AE0108
S11309804A5F5F4FBE016F5F7F4F8091532290910A
S113099054220E94080F1123B9F180914F229091A3
S11309A05022019680934F22909350228E81811180
S11309B00E94D20B2696CDBFDEBFDF91CF91FF916F
S11309C0EF91BF91AF919F918F917F916F915F91C3
S11309D04F913F912F911F910F900BBE0F900FBE1F
S11309E00F901F90189585E08D8320E0AE014A5F3B
S11309F05F4FBE016F5F7F4F8091532290915422CD
S1130A000E94080F112349F280914F2290915022A5
S1130A10019780934F2290935022C8CF1F920F9238
S1130A200FB60F9211240BB60F921F932F933F937F
S1130A304F935F936F937F938F939F93AF93BF93E2
S1130A40EF93FF93CF93DF9300D000D0CDB7DEB701
S1130A501E82209120083091210880915922909182
S1130A605A22A0915B22B0915C22820F931FA11D98
S1130A70B11D89839A83AB83BC8380914806182F68
S1130A80107487FF37C082E08D8320E0AE014A5F97
S1130A905F4FBE016F5F7F4F80915322909154222C
S1130AA00E94080F1123B9F180914F229091502296
S1130AB0019780934F22909350228E8181110E943E
S1130AC0D20B2696CDBFDEBFDF91CF91FF91EF9180
S1130AD0BF91AF919F918F917F916F915F914F9152
S1130AE03F912F911F910F900BBE0F900FBE0F904F
S1130AF01F90189586E08D8320E0AE014A5F5F4F1A
S1130B00BE016F5F7F4F80915322909154220E94C7
S1130B10080F112349F280914F229091502201969F
S1130B2080934F2290935022C8CF1F920F920FB6FA
S1130B300F9211240BB60F921F932F933F934F9351
S1130B405F936F937F938F939F93AF93BF93EF9331
S1130B50FF93CF93DF9300D000D0CDB7DEB71E82D2
S1130B6020912008309121088091592290915A2295
S1130B70A0915B22B0915C22820F931FA11DB11D35
S1130B8089839A83AB83BC8380918806182F107263
S1130B9084FF37C083E08D8320E0AE014A5F5F4F5E
S1130BA0BE016F5F7F4F80915322909154220E9427
S1130BB0080F1123B9F1809151229091522201968C
S1130BC080935122909352228E8181110E94D20BE4
S1130BD02696CDBFDEBFDF91CF91FF91EF91BF91FC
S1130BE0AF919F918F917F916F915F914F913F91C1
S1130BF02F911F910F900BBE0F900FBE0F901F905F
S1130C00189587E08D8320E0AE014A5F5F4FBE01F7
S1130C106F5F7F4F80915322909154220E94080F5E
S1130C20112349F28091512290915222019780938D
S1130C30512290935222C8CF1F920F920FB60F9257
S1130C4011240BB60F921F932F933F934F935F93EF
S1130C506F937F938F939F93AF93BF93EF93FF9380
S1130C60CF93DF9300D000D0CDB7DEB71E822091A2
S1130C702008309121088091592290915A22A09104
S1130C805B22B0915C22820F931FA11DB11D898349
S1130C909A83AB83BC8380918806182F107284FFDB
S1130CA01CC084E08D8320E0AE014A5F5F4FBE012B
S1130CB06F5F7F4F80915322909154220E94080FBE
S1130CC0112309F447C08091512290915222019737
S1130CD080935122909352221AC088E08D8320E0A1
S1130CE0AE014A5F5F4FBE016F5F7F4F8091532219
S1130CF0909154220E94080F809151229091522287
S1130D00111122C0019780935122909352228E8117
S1130D1081110E94D20B2696CDBFDEBFDF91CF9109
S1130D20FF91EF91BF91AF919F918F917F916F91BF
S1130D305F914F913F912F911F910F900BBE0F9098
S1130D400FBE0F901F901895019680935122909397
S1130D505222DDCF809151229091522201968093AC
S1130D60512290935222D3CF0FB6F8940F9210923F
S1130D704F221092502210925122109252220F9020
S1130D800FBE0895E0E0F6E080E481838683089551
S1130D9080E2809341060895811104C080E280932B
S1130DA04606089580E28093450608958BEC80936F
S1130DB0520088E0809350008091510083FFFCCF63
S1130DC082EC8093550088E180935000809151001B
S1130DD084FFFCCF88ED84BF84E08093400080E0F2
S1130DE0089510927421E0E8F6E088E1808B818B0D
S1130DF0E0EAF4E088E7818383E2858381E0848309
S1130E000E94EE0E809371219093722143E060E082
S1130E1081E00E94DB0D80936F21909370210895EF
S1130E20CF92DF92EF92FF920F931F93CF93DF93B2
S1130E30D82F6B01142F79016FEF7FEF809171210F
S1130E40909172210E947310C0927B21D0927C21D8
S1130E50E0927921F0927A21C0917421C11155C098
S1130E6081E080937421109273218D2F880F8093D9
S1130E707D2110937821009377211092762110928E
S1130E807521809178218823B1F180917D218E7F15
S1130E908093A6046FEF7FEF80916F219091702172
S1130EA00E947310809173218130E1F11F928F931E
S1130EB01F92DF9382E690E29F938F930E94C32A4E
S1130EC020E040E050E060E070E08091712190917A
S1130ED072210E941F0E0F900F900F900F900F9091
S1130EE00F908C2FDF91CF911F910F91FF90EF9076
S1130EF0DF90CF90089580917721882359F28091D3
S1130F007D2181608093A604C5CF20E040E050E0BD
S1130F1060E070E080917121909172210E941F0E17
S1130F20C0E0DFCF20E040E050E060E070E080917E
S1130F307121909172210E941F0EC1E0D2CF0F93B4
S1130F4000E020E030E00E9410070F910895909196
S1130F507821209177218091A40484FD22C080917E
S1130F607621891768F080917521821718F183E042
S1130F708093A30481E080937321109274210895D7
S1130F8080917621E0917B21F0917C21E80FF11D85
S1130F9080818093A704809176218F5F809376214E
S1130FA0089583E08093A30485E0809373211092D5
S1130FB07421089580917D2181608093A604089511
S1130FC0809175218032F8F48091A7049091752165
S1130FD0E0917921F0917A21E90FF11D80838091CC
S1130FE075218F5F80937521909177218091752170
S1130FF08917B8F087E08093A30481E0809373217C
S113100010927421089583E08093A30482E0809376
S11310107321109274219091772180917521891701
S113102048F782E08093A30408951F920F920FB6AD
S11310300F9211240BB60F922F933F934F935F930C
S11310406F937F938F939F93AF93BF93EF93FF938C
S1131050CF93DF931F92CDB7DEB719828091A4049A
S1131060982F9C70E1F486FD44C087FD45C086E05E
S113107080937321109274218091742181111FC077
S1131080BE016F5F7F4F80916F21909170210E940C
S1131090630F8981882399F00E94D20B10C080913C
S11310A0A40482FD22C093E090937321886080930E
S11310B0A4041092742180917421882309F30F9061
S11310C0DF91CF91FF91EF91BF91AF919F918F915C
S11310D07F916F915F914F913F912F910F900BBE34
S11310E00F900FBE0F901F90189594E0909373216A
S11310F0DDCF0E94A707DFCF0E94E007DCCFCF93AC
S1131100DF931F92CDB7DEB74FEF5FEFBE016F5F86
S11311107F4F80915522909156220E94B60F89816B
S113112090E00F90DF91CF910895CF93DF931F92BA
S11311301F92CDB7DEB78A8320E04FEF5FEFBE0189
S11311406E5F7F4F80915722909158220E941F0E0C
S11311508091A10A85FF0EC040E050E0BE016F5FA0
S11311607F4F80915722909158220E94B60F898117
S11311708093A00A80E090E00F900F90DF91CF91D0
S1131180089540E061E080E80E94DB0D80935722DF
S11311909093582240E061E080E80E94DB0D809348
S11311A0552290935622E0E8F6E088E0818384E0BB
S11311B08283E0EAFAE084E1838388E1848383E044
S11311C0858385EE86838CEB8783E5E6F2E286E011
S11311D090E2828393838083918308951F920F9278
S11311E00FB60F9211240BB60F922F933F934F9388
S11311F05F936F937F938F939F93AF93BF93EF937B
S1131200FF93CF93DF931F921F92CDB7DEB719825E
S1131210AE014F5F5F4FBE016E5F7F4F80915722DB
S1131220909158220E942A128130D9F0898181112B
S11312300E94D20B0F900F90DF91CF91FF91EF910D
S1131240BF91AF919F918F917F916F915F914F91DA
S11312503F912F910F900BBE0F900FBE0F901F90D8
S113126018958A818093A00AE1CF1F920F920FB63E
S11312700F9211240BB60F922F933F934F935F93CA
S11312806F937F938F939F93AF93BF93EF93FF934A
S1131290CF93DF931F921F92CDB7DEB7198280914F
S11312A0A00A8A8320E0AE014F5F5F4FBE016E5FEC
S11312B07F4F80915522909156220E94080F898178
S11312C081110E94D20B0F900F90DF91CF91FF916B
S11312D0EF91BF91AF919F918F917F916F915F91AA
S11312E04F913F912F910F900BBE0F900FBE0F9017
S11312F01F9018950F931F93CF93DF93EC010E94D7
S1131300401680917E21811121C0E0915D22F091EF
S11313105E22CF01019680938321909384211092C1
S11313208521109286218FEF9FE3809381219093F2
S1131330822110927F2110928021838394838FE7EE
S113134091E28183928381E080937E21209709F446
S113135064C0AE014C5F5F4F2396CE3FDF4308F07D
S11313605CC0E0918321F0918421A3E8B1E206C03E
S113137080819181009739F0DF01FC012281338162
S113138024173507A8F3C1E2EF37FC0709F445C079
S1131390CD91DC9111978E010C5F1F4F808191815B
S11313A08D939C93C901841B950B8930910500F1A1
S11313B0BF01640F751FDB0112968D939C931397E5
S11313C04283538312962D913C911397A3E8B1E283
S11313D001C0DF01ED91FC91119782819381821705
S11313E09307B8F3EB01E883F9836D937C939A0137
S11313F08091142090911520821B930B80931420CC
S1131400909315200E942A170115110541F0C80177
S1131410DF91CF911F910F9108950E942A170E9486
S1131420671A00E010E0C801DF91CF911F910F917E
S11314300895CF93DF93009721F1EC0124970E9444
S113144040164A815B81A3E8B1E201C0DF01ED915E
S1131450FC9111972281338124173507B8F3E8836F
S1131460F983CD93DC938091142090911520480F3B
S1131470591F4093142050931520DF91CF910C9461
S11314802A17DF91CF910895FC01039681839283FB
S11314902FEF3FEF2383348385839683878390875D
S11314A010820895FC01108611860895CF93DF936E
S11314B09C01FB01DC011196CD91DC911297C28352
S11314C0D3838C819D81848395838C819D81DC0170
S11314D012966D937C9313976C837D832087318759
S11314E0F90180818F5F8083DF91CF910895CF933D
S11314F0DF93EB01488159814F3F2FEF520701F1F0
S1131500DC01139601C0DF011296ED91FC91139753
S11315102081318142175307B0F7EA83FB83C483E8
S1131520D583AC83BD831296CD93DC9313978887C0
S11315309987FC0120812F5F2083DF91CF9108954B
S1131540FC01A781B0851296ED91FC911397E5CF2C
S1131550CF93DF93FC01A085B185228133818481FF
S11315609581E9018C839D8384819581EC012A8393
S11315703B8311962D913C911297E217F30749F0A2
S1131580108611868C9181508C938C91DF91CF9130
S1131590089511968D939C931297F2CF31E1FC013B
S11315A03083319722E220833197A3E3A0833197DC
S11315B0608331977083319710823197108231970D
S11315C060E8608331971082319762E060833197DD
S11315D063E06083319764E06083319765E0608302
S11315E0319766E06083319767E06083319768E004
S11315F06083319769E06083319760E1608331975C
S11316003083319732E13083319733E1308331973E
S113161034E13083319735E13083319736E13083DB
S1131620319737E13083319738E13083319739E1AD
S11316303083319730E23083319731E23083319710
S11316402083319723E2208331974083319750835D
S1131650319726E22083319727E22083319728E2CD
S11316602083319729E22083319720E32083319727
S113167021E3208387970895E0E0F8E08FEF9FEF60
S113168080A791A781E0808390E4918386838783F8
S113169080E09DE786A397A3A0912522B0912622FE
S11316A0CD91CDBFDD91DEBFFF91EF91DF91CF9161
S11316B0BF91AF919F918F917F916F915F914F9166
S11316C03F912F911F910F91FF90EF90DF90CF905A
S11316D0BF90AF909F908F907F906F905F904F904E
S11316E03F902F901F900F900FBE0F90089581E0B0
S11316F008950F920FB6F8940F921F9211242F920F
S11317003F924F925F926F927F928F929F92AF928D
S1131710BF92CF92DF92EF92FF920F931F932F937A
S11317203F934F935F936F937F938F939F93AF9365
S1131730BF93CF93DF93EF93FF93A0912522B091B2
S113174026220DB60D920EB60D920E943418A09169
S11317502522B0912622CD91CDBFDD91DEBFFF9130
S1131760EF91DF91CF91BF91AF919F918F917F9135
S11317706F915F914F913F912F911F910F91FF9026
S1131780EF90DF90CF90BF90AF909F908F907F901D
S11317906F905F904F903F902F901F900F900FBECF
S11317A00F90089580912008909121088C599F4FA3
S11317B080932808909329082091280830912908BB
S11317C080912608909127082817390770F02091F6
S11317D02608309127088091280890912908821BB7
S11317E0930B809328089093290808950F920FB6BD
S11317F0F8940F921F9211242F923F924F925F926E
S11318006F927F928F929F92AF92BF92CF92DF920C
S1131810EF92FF920F931F932F933F934F935F93F6
S11318206F937F938F939F93AF93BF93CF93DF93E4
S1131830EF93FF93A0912522B09126220DB60D922D
S11318400EB60D92209126083091270880915922D6
S113185090915A22A0915B22B0915C22820F931F37
S1131860A11DB11D8093592290935A22A0935B220B
S1131870B0935C220E9450160E943418A091252235
S1131880B0912622CD91CDBFDD91DEBFFF91EF91C6
S1131890DF91CF91BF91AF919F918F917F916F9184
S11318A05F914F913F912F911F910F91FF90EF9076
S11318B0DF90CF90BF90AF909F908F907F906F906C
S11318C05F904F903F902F901F900F900FBE0F90FE
S11318D0189508950F920FB6F8940F921F92112441
S11318E02F923F924F925F926F927F928F929F922C
S11318F0AF92BF92CF92DF92EF92FF920F931F931A
S11319002F933F934F935F936F937F938F939F9303
S1131910AF93BF93CF93DF93EF93FF93A0912522CF
S1131920B09126220DB60D920EB60D928FEF9FEF59
S113193080932808909329080E943418A0912522A6
S1131940B0912622CD91CDBFDD91DEBFFF91EF9105
S1131950DF91CF91BF91AF919F918F917F916F91C3
S11319605F914F913F912F911F910F91FF90EF90B5
S1131970DF90CF90BF90AF909F908F907F906F90AB
S11319805F904F903F902F901F900F900FBE0F903D
S113199018950F931F93CF93DF93EC01042F1A8DA7
S11319A04C8D41110DC088819981892B09F443C064
S11319B01F5F80E01A8FDF91CF911F910F910895DF
S11319C050E0011115C08A819B810E946C2A2C8DE4
S11319D08A819B81820F911D8A839B832C813D8107
S11319E08217930728F3888199818A839B83E0CFA8
S11319F08E819F810E946C2A8C8D90E091958195B7
S1131A0091092E813F81280F391F2E833F834881FE
S1131A1059812417350730F42C813D81820F931F9F
S1131A208E839F83023021F6112311F080E0C2CF10
S1131A3011E080E0BFCF8C819D810E948E191C82B1
S1131A401D821F5FB7CFFC01CB01448D442391F06D
S1131A5050E066817781640F751F668377832481E4
S1131A6035816217730720F0608171816683778303
S1131A700C946C2A0895EF92FF920F931F93CF93C7
S1131A808C010FB6F8940F92FC01C68D1C16C4F499
S1131A90FC0181898823A1F07801F1E1EF0EF11CAA
S1131AA006C0C15069F0F8018189882349F0C70153
S1131AB00E945E188823A9F30E941719C15099F750
S1131AC08FEFF801868F0F900FBE0FB6F8940F9228
S1131AD0C58D1C16C4F4F80180858823A1F0780113
S1131AE0F8E0EF0EF11C06C0C15069F0F8018085E2
S1131AF0882349F0C7010E945E188823A9F30E9435
S1131B001719C15099F78FEFF801858F0F900FBE09
S1131B10CF911F910F91FF90EF9008951F93CF9352
S1131B20DF93EC01162F892B09F43EC00FB6F8940D
S1131B300F92488159818B8D6C8D9A01869F200D5F
S1131B40311D11242C833D831A8E4A835B8390E0DC
S1131B500197689F9001699F300D1124CA01820F7B
S1131B60931F8E839F838FEF8D8F8E8F111113C0E0
S1131B708885811107C00F900FBE81E0DF91CF915E
S1131B801F910895CE0108960E945E18882399F348
S1131B900E94790BF0CFCE0108960E94440ACE0130
S1131BA041960E94440AE7CF63E071E08AE790E23D
S1131BB00E94B01ABBCFFF920F931F93CF93DF9372
S1131BC0182F062FF42E882399F10023D1F0109FAB
S1131BD0C001112481960E947A09EC01009751F00A
S1131BE08196888399831B8F0C8F61E0CE010E94BC
S1131BF08E0DF8A2CE01DF91CF911F910F91FF902E
S1131C00089581E290E00E947A09EC01892B91F316
S1131C10C883D9831B8F0C8F61E0CE010E948E0D87
S1131C20F8A2CE01DF91CF911F910F91FF900895FB
S1131C3066E771E08AE790E20E94B01AC6CFBF92CD
S1131C40CF92DF92EF92FF920F931F93CF93DF9384
S1131C50CDB7DEB72597CDBFDEBF8C016B014C83BA
S1131C605D83B22E892B09F4B2C0C114D10409F4E6
S1131C70A2C0F2E0BF1609F47DC0F801838D20E014
S1131C807801F8E0EF0EF11C10C06C817D81C70172
S1131C900E943E18C8010E943B0D0E942A17882307
S1131CA009F44AC0F801838D21E00FB6F8940F922D
S1131CB0F801928D981708F442C0F2E0BF1609F4B7
S1131CC03EC08C819D81892B09F460C0222359F187
S1131CD00F900FBE0E9440160FB6F8940F92F801B1
S1131CE0858D8F3F39F1F801868D8F3F09F10F9073
S1131CF00FBEBE016C5F7F4FCE0101960E94C018DB
S1131D00811148C00FB6F8940F92F801928D0F908C
S1131D100FBE838D981709F4B8CFC8010E943B0DFC
S1131D200E942A17BFCFCE0101960E94B518D0CFCA
S1131D30168EDDCF158ED7CF0E94790BB3CF4B2DE6
S1131D40B601C8010E94C90CF801918991112CC0F7
S1131D50811127C00F900FBE81E02596CDBFDEBF55
S1131D60DF91CF911F910F91FF90EF90DF90CF9073
S1131D70BF900895F801838D813009F480CF63EF1B
S1131D8072E08AE790E20E94B01A77CF0F900FBEFC
S1131D9080E0E3CFC8010E943B0D0E942A1780E037
S1131DA0DCCF0E94790BD6CFC80141960E945E1801
S1131DB0882381F2F6CFF801848D882309F459CF62
S1131DC062EF72E08AE790E20E94B01A52CF61EFAC
S1131DD072E08AE790E20E94B01A47CFCF93DF9374
S1131DE0482F60E081E00E94DB0DEC01009761F078
S1131DF01C821D82188219821E8220E040E050E07D
S1131E0060E070E00E941F0ECE01DF91CF91089533
S1131E10CF92DF92EF92FF920F931F93CF93DF93B2
S1131E20EC018B016A01F22E892B09F445C00115DE
S1131E301105C1F182E0F81671F09A8D8B8D981717
S1131E40A0F080E0DF91CF911F910F91FF90EF9070
S1131E50DF90CF9008958B8D813031F065EC73E085
S1131E608AE790E20E94B01A8A8DEE8C4F2DB80159
S1131E70CE010E94C90CEFEFEE1621F0E394EE8E32
S1131E8081E0E0CF89898823D9F3CE0141960E946D
S1131E905E188823A9F3C114D10491F381E0F601FB
S1131EA08083D0CF8C8D882329F264EC73E08AE799
S1131EB090E20E94B01ABECF63EC73E08AE790E22E
S1131EC00E94B01AB4CF0F931F93CF93DF93EC010A
S1131ED08B01892B09F443C08C8D81111BC088812F
S1131EE09981892B09F18A8D9B8D891768F49E8DC0
S1131EF08F5F8A8F9F3F19F19F5F9E8F81E0DF91F3
S1131F00CF911F910F91089580E0DF91CF911F91A0
S1131F100F91089564E674E08AE790E20E94B01A93
S1131F2088819981892BF9F68C819D81892BD9F23D
S1131F3069E674E08AE790E20E94B01AD4CF8989F6
S1131F408823E1F2CE0141960E945E188823B1F203
S1131F500115110599F281E0F8018083D0CF60E684
S1131F6074E08AE790E20E94B01AB6CFAF92BF92B3
S1131F70CF92DF92FF920F931F93CF93DF93CDB74E
S1131F80DEB72597CDBFDEBF8C015B014C835D833B
S1131F90892B09F4A1C0A114B10409F491C020E073
S1131FA06801F1E1CF0ED11C0FB6F8940F92F8013D
S1131FB0F28CF1106AC08C819D81892B09F473C065
S1131FC0222309F459C00F900FBE0E9440160FB689
S1131FD0F8940F92F801858D8F3F09F454C0F801ED
S1131FE0868D8F3F09F44DC00F900FBEBE016C5F0C
S1131FF07F4FCE0101960E94C018811122C00FB6F6
S1132000F8940F92F801828D0F900FBE811112C0C7
S11320106C817D81C6010E943E18C8010E943B0D5F
S11320200E942A17882311F021E0BECF0E94790B69
S113203021E0BACFC8010E943B0D0E942A1721E07B
S1132040B3CFC8010E943B0D0E942A170FB6F89423
S11320500F92F801828D0F900FBE8111E5CF259666
S1132060CDBFDEBFDF91CF911F910F91FF90DF9025
S1132070CF90BF90AF900895CE0101960E94B518FD
S1132080A2CF168EB1CF158EAACFB501C8010E947A
S1132090230DFA94F801F28E8085811108C00F9007
S11320A00FBE81E0DCCF0F900FBE80E0D8CFC80117
S11320B008960E945E18882391F30E94790BEFCF53
S11320C0F801848D882309F46ACF64E075E08AE717
S11320D090E20E94B01A63CF60E075E08AE790E274
S11320E00E94B01A58CFDF92EF92FF920F931F9382
S11320F0CF93DF93CDB7DEB72597CDBFDEBF8C017D
S11321006C837D83892B09F4D0C0D8015C968C91B3
S11321108111BBC0D12C20E07801B1E1EB0EF11CA0
S11321200FB6F8940F92F801828D811189C08C81C9
S11321309D81892B09F49DC0222309F45FC00F906F
S11321400FBE0E9440160FB6F8940F92D8015D9608
S11321508C915D978F3F09F456C0F801868D8F3FAF
S113216009F458C00F900FBEBE016C5F7F4FCE01C3
S113217001960E94C018811123C00FB6F8940F92E3
S1132180D8015A968C915A970F900FBE811144C072
S1132190F80180819181892B09F445C06C817D818E
S11321A0C7010E943E18C8010E943B0D0E942A17D5
S11321B0882311F021E0B4CF0E94790B21E0B0CF45
S11321C0C8010E943B0D0E942A170FB6F8940F9283
S11321D0F801828D0F900FBE8111ECCFDD2009F440
S11321E072C00FB6F8940F928189811165C060E0C6
S11321F0F801848195810E94E51943C0CE010196BE
S11322000E94B5189CCF5D961C92F801868D8F3F75
S113221009F0A8CF168EA6CFC8010E943B0D0E94DC
S11322202A1721E07DCF0FB6F8940F9214968D9162
S11322309C9115970E941B19D82E0F900FBEAECFFC
S11322408150828F80819181892B09F43EC0F801ED
S11322508085811121C00F900FBE81E02596CDBFEE
S1132260DEBFDF91CF911F910F91FF90EF90DF9030
S11322700895DD2031F061EE75E08AE790E20E9476
S1132280B01A0F900FBE80E0E9CF65E975E08AE7E8
S113229090E20E94B01A3ECFC80108960E945E18D0
S11322A08823C9F20E94790BD6CF61E975E08AE7E9
S11322B090E20E94B01A29CF0688F789E02D808128
S11322C06AE0681B95CF80E0C9CF0E94541AD801F8
S11322D014968D939C931597BACFCF92DF92EF9279
S11322E0FF920F931F93CF93DF93CDB7DEB725975C
S11322F0CDBFDEBF8C016B014C835D83892B09F458
S1132300A2C0C114D10409F492C020E07801F1E123
S1132310EF0EF11C0FB6F8940F92F801828D811123
S113232069C08C819D81892B09F474C0222309F42E
S113233058C00F900FBE0E9440160FB6F8940F922B
S1132340F801858D8F3F09F453C0F801868D8F3FC6
S113235009F44CC00F900FBEBE016C5F7F4FCE01DD
S113236001960E94C018811122C00FB6F8940F92F2
S1132370F801828D0F900FBE811112C06C817D8196
S1132380C7010E943E18C8010E943B0D0E942A17F3
S1132390882311F021E0BECF0E94790B21E0BACF4F
S11323A0C8010E943B0D0E942A1721E0B3CFC80147
S11323B00E943B0D0E942A170FB6F8940F92F80161
S11323C0828D0F900FBE8111E5CF2596CDBFDEBF64
S11323D0DF91CF911F910F91FF90EF90DF90CF90FD
S11323E00895CE0101960E94B518A3CF168EB2CFE0
S11323F0158EABCFE680F780B601C8010E94230D8D
S1132400F801E682F7828189811108C00F900FBE1E
S113241081E0DBCF0F900FBE80E0D7CFC80141969B
S11324200E945E18882391F30E94790BEFCFF80184
S1132430848D882309F469CF6CE676E08AE790E21C
S11324400E94B01A62CF68E676E08AE790E20E94C2
S1132450B01A57CFCF92DF92EF92FF920F931F9350
S1132460CF93DF93EC017B016A01892BB9F1E1146D
S1132470F104D1F01A8D11110AC080E0DF91CF91DF
S11324801F910F91FF90EF90DF90CF9008950D8DE5
S1132490B701CE010E94230D11501A8F0F3F71F026
S11324A00F5F0D8F81E0EACF8C8D882319F36CEFD9
S11324B076E08AE790E20E94B01ADCCF8885882310
S11324C089F3CE0108960E945E18882359F3C1143B
S11324D0D10441F381E0F6018083D0CF6BEF76E045
S11324E08AE790E20E94B01AC2CFCF93DF93EC0147
S11324F0892B49F00FB6F8940F928A8D0F900FBE76
S1132500DF91CF9108956AE877E08AE790E20E942C
S1132510B01AF0CF20C00FB6F8940F92E091A82122
S1132520F091A921C681D781CE0102960E94A80A02
S1132530809198218150809398218091A22181508B
S11325408093A2210F900FBE8F89988D0E94190A43
S1132550CE010E94190A8091A2218111DCCF8091C1
S1132560CB21823010F00E94790B0E94661AF3CFBF
S1132570E091B721F091B8210580F681E02D068025
S1132580F781E02D8281938180938E2190938F2116
S11325900895CF93DF93EC01892B99F08A859B856D
S11325A08959914221F080E0DF91CF9108952C89DF
S11325B03D8981E22C3A3807B1F381E0232B99F766
S11325C0F3CF62EF76E08EE890E20E94B01AE6CF95
S11325D0FF920F931F93CF93DF93EC01F62E00919C
S11325E0962110919721809125229091262202967E
S11325F00E94A80ACF3F8FEFD807A9F1C00FD11FBF
S1132600E0912522F0912622C283D3836091252272
S113261070912622C017D107C8F08091B7219091FC
S1132620B8216E5F7F4F0E94770A80918E2190912E
S11326308F21C817D90720F4C0938E21D0938F21FE
S1132640DF91CF911F910F91FF9008958091B52153
S11326509091B6216E5F7F4FDF91CF911F910F91C3
S1132660FF900C94770AFF2049F260912522709123
S113267026226E5F7F4F89E991E2DF91CF911F910E
S11326800F91FF900C94560A0F931F93CF931092BF
S11326909221209120083091210880915922909113
S11326A05A22A0915B22B0915C22820F931FA11D3C
S11326B0B11D0091872110918821209189213091A9
S11326C08A21081719072A073B07A0F4E09125225D
S11326D0F091262247A150A561A572A5401B510B7C
S11326E0620B730B480F591F6A1F7B1F47A350A728
S11326F061A772A78093872190938821A093892151
S1132700B0938A21E0912522F09126220788F08D4A
S1132710E02D80819181A281B381853A954AA54AB1
S1132720B54A09F44CC0609125227091262280910B
S1132730252290912622675E7F4F0E94861AC091BF
S113274095218C2F90E09C01220F331F220F331F01
S1132750220F331FF901E80FF91FE553FE4D4081A5
S113276041110CC0CC2311F0C150EBCF6CE87BE0DD
S11327708EE890E20E94B01AC150E3CF820F931FFB
S1132780DC01A553BE4D1196ED91FC911297028088
S1132790F381E02D1196ED93FC93129782539E4D95
S11327A0E817F90759F18681978180932522909340
S11327B02622C0939521CF911F910F910895848172
S11327C09581A681B781853A954AA54AB54A09F00B
S11327D0AACF80859185A285B385853A954AA54A75
S11327E0B54A09F0A0CF84859585A685B785853A35
S11327F0954AA54AB54A09F096CFA1CF0280F38144
S1132800E02D1196ED93FC931297CDCF5F926F92CA
S11328107F928F929F92AF92BF92CF92DF92EF926C
S1132820FF920F931F93CF93DF934C01EB015A0157
S11328303901502ECA010E947A098C01892B09F4AE
S1132840DEC080E390E00E947A096C01009709F4ED
S1132850D3C0DC0157960D931C935897209709F425
S1132860D0C0C801A50165EA70E00E94752AF1E0B4
S1132870AF1AB108D60157968D919C915897A80E1E
S1132880B91EF60179969E01285F3F4FDE018991BA
S113289081938C91882319F0C217D307B9F7F601F5
S11328A010A2052D0A3008F0A1C0D60156960C934B
S11328B0569793960C93939794961C92E6012296BE
S11328C0CE010E94520AC6010C960E94520AF601D9
S11328D0C086D1868AE090E0801B91098487958721
S11328E0C28AD38A15A216A217A210A611A612A6EE
S11328F013A614A615A616A617A6A301B401C5010E
S11329000E94CE0AD6018D939C93E114F10419F030
S1132910F701C082D1820FB6F8940F92809198216A
S11329208F5F809398218091252290912622892B74
S113293099F080919421811118C0E0912522F091A1
S11329402622D60156968C919689891788F0C092D2
S11329502522D09226220CC0C0922522D092262273
S113296080919821813009F456C0D60156968C91F5
S1132970909190219F5F90939021F60191A3909163
S11329809521981780F190E09C01220F331F220FAC
S1132990331F220F331F820F931FBE0185539E4D99
S11329A00E94560A0F900FBE80919421882351F003
S11329B0E0912522F09126229689D60156968C9193
S11329C09817B0F081E0DF91CF911F910F91FF90A4
S11329D0EF90DF90CF90BF90AF909F908F907F90BB
S11329E06F905F90089580939521CDCF09E05DCFDE
S11329F00E94790B81E0E7CFC8010E94190A8FEF8A
S1132A00E2CF60E673E08EE890E20E94B01AF6012D
S1132A108789908D27CF0BEC11E255E2E52E52E227
S1132A20F52EC8010E94440A075F1F4FE016F10605
S1132A30C1F782EC91E20E94440A89EB91E20E9480
S1132A40440A8CEA91E20E94440A83EA91E20E94D9
S1132A50440A89E991E20E94440A82EC91E280935B
S1132A60B7219093B82189EB91E28093B52190939B
S1132A70B621F60186897CCF0F931F93CF93DF9302
S1132A80EC010FB6F8940F92892B09F462C08E0101
S1132A900E5F1F4FC8010E94A80A8C899D89892B4B
S1132AA021F0CE010C960E94A80AB80189E991E2AE
S1132AB00E94560A8FA5813021F10F900FBE80919C
S1132AC09421882391F00FB6F8940F92E091B721E6
S1132AD0F091B821808181112BC08FEF9FEF8093FB
S1132AE08E2190938F210F900FBE8091252290917B
S1132AF02622C817D90739F0DF91CF911F910F9182
S1132B0008951FA6DACF809194218823A1F08091A3
S1132B108B21882331F068EC76E08EE890E20E9405
S1132B20B01A0E94790BDF91CF911F910F910895F4
S1132B300E94B812D8CF909199218091982198172A
S1132B4099F080918B21882349F081E08093922130
S1132B50D3CFC0912522D091262299CFDF91CF9156
S1132B601F910F910C944413109225221092262247
S1132B70C3CF0F931F93CF93DF93EC01892B09F4F9
S1132B803DC08091252290912622C817D90751F083
S1132B900FB6F8940F92CE010E94C912811107C09A
S1132BA00F900FBEDF91CF911F910F9108958E0169
S1132BB00E5F1F4FC8010E94A80A8E89909195212B
S1132BC0981710F48093952190E09C01220F331FF5
S1132BD0220F331F220F331F820F931FB801855317
S1132BE09E4D0E94560AE0912522F09126229E894C
S1132BF086899817A8F20E94790BD2CF6CE177E00E
S1132C008EE890E20E94B01A8091252290912622AB
S1132C10C9CFEF92FF920F938CE8E82E81E2F82E51
S1132C2000E020E030E040E051E062EA70E28AE84F
S1132C3092E10E940614813079F08F3F21F00F91C8
S1132C40FF90EF90089567E078E08EE890E20F91AE
S1132C50FF90EF900C94B01AF8942FEF3FEF20936D
S1132C608E2130938F21809394211092962110927B
S1132C7097210E94690C0F91FF90EF900C943C0BEC
S1132C8080918B218F5F80938B2108950FB6F894E8
S1132C900F9280919621909197210F900FBE0895E5
S1132CA0DF92EF92FF920F931F93CF93DF93809164
S1132CB08B218111B9C0E0909621F09097218FEF7C
S1132CC0E81AF80AE0929621F0929721E114F104AF
S1132CD049F5E091B721F091B82180818111ABC011
S1132CE08091B7219091B8212091B5213091B621DE
S1132CF02093B7213093B8218093B5219093B621C6
S1132D00809191218F5F80939121E091B721F0917F
S1132D10B8218081811196C08FEF9FEF80938E211F
S1132D2090938F2180918E2190918F21D12CE81640
S1132D30F90608F453C0E091B721F091B8218081DD
S1132D40882309F445C0E091B721F091B8210580AA
S1132D50F681E02DC681D7818A819B81E816F90628
S1132D6008F473C08E010E5F1F4FC8010E94A80AA9
S1132D708C899D89892B21F0CE010C960E94A80A8A
S1132D808E8990919521981710F48093952190E065
S1132D909C01220F331F220F331F220F331F820F78
S1132DA0931FB80185539E4D0E94560AE091252237
S1132DB0F09126229E898689981708F4BCCFDD24D9
S1132DC0D394E091B721F091B82180818111BBCFD8
S1132DD08FEF9FEF80938E2190938F21E091252296
S1132DE0F0912622868990E0FC01EE0FFF1FEE0F82
S1132DF0FF1FEE0FFF1F8E0F9F1FFC01E553FE4DBB
S1132E008081823010F0DD24D39480919221882334
S1132E1011F0DD24D3948D2DDF91CF911F910F916B
S1132E20FF90EF90DF900895809193218F5F8093BE
S1132E309321D12CEACF66E67AE08EE890E20E94F4
S1132E40B01A4ECF0E94B8126DCF80938E2190930A
S1132E508F21C4CFFF920F931F93CF93DF93809161
S1132E608B21882309F477C00FB6F8940F928091D0
S1132E708B21815080938B2180918B21811162C0A1
S1132E8080919821882309F45DC0C0E0D0E0FF243C
S1132E90F3948091AC218823A1F1E091B121F091C8
S1132EA0B221C681D781CE010C960E94A80A8E0158
S1132EB00E5F1F4FC8010E94A80A8E899091952128
S1132EC0981710F48093952190E09C01220F331FF2
S1132ED0220F331F220F331F820F931FB801855314
S1132EE09E4D0E94560AE0912522F09126229E8949
S1132EF08689981770F2F09292218091AC21811109
S1132F00CCCFCD2B69F0E091B721F091B82180812D
S1132F1081112CC08FEF9FEF80938E2190938F218E
S1132F20C0919321CC2351F0D1E00E94501681111D
S1132F30D0939221C150C9F710929321809192218C
S1132F40811110C080E00F900FBEDF91CF911F91CF
S1132F500F91FF9008956CE678E08EE890E20E946D
S1132F60B01A82CF0E94790B81E0EDCF0E94B81293
S1132F70D7CF0F931F93CF93DF938C01EB01892B52
S1132F8009F446C02097E9F180918B21811132C068
S1132F9080918B218F5F80938B214091962150915A
S1132FA09721F80120813181CE01820F931F4217AE
S1132FB0530788F48217930788F0F801808391837C
S1132FC00E942A17811102C00E94790BDF91CF91D0
S1132FD01F910F9108958217930718F04817590706
S1132FE060F7F8018083918360E0841B950B0E9455
S1132FF0E812E6CF6CEC74E08EE890E20E94B01A1E
S1133000C7CF6BEC74E08EE890E20E94B01ABCCF9C
S11330106AEC74E08EE890E20E94B01AB3CFCF93CA
S1133020DF93EC01892B29F40E94790BDF91CF9176
S1133030089580918B21811110C080918B218F5F25
S113304080938B2160E0CE010E94E8120E942A172F
S1133050882351F3DF91CF91089560E275E08EE803
S113306090E20E94B01AE9CF80918B21811102C0B5
S11330700C94441381E08093922108950F931F933D
S1133080CF93DF93EC018B01892B89F0609125228A
S113309070912622645F7F4FCE010E94770A61E01F
S11330A0C801DF91CF911F910F910C94E81263EA4C
S11330B07BE08EE890E20E94B01AE8CF0F931F9352
S11330C0CF93DF93DC011596ED91FC911697C681A1
S11330D0D781209709F442C08E01045F1F4FC801B5
S11330E00E94A80A80918B21811129C00A501109DC
S11330F0C8010E94A80A8E8990919521981728F1F9
S113310090E09C01220F331F220F331F220F331F25
S1133110820F931FB80185539E4D0E94560AE09179
S11331202522F09126229E898689891788F481E0D8
S113313080939221DF91CF911F910F910895B8014F
S11331408CEA91E20E94560AEACF80939521D8CF67
S113315080E0DF91CF911F910F9108956EEF7BE096
S11331608EE890E20E94B01AB7CF20919121FC0121
S113317020832091962130919721218332830895D1
S11331800F931F93CF93DF93EC018B01892B09F4E9
S113319040C00115110509F443C00FB6F8940F920D
S11331A08091962190919721F801208131812F3FC0
S11331B0FFEF3F0761F149815A8160919121788144
S11331C0761719F08417950780F4841B950B8217E2
S11331D0930768F0F8011082118281E00F900FBE0E
S11331E0DF91CF911F910F91089581E0F7CF281BB4
S11331F0390BF80120833183809191218883809158
S113320096219091972189839A8380E0E7CF80E08B
S1133210E5CF69E67CE08EE890E20E94B01AB9CF6F
S11332206AE67CE08EE890E20E94B01AB6CF81E0B4
S11332308093922108950F931F93CF93DF93FC0102
S1133240892B09F441C02689A0912522B091262218
S113325056968C91281770F58485958597FD0CC03A
S1133260A0912522B091262256963C918AE090E0C6
S1133270831B91098487958730E0C901880F991FC2
S1133280880F991F880F991F280F391F25533E4D0A
S11332908285938582179307E9F0A0912522B09146
S11332A0262256968C91868B81E0DF91CF911F91D7
S11332B00F910895A0912522B091262281E023A1A7
S11332C056969C91291788F380E0DF91CF911F9146
S11332D00F9108958F01EF012296CE010E94A80A52
S11332E0E0912522F09126228689F801868B90911F
S11332F09521981710F48093952190E09C01220F5A
S1133300331F220F331F220F331F820F931FBE015F
S113331085539E4D0E94560A81E0C7CF0F931F9399
S1133320CF93DF930097C9F0EC018091252290910F
S11333302622C817D90731F06EE77FE08EE890E2C5
S11333400E94B01A8CA18823C1F181508CA32E89CC
S11333509BA1291711F0882331F080E0DF91CF91F0
S11333601F910F9108958E010E5F1F4FC8010E9497
S1133370A80A2BA12E8B822F90E04AE050E0481B34
S1133380590B4C875D8730919521321710F42093A7
S113339095219C01220F331F220F331F220F331F4D
S11333A0820F931FB80185539E4D0E94560A81E0F7
S11333B0DF91CF911F910F9108956FE77FE08EE821
S11333C090E20E94B01A8CA1C0CF0F931F93CF93A9
S11333D0DF93009779F0162FEC018CA1882309F470
S11333E054C00BA1011758F08E89801719F09CA1C5
S11333F0913039F0DF91CF911F910F910895012FF2
S1133400F3CF2091252230912622C217D30709F445
S113341043C00E8B2C853D8537FD06C02AE030E085
S1133420201B31092C873D8790E09C01220F331F1C
S1133430220F331F220F331F820F931F85539E4D7C
S11334402A853B8528173907A9F68E010E5F1F4F81
S1133450C8010E94A80A8E8990919521981710F4AA
S11334608093952190E09C01220F331F220F331F7C
S1133470220F331F820F931FB80185539E4DDF9196
S1133480CF911F910F910C94560A6DEC7FE08EE85A
S113349090E20E94B01AA5CF68EE7FE08EE890E239
S11334A00E94B01A8E89B5CF809125229091262250
S11334B0892B39F0E0912522F091262284A18F5F97
S11334C084A3809125229091262208950895F8944A
S11334D081ED90E20E940B0380E8809301068093C3
S11334E005062FEF33EC99E0215030409040E1F78E
S11334F000C00000809306062FEF33EC99E02150C2
S113350030409040E1F700C00000E9CFEB01F894AF
S113351080E88093010683EF90E20E940B036AE047
S113352070E0CE010E942A038EEC90E20E940B030D
S113353080E8809305062FEF33ED90E3215030406F
S11335409040E1F700C00000809306062FEF33EDB2
S113355090E3215030409040E1F700C00000E9CFF3
S11335608C01EB01F89480E8809301068BE091E2F2
S11335700E940B0364E670E0C8010E942A038BE1F9
S113358091E20E940B03CE010E944F038EEC90E265
S11335900E940B0380E8809305062FEF33EC99E03B
S11335A0215030409040E1F700C0000080930606AF
S11335B02FEF33ED90E3215030409040E1F700C00D
S11335C00000E9CF0E94D60680E090E40E946828BB
S11335D080935D2290935E22892B59F087E080933B
S11335E0A20078940E943F220E94091680E090E095
S11335F00895FFCFCF93DF93CDB7DEB72A97CDBF22
S1133600DEBF87E00E94BB030E94461689879A8723
S113361064E080E00E94DF0189839A8364E081E0B2
S11336200E94DF018B839C8364E082E00E94DF01BF
S11336308D839E8364E083E00E94DF018F839887FB
S113364022E040E050E0BE016F5F7F4F80915F2237
S1133650909160220E941F0E6AE070E0CE010996EC
S11336600E94B917D5CFEF92FF920F9340E068E024
S113367081E00E94DB0D80935F2290936022E12C15
S1133680F12C02E020E030E040E052E066E271E23A
S11336908AEF9AE10E9406140F91FF90EF9008952B
S11336A0CF93DF93CDB7DEB76097CDBFDEBF4FEFCB
S11336B05FEFBE01675F7F4F80915F229091602230
S11336C00E946D1188E0FE013996DE011196019089
S11336D00D928A95E1F729813A814B815C816D8154
S11336E07E818F8198856096CDBFDEBFDF91CF91BB
S11336F00895CF93DF93CDB7DEB72A97CDBFDEBF52
S11337001BC0C501B4010E9437238B0120E030E0C7
S1133710A901C701B6010E94C02287FD49C0C701A3
S1133720B6010E943723C8010E940C046AE070E0CD
S1133730CE0109960E94B9170E94461689879A8776
S11337400E94501B29833A836D837E8369817A8129
S11337508D819E81681B790B072E000C880B990BB9
S11337600E946F232DEC3CEC4CE45EE30E94242485
S11337706B017C0120E030E048E455E40E945422CF
S11337804B015C01A701960160E070E088E495E4D8
S11337900E9453226B017C0120E030E0A901C501A5
S11337A0B4010E94C02287FFACCF00E010E0AECF8E
S11337B060E070E0B8CFEF92FF920F9387E2E82EBB
S11337C082E2F82E03E020E030E040E051E06AE2DB
S11337D071E289E79BE10E9406140F91FF90EF903C
S11337E00895CF93DF93CDB7DEB72A97CDBFDEBF61
S11337F06FEF7FEF80912B2290912C220E94731007
S11338008091312290913222A0913322B0913422BE
S113381080932D2290932E22A0932F22B0933022B6
S11338200E94461689879A8718C0C501B4010E9470
S11338303723C7010E945B2160E070E08091292258
S113384090912A220E947310813009F455C06AE0D5
S113385070E0CE0109960E94B9170E94501B29837B
S11338603A836D837E8369817A818D819E81681B11
S1133870790B64567109072E000C880B990B0E9472
S11338806F232DEC3CEC4CEC5DE30E9424244B01B3
S11338905C01C0902D22D0902E22E0902F22F09037
S11338A03022A70196010E9454222B013C01A5015C
S11338B09401C701B6010E9453224B015C0120E030
S11338C030E0A901C301B2010E94C02287FF0EC0EB
S11338D0E12CF12C20E030E0A901C501B4010E94E3
S11338E0C02287FFA2CF60E070E0A3CFC301B20182
S11338F00E9437237B01EECF60E070E080E090E02F
S11339000E945B2175CFEF92FF920F9343E060E03A
S113391081E00E94DB0D80932B2290932C2243E0C4
S113392060E081E00E94DB0D8093292290932A229B
S1133930E12CF12C02E020E030E040E052E063E3CF
S113394071E281EF9BE10E9406140F91FF90EF90CA
S1133950089560933122709332228093332290939E
S1133960342220E040E050E060E070E080912B22BF
S113397090912C220C941F0E20E040E050E060E077
S113398070E08091292290912A220C941F0ECF93EB
S1133990DF93CDB7DEB76797CDBFDEBF0FC08230F0
S11339A009F4AEC0833009F4FAC0809137229091B3
S11339B038220E947512882309F496C04FEF5FEFF6
S11339C0BE016F5F7F4F80913722909138220E9411
S11339D0B60F8981813019F74E805F8068847984BD
S11339E08A809B80AC80BD800E9446168A879B8714
S11339F00E947C200E9449210E9477046B017C0173
S1133A0020E030E0A901C501B4010E941F242DEC7F
S1133A103CE44FE453E418160CF050C1C501B40162
S1133A200E94C52220E030E044EB53E40E942424A9
S1133A3020E030E040E450E40E94C5226C8B7D8B92
S1133A408E8B9F8BB601DD0C880B990B0E946F2324
S1133A509B01AC016C897D898E899F890E945422C7
S1133A600E9437238B012DEC3CE44FE453E4C30163
S1133A70B2010E94C52220E030E044EB53E40E94EE
S1133A80242420E030E040E450E40E94C5220E9457
S1133A903723DC01CB01BC010E945B2109C00C155A
S1133AA01D05B4F06AE070E0CE010A960E94B917D1
S1133AB00E9477046B017C0120E030E0A901C5017C
S1133AC0B4010E941F24181654F3C016D10654F7EB
S1133AD00E9495200E94552180913722909138228E
S1133AE00E94751281116ACF20E040E050E060E04E
S1133AF070E080913522909136220E941F0E5ECF95
S1133B00CA80DB80EC80FD800E9446168A8B9B8BEA
S1133B100E947C200E9449210E9477042DEC3CE401
S1133B204FE453E4C701B6010E94C52220E030E00F
S1133B3044EB53E40E94242420E030E040E450E4C9
S1133B400E94C5220E94A91C00E010E00BC00F5F78
S1133B501F4F05311105E4F46AE070E0CE0142968E
S1133B600E94B9170E94501B2A873B874C875D87A8
S1133B706E877F87888B998B2A853B858E859F8569
S1133B80820F931F8A38934114F700E010E0E4CFCA
S1133B900E94BC1C0E9495200E94552106CF4E8095
S1133BA05F80688479848A809B80AC80BD800E9419
S1133BB046168A879B870E947C200E9449210E9486
S1133BC077046B017C0126EC39ED47E75FE3C5011F
S1133BD0B4010E9424244B015C0120E030E0A901DF
S1133BE00E941F2418160CF0ABC0B601DD0C880B24
S1133BF0990B0E946F236B017C012DEC3CE44FE494
S1133C0053E4C501B4010E94C52220E030E044EB36
S1133C1053E40E94242420E030E040E450E40E9475
S1133C20C5229B01AC01C701B6010E9453220E9428
S1133C3037238B012DEC3CE44FE453E4C301B20180
S1133C400E94C52220E030E044EB53E40E94242487
S1133C5020E030E040E450E40E94C5222B013C0106
S1133C600E9437236B017C01C301B20190580E946A
S1133C703723DC01CB01B6010E945B210AC0C016C8
S1133C80D1060CF425CF6AE070E0CE010A960E94BA
S1133C90B9170E9477046B017C0120E030E0A90190
S1133CA0C501B4010E941F2418164CF30C151D0500
S1133CB054F70E9495200E9455210ECFC501B401EE
S1133CC00E94C52220E030E044EB53E40E94242407
S1133CD020E030E040E450E40E94C5226C8B7D8BF0
S1133CE08E8B9F8BB601DD0C880B990B0E946F2382
S1133CF09B01AC016C897D898E899F890E94542225
S1133D000E9437238B012DEC3CE44FE453E4C301C0
S1133D10B2010E94C52220E030E044EB53E40E944B
S1133D20242420E030E040E450E40E94C52290586E
S1133D300E943723DC01CB01BC010E945B21B8CE79
S1133D40B601DD0C880B990B0E946F236B017C017B
S1133D502DEC3CE44FE453E4C501B4010E94C522B8
S1133D6020E030E044EB53E40E94242420E030E0DF
S1133D7040E450E40E94C5229B01AC01C701B60196
S1133D800E9453220E9437238B012DEC3CE44FE424
S1133D9053E4C301B2010E94C52220E030E044EBA9
S1133DA053E40E94242420E030E040E450E40E94E4
S1133DB0C5222B013C0190580E9437236B017C01E2
S1133DC0C301B2010E943723DC01CB01B6010E947A
S1133DD05B215FCFEF92FF920F93E12CF12C03E074
S1133DE020E030E040E051E06BE371E287EC9CE1DD
S1133DF00E94061440E069E081E00E94DB0D80939C
S1133E0037229093382243E060E081E00E94DB0D8A
S1133E1080933522909336220F91FF90EF9008956E
S1133E20CF93DF93CDB7DEB72997CDBFDEBF22E0B6
S1133E3029836A837B838C839D8320E04FEF5FEF2C
S1133E40BE016F5F7F4F80913722909138220E948C
S1133E501F0E6FEF7FEF80913522909136220E94E2
S1133E6073102996CDBFDEBFDF91CF910895CF9314
S1133E70DF93CDB7DEB72C97CDBFDEBF0E944616C9
S1133E808093392290933A2219861A861B861C86BF
S1133E901D821E821F82188677C020E030E0A901AF
S1133EA0C701B6010E94C02287FF0AC020E030E8A3
S1133EB04BEB54E4C701B6010E9453226B017C0111
S1133EC020E030EF4FE755ECC701B6010E94C02255
S1133ED087FFB6C001E010EFC501B4010E946F2353
S1133EE09B01AC0169857A858B859C850E94532250
S1133EF020E030E046E953E40E9424246B017C0175
S1133F0020E030E0A9010E941F24181654F420E098
S1133F1030E84BEB54E4C701B6010E9454226B0114
S1133F207C0120E030EF4FE755E4C701B6010E9461
S1133F301F2418160CF48AC020E030E0A901C70140
S1133F40B6010E94C02287FF0AC020E030E84BEB94
S1133F5054E4C701B6010E9453226B017C0120E0A6
S1133F6030EF4FE755ECC701B6010E94C02287FF2E
S1133F7074C061E070EFC8010E940C046AE070E054
S1133F8089E392E20E94B9170E9477046B017C01D5
S1133F9060E070E080913F22909140220E94731073
S1133FA02601DD0C66087708813009F490C04701CA
S1133FB0FF0CAA08BB0840E050E0BE016F5F7F4FD2
S1133FC080913D2290913E220E94B60F813009F4E7
S1133FD049C0C301B2010E946F239B01AC016D81F2
S1133FE07E818F8198850E94532220E030E046E94B
S1133FF053E40E9424246B017C0120E030E0A901F9
S11340000E941F24181654F420E030E84BEB54E4CB
S1134010C701B6010E9454226B017C0120E030EFFD
S11340204FE755E4C701B6010E941F2418160CF08F
S113403034CFC12C90EFD92E9FE7E92E95E4F92EC9
S1134040C701B6010E9437238B0146CFC12C80EFF4
S1134050D82E8FE7E82E85E4F82EC701B6010E941A
S1134060372389CF69817A81072E000C880B990B3D
S11340700E946F2320E030E048EC52E40E94C52205
S11340809B01AC016D817E818F8198850E945422B1
S11340906D837E838F8398876B817C81072E000CD0
S11340A0880B990B0E946F2320E030E048EC52E427
S11340B00E94C5229B01AC0169857A858B859C850C
S11340C00E94542269877A878B879C8782CFC30199
S11340D0B2010E946F236D837E838F83988747018B
S11340E0FF0CAA08BB08C501B4010E946F236987AD
S11340F07A878B879C875FCF0E94B40620E040E0DC
S113410050E060E070E080913F22909140220E9454
S11341101F0E0E9446168093392290933A22809172
S11341203B2290913C220C94B91580913B229091B2
S11341303C220E943C1560E070E080E090E00C942A
S11341400C04EF92FF920F930E94DB038BE3E82EA3
S113415082E2F82E03E020E030E040E051E062E447
S113416071E287E39FE10E9406140E94952040E0DB
S113417064E081E00E94DB0D80933D2290933E2217
S113418043E060E081E00E94DB0D80933F22909346
S11341904022009751F020E040E050E060E070E001
S11341A00F91FF90EF900C941F0E0F91FF90EF90E2
S11341B00895CF93DF9300D01F92CDB7DEB78983E4
S11341C09A836B837C8320E04FEF5FEFBE016F5FC8
S11341D07F4F80913D2290913E220E941F0E249693
S11341E0CDBFDEBFDF91CF910895CF93DF9300D091
S11341F01F92CDB7DEB70E9446168093412290935A
S113420042224FEF5FEFBE016F5F7F4F80914522E7
S1134210909146220E946D116B817C8189819A81E3
S11342200E94D9206AE070E081E492E20E94B9170A
S1134230E8CFEF92FF920F9383E4E82E82E2F82E08
S113424003E020E030E040E051E069E471E285EF12
S113425090E20E94061480914322909144220E948D
S11342603C1540E064E081E00E94DB0D8093452230
S113427090934622E7E4F2E21082118212821382C2
S113428022E040E050E0BF010F91FF90EF900C94CA
S11342901F0E0E94461680934122909342228091E1
S11342A04322909144220C94B91580914322909119
S11342B044220C943C15E7E4F2E280839183628308
S11342C0738322E040E050E0BF0180914522909149
S11342D046220C941F0EC0E5D1E21FE380ED97E067
S11342E00E940F188091A8061F928F93DF93CF939B
S11342F00E94C32A80E090E00E94CC061093A2069C
S11343008091A2008E7F8093A2008AE090E00E94B8
S11343100F188091480081608093480088958091AF
S113432048008E7F809348000F900F900F900F905D
S1134330D5CFEF92FF920F93E0EAF0E08281876895
S113434082837894E8E4F0E08081817F84608083D4
S1134350E0EAF6E080E88283828789E5878BE12CB6
S1134360F12C00E020E030E040E051E06BE571E248
S11343708BE691E20E9406140F91FF90EF9008954E
S11343801F920F920FB60F9211240BB60F922F9318
S11343903F934F935F936F937F938F939F93AF93C9
S11343A0BF93EF93FF9388E00E94CB03E0EAF0E031
S11343B08281876082838FE38093A10681E090E00D
S11343C00E94CC0687E590E29F938F930E94C32AB4
S11343D00F900F90FF91EF91BF91AF919F918F91AB
S11343E07F916F915F914F913F912F910F900BBEF1
S11343F00F900FBE0F901F901895CF93DF93CDB7FA
S1134400DEB72897CDBFDEBF81E00E94CC0681E0F5
S113441090E00E940F180E94BA020E94AD030E940D
S1134420C1080E94C8060E94F1060E94C2060E94AA
S1134430B8010E94720282E390E00E940F1880E2A9
S1134440809301060E94331B0E94A1200E9419211F
S11344500E94831C0E94DB1B0E94EA1E0E94992179
S113446069817A818B819C810E94101F80E090E099
S11344702896CDBFDEBFDF91CF910C943C15EF920F
S1134480FF920F93E12CF12C03E020E030E040E0B8
S113449051E06FE571E28DEF91E20E9406140F91F5
S11344A0FF90EF9008955058BB27AA270E946B22D3
S11344B00C94E5230E94D72338F00E94DE2320F0D9
S11344C039F49F3F19F426F40C94D4230EF4E095A8
S11344D0E7FB0C94CE23E92F0E94F62358F3BA1776
S11344E0620773078407950720F079F4A6F50C9406
S11344F018240EF4E0950B2EBA2FA02D0B01B90150
S113450090010C01CA01A0011124FF27591B99F045
S1134510593F50F4503E68F11A16F040A22F232F51
S1134520342F4427585FF3CF469537952795A795A1
S1134530F0405395C9F77EF41F16BA0B620B730B48
S1134540840BBAF09150A1F0FF0FBB1F661F771FB9
S1134550881FC2F70EC0BA0F621F731F841F48F46E
S1134560879577956795B795F7959E3F08F0B0CFF7
S11345709395880F08F09927EE0F979587950895DE
S11345800E94AA2308F481E008950E94D9220C9481
S1134590E5230E94DE2358F00E94D72340F029F43B
S11345A05F3F29F00C94CE2351110C9419240C94E0
S11345B0D4230E94F62368F39923B1F3552391F38E
S11345C0951B550BBB27AA2762177307840738F07E
S11345D09F5F5F4F220F331F441FAA1FA9F335D0DB
S11345E00E2E3AF0E0E832D091505040E695001C8F
S11345F0CAF72BD0FE2F29D0660F771F881FBB1F49
S1134600261737074807AB07B0E809F0BB0B802D26
S1134610BF01FF2793585F4F3AF09E3F510578F052
S11346200C94CE230C9419245F3FE4F3983ED4F306
S1134630869577956795B795F7959F5FC9F7880F26
S1134640911D9695879597F90895E1E0660F771F78
S1134650881FBB1F621773078407BA0720F0621B09
S1134660730B840BBA0BEE1F88F7E09508950E9434
S11346703E236894B1110C94192408950E94FE23DA
S113468088F09F5798F0B92F9927B751B0F0E1F00F
S1134690660F771F881F991F1AF0BA95C9F714C0BF
S11346A0B13091F00E941824B1E008950C941824BC
S11346B0672F782F8827B85F39F0B93FCCF38695F8
S11346C077956795B395D9F73EF490958095709555
S11346D061957F4F8F4F9F4F0895E89409C097FBD2
S11346E03EF490958095709561957F4F8F4F9F4FC5
S11346F09923A9F0F92F96E9BB279395F695879509
S113470077956795B795F111F8CFFAF4BB0F11F4CB
S113471060FF1BC06F5F7F4F8F4F9F4F16C0882372
S113472011F096E911C0772321F09EE8872F762FA8
S113473005C0662371F096E8862F70E060E02AF0E9
S11347409A95660F771F881FDAF7880F96958795D5
S113475097F90895990F0008550FAA0BE0E8FEEFAA
S113476016161706E807F907C0F012161306E40731
S1134770F50798F0621B730B840B950B39F40A262A
S113478061F0232B242B252B21F408950A2609F408
S1134790A140A6958FEF811D811D089597F99F670C
S11347A080E870E060E008959FEF80EC08950024B5
S11347B00A941616170618060906089500240A9482
S11347C012161306140605060895092E0394000C08
S11347D011F4882352F0BB0F40F4BF2B11F460FF97
S11347E004C06F5F7F4F8F4F9F4F089557FD9058C0
S11347F0440F551F59F05F3F71F04795880F97FBA1
S1134800991F61F09F3F79F087950895121613065A
S11348101406551FF2CF4695F1DF08C01616170689
S11348201806991FF1CF86957105610508940895BE
S1134830E894BB2766277727CB0197F908950E9450
S1134840AA2308F48FEF08950E9437240C94E523DB
S11348500E94D72338F00E94DE2320F0952311F024
S11348600C94CE230C94D42311240C9419240E9468
S1134870F62370F3959FC1F3950F50E0551F629F87
S1134880F001729FBB27F00DB11D639FAA27F00DA5
S1134890B11DAA1F649F6627B00DA11D661F829FCC
S11348A02227B00DA11D621F739FB00DA11D621FB1
S11348B0839FA00D611D221F749F3327A00D611DCE
S11348C0231F849F600D211D822F762F6A2F1124B0
S11348D09F5750409AF0F1F088234AF0EE0FFF1FE3
S11348E0BB1F661F771F881F91505040A9F79E3F3A
S11348F0510580F00C94CE230C9419245F3FE4F30B
S1134900983ED4F3869577956795B795F795E7958F
S11349109F5FC1F7FE2B880F911D9695879597F998
S113492008952F923F924F925F926F927F928F924F
S11349309F92AF92BF92CF92DF92EF92FF920F932A
S11349401F93CF93DF93CDB7DEB76097CDBFDEBFA4
S11349507C011B016A01FC0116821782838181FF9D
S113496044C39E012F5F3F4F3901F7019381F10149
S113497093FD859193FF81911F01882309F431C32D
S1134980853239F493FD859193FF81911F0185321E
S113499039F4B70190E00E94872A56016501E5CFFA
S11349A010E0512C912CFFE1F915D8F08B3279F0FD
S11349B038F4803279F08332A1F4F92DF0612EC0FD
S11349C08D3261F0803369F4292D21602DC0392D99
S11349D03260932E892D8460982E2AC0E92DE860D8
S11349E015C097FC2DC020ED280F2A3088F496FEC0
S11349F006C03AE0139F200D1124122F19C08AE03B
S1134A00589E200D1124522EE92DE0629E2E10C0D6
S1134A108E3231F496FCE5C2F92DF0649F2E08C065
S1134A208C3621F4292D2068922E02C0883641F458
S1134A30F10193FD859193FF81911F018111B3CF02
S1134A409BEB980F933020F4992D9061805E07C002
S1134A509BE9980F933008F066C1992D9F7E96FFCD
S1134A6016E09F73992E853619F49064992E08C028
S1134A70863621F4392F3068932E02C0111111505B
S1134A8097FE07C01C3350F444244394410E27E09E
S1134A900BC0183038F027E017E005C027E09CE38E
S1134AA0492E02C0212F412C560184E0A80EB11CCE
S1134AB0F6016081718182819381042DA3010E949A
S1134AC089296C01F981FC87F0FF02C0F3FF06C05D
S1134AD091FC06C092FE06C000E205C00DE203C0D0
S1134AE00BE201C000E08C858C7019F001115AC2F0
S1134AF09BC297FE10C04C0CFC85F4FF04C08A8155
S1134B00813309F44A94141474F528E0241578F5D3
S1134B1088E0482E2CC096FC2AC0812F90E08C158A
S1134B209D059CF03CEFC3163FEFD30674F0892D2E
S1134B308068982E0AC0E2E0F0E0EC0FFD1FE10F60
S1134B40F11D8081803319F411501111F4CF97FEB7
S1134B500EC044244394410E812F90E0C816D90618
S1134B602CF41C1904C04424439401C010E097FEA3
S1134B7006C01C141D0434F4C601019605C085E06A
S1134B8090E002C081E090E001110196112331F020
S1134B90212F30E02F5F3F4F820F931F252D30E0F0
S1134BA08217930714F4581A01C0512C892D897067
S1134BB049F4552039F0B70180E290E00E94872A39
S1134BC05A94F7CF002329F0B701802F90E00E9478
S1134BD0872A93FC09C0552039F0B70180E390E09F
S1134BE00E94872A5A94F7CF97FE4CC04601D7FEFD
S1134BF002C0812C912CC60188199909F301E80F90
S1134C00F91FED87FE879601241931092F87388B08
S1134C10012F10E01195019511093FEF83169306BA
S1134C2029F4B7018EE290E00E94872AC814D904BF
S1134C304CF08F8598898815990524F4ED85FE85B7
S1134C40818101C080E3F1E08F1A91082D853E85B2
S1134C502F5F3F4F2D873E87801691062CF0B701BA
S1134C6090E00E94872AD9CFC814D90441F49A81CC
S1134C70963320F4953319F43C8534FF81E3B7016E
S1134C8090E04EC08A81813319F09C859F7E9C8779
S1134C90B70190E00E94872A111105C094FC18C046
S1134CA085E690E017C0B7018EE290E00E94872A63
S1134CB01E5F82E001E0080FF301E80FF11D80811F
S1134CC0B70190E00E94872A802F0113F3CFE6CF2B
S1134CD085E490E0B7010E94872AD7FC06C0C1147E
S1134CE0D10441F4EC85E4FF05C0D194C194D1080A
S1134CF08DE201C08BE2B70190E00E94872A80E335
S1134D002AE0C216D1042CF08F5FFAE0CF1AD10842
S1134D10F7CFB70190E00E94872AB701C601C09679
S1134D200E94872A54C1833631F0833779F0833562
S1134D3009F056C020C0560132E0A30EB11CF601A2
S1134D408081898301E010E0630112C05601F2E022
S1134D50AF0EB11CF601C080D18096FE03C0612F56
S1134D6070E002C06FEF7FEFC6010E947C2A8C01C5
S1134D70F92DFF7714C0560122E0A20EB11CF601F2
S1134D80C080D18096FE03C0612F70E002C06FEF37
S1134D907FEFC6010E94612A8C01F92DF0689F2ED5
S1134DA0F3FD1AC0852D90E008171907A8F4B70180
S1134DB080E290E00E94872A5A94F4CFF60197FC8F
S1134DC0859197FE81916F01B70190E00E94872A37
S1134DD051105A94015011090115110579F7F7C0C2
S1134DE0843611F0893661F5560197FE09C024E036
S1134DF0A20EB11CF60160817181828193810AC087
S1134E00F2E0AF0EB11CF60160817181072E000C37
S1134E10880B990BF92DFF769F2E97FF09C090956B
S1134E208095709561957F4F8F4F9F4FF0689F2EAF
S1134E302AE030E0A3010E94D72AC82EC6183FC03A
S1134E40092D853721F40F7E2AE030E01DC0097F4B
S1134E508F3691F018F4883559F0C3C0803719F0B3
S1134E60883711F0BEC0006104FF09C0046007C0A8
S1134E7094FE08C0066006C028E030E005C020E1CA
S1134E8030E002C020E132E0560107FF09C084E0AF
S1134E90A80EB11CF601608171818281938108C0E2
S1134EA0F2E0AF0EB11CF6016081718180E090E008
S1134EB0A3010E94D72AC82EC6180F77902E96FEFB
S1134EC00BC0092D0E7FC11650F494FE0AC092FC4B
S1134ED008C0092D0E7E05C0DC2C092D03C0DC2C76
S1134EE001C0D12E04FF0DC0FE01EC0DF11D808127
S1134EF0803311F4097E09C002FF06C0D394D39411
S1134F0004C0802F867809F0D39403FD11C000FFFC
S1134F1006C01C2DD51480F4150D1D190DC0D51413
S1134F2058F4B70180E290E00E94872AD394F7CF27
S1134F30D51410F45D1801C0512C04FF10C0B70142
S1134F4080E390E00E94872A02FF17C001FD03C09E
S1134F5088E790E002C088E590E0B7010CC0802F9C
S1134F60867859F001FF02C08BE201C080E207FDA0
S1134F708DE2B70190E00E94872AC11638F4B70188
S1134F8080E390E00E94872A1150F7CFCA94F3017E
S1134F90EC0DF11D8081B70190E00E94872AC110B9
S1134FA0F5CF15C0F4E0F51560F584E0581A93FECA
S1134FB01FC0011127C02C8523FF2AC008E212E07C
S1134FC0392D3071932EF8018491811124C055201C
S1134FD009F4E4CCB70180E290E00E94872A5A9455
S1134FE0F6CFF7018681978126C08FEF9FEF23C00C
S1134FF0B70180E290E00E94872A5A945110F8CFBA
S1135000D8CF512CB701802F90E00E94872AD3CFAC
S11350100CE212E0D5CF91108052B70190E00E94CB
S1135020872A0F5F1F4FCFCF23E0251510F483E0AD
S1135030BDCF512CC0CF6096CDBFDEBFDF91CF91E5
S11350401F910F91FF90EF90DF90CF90BF90AF90A2
S11350509F908F907F906F905F904F903F902F9094
S11350600895AA1BBB1B51E107C0AA1FBB1FA617AB
S1135070B70710F0A61BB70B881F991F5A95A9F7FD
S113508080959095BC01CD01089597FB072E16F4E9
S1135090009407D077FD09D00E94312807FC05D081
S11350A03EF4909581959F4F0895709561957F4F3B
S11350B00895A29FB001B39FC001A39F700D811DED
S11350C01124911DB29F700D811D1124911D08950D
S11350D00F931F93CF93DF938230910510F482E0F6
S11350E090E0E0916322F091642220E030E0A0E0BF
S11350F0B0E0309719F14081518102811381481742
S11351005907C8F08417950769F4109731F012967F
S11351100C93129713961C9327C000936322109349
S1135120642222C02115310519F04217530718F4DF
S11351309A01BD01EF01DF01F801DBCF2115310533
S1135140F9F0281B390B2430310580F48A819B81C6
S11351506115710521F0FB018283938304C0809360
S1135160632290936422FE01329644C0FE01E20F52
S1135170F31F8193919322503109288339833AC0D4
S11351802091612230916222232B41F4209102204C
S113519030910320209361223093622220910020D9
S11351A0309101202115310541F42DB73EB74091CE
S11351B0042050910520241B350BE0916122F091CD
S11351C06222E217F307A0F42E1B3F0B28173907BE
S11351D078F0AC014E5F5F4F2417350748F04E0F4F
S11351E05F1F40936122509362228193919302C086
S11351F0E0E0F0E0CF01DF91CF911F910F9108958E
S1135200CF93DF93009709F481C0FC013297128297
S11352101382A0916322B0916422109781F42081BB
S11352203181820F931F20916122309162222817CD
S1135230390751F5E0936122F093622267C0ED01D2
S113524020E030E0CE17DF0740F44A815B819E0105
S113525041155105F1F0EA01F5CFC283D3834081B2
S11352605181840F951FC817D90759F488819981F2
S1135270840F951F0296808391838A819B81828308
S113528093832115310529F4E0936322F09364227A
S11352903DC0E901EA83FB8349915991C40FD51FAD
S11352A0EC17FD0761F480819181840F951F0296AC
S11352B0E90188839983828193818A839B83E0E0D7
S11352C0F0E012968D919C911397009719F0FD01CF
S11352D0DC01F7CF8D919C9111979D012E5F3F4F7B
S11352E0820F931F2091612230916222281739077F
S11352F069F4309729F4109263221092642202C058
S113530012821382A0936122B0936222DF91CF9123
S11353100895283008F027E03327DA01990F311D6A
S113532087FD916000966105710539F432602E5F46
S11353303D9330E32A95E1F708959F3F30F080389C
S11353407105610509F03C5F3C5F3D93913008F0C5
S11353508068911DDF93CF931F930F93FF92EF9279
S1135360192F987F9695E92F96959695E90FFF2723
S1135370E657FD4F99273327EE24FF24A701E701C1
S113538005900894079428F4360FE71EF81E491F69
S1135390511D660F771F881F991F0694A1F705906A
S11353A0079428F4E70EF81E491F561FC11D770FF6
S11353B0881F991F661F0694A1F70590079428F487
S11353C0F80E491F561FC71FD11D880F991F661F4E
S11353D0771F0694A1F70590079420F4490F561FF0
S11353E0C71FD81F990F661F771F881F0694A9F738
S11353F084911095177041F0D695C79557954795A8
S1135400F794E7941A95C1F7E0E3F2E068941590F5
S1135410159135916591959105907FE27395E11809
S1135420F10A430B560BC90BD009C0F7E10CF11E6E
S1135430431F561FC91FD01D7EF4703311F48A9583
S1135440E6CFE894015030F0080F0AF40027021761
S113545008F4202F2395022F7A3328F079E37D93E3
S11354602A95E9F710C07D932A9589F606949795B5
S11354706795379517951794E118F10A430B560B66
S1135480C90BD00998F023957E9173957A3308F06F
S113549070E37C932013B8F77E9170617D9330F0B4
S11354A0839571E37D9370E32A95E1F71124EF90DE
S11354B0FF900F911F91CF91DF91992787FD9095D0
S11354C00895FC010590615070400110D8F7809553
S11354D090958E0F9F1F0895FB01DC0102C001907F
S11354E00D9241505040D8F70895DC0101C06D93EE
S11354F041505040E0F70895FC0161507040019024
S11355000110D8F7809590958E0F9F1F08950F93E3
S11355101F93CF93DF93FB01238121FD03C08FEF02
S11355209FEF2CC022FF16C046815781248135810C
S11355304217530744F4A081B1819D012F5F3F4F6F
S1135540208331838C93268137812F5F3F4F2683BD
S1135550378314C08B01EC01FB010084F185E02D3D
S11355601995892BE1F6D80116968D919C91179780
S1135570019616968D939C931797CE01DF91CF9148
S11355801F910F910895CF93DF93CDB7DEB7AE018E
S11355904A5F5F4FFA0161917191AF018091672277
S11355A0909168220E949124DF91CF910895FA018D
S11355B0AA27283051F1203181F1E8946F936E7F4E
S11355C06E5F7F4F8F4F9F4FAF4FB1E03ED0B4E03F
S11355D03CD0670F781F891F9A1FA11D680F791F80
S11355E08A1F911DA11D6A0F711D811D911DA11D91
S11355F020D009F468943F912AE0269F11243019A1
S1135600305D3193DEF6CF010895462F4770405D3B
S11356104193B3E00FD0C9F7F6CF462F4F70405DEA
S11356204A3318F0495D31FD4052419302D0A9F745
S1135630EACFB4E0A6959795879577956795BA953F
S1135640C9F700976105710508959B01AC010A2E05
S113565006945795479537952795BA95C9F7620FDC
S1115660731F841F951FA01D0895F894FFCF9B
S113566E00006B22200000000003000000009508DB
S113567E7F080000FF3F41445053393936302049EA
S113568E4420726561646261636B206661696C3A81
S113569E20256420726561640D0A002E2E2F44723B
S11356AE69766572732F447269766572416470739C
S11356BE393936302E6300494E54455252555054A2
S11356CE2100526573756C7420666F722061646478
S11356DE722025783A25640D0A002E2E2F46726507
S11356EE6552544F532F71756575652E63002E2EBA
S11356FE2F4672656552544F532F7461736B732E1C
S113570E630049444C45000925630925750925752F
S113571E0925750D0A0009256C750909256C752571
S113572E250D0A0009256C7509093C3125250D0A3C
S113573E004552524F523A206D656D6F7279206159
S113574E6C6C6F636174696F6E206661696C6564FD
S113575E0D0A00535441434B206F766572666C6F8D
S113576E7720696E207461736B20004173736572C8
S113577E7420696E2066696C6520002C206C696E3D
S113578E65206E722000414443004C466469726584
S113579E6374004C465370656564006D6F74696F75
S11357AE6E006D6F74706F73006D6F747370640040
S11357BE504F5254463A2025640D00736C7000739A
S10B57CE74617274757000002F
S9030000FC
