S01800004C696E65626F7454656D706C617465312E73726563D2
S11300000C9483010C94A4010C9411030C947903B3
S11300100C94A4010C94A4010C94A4010C94A401C8
S11300200C94A4010C94A4010C94A4010C94A401B8
S11300300C94A4010C94A4010C94A4010C94A401A8
S11300400C94A4010C94A4010C94A4010C94A40198
S11300500C94A4010C94A4010C94A4010C94A40188
S11300600C94A4010C94A4010C94A4010C94A40178
S11300700C94A4010C94A4010C94A4010C94A40168
S11300800C94A4010C94A4010C94A4010C94A40158
S11300900C94A4010C94A4010C94A4010C94A40148
S11300A00C94A4010C94A4010C94A4010C94E103F9
S11300B00C9449040C94A4010C9444060C94A401DB
S11300C00C94A4010C94A4010C94A4010C94A40118
S11300D00C94A4010C94A4010C94A4010C94A40108
S11300E00C94A4010C94A4010C94A4010C94A401F8
S11300F00C94A4010C94A4010C94A4010C94A401E8
S11301000C94A4010C94A4010C94A4010C94A401D7
S11301100C94A4010C94A4010C94A4010C94A401C7
S11301200C94A4010C94A4010C94A4010C94A401B7
S11301300C94A4010C94A4010C94A4010C94A401A7
S11301400C94A4010C94A4010C94A4010C94A40197
S11301500C94A4010C94A4010C94A4010C94A40187
S11301600C94A4010C94A4010C94A4010C94A40177
S11301700C94A4010C94A4010C94A4010C94A40167
S11301800C94A4010C94A4010C94A4010C94A40157
S11301900C94A4010C94A4010C94A4010C94A40147
S11301A00C94A4010C94A4010C94A4010C94A40137
S11301B00C94A4010C94A4010C94A4010C94A40127
S11301C00C94A4010C94A4010C94A4010C94A40117
S11301D00C94A4010C94A4010C94A4010C94A40107
S11301E00C94A4010C94A4010C94A4010C94A401F7
S11301F00C94A4010C94A4010C94A4010C94FD0689
S11302000C94D8066E616E00696E660000407A1028
S1130210F35A00A0724E18090010A5D4E80000E8B3
S11302207648170000E40B54020000CA9A3B000011
S113023000E1F505000080969800000040420F00A0
S11302400000A08601000000102700000000E80361
S1130250000000006400000000000A00000000002C
S11302600100000000002C76D888DC674F0823DFEB
S1130270C1DFAE59E1B1B796E5E3E453C63AE651BE
S1130280997696E8E6C28426EB898C9B62ED407CE5
S11302906FFCEFBC9C9F40F2BAA56FA5F490055A81
S11302A02AF75C936B6CF9676DC11BFCE0E40D47A6
S11302B0FEF520E6B500D0ED902E030094357705C9
S11302C00080841E080000204E0A000000C80C3381
S11302D03333330F986E12831141EF8D2114893B10
S11302E0E65516CFFEE6DB18D1844B381BF77C1D90
S11302F0901DA4BBE424203284725E228100C9F1E3
S113030024ECA1E53D2711241FBECFEFCDBFDFE9CB
S1130310DEBF00E00CBF10E2A0E0B0E2EEE3FDE1DE
S113032000E00BBF02C007900D92A433B107D9F7C8
S113033020E2A4E3B0E201C01D92A934B207E1F7C0
S11303400E9417070C949D0E0C940000CF93DF932A
S1130350CDB7DEB70000DF91CF9108950F93CF930F
S1130360DF9300D0CDB7DEB780E88A8381E08B834A
S1130370CE01029642E0BC0189E30E94EF04898326
S113038082E98A839E012E5F3F4FCE01029601E0EF
S113039041E0BC0189E30E940E0589838A818B3A7E
S11303A099F08A81882F90E0292F2F938F938FE0E3
S11303B090E2892F8F938FE090E28F930E942B0E0F
S11303C00F900F900F900F9081E88A838BED8B83B1
S11303D0CE01029642E0BC0189E30E94EF048983C6
S11303E08FE88A8383E08B83CE01029642E0BC01CE
S11303F089E30E94EF04898300002396CDBFDEBF0A
S1130400DF91CF910F910895CF93DF93CDB7DEB7EE
S11304100000DF91CF910895CF93DF93CDB7DEB77E
S113042080E296E027E0FC01218380E296E028E563
S1130430FC01208B80E296E028E5FC01218B80E220
S113044096E028E5FC01228B80E096E020E8FC01A0
S1130450218380E096E028E5FC01278B0000DF91F2
S1130460CF910895CF93DF931F92CDB7DEB78983E1
S113047080E296E029812770FC01248380E096E0E5
S1130480298128702295207FFC01248300000F908D
S1130490DF91CF910895CF93DF93CDB7DEB780EA94
S11304A096E02FE3FC01218380EA96E028E5FC0135
S11304B0258B80EA96E028E5FC01248B80EA96E00F
S11304C020E1FC01238B80EA96E020E1FC01228BF1
S11304D080EA96E020E1FC01218B80EA96E020E1AD
S11304E0FC01208B80E09BE024E0FC01208380E081
S11304F09BE023EFFC01218380E09BE02FEF3FE0B2
S1130500FC0126A337A380E496E025E0FC012187C3
S113051080E496E020E8FC01228780E496E020E471
S1130520FC01238780E496E0FC01178A80E496E0CE
S1130530FC01168A80E896E025E0FC01218780E82A
S113054096E020E8FC01228780E896E020E4FC01A4
S1130550238780E896E0FC01178A80E896E0FC0196
S1130560168A80EA90E027E8FC0122838FE390E07A
S113057020E8FC0120830000DF91CF910895CF9300
S1130580DF9300D01F92CDB7DEB789839A836B8344
S11305907C8389819A81992384F480E09BE029817A
S11305A03A81319521953109FC0120A731A780E0DA
S11305B09BE0FC0112A613A60CC080E09BE0FC01AA
S11305C010A611A680E09BE029813A81FC0122A7B4
S11305D033A78B819C81181619066CF480E09BE08C
S11305E02B813C81FC0124A735A780E09BE0FC0122
S11305F016A617A60FC080E09BE0FC0114A615A662
S113060080E09BE02B813C81319521953109FC01EF
S113061026A737A700002496CDBFDEBFDF91CF9178
S113062008951F920F9200903F000F9211240090A2
S11306303B000F928F939F93EF93FF93CF93DF939E
S11306401F92CDB7DEB780E496E0FC0180858295E9
S113065086958695837089838981882F90E081703F
S11306609927892BD9F08981882F90E08270992766
S1130670892B51F080913F209091402001978093E5
S11306803F209093402024C080913F2090914020AF
S1130690019680933F20909340201AC08981882F2F
S11306A090E082709927892B51F080913F2090919E
S11306B04020019680933F209093402009C0809170
S11306C03F2090914020019780933F2090934020B9
S11306D000000F90DF91CF91FF91EF919F918F9147
S11306E00F9000923B000F9000923F000F901F90DC
S11306F018951F920F9200903F000F9211240090C2
S11307003B000F928F939F93EF93FF93CF93DF93CD
S11307101F92CDB7DEB780E496E0FC018085829518
S113072086958695837089838981882F90E082706D
S11307309927892BD9F08981882F90E08170992796
S1130740892B51F080913F20909140200196809315
S11307503F209093402024C080913F2090914020DE
S1130760019780933F20909340201AC08981882F5D
S113077090E082709927892B51F080913F209091CD
S11307804020019780933F209093402009C080919E
S11307903F2090914020019680933F2090934020E9
S11307A000000F90DF91CF91FF91EF919F918F9176
S11307B00F9000923B000F9000923F000F901F900B
S11307C018951F920F9200903F000F9211240090F1
S11307D03B000F928F939F93EF93FF93CF93DF93FD
S11307E01F92CDB7DEB780E896E0FC018085829544
S11307F086958695837089838981882F90E081709E
S11308009927892BD9F08981882F90E082709927C4
S1130810892B51F08091412090914220019780933F
S113082041209093422024C0809141209091422005
S1130830019680934120909342201AC08981882F89
S113084090E082709927892B51F0809141209091FA
S113085042200196809341209093422009C08091C8
S1130860412090914220019780934120909342200F
S113087000000F90DF91CF91FF91EF919F918F91A5
S11308800F9000923B000F9000923F000F901F903A
S113089018951F920F9200903F000F921124009020
S11308A03B000F928F939F93EF93FF93CF93DF932C
S11308B01F92CDB7DEB780E896E0FC018085829573
S11308C086958695837089838981882F90E08270CC
S11308D09927892BD9F08981882F90E081709927F5
S11308E0892B51F080914120909142200196809370
S11308F041209093422024C0809141209091422035
S1130900019780934120909342201AC08981882FB7
S113091090E082709927892B51F080914120909129
S113092042200197809341209093422009C08091F6
S1130930412090914220019680934120909342203F
S113094000000F90DF91CF91FF91EF919F918F91D4
S11309500F9000923B000F9000923F000F901F9069
S113096018958BEC8093520088E08093500080911E
S1130970510083FFFCCF82EC8093550088E1809383
S113098050008091510084FFFCCF88ED84BF84E047
S11309908093400080E00895CF93DF93CDB7DEB716
S11309A010923D2080E896E028E1FC01208B80E84D
S11309B096E028E1FC01218B80EA94E028E7FC0121
S11309C0218380EA94E023E2FC01258380EA94E019
S11309D021E0FC0124830000DF91CF9108950F935F
S11309E0CF93DF93CDB7DEB72597CDBFDEBF8A8324
S11309F06B837C834D838B819C8100E020E030E01D
S1130A004D81BC018A810E940E05898389812596C6
S1130A10CDBFDEBFDF91CF910F9108950F93CF9398
S1130A20DF93CDB7DEB72997CDBFDEBF8B836C8351
S1130A307D834E832F83388709878C819D818093A2
S1130A403520909336208F8198858093372090931A
S1130A50382080913D208823B9F581E080933D20A2
S1130A6010923E208B81880F809334208E81809356
S1130A703920898580933A2010923B2010923C20A3
S1130A8080913920882351F0809134208E7F89838E
S1130A9080EA94E02981FC01268310C080913A20E9
S1130AA0882361F08091342081608A8380EA94E015
S1130AB02A81FC01268302C081E008C000008091E5
S1130AC03D208823C9F702C080E000C02996CDBF2D
S1130AD0DEBFDF91CF910F910895CF93DF931F92E3
S1130AE0CDB7DEB780EA94E0FC01848189838981F3
S1130AF0882F90E084709927892B21F084E08093DB
S1130B003E2003C083E080933E2080EA94E0298164
S1130B102860FC01248310923D2000000F90DF9197
S1130B20CF910895CF93DF9300D01F92CDB7DEB756
S1130B3080913920898380913A208A8380EA94E0E5
S1130B40FC018481882F90E080719927892B59F0CA
S1130B5080EA94E023E0FC01238385E080933E2037
S1130B6010923D2034C090913B2089819817C0F4A5
S1130B70209135203091362080913B20882F90E0C1
S1130B80820F931FFC0180818B8380EA94E02B8188
S1130B90FC01278380913B208F5F80933B2017C00B
S1130BA090913C208A81981750F480913420816080
S1130BB08C8380EA94E02C81FC01268308C080EABF
S1130BC094E023E0FC01238381E00E9434060000CA
S1130BD02496CDBFDEBFDF91CF910895CF93DF93ED
S1130BE01F921F92CDB7DEB780913C208032C0F4B3
S1130BF080EA94E0FC018781898320913720309139
S1130C00382080913C20882F90E0820F931F298107
S1130C10FC01208380913C208F5F80933C2008C09E
S1130C2080EA94E023E0FC01238382E00E943406FE
S1130C3080913A208A8390913C208A81981730F4DD
S1130C4080EA94E022E0FC01238308C080EA94E077
S1130C5027E0FC01238381E00E94340600000F900A
S1130C600F90DF91CF910895CF93DF931F92CDB76B
S1130C70DEB78983898180933E2010923D20000055
S1130C800F90DF91CF9108951F920F9200903F0033
S1130C900F92112400903B000F922F933F934F9398
S1130CA05F936F937F938F939F93AF93BF93EF93D0
S1130CB0FF93CF93DF931F92CDB7DEB780EA94E022
S1130CC0FC01848189838981882F90E08870992729
S1130CD0892B39F48981882F90E084709927892B96
S1130CE019F00E946D0513C08981882F90E08074EB
S1130CF09927892B19F00E94920509C089818823BC
S1130D001CF40E94EE0503C086E00E943406809124
S1130D103D2000000F90DF91CF91FF91EF91BF91A3
S1130D20AF919F918F917F916F915F914F913F917F
S1130D302F910F9000923B000F9000923F000F9074
S1130D401F901895CF93DF93CDB7DEB780E896E078
S1130D5028E0FC01218380E896E024E0FC01228362
S1130D6080EA9AE0FC01138280EA9AE028E1FC011F
S1130D70248380EA9AE023E0FC01258380EA9AE058
S1130D8025EEFC01268380EA9AE02CEBFC01278304
S1130D9080E090E2809345209093462080E090E2AA
S1130DA080934320909344200000DF91CF910895D5
S1130DB0CF93DF9300D0CDB7DEB789836A837B837B
S1130DC080EA9AE02981FC012083000080EA9AE00D
S1130DD0FC018181882F90E080749927892BB1F3DD
S1130DE080EA9AE020E4FC01218380E090E02396ED
S1130DF0CDBFDEBFDF91CF910895CF93DF931F92D4
S1130E001F92CDB7DEB789839A83000080EA9AE007
S1130E10FC0181818823D4F780EA9AE0FC01808177
S1130E20882F90E00F900F90DF91CF910895CF938A
S1130E30DF93CDB7DEB76C97CDBFDEBF0E94B104A0
S1130E400E94A2060E94CC040E9404020E940C028A
S1130E500E9453090E94A6010E944B020E94AE0107
S1130E6081E00E94570980E090E0AAEFB3E48D830B
S1130E709E83AF83B88720E030E04AEF55E46D816C
S1130E807E818F8198850E94BE08DC01CB01898711
S1130E909A87AB87BC8720E030E040E85FE3698550
S1130EA07A858B859C850E94380888232CF481E000
S1130EB090E08D879E873FC020E03FEF4FE757E4E7
S1130EC069857A858B859C850E94B90818164CF52E
S1130ED020E030E040E251E46D817E818F8198858D
S1130EE00E94BE08DC01CB01BC01CD010E943D087B
S1130EF0DC01CB018D879E870FC080E293E08F8752
S1130F00988B8F8598890197F1F78F87988B8D85BA
S1130F109E8501978D879E878D859E85892B69F790
S1130F2014C069857A858B859C850E943D08DC0107
S1130F30CB018D879E878D859E85898B9A8B898928
S1130F409A890197F1F7898B9A8B6FEF7FE08FEF86
S1130F509FE00E94BF0280910E200E943202809185
S1130F600E20880F80930E2080910E20882F90E011
S1130F708F709927892B49F460E070E080E090E05D
S1130F800E94BF0281E080930E2080E090E0AAEFEF
S1130F90B3E489839A83AB83BC8320E030E04AEFD7
S1130FA055E469817A818B819C810E94BE08DC01B1
S1130FB0CB018B8B9C8BAD8BBE8B20E030E040E86B
S1130FC05FE36B897C898D899E890E943808882318
S1130FD02CF481E090E08F8B988F3FC020E03FEFAE
S1130FE04FE757E46B897C898D899E890E94B908F3
S1130FF018164CF520E030E040E251E469817A8132
S11310008B819C810E94BE08DC01CB01BC01CD0117
S11310100E943D08DC01CB018F8B988F0FC080E2CA
S113102093E0898F9A8F898D9A8D0197F1F7898F33
S11310309A8F8F89988D01978F8B988F8F89988D30
S1131040892B69F714C06B897C898D899E890E94DC
S11310503D08DC01CB018F8B988F8F89988D8B8F06
S11310609C8F8B8D9C8D0197F1F78B8F9C8F73CF09
S11310700E946C0808F481E008950E94980888F0A2
S11310809F5798F0B92F9927B751B0F0E1F0660F48
S1131090771F881F991F1AF0BA95C9F714C0B13089
S11310A091F00E94B208B1E008950C94B208672F41
S11310B0782F8827B85F39F0B93FCCF386957795B8
S11310C06795B395D9F73EF49095809570956195A1
S11310D07F4F8F4F9F4F0895990F0008550FAA0B0C
S11310E0E0E8FEEF16161706E807F907C0F0121637
S11310F01306E407F50798F0621B730B840B950B3A
S113110039F40A2661F0232B242B252B21F408958E
S11311100A2609F4A140A6958FEF811D811D08952B
S113112057FD9058440F551F59F05F3F71F0479594
S1131130880F97FB991F61F09F3F79F08795089579
S1131140121613061406551FF2CF4695F1DF08C098
S1131150161617061806991FF1CF869571056105B5
S113116008940895E894BB2766277727CB0197F95D
S113117008950E946C0808F48FEF08950E94D10826
S11311800C9442090E94340938F00E943B0920F073
S1131190952311F00C942B090C94310911240C940F
S11311A0B3080E94900870F3959FC1F3950F50E027
S11311B0551F629FF001729FBB27F00DB11D639F05
S11311C0AA27F00DB11DAA1F649F6627B00DA11DAB
S11311D0661F829F2227B00DA11D621F739FB00D51
S11311E0A11D621F839FA00D611D221F749F3327C1
S11311F0A00D611D231F849F600D211D822F762F5A
S11312006A2F11249F5750409AF0F1F088234AF036
S1131210EE0FFF1FBB1F661F771F881F91505040A2
S1131220A9F79E3F510580F00C942B090C94B30848
S11312305F3FE4F3983ED4F3869577956795B79529
S1131240F795E7959F5FC1F7FE2B880F911D969543
S1131250879597F9089597F99F6780E870E060E0B3
S113126008959FEF80EC089500240A94161617063B
S113127018060906089500240A9412161306140683
S113128005060895092E0394000C11F4882352F0E6
S1131290BB0F40F4BF2B11F460FF04C06F5F7F4F9E
S11312A08F4F9F4F089580E28093410608958111E6
S11312B004C080E280934606089580E28093450648
S11312C008952F923F924F925F926F927F928F92E6
S11312D09F92AF92BF92CF92DF92EF92FF920F93C1
S11312E01F93CF93DF93CDB7DEB76097CDBFDEBF3B
S11312F07C011B016A01FC0116821782838181FF34
S113130044C39E012F5F3F4F3901F7019381F101DF
S113131093FD859193FF81911F01882309F431C3C3
S1131320853239F493FD859193FF81911F018532B4
S113133039F4B70190E00E94EF0D56016501E5CF45
S113134010E0512C912CFFE1F915D8F08B3279F093
S113135038F4803279F08332A1F4F92DF0612EC093
S11313608D3261F0803369F4292D21602DC0392D2F
S11313703260932E892D8460982E2AC0E92DE8606E
S113138015C097FC2DC020ED280F2A3088F496FE56
S113139006C03AE0139F200D1124122F19C08AE0D1
S11313A0589E200D1124522EE92DE0629E2E10C06D
S11313B08E3231F496FCE5C2F92DF0649F2E08C0FC
S11313C08C3621F4292D2068922E02C0883641F4EF
S11313D0F10193FD859193FF81911F018111B3CF99
S11313E09BEB980F933020F4992D9061805E07C099
S11313F09BE9980F933008F066C1992D9F7E96FF64
S113140016E09F73992E853619F49064992E08C0BE
S1131410863621F4392F3068932E02C011111150F1
S113142097FE07C01C3350F444244394410E27E034
S11314300BC0183038F027E017E005C027E09CE324
S1131440492E02C0212F412C560184E0A80EB11C64
S1131450F6016081718182819381042DA3010E9430
S1131460010D6C01F981FC87F0FF02C0F3FF06C097
S113147091FC06C092FE06C000E205C00DE203C066
S11314800BE201C000E08C858C7019F001115AC286
S11314909BC297FE10C04C0CFC85F4FF04C08A81EB
S11314A0813309F44A94141474F528E0241578F56A
S11314B088E0482E2CC096FC2AC0812F90E08C1521
S11314C09D059CF03CEFC3163FEFD30674F0892DC5
S11314D08068982E0AC0E2E0F0E0EC0FFD1FE10FF7
S11314E0F11D8081803319F411501111F4CF97FE4E
S11314F00EC044244394410E812F90E0C816D906AF
S11315002CF41C1904C04424439401C010E097FE39
S113151006C01C141D0434F4C601019605C085E000
S113152090E002C081E090E001110196112331F0B6
S1131530212F30E02F5F3F4F820F931F252D30E086
S11315408217930714F4581A01C0512C892D8970FD
S113155049F4552039F0B70180E290E00E94EF0D84
S11315605A94F7CF002329F0B701802F90E00E940E
S1131570EF0D93FC09C0552039F0B70180E390E0EA
S11315800E94EF0D5A94F7CF97FE4CC04601D7FE48
S113159002C0812C912CC60188199909F301E80F26
S11315A0F91FED87FE879601241931092F87388B9F
S11315B0012F10E01195019511093FEF8316930651
S11315C029F4B7018EE290E00E94EF0DC814D9040B
S11315D04CF08F8598898815990524F4ED85FE854E
S11315E0818101C080E3F1E08F1A91082D853E8549
S11315F02F5F3F4F2D873E87801691062CF0B70151
S113160090E00E94EF0DD9CFC814D90441F49A8117
S1131610963320F4953319F43C8534FF81E3B70104
S113162090E04EC08A81813319F09C859F7E9C870F
S1131630B70190E00E94EF0D111105C094FC18C091
S113164085E690E017C0B7018EE290E00E94EF0DAE
S11316501E5F82E001E0080FF301E80FF11D8081B5
S1131660B70190E00E94EF0D802F0113F3CFE6CF76
S113167085E490E0B7010E94EF0DD7FC06C0C114C9
S1131680D10441F4EC85E4FF05C0D194C194D108A0
S11316908DE201C08BE2B70190E00E94EF0D80E380
S11316A02AE0C216D1042CF08F5FFAE0CF1AD108D9
S11316B0F7CFB70190E00E94EF0DB701C601C096C5
S11316C00E94EF0D54C1833631F0833779F08335AE
S11316D009F056C020C0560132E0A30EB11CF60139
S11316E08081898301E010E0630112C05601F2E0B9
S11316F0AF0EB11CF601C080D18096FE03C0612FED
S113170070E002C06FEF7FEFC6010E94E40D8C0110
S1131710F92DFF7714C0560122E0A20EB11CF60188
S1131720C080D18096FE03C0612F70E002C06FEFCD
S11317307FEFC6010E94D90D8C01F92DF0689F2E10
S1131740F3FD1AC0852D90E008171907A8F4B70116
S113175080E290E00E94EF0D5A94F4CFF60197FCDA
S1131760859197FE81916F01B70190E00E94EF0D82
S113177051105A94015011090115110579F7F7C058
S1131780843611F0893661F5560197FE09C024E0CC
S1131790A20EB11CF60160817181828193810AC01D
S11317A0F2E0AF0EB11CF60160817181072E000CCE
S11317B0880B990BF92DFF769F2E97FF09C0909502
S11317C08095709561957F4F8F4F9F4FF0689F2E46
S11317D02AE030E0A3010E943F0EC82EC6183FC085
S11317E0092D853721F40F7E2AE030E01DC0097FE2
S11317F08F3691F018F4883559F0C3C0803719F04A
S1131800883711F0BEC0006104FF09C0046007C03E
S113181094FE08C0066006C028E030E005C020E160
S113182030E002C020E132E0560107FF09C084E045
S1131830A80EB11CF601608171818281938108C078
S1131840F2E0AF0EB11CF6016081718180E090E09E
S1131850A3010E943F0EC82EC6180F77902E96FE45
S11318600BC0092D0E7FC11650F494FE0AC092FCE1
S113187008C0092D0E7E05C0DC2C092D03C0DC2C0C
S113188001C0D12E04FF0DC0FE01EC0DF11D8081BD
S1131890803311F4097E09C002FF06C0D394D394A7
S11318A004C0802F867809F0D39403FD11C000FF93
S11318B006C01C2DD51480F4150D1D190DC0D514AA
S11318C058F4B70180E290E00E94EF0DD394F7CF73
S11318D0D51410F45D1801C0512C04FF10C0B701D9
S11318E080E390E00E94EF0D02FF17C001FD03C0EA
S11318F088E790E002C088E590E0B7010CC0802F33
S1131900867859F001FF02C08BE201C080E207FD36
S11319108DE2B70190E00E94EF0DC11638F4B701D3
S113192080E390E00E94EF0D1150F7CFCA94F301C9
S1131930EC0DF11D8081B70190E00E94EF0DC11004
S1131940F5CF15C0F4E0F51560F584E0581A93FE60
S11319501FC0011127C02C8523FF2AC004E012E018
S1131960392D3071932EF8018491811124C05520B2
S113197009F4E4CCB70180E290E00E94EF0D5A94A0
S1131980F6CFF7018681978126C08FEF9FEF23C0A2
S1131990B70180E290E00E94EF0D5A945110F8CF05
S11319A0D8CF512CB701802F90E00E94EF0DD3CFF8
S11319B008E012E0D5CF91108052B70190E00E9468
S11319C0EF0D0F5F1F4FCFCF23E0251510F483E0F9
S11319D0BDCF512CC0CF6096CDBFDEBFDF91CF917C
S11319E01F910F91FF90EF90DF90CF90BF90AF9039
S11319F09F908F907F906F905F904F903F902F902B
S1131A000895283008F027E03327DA01990F311DB3
S1131A1087FD916000966105710539F432602E5F8F
S1131A203D9330E32A95E1F708959F3F30F08038E5
S1131A307105610509F03C5F3C5F3D93913008F00E
S1131A408068911DDF93CF931F930F93FF92EF92C2
S1131A50192F987F9695E92F96959695E90FFF276C
S1131A60EA59FD4F99273327EE24FF24A701E70104
S1131A7005900894079428F4360FE71EF81E491FB2
S1131A80511D660F771F881F991F0694A1F70590B3
S1131A90079428F4E70EF81E491F561FC11D770F3F
S1131AA0881F991F661F0694A1F70590079428F4D0
S1131AB0F80E491F561FC71FD11D880F991F661F97
S1131AC0771F0694A1F70590079420F4490F561F39
S1131AD0C71FD81F990F661F771F881F0694A9F781
S1131AE084911095177041F0D695C79557954795F1
S1131AF0F794E7941A95C1F7ECE0F2E06894159036
S1131B00159135916591959105907FE27395E11852
S1131B10F10A430B560BC90BD009C0F7E10CF11EB7
S1131B20431F561FC91FD01D7EF4703311F48A95CC
S1131B30E6CFE894015030F0080F0AF400270217AA
S1131B4008F4202F2395022F7A3328F079E37D932C
S1131B502A95E9F710C07D932A9589F606949795FE
S1131B606795379517951794E118F10A430B560BAF
S1131B70C90BD00998F023957E9173957A3308F0B8
S1131B8070E37C932013B8F77E9170617D9330F0FD
S1131B90839571E37D9370E32A95E1F71124EF9027
S1131BA0FF900F911F91CF91DF91992787FD909519
S1131BB00895FC010590615070400110D8F780959C
S1131BC090958E0F9F1F0895FC0161507040019005
S1131BD00110D8F7809590958E0F9F1F08950F934D
S1131BE01F93CF93DF93FB01238121FD03C08FEF6C
S1131BF09FEF2CC022FF16C0468157812481358176
S1131C004217530744F4A081B1819D012F5F3F4FD8
S1131C10208331838C93268137812F5F3F4F268326
S1131C20378314C08B01EC01FB010084F185E02DA6
S1131C301995892BE1F6D80116968D919C911797E9
S1131C40019616968D939C931797CE01DF91CF91B1
S1131C501F910F910895CF93DF93CDB7DEB7AE01F7
S1131C604A5F5F4FFA0161917191AF018091452004
S1131C70909146200E946109DF91CF910895FA0165
S1131C80AA27283051F1203181F1E8946F936E7FB7
S1131C906E5F7F4F8F4F9F4FAF4FB1E03ED0B4E0A8
S1131CA03CD0670F781F891F9A1FA11D680F791FE9
S1131CB08A1F911DA11D6A0F711D811D911DA11DFA
S1131CC020D009F468943F912AE0269F112430190A
S1131CD0305D3193DEF6CF010895462F4770405DA5
S1131CE04193B3E00FD0C9F7F6CF462F4F70405D54
S1131CF04A3318F0495D31FD4052419302D0A9F7AF
S1131D00EACFB4E0A6959795879577956795BA95A8
S1131D10C9F700976105710508959B01AC010A2E6E
S1131D2006945795479537952795BA95C9F7620F45
S1111D30731F841F951FA01D0895F894FFCF04
S1131D3E0000000300000000D806FD06000001416B
S1131D4E44505339393630204944207265616462F7
S1131D5E61636B206661696C3A202564207265614B
S1071D6E640D0A00F2
S9030000FC
